{
  "address": "0x1Fc79E01fe724Ef4A1f8995f1299B90565a6AD39",
  "abi": [
    {
      "anonymous": false,
      "inputs": [
        {
          "indexed": true,
          "internalType": "bytes32",
          "name": "hash",
          "type": "bytes32"
        },
        {
          "indexed": false,
          "internalType": "address",
          "name": "registry",
          "type": "address"
        },
        {
          "indexed": true,
          "internalType": "address",
          "name": "maker",
          "type": "address"
        },
        {
          "indexed": false,
          "internalType": "address",
          "name": "staticTarget",
          "type": "address"
        },
        {
          "indexed": false,
          "internalType": "bytes4",
          "name": "staticSelector",
          "type": "bytes4"
        },
        {
          "indexed": false,
          "internalType": "bytes",
          "name": "staticExtradata",
          "type": "bytes"
        },
        {
          "indexed": false,
          "internalType": "uint256",
          "name": "maximumFill",
          "type": "uint256"
        },
        {
          "indexed": false,
          "internalType": "uint256",
          "name": "listingTime",
          "type": "uint256"
        },
        {
          "indexed": false,
          "internalType": "uint256",
          "name": "expirationTime",
          "type": "uint256"
        },
        {
          "indexed": false,
          "internalType": "uint256",
          "name": "salt",
          "type": "uint256"
        }
      ],
      "name": "OfferApproved",
      "type": "event"
    },
    {
      "anonymous": false,
      "inputs": [
        {
          "indexed": true,
          "internalType": "bytes32",
          "name": "hash",
          "type": "bytes32"
        },
        {
          "indexed": true,
          "internalType": "address",
          "name": "maker",
          "type": "address"
        },
        {
          "indexed": false,
          "internalType": "uint256",
          "name": "newFill",
          "type": "uint256"
        }
      ],
      "name": "OfferFillChanged",
      "type": "event"
    },
    {
      "anonymous": false,
      "inputs": [
        {
          "indexed": false,
          "internalType": "bytes32",
          "name": "hash",
          "type": "bytes32"
        },
        {
          "indexed": true,
          "internalType": "address",
          "name": "maker",
          "type": "address"
        },
        {
          "indexed": true,
          "internalType": "address",
          "name": "operator",
          "type": "address"
        },
        {
          "indexed": false,
          "internalType": "uint256",
          "name": "filledAmount",
          "type": "uint256"
        },
        {
          "indexed": false,
          "internalType": "uint256",
          "name": "newFill",
          "type": "uint256"
        }
      ],
      "name": "OfferFunded",
      "type": "event"
    },
    {
      "anonymous": false,
      "inputs": [
        {
          "indexed": true,
          "internalType": "bytes32",
          "name": "role",
          "type": "bytes32"
        },
        {
          "indexed": true,
          "internalType": "bytes32",
          "name": "previousAdminRole",
          "type": "bytes32"
        },
        {
          "indexed": true,
          "internalType": "bytes32",
          "name": "newAdminRole",
          "type": "bytes32"
        }
      ],
      "name": "RoleAdminChanged",
      "type": "event"
    },
    {
      "anonymous": false,
      "inputs": [
        {
          "indexed": true,
          "internalType": "bytes32",
          "name": "role",
          "type": "bytes32"
        },
        {
          "indexed": true,
          "internalType": "address",
          "name": "account",
          "type": "address"
        },
        {
          "indexed": true,
          "internalType": "address",
          "name": "sender",
          "type": "address"
        }
      ],
      "name": "RoleGranted",
      "type": "event"
    },
    {
      "anonymous": false,
      "inputs": [
        {
          "indexed": true,
          "internalType": "bytes32",
          "name": "role",
          "type": "bytes32"
        },
        {
          "indexed": true,
          "internalType": "address",
          "name": "account",
          "type": "address"
        },
        {
          "indexed": true,
          "internalType": "address",
          "name": "sender",
          "type": "address"
        }
      ],
      "name": "RoleRevoked",
      "type": "event"
    },
    {
      "inputs": [],
      "name": "DEFAULT_ADMIN_ROLE",
      "outputs": [
        {
          "internalType": "bytes32",
          "name": "",
          "type": "bytes32"
        }
      ],
      "stateMutability": "view",
      "type": "function"
    },
    {
      "inputs": [],
      "name": "GOVERNOR_ROLE",
      "outputs": [
        {
          "internalType": "bytes32",
          "name": "",
          "type": "bytes32"
        }
      ],
      "stateMutability": "view",
      "type": "function"
    },
    {
      "inputs": [
        {
          "internalType": "address",
          "name": "beneficiary",
          "type": "address"
        },
        {
          "internalType": "uint256[8]",
          "name": "fundingOptions",
          "type": "uint256[8]"
        },
        {
          "internalType": "address",
          "name": "registry",
          "type": "address"
        },
        {
          "internalType": "address",
          "name": "maker",
          "type": "address"
        },
        {
          "internalType": "address",
          "name": "staticTarget",
          "type": "address"
        },
        {
          "internalType": "bytes4",
          "name": "staticSelector",
          "type": "bytes4"
        },
        {
          "internalType": "bytes",
          "name": "staticExtradata",
          "type": "bytes"
        },
        {
          "internalType": "uint256",
          "name": "maximumFill",
          "type": "uint256"
        },
        {
          "internalType": "uint256",
          "name": "listingTime",
          "type": "uint256"
        },
        {
          "internalType": "uint256",
          "name": "expirationTime",
          "type": "uint256"
        },
        {
          "internalType": "uint256",
          "name": "salt",
          "type": "uint256"
        }
      ],
      "name": "approveOffer",
      "outputs": [],
      "stateMutability": "nonpayable",
      "type": "function"
    },
    {
      "inputs": [
        {
          "internalType": "bytes32",
          "name": "hash",
          "type": "bytes32"
        }
      ],
      "name": "approveOfferHash",
      "outputs": [],
      "stateMutability": "nonpayable",
      "type": "function"
    },
    {
      "inputs": [
        {
          "internalType": "address",
          "name": "",
          "type": "address"
        },
        {
          "internalType": "bytes32",
          "name": "",
          "type": "bytes32"
        }
      ],
      "name": "approved",
      "outputs": [
        {
          "internalType": "bool",
          "name": "",
          "type": "bool"
        }
      ],
      "stateMutability": "view",
      "type": "function"
    },
    {
      "inputs": [
        {
          "internalType": "address",
          "name": "",
          "type": "address"
        },
        {
          "internalType": "bytes32",
          "name": "",
          "type": "bytes32"
        }
      ],
      "name": "fills",
      "outputs": [
        {
          "internalType": "uint256",
          "name": "",
          "type": "uint256"
        }
      ],
      "stateMutability": "view",
      "type": "function"
    },
    {
      "inputs": [
        {
          "internalType": "uint256[8]",
          "name": "fundingOptions",
          "type": "uint256[8]"
        },
        {
          "internalType": "address[5]",
          "name": "addrs",
          "type": "address[5]"
        },
        {
          "internalType": "uint256[4]",
          "name": "uints",
          "type": "uint256[4]"
        },
        {
          "internalType": "bytes4",
          "name": "staticSelector",
          "type": "bytes4"
        },
        {
          "internalType": "bytes",
          "name": "staticExtradata",
          "type": "bytes"
        },
        {
          "internalType": "bytes",
          "name": "signature",
          "type": "bytes"
        },
        {
          "internalType": "enum AuthenticatedProxy.HowToCall",
          "name": "howToCall",
          "type": "uint8"
        },
        {
          "internalType": "bytes",
          "name": "data",
          "type": "bytes"
        }
      ],
      "name": "fundOffer",
      "outputs": [],
      "stateMutability": "payable",
      "type": "function"
    },
    {
      "inputs": [
        {
          "internalType": "address",
          "name": "maker",
          "type": "address"
        },
        {
          "internalType": "bytes32",
          "name": "hash",
          "type": "bytes32"
        },
        {
          "internalType": "uint256[8]",
          "name": "fundingOptions",
          "type": "uint256[8]"
        },
        {
          "internalType": "uint256",
          "name": "fillAmount",
          "type": "uint256"
        }
      ],
      "name": "getOfferFundingCost",
      "outputs": [
        {
          "internalType": "uint256",
          "name": "fundingCost",
          "type": "uint256"
        },
        {
          "internalType": "uint256",
          "name": "protocolFeeAmount",
          "type": "uint256"
        }
      ],
      "stateMutability": "view",
      "type": "function"
    },
    {
      "inputs": [
        {
          "internalType": "bytes32",
          "name": "role",
          "type": "bytes32"
        }
      ],
      "name": "getRoleAdmin",
      "outputs": [
        {
          "internalType": "bytes32",
          "name": "",
          "type": "bytes32"
        }
      ],
      "stateMutability": "view",
      "type": "function"
    },
    {
      "inputs": [
        {
          "internalType": "bytes32",
          "name": "role",
          "type": "bytes32"
        },
        {
          "internalType": "address",
          "name": "account",
          "type": "address"
        }
      ],
      "name": "grantRole",
      "outputs": [],
      "stateMutability": "nonpayable",
      "type": "function"
    },
    {
      "inputs": [
        {
          "internalType": "bytes32",
          "name": "role",
          "type": "bytes32"
        },
        {
          "internalType": "address",
          "name": "account",
          "type": "address"
        }
      ],
      "name": "hasRole",
      "outputs": [
        {
          "internalType": "bool",
          "name": "",
          "type": "bool"
        }
      ],
      "stateMutability": "view",
      "type": "function"
    },
    {
      "inputs": [
        {
          "internalType": "address",
          "name": "beneficiary",
          "type": "address"
        },
        {
          "internalType": "uint256[8]",
          "name": "fundingOptions",
          "type": "uint256[8]"
        },
        {
          "internalType": "address",
          "name": "registry",
          "type": "address"
        },
        {
          "internalType": "address",
          "name": "maker",
          "type": "address"
        },
        {
          "internalType": "address",
          "name": "staticTarget",
          "type": "address"
        },
        {
          "internalType": "bytes4",
          "name": "staticSelector",
          "type": "bytes4"
        },
        {
          "internalType": "bytes",
          "name": "staticExtradata",
          "type": "bytes"
        },
        {
          "internalType": "uint256",
          "name": "maximumFill",
          "type": "uint256"
        },
        {
          "internalType": "uint256",
          "name": "listingTime",
          "type": "uint256"
        },
        {
          "internalType": "uint256",
          "name": "expirationTime",
          "type": "uint256"
        },
        {
          "internalType": "uint256",
          "name": "salt",
          "type": "uint256"
        }
      ],
      "name": "hashOffer",
      "outputs": [
        {
          "internalType": "bytes32",
          "name": "hash",
          "type": "bytes32"
        }
      ],
      "stateMutability": "pure",
      "type": "function"
    },
    {
      "inputs": [
        {
          "internalType": "bytes32",
          "name": "orderHash",
          "type": "bytes32"
        }
      ],
      "name": "hashToSign",
      "outputs": [
        {
          "internalType": "bytes32",
          "name": "hash",
          "type": "bytes32"
        }
      ],
      "stateMutability": "view",
      "type": "function"
    },
    {
      "inputs": [
        {
          "internalType": "address[]",
          "name": "registryAddrs",
          "type": "address[]"
        },
        {
          "internalType": "address",
          "name": "treasury",
          "type": "address"
        },
        {
          "internalType": "address",
          "name": "funding",
          "type": "address"
        },
        {
          "internalType": "uint256",
          "name": "protocolFee",
          "type": "uint256"
        }
      ],
      "name": "initialize",
      "outputs": [],
      "stateMutability": "nonpayable",
      "type": "function"
    },
    {
      "inputs": [],
      "name": "name",
      "outputs": [
        {
          "internalType": "string",
          "name": "",
          "type": "string"
        }
      ],
      "stateMutability": "view",
      "type": "function"
    },
    {
      "inputs": [
        {
          "internalType": "address",
          "name": "",
          "type": "address"
        },
        {
          "internalType": "bytes32",
          "name": "",
          "type": "bytes32"
        }
      ],
      "name": "offerFundings",
      "outputs": [
        {
          "internalType": "uint256",
          "name": "",
          "type": "uint256"
        }
      ],
      "stateMutability": "view",
      "type": "function"
    },
    {
      "inputs": [
        {
          "internalType": "address",
          "name": "",
          "type": "address"
        }
      ],
      "name": "registries",
      "outputs": [
        {
          "internalType": "bool",
          "name": "",
          "type": "bool"
        }
      ],
      "stateMutability": "view",
      "type": "function"
    },
    {
      "inputs": [
        {
          "internalType": "bytes32",
          "name": "role",
          "type": "bytes32"
        },
        {
          "internalType": "address",
          "name": "account",
          "type": "address"
        }
      ],
      "name": "renounceRole",
      "outputs": [],
      "stateMutability": "nonpayable",
      "type": "function"
    },
    {
      "inputs": [
        {
          "internalType": "bytes32",
          "name": "role",
          "type": "bytes32"
        },
        {
          "internalType": "address",
          "name": "account",
          "type": "address"
        }
      ],
      "name": "revokeRole",
      "outputs": [],
      "stateMutability": "nonpayable",
      "type": "function"
    },
    {
      "inputs": [
        {
          "internalType": "address",
          "name": "newAddress",
          "type": "address"
        }
      ],
      "name": "setFunding",
      "outputs": [],
      "stateMutability": "nonpayable",
      "type": "function"
    },
    {
      "inputs": [
        {
          "internalType": "bytes32",
          "name": "hash",
          "type": "bytes32"
        },
        {
          "internalType": "uint256",
          "name": "fill",
          "type": "uint256"
        }
      ],
      "name": "setOfferFill",
      "outputs": [],
      "stateMutability": "nonpayable",
      "type": "function"
    },
    {
      "inputs": [
        {
          "internalType": "uint256",
          "name": "newValue",
          "type": "uint256"
        }
      ],
      "name": "setProtocolFee",
      "outputs": [],
      "stateMutability": "nonpayable",
      "type": "function"
    },
    {
      "inputs": [
        {
          "internalType": "address",
          "name": "newAddress",
          "type": "address"
        }
      ],
      "name": "setTreasury",
      "outputs": [],
      "stateMutability": "nonpayable",
      "type": "function"
    },
    {
      "inputs": [
        {
          "internalType": "bytes4",
          "name": "interfaceId",
          "type": "bytes4"
        }
      ],
      "name": "supportsInterface",
      "outputs": [
        {
          "internalType": "bool",
          "name": "",
          "type": "bool"
        }
      ],
      "stateMutability": "view",
      "type": "function"
    },
    {
      "inputs": [
        {
          "internalType": "bytes32",
          "name": "hash",
          "type": "bytes32"
        },
        {
          "internalType": "address",
          "name": "maker",
          "type": "address"
        },
        {
          "internalType": "bytes",
          "name": "signature",
          "type": "bytes"
        }
      ],
      "name": "validateOfferAuthorization",
      "outputs": [
        {
          "internalType": "bool",
          "name": "",
          "type": "bool"
        }
      ],
      "stateMutability": "view",
      "type": "function"
    },
    {
      "inputs": [
        {
          "internalType": "address",
          "name": "beneficiary",
          "type": "address"
        },
        {
          "internalType": "uint256[8]",
          "name": "fundingOptions",
          "type": "uint256[8]"
        },
        {
          "internalType": "address",
          "name": "registry",
          "type": "address"
        },
        {
          "internalType": "address",
          "name": "maker",
          "type": "address"
        },
        {
          "internalType": "address",
          "name": "staticTarget",
          "type": "address"
        },
        {
          "internalType": "bytes4",
          "name": "staticSelector",
          "type": "bytes4"
        },
        {
          "internalType": "bytes",
          "name": "staticExtradata",
          "type": "bytes"
        },
        {
          "internalType": "uint256",
          "name": "maximumFill",
          "type": "uint256"
        },
        {
          "internalType": "uint256",
          "name": "listingTime",
          "type": "uint256"
        },
        {
          "internalType": "uint256",
          "name": "expirationTime",
          "type": "uint256"
        },
        {
          "internalType": "uint256",
          "name": "salt",
          "type": "uint256"
        }
      ],
      "name": "validateOfferParameters",
      "outputs": [
        {
          "internalType": "bool",
          "name": "",
          "type": "bool"
        }
      ],
      "stateMutability": "view",
      "type": "function"
    },
    {
      "inputs": [],
      "name": "version",
      "outputs": [
        {
          "internalType": "string",
          "name": "",
          "type": "string"
        }
      ],
      "stateMutability": "view",
      "type": "function"
    }
  ],
  "transactionHash": "0x09ef61426db2c5cb773170184f912b72daac4c873ec0c10ee1f8c876a243addd",
  "args": [],
  "solcInputHash": "2d95abac8e50c5f9e04c30c90de607ff",
  "bytecode": "0x608060405234801561001057600080fd5b50614726806100206000396000f3fe60806040526004361061013c5760003560e01c806301ffc9a71461014157806306fdde03146101765780631fff53da146101bc57806321421c19146101dc578063248a9ca3146101fc5780632f2ff15d1461022a57806336568abe1461024c57806343e330401461026c57806350a42af11461028c5780635192174a146102ac57806354996a7c146102cc57806354fd4d50146102ec578063787dce3d1461031b5780637fad46f21461033b578063877cb8111461035b5780638ccff8671461039457806391d14854146103a7578063a217fddf146103c7578063caed80df146103dc578063ccc574901461040c578063d547741f1461042e578063f0f442601461044e578063f399a7221461046e578063fac7fc381461048e578063fc623ef8146104c9578063fcbecc63146104e9578063ffc2ab141461051e575b600080fd5b34801561014d57600080fd5b5061016161015c36600461413d565b610556565b60405190151581526020015b60405180910390f35b34801561018257600080fd5b506101af6040518060400160405280600d81526020016c466c6169722e46696e616e636560981b81525081565b60405161016d9190614415565b3480156101c857600080fd5b506101616101d73660046140c3565b61058f565b3480156101e857600080fd5b506101616101f7366004613d1e565b6105dd565b34801561020857600080fd5b5061021c61021736600461407c565b6106d7565b60405190815260200161016d565b34801561023657600080fd5b5061024a610245366004614094565b6106ed565b005b34801561025857600080fd5b5061024a610267366004614094565b610710565b34801561027857600080fd5b5061021c610287366004613d1e565b610793565b34801561029857600080fd5b5061024a6102a7366004613d1e565b61087f565b3480156102b857600080fd5b5061024a6102c736600461411c565b610966565b3480156102d857600080fd5b5061024a6102e736600461407c565b610970565b3480156102f857600080fd5b506101af60405180604001604052806003815260200162302e3160e81b81525081565b34801561032757600080fd5b5061024a61033636600461407c565b61097c565b34801561034757600080fd5b5061024a610356366004613e70565b6109b6565b34801561036757600080fd5b5061021c610376366004613dfd565b61020360209081526000928352604080842090915290825290205481565b61024a6103a2366004613f60565b610b1f565b3480156103b357600080fd5b506101616103c2366004614094565b610d44565b3480156103d357600080fd5b5061021c600081565b3480156103e857600080fd5b506101616103f7366004613ce6565b60996020526000908152604090205460ff1681565b34801561041857600080fd5b5061021c6000805160206146d183398151915281565b34801561043a57600080fd5b5061024a610449366004614094565b610d72565b34801561045a57600080fd5b5061024a610469366004613ce6565b610d8f565b34801561047a57600080fd5b5061024a610489366004613ce6565b610de6565b34801561049a57600080fd5b506101616104a9366004613dfd565b609b60209081526000928352604080842090915290825290205460ff1681565b3480156104d557600080fd5b5061021c6104e436600461407c565b610e3d565b3480156104f557600080fd5b50610509610504366004613e28565b610e48565b6040805192835260208301919091520161016d565b34801561052a57600080fd5b5061021c610539366004613dfd565b609a60209081526000928352604080842090915290825290205481565b60006001600160e01b03198216637965db0b60e01b148061058757506301ffc9a760e01b6001600160e01b03198316145b90505b919050565b60006105d2858585858080601f016020809104026020016040519081016040528093929190818152602001838380828437600092019190915250610ee792505050565b90505b949350505050565b6000806040518061016001604052808f6001600160a01b031681526020018e6008806020026040519081016040528092919082600860200280828437600092019190915250505081526001600160a01b03808f166020808401919091528e8216604080850191909152918e1660608401526001600160e01b03198d1660808401528151601f8c018290048202810182019092528a825260a0909201918b908b908190840183828082843760009201919091525050509082525060208101889052604081018790526060810186905260800184905290506106c5816106c0816110e7565b611217565b9e9d5050505050505050505050505050565b60009081526101ce602052604090206001015490565b6106f6826106d7565b61070181335b6112a2565b61070b8383611306565b505050565b6001600160a01b03811633146107855760405162461bcd60e51b815260206004820152602f60248201527f416363657373436f6e74726f6c3a2063616e206f6e6c792072656e6f756e636560448201526e103937b632b9903337b91039b2b63360891b60648201526084015b60405180910390fd5b61078f828261138d565b5050565b600061086e6040518061016001604052808f6001600160a01b031681526020018e6008806020026040519081016040528092919082600860200280828437600092019190915250505081526001600160a01b03808f166020808401919091528e8216604080850191909152918e1660608401526001600160e01b03198d1660808401528151601f8c018290048202810182019092528a825260a0909201918b908b90819084018382808284376000920191909152505050908252506020810188905260408101879052606081018690526080018490526110e7565b9d9c50505050505050505050505050565b6109586040518061016001604052808e6001600160a01b031681526020018d6008806020026040519081016040528092919082600860200280828437600092019190915250505081526001600160a01b03808e166020808401919091528d8216604080850191909152918d1660608401526001600160e01b03198c1660808401528151601f8b0182900482028101820190925289825260a0909201918a908a90819084018382808284376000920191909152505050908252506020810187905260408101869052606081018590526080018390526113f5565b505050505050505050505050565b61078f82826114d2565b6109798161157e565b50565b6109946000805160206146d1833981519152336103c2565b6109b05760405162461bcd60e51b815260040161077c90614428565b61020255565b600054610100900460ff16806109cf575060005460ff16155b6109eb5760405162461bcd60e51b815260040161077c9061445c565b600054610100900460ff16158015610a0d576000805461ffff19166101011790555b610a576040518060400160405280600d81526020016c466c6169722e46696e616e636560981b81525060405180604001604052806003815260200162302e3160e81b815250611609565b61020080546001600160a01b038087166001600160a01b03199283161790925561020180549286169290911691909117905561020282905560005b8551811015610b0557600160996000888481518110610ac157634e487b7160e01b600052603260045260246000fd5b6020908102919091018101516001600160a01b03168252810191909152604001600020805460ff191691151591909117905580610afd81614634565b915050610a92565b508015610b18576000805461ff00191690555b5050505050565b610d376040518061016001604052808c600060058110610b4f57634e487b7160e01b600052603260045260246000fd5b602002016020810190610b629190613ce6565b6001600160a01b031681526020018d600880602002604051908101604052809291908260086020028082843760009201919091525050508152602090810190610bb19060408f01908f01613ce6565b6001600160a01b03168152602001610bcf60608e0160408f01613ce6565b6001600160a01b03168152602001610bed60808e0160608f01613ce6565b6001600160a01b031681526020018a6001600160e01b031916815260200189898080601f0160208091040260200160405190810160405280939291908181526020018383808284376000920191909152505050908252508b356020808301919091528c01356040808301919091528c013560608201526080018b6003602002013590526040805160608101909152808d6004602002016020810190610c929190613ce6565b6001600160a01b03168152602001866001811115610cc057634e487b7160e01b600052602160045260246000fd5b815260200185858080601f0160208091040260200160405190810160405280939291908181526020018383808284376000920191909152505050915250604080516020601f8a0181900481028201810190925288815290899089908190840183828082843760009201919091525061169092505050565b5050505050505050505050565b60008281526101ce602090815260408083206001600160a01b038516845290915290205460ff165b92915050565b610d7b826106d7565b610d8581336106fc565b61070b838361138d565b610da76000805160206146d1833981519152336103c2565b610dc35760405162461bcd60e51b815260040161077c90614428565b61020080546001600160a01b0319166001600160a01b0392909216919091179055565b610dfe6000805160206146d1833981519152336103c2565b610e1a5760405162461bcd60e51b815260040161077c90614428565b61020180546001600160a01b0319166001600160a01b0392909216919091179055565b6000610587826119aa565b6001600160a01b0384166000908152609a602090815260408083208684529091528120548190610ebe90610e809060a08701356144dc565b6001600160a01b0388166000908152610203602090815260408083208a8452909152902054610eb39060c08801356144dc565b60e0870135866119b5565b91506127106102025483610ed2919061454f565b610edc9190614519565b905094509492505050565b6001600160a01b0382166000908152609a6020908152604080832086845290915281205415610f18575060016110e0565b6001600160a01b0383166000908152609b6020908152604080832087845290915290205460ff1615610f4c575060016110e0565b6000610f57856119aa565b9050833b158015906110215760408051602080820185905282518083039091018152818301928390526320c13b0b60e01b928390526001600160a01b038816916320c13b0b91610fab9189906044016143f0565b60206040518083038186803b158015610fc357600080fd5b505afa158015610fd7573d6000803e3d6000fd5b505050506040513d601f19601f82011682018060405250810190610ffb9190614159565b6001600160e01b0319161415611016576001925050506110e0565b6000925050506110e0565b60008060008680602001905181019061103a9190614175565b92509250925060006001868585856040516000815260200160405260405161107e949392919093845260ff9290921660208401526040830152606082015260800190565b6020604051602081039080840390855afa1580156110a0573d6000803e3d6000fd5b505050602060405103519050886001600160a01b0316816001600160a01b031614156110d557600196505050505050506110e0565b600096505050505050505b9392505050565b60007f8ed62595e97f0b032d2e82b5fafe3c7d00cc81a3aa6ff17f94fc4a5a855de360826000015183602001516040516020016111249190614346565b604051602081830303815290604052805190602001208460400151856060015186608001518760a001518860c00151805190602001208960e001518a61010001518b61012001518c61014001516040516020016111fa9c9b9a999897969594939291909b8c526001600160a01b039a8b1660208d015260408c019990995296891660608b015294881660808a01529290961660a08801526001600160e01b03191660c087015260e08601949094526101008501939093526101208401929092526101408301919091526101608201526101800190565b604051602081830303815290604052805190602001209050919050565b600042836101000151118061124057506101208301511580159061124057504283610120015111155b1561124d57506000610d6c565b60e083015160608401516001600160a01b03166000908152609a602090815260408083208684529091529020541061128757506000610d6c565b60808301513b61129957506000610d6c565b50600192915050565b6112ac8282610d44565b61078f576112c4816001600160a01b03166014611b76565b6112cf836020611b76565b6040516020016112e0929190614243565b60408051601f198184030181529082905262461bcd60e51b825261077c91600401614415565b6113108282610d44565b61078f5760008281526101ce602090815260408083206001600160a01b03851684529091529020805460ff191660011790556113493390565b6001600160a01b0316816001600160a01b0316837f2f8788117e7eff1d82e926ec794901d17c78024a50270940304540a733656f0d60405160405180910390a45050565b6113978282610d44565b1561078f5760008281526101ce602090815260408083206001600160a01b0385168085529252808320805460ff1916905551339285917ff6391f5c32d9c69d2a47ea670b442974b53935d1edc7fd64eb21e047a839171b9190a45050565b60608101516001600160a01b031633146114415760405162461bcd60e51b815260206004820152600d60248201526c13d191915494cbd11153925151609a1b604482015260640161077c565b600061144c826110e7565b90506114578161157e565b81606001516001600160a01b0316817f91676636a3d7c5122b12ee04253dfeabcd5e6b4aed344b8eb5bdc18f3ed7dad2846040015185608001518660a001518760c001518860e001518961010001518a61012001518b61014001516040516114c69897969594939291906142b2565b60405180910390a35050565b336000908152609a602090815260408083208584529091529020548114156115315760405162461bcd60e51b815260206004820152601260248201527113d191915494cbd053149150511657d4d15560721b604482015260640161077c565b336000818152609a60209081526040808320868452825291829020849055905183815284917f0e847c9965d8cc4f9906e90cafbe22a94be7c6fc0d07629284df4d0d92c23ba791016114c6565b336000908152609b6020908152604080832084845290915290205460ff16156115e35760405162461bcd60e51b815260206004820152601760248201527613d191915494cbd053149150511657d054141493d59151604a1b604482015260640161077c565b336000908152609b6020908152604080832093835292905220805460ff19166001179055565b600054610100900460ff1680611622575060005460ff16155b61163e5760405162461bcd60e51b815260040161077c9061445c565b600054610100900460ff16158015611660576000805461ffff19166101011790555b61166a8383611d57565b611672611de1565b61167a611e51565b801561070b576000805461ff0019169055505050565b60008060006116a0868686611ebc565b9194509250905060006116b3838361459a565b9050600081116116fe5760405162461bcd60e51b8152602060048201526016602482015275119310525497d19253905390d14bd55391925313115160521b604482015260640161077c565b600061178284896020015160056008811061172957634e487b7160e01b600052603260045260246000fd5b602002015161173891906144dc565b60608a01516001600160a01b03166000908152610203602090815260408083208a8452825290912054908b015160c0015161177391906144dc565b60208b015160e00151856119b5565b60608901516001600160a01b03166000908152610203602090815260408083208984529091528120805492935083929091906117bf9084906144dc565b909155505061020254600090612710906117d9908461454f565b6117e39190614519565b90506117ef81836144dc565b341461183d5760405162461bcd60e51b815260206004820152601d60248201527f464c4149525f46494e414e43452f494e56414c49445f5041594d454e54000000604482015260640161077c565b61020054611854906001600160a01b031682612087565b5061020154885160208a01516040516000936001600160a01b03169285926118849288928c9286926024016144aa565b60408051601f198184030181529181526020820180516001600160e01b031663851f7c4b60e01b179052516118b99190614227565b60006040518083038185875af1925050503d80600081146118f6576040519150601f19603f3d011682016040523d82523d6000602084013e6118fb565b606091505b505090508061194c5760405162461bcd60e51b815260206004820152601f60248201527f464c4149525f46494e414e43452f494e564553544d454e545f4641494c454400604482015260640161077c565b606089810151604080518981526020810187905290810187905233926001600160a01b03909216917fceddde4c0c21b65d05c297969912b7e11bde7d56974e9a90935f7fb6eddc9f09910160405180910390a3505050505050505050565b60006105878261219d565b60008085116119fb5760405162461bcd60e51b81526020600482015260126024820152714552525f494e56414c49445f535550504c5960701b604482015260640161077c565b60008411611a495760405162461bcd60e51b815260206004820152601b60248201527a4552525f494e56414c49445f524553455256455f42414c414e434560281b604482015260640161077c565b60018363ffffffff16118015611a785750611a68620f4240600261456e565b63ffffffff168363ffffffff1611155b611ac05760405162461bcd60e51b81526020600482015260196024820152784552525f494e56414c49445f524553455256455f524154494f60381b604482015260640161077c565b81611acd575060006105d5565b63ffffffff8316620f42401415611b1157846001611aeb84876121eb565b611af5919061459a565b611aff9190614519565b611b0a9060016144dc565b90506105d5565b60008080611b1f88866121f7565b9050611b308189620f424089612203565b9093509150600060ff83166001611b478a876121eb565b611b51919061459a565b611b5d911c60016144dc565b9050611b69888261459a565b9998505050505050505050565b60606000611b8583600261454f565b611b909060026144dc565b6001600160401b03811115611bb557634e487b7160e01b600052604160045260246000fd5b6040519080825280601f01601f191660200182016040528015611bdf576020820181803683370190505b509050600360fc1b81600081518110611c0857634e487b7160e01b600052603260045260246000fd5b60200101906001600160f81b031916908160001a905350600f60fb1b81600181518110611c4557634e487b7160e01b600052603260045260246000fd5b60200101906001600160f81b031916908160001a9053506000611c6984600261454f565b611c749060016144dc565b90505b6001811115611d08576f181899199a1a9b1b9c1cb0b131b232b360811b85600f1660108110611cb657634e487b7160e01b600052603260045260246000fd5b1a60f81b828281518110611cda57634e487b7160e01b600052603260045260246000fd5b60200101906001600160f81b031916908160001a90535060049490941c93611d0181614600565b9050611c77565b5083156110e05760405162461bcd60e51b815260206004820181905260248201527f537472696e67733a20686578206c656e67746820696e73756666696369656e74604482015260640161077c565b600054610100900460ff1680611d70575060005460ff16155b611d8c5760405162461bcd60e51b815260040161077c9061445c565b600054610100900460ff16158015611dae576000805461ffff19166101011790555b8251602080850191909120835191840191909120606591909155606655801561070b576000805461ff0019169055505050565b600054610100900460ff1680611dfa575060005460ff16155b611e165760405162461bcd60e51b815260040161077c9061445c565b600054610100900460ff16158015611e38576000805461ffff19166101011790555b60016033558015610979576000805461ff001916905550565b600054610100900460ff1680611e6a575060005460ff16155b611e865760405162461bcd60e51b815260040161077c9061445c565b600054610100900460ff16158015611ea8576000805461ffff19166101011790555b8015610979576000805461ff001916905550565b600080600060026033541415611f145760405162461bcd60e51b815260206004820152601f60248201527f5265656e7472616e637947756172643a207265656e7472616e742063616c6c00604482015260640161077c565b6002603355611f22866110e7565b9250611f2e8684611217565b611f6b5760405162461bcd60e51b815260206004820152600e60248201526d13d191915494cbd253959053125160921b604482015260640161077c565b611f7a83876060015186610ee7565b611fbc5760405162461bcd60e51b815260206004820152601360248201527213d191915494cbd5539055551213d492569151606a1b604482015260640161077c565b611fcf86604001518760600151876122f0565b61200b5760405162461bcd60e51b815260206004820152600d60248201526c13d191915494cbd19052531151609a1b604482015260640161077c565b60608601516001600160a01b03166000908152609a6020908152604080832086845290915290205491506120428686333486612639565b90508181146120765760608601516001600160a01b03166000908152609a6020908152604080832086845290915290208190555b600160338190555093509350939050565b804710156120d75760405162461bcd60e51b815260206004820152601d60248201527f416464726573733a20696e73756666696369656e742062616c616e6365000000604482015260640161077c565b6000826001600160a01b03168260405160006040518083038185875af1925050503d8060008114612124576040519150601f19603f3d011682016040523d82523d6000602084013e612129565b606091505b505090508061070b5760405162461bcd60e51b815260206004820152603a60248201527f416464726573733a20756e61626c6520746f2073656e642076616c75652c20726044820152791958da5c1a595b9d081b585e481a185d99481c995d995c9d195960321b606482015260840161077c565b60006105876121aa612655565b8360405161190160f01b6020820152602281018390526042810182905260009060620160405160208183030381529060405280519060200120905092915050565b60006110e0828461454f565b60006110e082846144dc565b600080600160811b861061221657600080fd5b600080866122286001607f1b8a61454f565b6122329190614519565b905070015bf0a8b1457695355fb8ac404e7a79e381101561225d57612256816126d5565b9150612269565b61226681612c44565b91505b60008563ffffffff168763ffffffff1684612284919061454f565b61228e9190614519565b9050600160831b8110156122b3576122a581612d32565b607f945094505050506122e7565b60006122be8261335d565b90506122da6122ce82607f6145b1565b60ff1683901c8261343d565b955093506122e792505050565b94509492505050565b6001600160a01b03831660009081526099602052604081205460ff1661231557600080fd5b81513b6123615760405162461bcd60e51b815260206004820152601a60248201527910d85b1b081d185c99d95d08191bd95cc81b9bdd08195e1a5cdd60321b604482015260640161077c565b60405163c455279160e01b81526001600160a01b0384811660048301526000919086169063c455279190602401602060405180830381600087803b1580156123a857600080fd5b505af11580156123bc573d6000803e3d6000fd5b505050506040513d601f19601f820116820180604052508101906123e09190613d02565b90506001600160a01b0381166124485760405162461bcd60e51b815260206004820152602760248201527f44656c65676174652070726f787920646f6573206e6f7420657869737420666f604482015266391036b0b5b2b960c91b606482015260840161077c565b846001600160a01b03166397204d8e6040518163ffffffff1660e01b8152600401602060405180830381600087803b15801561248357600080fd5b505af1158015612497573d6000803e3d6000fd5b505050506040513d601f19601f820116820180604052508101906124bb9190613d02565b6001600160a01b0316816001600160a01b0316635c60da1b6040518163ffffffff1660e01b815260040160206040518083038186803b1580156124fd57600080fd5b505afa158015612511573d6000803e3d6000fd5b505050506040513d601f19601f820116820180604052508101906125359190613d02565b6001600160a01b0316146125a55760405162461bcd60e51b815260206004820152603160248201527f496e636f72726563742064656c65676174652070726f787920696d706c656d65604482015270373a30ba34b7b7103337b91036b0b5b2b960791b606482015260840161077c565b825160208401516040808601519051631b0f7ba960e01b815284936001600160a01b03851693631b0f7ba9936125dd93600401614317565b602060405180830381600087803b1580156125f757600080fd5b505af115801561260b573d6000803e3d6000fd5b505050506040513d601f19601f8201168201806040525081019061262f919061405c565b9695505050505050565b600061262f86608001516126508888888888613a9f565b613b7e565b60006126d07f8b73c3c69bb8fe3d512ecc4cf759cc79239f7b179b0ffacaa9a75d522b39400f61268460655490565b6066546040805160208101859052908101839052606081018290524660808201523060a082015260009060c0016040516020818303038152906040528051906020012090509392505050565b905090565b6000808080806fd3094c70f034de4b96ff7d5b6f99fcd8861061272e576127006001607e1b856144dc565b93506fd3094c70f034de4b96ff7d5b6f99fcd86127216001607f1b8861454f565b61272b9190614519565b95505b6fa45af1e1f40c333b3de1db4dd55f29a78610612781576127536001607d1b856144dc565b93506fa45af1e1f40c333b3de1db4dd55f29a76127746001607f1b8861454f565b61277e9190614519565b95505b6f910b022db7ae67ce76b441c27035c6a186106127d4576127a66001607c1b856144dc565b93506f910b022db7ae67ce76b441c27035c6a16127c76001607f1b8861454f565b6127d19190614519565b95505b6f88415abbe9a76bead8d00cf112e4d4a88610612827576127f96001607b1b856144dc565b93506f88415abbe9a76bead8d00cf112e4d4a861281a6001607f1b8861454f565b6128249190614519565b95505b6f84102b00893f64c705e841d5d4064bd3861061287a5761284c6001607a1b856144dc565b93506f84102b00893f64c705e841d5d4064bd361286d6001607f1b8861454f565b6128779190614519565b95505b6f8204055aaef1c8bd5c3259f4822735a286106128cd5761289f600160791b856144dc565b93506f8204055aaef1c8bd5c3259f4822735a26128c06001607f1b8861454f565b6128ca9190614519565b95505b6f810100ab00222d861931c15e39b44e998610612920576128f2600160781b856144dc565b93506f810100ab00222d861931c15e39b44e996129136001607f1b8861454f565b61291d9190614519565b95505b6f808040155aabbbe9451521693554f733861061297357612945600160771b856144dc565b93506f808040155aabbbe9451521693554f7336129666001607f1b8861454f565b6129709190614519565b95505b6129816001607f1b8761459a565b92508291506001607f1b612995838061454f565b61299f9190614519565b9050600160801b6129b0848261459a565b6129ba908461454f565b6129c49190614519565b6129ce90856144dc565b93506001607f1b6129df828461454f565b6129e99190614519565b9150600160811b612a0a846faaaaaaaaaaaaaaaaaaaaaaaaaaaaaaaa61459a565b612a14908461454f565b612a1e9190614519565b612a2890856144dc565b93506001607f1b612a39828461454f565b612a439190614519565b9150600360801b612a64846f9999999999999999999999999999999961459a565b612a6e908461454f565b612a789190614519565b612a8290856144dc565b93506001607f1b612a93828461454f565b612a9d9190614519565b9150600160821b612abe846f9249249249249249249249249249249261459a565b612ac8908461454f565b612ad29190614519565b612adc90856144dc565b93506001607f1b612aed828461454f565b612af79190614519565b9150600560801b612b18846f8e38e38e38e38e38e38e38e38e38e38e61459a565b612b22908461454f565b612b2c9190614519565b612b3690856144dc565b93506001607f1b612b47828461454f565b612b519190614519565b9150600360811b612b72846f8ba2e8ba2e8ba2e8ba2e8ba2e8ba2e8b61459a565b612b7c908461454f565b612b869190614519565b612b9090856144dc565b93506001607f1b612ba1828461454f565b612bab9190614519565b9150600760801b612bcc846f89d89d89d89d89d89d89d89d89d89d8961459a565b612bd6908461454f565b612be09190614519565b612bea90856144dc565b93506001607f1b612bfb828461454f565b612c059190614519565b9150600160831b612c26846f8888888888888888888888888888888861459a565b612c30908461454f565b612c3a9190614519565b61262f90856144dc565b600080600160801b8310612c88576000612c6a612c656001607f1b86614519565b613be2565b60ff811694851c94909150612c84906001607f1b9061454f565b9150505b6001607f1b831115612cfd57607f5b60ff811615612cfb576001607f1b612caf858061454f565b612cb99190614519565b9350600160801b8410612ceb57600193841c93612cd690826145b1565b60ff166001901b82612ce891906144dc565b91505b612cf481614617565b9050612c97565b505b6f05b9de1d10bf4103d647b0955897ba80612d286f03f80fe03f80fe03f80fe03f80fe03f88361454f565b6110e09190614519565b6000808080612d456001607c1b8661464f565b91508190506001607f1b612d59828061454f565b612d639190614519565b9050612d77816710e1b3be415a000061454f565b612d8190846144dc565b92506001607f1b612d92838361454f565b612d9c9190614519565b9050612db0816705a0913f6b1e000061454f565b612dba90846144dc565b92506001607f1b612dcb838361454f565b612dd59190614519565b9050612de981670168244fdac7800061454f565b612df390846144dc565b92506001607f1b612e04838361454f565b612e0e9190614519565b9050612e2181664807432bc1800061454f565b612e2b90846144dc565b92506001607f1b612e3c838361454f565b612e469190614519565b9050612e5981660c0135dca0400061454f565b612e6390846144dc565b92506001607f1b612e74838361454f565b612e7e9190614519565b9050612e91816601b707b1cdc00061454f565b612e9b90846144dc565b92506001607f1b612eac838361454f565b612eb69190614519565b9050612ec8816536e0f639b80061454f565b612ed290846144dc565b92506001607f1b612ee3838361454f565b612eed9190614519565b9050612eff81650618fee9f80061454f565b612f0990846144dc565b92506001607f1b612f1a838361454f565b612f249190614519565b9050612f3581649c197dcc0061454f565b612f3f90846144dc565b92506001607f1b612f50838361454f565b612f5a9190614519565b9050612f6b81640e30dce40061454f565b612f7590846144dc565b92506001607f1b612f86838361454f565b612f909190614519565b9050612fa18164012ebd130061454f565b612fab90846144dc565b92506001607f1b612fbc838361454f565b612fc69190614519565b9050612fd6816317499f0061454f565b612fe090846144dc565b92506001607f1b612ff1838361454f565b612ffb9190614519565b905061300b816301a9d48061454f565b61301590846144dc565b92506001607f1b613026838361454f565b6130309190614519565b905061303f81621c638061454f565b61304990846144dc565b92506001607f1b61305a838361454f565b6130649190614519565b9050613073816201c63861454f565b61307d90846144dc565b92506001607f1b61308e838361454f565b6130989190614519565b90506130a681611ab861454f565b6130b090846144dc565b92506001607f1b6130c1838361454f565b6130cb9190614519565b90506130d98161017c61454f565b6130e390846144dc565b92506001607f1b6130f4838361454f565b6130fe9190614519565b905061310b81601461454f565b61311590846144dc565b92506001607f1b613126838361454f565b6131309190614519565b905061313d81600161454f565b61314790846144dc565b92506001607f1b826131616721c3677c82b4000086614519565b61316b91906144dc565b61317591906144dc565b92506001607c1b8516156131bd5770018ebef9eac820ae8682b9793ac6d1e7766131b0847001c3d6a24ed82218787d624d3e5eba95f961454f565b6131ba9190614519565b92505b6001607d1b851615613203577001368b2fc6f9609fe7aceb46aa619baed46131f68470018ebef9eac820ae8682b9793ac6d1e77861454f565b6132009190614519565b92505b6001607e1b851615613248576fbc5ab1b16779be3575bd8f0520a9f21f61323b847001368b2fc6f9609fe7aceb46aa619baed561454f565b6132459190614519565b92505b6001607f1b85161561328c576f454aaa8efe072e7f6ddbab84b40a55c961327f846fbc5ab1b16779be3575bd8f0520a9f21e61454f565b6132899190614519565b92505b600160801b8516156132d0576f0960aadc109e7a3bf4578099615711ea6132c3846f454aaa8efe072e7f6ddbab84b40a55c561454f565b6132cd9190614519565b92505b600160811b851615613313576e2bf84208204f5977f9a8cf01fdce3d613306846f0960aadc109e7a3bf4578099615711d761454f565b6133109190614519565b92505b600160821b851615613354576d03c6ab775dd0b95b4cbee7e65d11613347846e2bf84208204f5977f9a8cf01fdc30761454f565b6133519190614519565b92505b50909392505050565b60006020607f5b60ff81166133738360016144f4565b60ff1610156133d4576000600261338a83856144f4565b613394919061452d565b905084609c8260ff16608081106133bb57634e487b7160e01b600052603260045260246000fd5b0154106133ca578092506133ce565b8091505b50613364565b83609c8260ff16608081106133f957634e487b7160e01b600052603260045260246000fd5b01541061340957915061058a9050565b83609c8360ff166080811061342e57634e487b7160e01b600052603260045260246000fd5b01541061013c5750905061058a565b6000828160ff841661344f838061454f565b901c915061346c826b0d10b13981d2a0bc5e5fdcab601e1b61454f565b61347690826144dc565b905060ff8416613486868461454f565b901c91506134a3826b045ae5bdd5f0e03eca1ff439601e1b61454f565b6134ad90826144dc565b905060ff84166134bd868461454f565b901c91506134da826e45ae5bdd5f0e03eca1ff439000000061454f565b6134e490826144dc565b905060ff84166134f4868461454f565b901c9150613510826adefabf91302cd95b9ffda5601c1b61454f565b61351a90826144dc565b905060ff841661352a868461454f565b901c9150613546826a4a53953065644873dfff37601b1b61454f565b61355090826144dc565b905060ff8416613560868461454f565b901c915061357c826d54f1cf12bd04e516b6da8800000061454f565b61358690826144dc565b905060ff8416613596868461454f565b901c91506135b2826d0a9e39e257a09ca2d6db5100000061454f565b6135bc90826144dc565b905060ff84166135cc868461454f565b901c91506135e8826d012e066e7b839fa050c30900000061454f565b6135f290826144dc565b905060ff8416613602868461454f565b901c915061361d826c1e33d7d926c329a1ad1a80000061454f565b61362790826144dc565b905060ff8416613637868461454f565b901c9150613652826c02bee513bdb4a6b19b5f80000061454f565b61365c90826144dc565b905060ff841661366c868461454f565b901c9150613686826b3a9316fa79b88eccf2a0000061454f565b61369090826144dc565b905060ff84166136a0868461454f565b901c91506136ba826b048177ebe1fa81237520000061454f565b6136c490826144dc565b905060ff84166136d4868461454f565b901c91506136ed826a5263fe90242dcbacf0000061454f565b6136f790826144dc565b905060ff8416613707868461454f565b901c9150613720826a057e22099c030d9410000061454f565b61372a90826144dc565b905060ff841661373a868461454f565b901c9150613752826957e22099c030d941000061454f565b61375c90826144dc565b905060ff841661376c868461454f565b901c91506137848269052b6b5456997631000061454f565b61378e90826144dc565b905060ff841661379e868461454f565b901c91506137b582684985f67696bf74800061454f565b6137bf90826144dc565b905060ff84166137cf868461454f565b901c91506137e6826803dea12ea99e49800061454f565b6137f090826144dc565b905060ff8416613800868461454f565b901c9150613816826731880f2214b6e00061454f565b61382090826144dc565b905060ff8416613830868461454f565b901c91506138468267025bcff56eb3600061454f565b61385090826144dc565b905060ff8416613860868461454f565b901c915061387582661b722e10ab100061454f565b61387f90826144dc565b905060ff841661388f868461454f565b901c91506138a4826601317c7007700061454f565b6138ae90826144dc565b905060ff84166138be868461454f565b901c91506138d282650cba84aafa0061454f565b6138dc90826144dc565b905060ff84166138ec868461454f565b901c91506138ff826482573a0a0061454f565b61390990826144dc565b905060ff8416613919868461454f565b901c915061392c826405035ad90061454f565b61393690826144dc565b905060ff8416613946868461454f565b901c915061395882632f881b0061454f565b61396290826144dc565b905060ff8416613972868461454f565b901c9150613984826301b2934061454f565b61398e90826144dc565b905060ff841661399e868461454f565b901c91506139af82620efc4061454f565b6139b990826144dc565b905060ff84166139c9868461454f565b901c91506139d982617fe061454f565b6139e390826144dc565b905060ff84166139f3868461454f565b901c9150613a038261042061454f565b613a0d90826144dc565b905060ff8416613a1d868461454f565b901c9150613a2c82602161454f565b613a3690826144dc565b905060ff8416613a46868461454f565b901c9150613a5582600161454f565b613a5f90826144dc565b9050600160ff85161b85613a826b0d10b13981d2a0bc5e5fdcab601f1b84614519565b613a8c91906144dc565b613a9691906144dc565b95945050505050565b6040805160a0808201835287516001600160a01b03908116835288840151811660208085019190915260608a81015183168587015289518316858201529188166080808601919091528551808501875288815260e08c0151818401526101008c0151818801526101208c015181850152908101879052928a015160c08b0151918a01518a870151965193969193613b3f9392879291879190602401614355565b60408051601f198184030181529190526020810180516001600160e01b03166001600160e01b0319909316929092179091529250505095945050505050565b60008060206040518181865160208801895afa925080519350505080613bdb5760405162461bcd60e51b815260206004820152601260248201527114dd185d1a58c818d85b1b0819985a5b195960721b604482015260640161077c565b5092915050565b600080610100831015613c15575b6001831115613c1057600192831c92613c0990826144f4565b9050613bf0565b610587565b60805b60ff811615613bdb57600160ff82161b8410613c3c5760ff81169390931c92908117905b60011c607f16613c18565b803561058a816146a5565b8060a08101831015610d6c57600080fd5b8060808101831015610d6c57600080fd5b806101008101831015610d6c57600080fd5b803561058a816146ba565b60008083601f840112613ca2578182fd5b5081356001600160401b03811115613cb8578182fd5b602083019150836020828501011115613cd057600080fd5b9250929050565b80356002811061058a57600080fd5b600060208284031215613cf7578081fd5b81356110e0816146a5565b600060208284031215613d13578081fd5b81516110e0816146a5565b6000806000806000806000806000806000806102408d8f031215613d40578788fd5b613d4a8d356146a5565b8c359b50613d5b8e60208f01613c74565b9a50613d6b6101208e01356146a5565b6101208d01359950613d806101408e01613c47565b9850613d8f6101608e01613c47565b9750613d9e6101808e01613c86565b96506001600160401b036101a08e01351115613db8578586fd5b613dc98e6101a08f01358f01613c91565b9c9f9b9e50999c989b979a9699986101c0810135976101e08201359750610200820135965061022090910135945092505050565b60008060408385031215613e0f578182fd5b8235613e1a816146a5565b946020939093013593505050565b6000806000806101608587031215613e3e578384fd5b8435613e49816146a5565b935060208501359250613e5f8660408701613c74565b939692955092936101400135925050565b60008060008060808587031215613e85578384fd5b84356001600160401b0380821115613e9b578586fd5b818701915087601f830112613eae578586fd5b8135602082821115613ec257613ec261468f565b8160051b604051601f19603f83011681018181108682111715613ee757613ee761468f565b604052838152828101945085830182870184018d1015613f05578a8bfd5b8a96505b84871015613f2e57613f1a81613c47565b865260019690960195948301948301613f09565b509850613f3e9050898201613c47565b965050505050613f5060408601613c47565b9396929550929360600135925050565b60008060008060008060008060008060006102c08c8e031215613f81578485fd5b613f8b8d8d613c74565b9a50613f9b8d6101008e01613c52565b9950613fab8d6101a08e01613c63565b9850613fba6102208d01613c86565b97506001600160401b036102408d0135811015613fd5578586fd5b613fe68e6102408f01358f01613c91565b90985096506102608d0135811015613ffc578586fd5b61400d8e6102608f01358f01613c91565b909650945061401f6102808e01613cd7565b9350806102a08e01351115614032578182fd5b506140448d6102a08e01358e01613c91565b81935080925050509295989b509295989b9093969950565b60006020828403121561406d578081fd5b815180151581146110e0578182fd5b60006020828403121561408d578081fd5b5035919050565b600080604083850312156140a6578182fd5b8235915060208301356140b8816146a5565b809150509250929050565b600080600080606085870312156140d8578182fd5b8435935060208501356140ea816146a5565b925060408501356001600160401b03811115614104578283fd5b61411087828801613c91565b95989497509550505050565b6000806040838503121561412e578182fd5b50508035926020909101359150565b60006020828403121561414e578081fd5b81356110e0816146ba565b60006020828403121561416a578081fd5b81516110e0816146ba565b600080600060608486031215614189578081fd5b835160ff81168114614199578182fd5b602085015160409095015190969495509392505050565b8060005b60088110156141d35781518452602093840193909101906001016141b4565b50505050565b600081518084526141f18160208601602086016145d4565b601f01601f19169290920160200192915050565b6002811061422357634e487b7160e01b600052602160045260246000fd5b9052565b600082516142398184602087016145d4565b9190910192915050565b600076020b1b1b2b9b9a1b7b73a3937b61d1030b1b1b7bab73a1604d1b825283516142758160178501602088016145d4565b7001034b99036b4b9b9b4b733903937b6329607d1b60179184019182015283516142a68160288401602088016145d4565b01602801949350505050565b6001600160a01b038981168252881660208201526001600160e01b031987166040820152610100606082018190526000906142ef838201896141d9565b9150508560808301528460a08301528360c08301528260e08301529998505050505050505050565b6001600160a01b038416815260006143326020830185614205565b606060408301526105d260608301846141d9565b6101008101610d6c82846141b0565b60006101a0808352614369818401896141d9565b9050602080840188845b60058110156143995781516001600160a01b031683529183019190830190600101614373565b5050506143a960c0850188614205565b60e0840186845b60058110156143cd578151835291830191908301906001016143b0565b505050508281036101808401526143e481856141d9565b98975050505050505050565b60006040825261440360408301856141d9565b8281036020840152613a9681856141d9565b6000602082526110e060208301846141d9565b6020808252601a9082015279232620a4a92fa324a720a721a297a727aa2fa3a7ab22a92727a960311b604082015260600190565b6020808252602e908201527f496e697469616c697a61626c653a20636f6e747261637420697320616c72656160408201526d191e481a5b9a5d1a585b1a5e995960921b606082015260800190565b85815260208101859052604081018490526001600160a01b0383166060820152610180810161262f60808301846141b0565b600082198211156144ef576144ef614663565b500190565b600060ff821660ff84168060ff0382111561451157614511614663565b019392505050565b60008261452857614528614679565b500490565b600060ff83168061454057614540614679565b8060ff84160491505092915050565b600081600019048311821515161561456957614569614663565b500290565b600063ffffffff8083168185168183048111821515161561459157614591614663565b02949350505050565b6000828210156145ac576145ac614663565b500390565b600060ff821660ff8416808210156145cb576145cb614663565b90039392505050565b60005b838110156145ef5781810151838201526020016145d7565b838111156141d35750506000910152565b60008161460f5761460f614663565b506000190190565b600060ff82168061462a5761462a614663565b6000190192915050565b600060001982141561464857614648614663565b5060010190565b60008261465e5761465e614679565b500690565b634e487b7160e01b600052601160045260246000fd5b634e487b7160e01b600052601260045260246000fd5b634e487b7160e01b600052604160045260246000fd5b6001600160a01b038116811461097957600080fd5b6001600160e01b03198116811461097957600080fdfe7935bd0ae54bc31f548c14dba4d37c5c64b3f8ca900cb468fb8abd54d5894f55a26469706673582212202bed80f627879106102068a0c768677b5036c25bbe8e42b3444c0f8095d7938264736f6c63430008030033",
  "devdoc": {
    "kind": "dev",
    "methods": {
      "getRoleAdmin(bytes32)": {
        "details": "Returns the admin role that controls `role`. See {grantRole} and {revokeRole}. To change a role's admin, use {_setRoleAdmin}."
      },
      "grantRole(bytes32,address)": {
        "details": "Grants `role` to `account`. If `account` had not been already granted `role`, emits a {RoleGranted} event. Requirements: - the caller must have ``role``'s admin role."
      },
      "hasRole(bytes32,address)": {
        "details": "Returns `true` if `account` has been granted `role`."
      },
      "renounceRole(bytes32,address)": {
        "details": "Revokes `role` from the calling account. Roles are often managed via {grantRole} and {revokeRole}: this function's purpose is to provide a mechanism for accounts to lose their privileges if they are compromised (such as when a trusted device is misplaced). If the calling account had been granted `role`, emits a {RoleRevoked} event. Requirements: - the caller must be `account`."
      },
      "revokeRole(bytes32,address)": {
        "details": "Revokes `role` from `account`. If `account` had been granted `role`, emits a {RoleRevoked} event. Requirements: - the caller must have ``role``'s admin role."
      },
      "supportsInterface(bytes4)": {
        "details": "See {IERC165-supportsInterface}."
      }
    },
    "version": 1
  },
  "userdoc": {
    "kind": "user",
    "methods": {},
    "version": 1
  },
  "storageLayout": {
    "storage": [
      {
        "astId": 401,
        "contract": "contracts/Flair.sol:Flair",
        "label": "_initialized",
        "offset": 0,
        "slot": "0",
        "type": "t_bool"
      },
      {
        "astId": 404,
        "contract": "contracts/Flair.sol:Flair",
        "label": "_initializing",
        "offset": 1,
        "slot": "0",
        "type": "t_bool"
      },
      {
        "astId": 2351,
        "contract": "contracts/Flair.sol:Flair",
        "label": "__gap",
        "offset": 0,
        "slot": "1",
        "type": "t_array(t_uint256)50_storage"
      },
      {
        "astId": 568,
        "contract": "contracts/Flair.sol:Flair",
        "label": "_status",
        "offset": 0,
        "slot": "51",
        "type": "t_uint256"
      },
      {
        "astId": 611,
        "contract": "contracts/Flair.sol:Flair",
        "label": "__gap",
        "offset": 0,
        "slot": "52",
        "type": "t_array(t_uint256)49_storage"
      },
      {
        "astId": 2769,
        "contract": "contracts/Flair.sol:Flair",
        "label": "_HASHED_NAME",
        "offset": 0,
        "slot": "101",
        "type": "t_bytes32"
      },
      {
        "astId": 2771,
        "contract": "contracts/Flair.sol:Flair",
        "label": "_HASHED_VERSION",
        "offset": 0,
        "slot": "102",
        "type": "t_bytes32"
      },
      {
        "astId": 2908,
        "contract": "contracts/Flair.sol:Flair",
        "label": "__gap",
        "offset": 0,
        "slot": "103",
        "type": "t_array(t_uint256)50_storage"
      },
      {
        "astId": 7466,
        "contract": "contracts/Flair.sol:Flair",
        "label": "registries",
        "offset": 0,
        "slot": "153",
        "type": "t_mapping(t_address,t_bool)"
      },
      {
        "astId": 7472,
        "contract": "contracts/Flair.sol:Flair",
        "label": "fills",
        "offset": 0,
        "slot": "154",
        "type": "t_mapping(t_address,t_mapping(t_bytes32,t_uint256))"
      },
      {
        "astId": 7478,
        "contract": "contracts/Flair.sol:Flair",
        "label": "approved",
        "offset": 0,
        "slot": "155",
        "type": "t_mapping(t_address,t_mapping(t_bytes32,t_bool))"
      },
      {
        "astId": 9552,
        "contract": "contracts/Flair.sol:Flair",
        "label": "maxExpArray",
        "offset": 0,
        "slot": "156",
        "type": "t_array(t_uint256)128_storage"
      },
      {
        "astId": 10136,
        "contract": "contracts/Flair.sol:Flair",
        "label": "lambertArray",
        "offset": 0,
        "slot": "284",
        "type": "t_array(t_uint256)128_storage"
      },
      {
        "astId": 2954,
        "contract": "contracts/Flair.sol:Flair",
        "label": "__gap",
        "offset": 0,
        "slot": "412",
        "type": "t_array(t_uint256)50_storage"
      },
      {
        "astId": 86,
        "contract": "contracts/Flair.sol:Flair",
        "label": "_roles",
        "offset": 0,
        "slot": "462",
        "type": "t_mapping(t_bytes32,t_struct(RoleData)81_storage)"
      },
      {
        "astId": 394,
        "contract": "contracts/Flair.sol:Flair",
        "label": "__gap",
        "offset": 0,
        "slot": "463",
        "type": "t_array(t_uint256)49_storage"
      },
      {
        "astId": 6257,
        "contract": "contracts/Flair.sol:Flair",
        "label": "_treasury",
        "offset": 0,
        "slot": "512",
        "type": "t_address"
      },
      {
        "astId": 6259,
        "contract": "contracts/Flair.sol:Flair",
        "label": "_funding",
        "offset": 0,
        "slot": "513",
        "type": "t_address"
      },
      {
        "astId": 6261,
        "contract": "contracts/Flair.sol:Flair",
        "label": "_protocolFee",
        "offset": 0,
        "slot": "514",
        "type": "t_uint256"
      },
      {
        "astId": 6267,
        "contract": "contracts/Flair.sol:Flair",
        "label": "offerFundings",
        "offset": 0,
        "slot": "515",
        "type": "t_mapping(t_address,t_mapping(t_bytes32,t_uint256))"
      }
    ],
    "types": {
      "t_address": {
        "encoding": "inplace",
        "label": "address",
        "numberOfBytes": "20"
      },
      "t_array(t_uint256)128_storage": {
        "base": "t_uint256",
        "encoding": "inplace",
        "label": "uint256[128]",
        "numberOfBytes": "4096"
      },
      "t_array(t_uint256)49_storage": {
        "base": "t_uint256",
        "encoding": "inplace",
        "label": "uint256[49]",
        "numberOfBytes": "1568"
      },
      "t_array(t_uint256)50_storage": {
        "base": "t_uint256",
        "encoding": "inplace",
        "label": "uint256[50]",
        "numberOfBytes": "1600"
      },
      "t_bool": {
        "encoding": "inplace",
        "label": "bool",
        "numberOfBytes": "1"
      },
      "t_bytes32": {
        "encoding": "inplace",
        "label": "bytes32",
        "numberOfBytes": "32"
      },
      "t_mapping(t_address,t_bool)": {
        "encoding": "mapping",
        "key": "t_address",
        "label": "mapping(address => bool)",
        "numberOfBytes": "32",
        "value": "t_bool"
      },
      "t_mapping(t_address,t_mapping(t_bytes32,t_bool))": {
        "encoding": "mapping",
        "key": "t_address",
        "label": "mapping(address => mapping(bytes32 => bool))",
        "numberOfBytes": "32",
        "value": "t_mapping(t_bytes32,t_bool)"
      },
      "t_mapping(t_address,t_mapping(t_bytes32,t_uint256))": {
        "encoding": "mapping",
        "key": "t_address",
        "label": "mapping(address => mapping(bytes32 => uint256))",
        "numberOfBytes": "32",
        "value": "t_mapping(t_bytes32,t_uint256)"
      },
      "t_mapping(t_bytes32,t_bool)": {
        "encoding": "mapping",
        "key": "t_bytes32",
        "label": "mapping(bytes32 => bool)",
        "numberOfBytes": "32",
        "value": "t_bool"
      },
      "t_mapping(t_bytes32,t_struct(RoleData)81_storage)": {
        "encoding": "mapping",
        "key": "t_bytes32",
        "label": "mapping(bytes32 => struct AccessControlUpgradeable.RoleData)",
        "numberOfBytes": "32",
        "value": "t_struct(RoleData)81_storage"
      },
      "t_mapping(t_bytes32,t_uint256)": {
        "encoding": "mapping",
        "key": "t_bytes32",
        "label": "mapping(bytes32 => uint256)",
        "numberOfBytes": "32",
        "value": "t_uint256"
      },
      "t_struct(RoleData)81_storage": {
        "encoding": "inplace",
        "label": "struct AccessControlUpgradeable.RoleData",
        "members": [
          {
            "astId": 78,
            "contract": "contracts/Flair.sol:Flair",
            "label": "members",
            "offset": 0,
            "slot": "0",
            "type": "t_mapping(t_address,t_bool)"
          },
          {
            "astId": 80,
            "contract": "contracts/Flair.sol:Flair",
            "label": "adminRole",
            "offset": 0,
            "slot": "1",
            "type": "t_bytes32"
          }
        ],
        "numberOfBytes": "64"
      },
      "t_uint256": {
        "encoding": "inplace",
        "label": "uint256",
        "numberOfBytes": "32"
      }
    }
  }
}