{
  "address": "0x6910176Ba412F3c3FD94630AA56F1573B9d79B7B",
  "abi": [
    {
      "inputs": [],
      "stateMutability": "nonpayable",
      "type": "constructor"
    },
    {
      "inputs": [
        {
          "internalType": "bytes",
          "name": "extraData",
          "type": "bytes"
        },
        {
          "internalType": "address[5]",
          "name": "addresses",
          "type": "address[5]"
        },
        {
          "internalType": "enum AuthenticatedProxy.HowToCall",
          "name": "howToCall",
          "type": "uint8"
        },
        {
          "internalType": "uint256[5]",
          "name": "uints",
          "type": "uint256[5]"
        },
        {
          "internalType": "bytes",
          "name": "data",
          "type": "bytes"
        }
      ],
      "name": "acceptContractAndSelectorAddUint256FillFromCallData",
      "outputs": [
        {
          "internalType": "uint256",
          "name": "",
          "type": "uint256"
        }
      ],
      "stateMutability": "pure",
      "type": "function"
    },
    {
      "inputs": [
        {
          "internalType": "bytes",
          "name": "extraData",
          "type": "bytes"
        },
        {
          "internalType": "address[5]",
          "name": "addresses",
          "type": "address[5]"
        },
        {
          "internalType": "enum AuthenticatedProxy.HowToCall",
          "name": "howToCall",
          "type": "uint8"
        },
        {
          "internalType": "uint256[5]",
          "name": "uints",
          "type": "uint256[5]"
        },
        {
          "internalType": "bytes",
          "name": "data",
          "type": "bytes"
        }
      ],
      "name": "acceptContractAndSelectorAddUint32FillFromCallData",
      "outputs": [
        {
          "internalType": "uint256",
          "name": "",
          "type": "uint256"
        }
      ],
      "stateMutability": "pure",
      "type": "function"
    },
    {
      "inputs": [
        {
          "internalType": "bytes",
          "name": "extraData",
          "type": "bytes"
        },
        {
          "internalType": "address[5]",
          "name": "addresses",
          "type": "address[5]"
        },
        {
          "internalType": "enum AuthenticatedProxy.HowToCall",
          "name": "howToCall",
          "type": "uint8"
        },
        {
          "internalType": "uint256[5]",
          "name": "uints",
          "type": "uint256[5]"
        },
        {
          "internalType": "bytes",
          "name": "data",
          "type": "bytes"
        }
      ],
      "name": "acceptContractAndSelectorAddUint32FillFromExtraData",
      "outputs": [
        {
          "internalType": "uint256",
          "name": "",
          "type": "uint256"
        }
      ],
      "stateMutability": "pure",
      "type": "function"
    },
    {
      "inputs": [
        {
          "internalType": "bytes",
          "name": "extraData",
          "type": "bytes"
        },
        {
          "internalType": "address[5]",
          "name": "addresses",
          "type": "address[5]"
        },
        {
          "internalType": "enum AuthenticatedProxy.HowToCall",
          "name": "howToCall",
          "type": "uint8"
        },
        {
          "internalType": "uint256[5]",
          "name": "uints",
          "type": "uint256[5]"
        },
        {
          "internalType": "bytes",
          "name": "data",
          "type": "bytes"
        }
      ],
      "name": "acceptReturnERC1155AnyAmount",
      "outputs": [
        {
          "internalType": "uint256",
          "name": "",
          "type": "uint256"
        }
      ],
      "stateMutability": "pure",
      "type": "function"
    },
    {
      "inputs": [
        {
          "internalType": "bytes",
          "name": "extraData",
          "type": "bytes"
        },
        {
          "internalType": "address[5]",
          "name": "addresses",
          "type": "address[5]"
        },
        {
          "internalType": "enum AuthenticatedProxy.HowToCall",
          "name": "howToCall",
          "type": "uint8"
        },
        {
          "internalType": "uint256[5]",
          "name": "uints",
          "type": "uint256[5]"
        },
        {
          "internalType": "bytes",
          "name": "data",
          "type": "bytes"
        }
      ],
      "name": "acceptReturnERC721Any",
      "outputs": [
        {
          "internalType": "uint256",
          "name": "",
          "type": "uint256"
        }
      ],
      "stateMutability": "pure",
      "type": "function"
    },
    {
      "inputs": [
        {
          "internalType": "bytes",
          "name": "extraData",
          "type": "bytes"
        },
        {
          "internalType": "address[5]",
          "name": "addresses",
          "type": "address[5]"
        },
        {
          "internalType": "enum AuthenticatedProxy.HowToCall",
          "name": "howToCall",
          "type": "uint8"
        },
        {
          "internalType": "uint256[5]",
          "name": "uints",
          "type": "uint256[5]"
        },
        {
          "internalType": "bytes",
          "name": "data",
          "type": "bytes"
        }
      ],
      "name": "acceptReturnERC721Bulk",
      "outputs": [
        {
          "internalType": "uint256",
          "name": "",
          "type": "uint256"
        }
      ],
      "stateMutability": "view",
      "type": "function"
    },
    {
      "inputs": [
        {
          "internalType": "bytes",
          "name": "extraData",
          "type": "bytes"
        },
        {
          "internalType": "address[5]",
          "name": "addresses",
          "type": "address[5]"
        },
        {
          "internalType": "enum AuthenticatedProxy.HowToCall",
          "name": "howToCall",
          "type": "uint8"
        },
        {
          "internalType": "uint256[5]",
          "name": "uints",
          "type": "uint256[5]"
        },
        {
          "internalType": "bytes",
          "name": "data",
          "type": "bytes"
        }
      ],
      "name": "acceptReturnERC721Exact",
      "outputs": [
        {
          "internalType": "uint256",
          "name": "",
          "type": "uint256"
        }
      ],
      "stateMutability": "pure",
      "type": "function"
    },
    {
      "inputs": [
        {
          "internalType": "bytes",
          "name": "extraData",
          "type": "bytes"
        },
        {
          "internalType": "address[5]",
          "name": "addresses",
          "type": "address[5]"
        },
        {
          "internalType": "enum AuthenticatedProxy.HowToCall",
          "name": "howToCall",
          "type": "uint8"
        },
        {
          "internalType": "uint256[5]",
          "name": "uints",
          "type": "uint256[5]"
        },
        {
          "internalType": "bytes",
          "name": "data",
          "type": "bytes"
        }
      ],
      "name": "acceptTransferERC1155AnyAmount",
      "outputs": [
        {
          "internalType": "uint256",
          "name": "",
          "type": "uint256"
        }
      ],
      "stateMutability": "pure",
      "type": "function"
    },
    {
      "inputs": [
        {
          "internalType": "bytes",
          "name": "extraData",
          "type": "bytes"
        },
        {
          "internalType": "address[5]",
          "name": "addresses",
          "type": "address[5]"
        },
        {
          "internalType": "enum AuthenticatedProxy.HowToCall",
          "name": "howToCall",
          "type": "uint8"
        },
        {
          "internalType": "uint256[5]",
          "name": "uints",
          "type": "uint256[5]"
        },
        {
          "internalType": "bytes",
          "name": "data",
          "type": "bytes"
        }
      ],
      "name": "acceptTransferERC721Exact",
      "outputs": [
        {
          "internalType": "uint256",
          "name": "",
          "type": "uint256"
        }
      ],
      "stateMutability": "pure",
      "type": "function"
    },
    {
      "inputs": [],
      "name": "name",
      "outputs": [
        {
          "internalType": "string",
          "name": "",
          "type": "string"
        }
      ],
      "stateMutability": "view",
      "type": "function"
    }
  ],
  "transactionHash": "0xaff1496150a33218917e64bda1ba6a7ea42e5adca059baa3cd6ddeb599066098",
  "args": [],
  "solcInputHash": "f36d90ebbeb23a15c71ecf19a08ad484",
  "bytecode": "0x608060405234801561001057600080fd5b5061149e806100206000396000f3fe608060405234801561001057600080fd5b506004361061008e5760003560e01c806306fdde03146100935780630c9674ec146100df578063228cfa341461010057806337409918146101135780633b625f4c146101265780633deff824146101395780633e406a3e1461014c57806377724d791461015f578063e81f5a2414610172578063e9cd06d514610185575b600080fd5b6100c960405180604001604052806017815260200176466c616972205374617469632056616c696461746f727360481b81525081565b6040516100d691906111ab565b60405180910390f35b6100f26100ed366004610fdd565b610198565b6040519081526020016100d6565b6100f261010e366004610fdd565b610301565b6100f2610121366004610fdd565b6104c7565b6100f2610134366004610fdd565b6105d7565b6100f2610147366004610fdd565b61070a565b6100f261015a366004610fdd565b6107c5565b6100f261016d366004610fdd565b6108a7565b6100f2610180366004610fdd565b610960565b6100f2610193366004610fdd565b610a9e565b600080600080888060200190518101906101b29190610f5d565b9194509250905060008760018111156101db57634e487b7160e01b600052602160045260246000fd5b146102015760405162461bcd60e51b81526004016101f8906111fe565b60405180910390fd5b60608801516001600160a01b038481169116146102305760405162461bcd60e51b81526004016101f89061123f565b600061023f8660006004610ba3565b905061026a818460405160200161025691906110fc565b604051602081830303815290604052610cb0565b6102865760405162461bcd60e51b81526004016101f890611323565b600061029a878463ffffffff166004610ba3565b8060200190518101906102ad91906110e2565b9050600063ffffffff82168960045b60200201516102cb91906113f5565b60208a01519091508111156102f25760405162461bcd60e51b81526004016101f8906112e2565b9b9a5050505050505050505050565b60008060008780602001905181019061031a9190610fb0565b60808701516020880151929450909250106103475760405162461bcd60e51b81526004016101f890611276565b6080850151602086015160009161035d9161140d565b90506001600160a01b03831688600360200201516001600160a01b03161461038457600080fd5b60008760018111156103a657634e487b7160e01b600052602160045260246000fd5b146103b057600080fd5b60006103bb86610d14565b90508082101561041b5760405162461bcd60e51b815260206004820152602560248201527f5354415449435f56414c494441544f522f455843454544535f4d4158494d554d60448201526417d192531360da1b60648201526084016101f8565b610473868a600260200201518b6004602002015186856040516024016104449493929190611173565b60408051601f198184030181529190526020810180516001600160e01b0316637921219560e11b179052610cb0565b61047c57600080fd5b6000818860045b602002015161049291906113f5565b60208901519091508111156104b95760405162461bcd60e51b81526004016101f8906112e2565b9a9950505050505050505050565b6000806000878060200190518101906104e09190610fb0565b60808701519193509150156105075760405162461bcd60e51b81526004016101f890611276565b6001600160a01b03821687600360200201516001600160a01b03161461052c57600080fd5b600086600181111561054e57634e487b7160e01b600052602160045260246000fd5b1461055857600080fd5b6105c08488600260200201518960045b60200201516040516001600160a01b039283166024820152911660448201526064810184905260840160408051601f198184030181529190526020810180516001600160e01b03166323b872dd60e01b179052610cb0565b6105c957600080fd5b506001979650505050505050565b600080868060200190518101906105ee9190610e69565b60808501519091506106125760405162461bcd60e51b81526004016101f8906112ad565b6001600160a01b03811686600360200201516001600160a01b03161461063757600080fd5b600085600181111561065957634e487b7160e01b600052602160045260246000fd5b1461066357600080fd5b600061066e84610d3c565b905060008151116106915760405162461bcd60e51b81526004016101f890611364565b608087015160408089015190516106e19287926106b2928690602401611111565b60408051601f198184030181529190526020810180516001600160e01b031663059fb6f760e01b179052610cb0565b6106ea57600080fd5b805160808601516000916106fd9161140d565b9998505050505050505050565b6000806000878060200190518101906107239190610fb0565b608087015191935091506107495760405162461bcd60e51b81526004016101f8906112ad565b6001600160a01b03821687600360200201516001600160a01b03161461076e57600080fd5b600086600181111561079057634e487b7160e01b600052602160045260246000fd5b1461079a57600080fd5b6107ae848860046020020151896002610568565b6107b757600080fd5b506000979650505050505050565b600080600080888060200190518101906107df9190610f5d565b91945092509050600087600181111561080857634e487b7160e01b600052602160045260246000fd5b146108255760405162461bcd60e51b81526004016101f8906111fe565b60608801516001600160a01b038481169116146108545760405162461bcd60e51b81526004016101f89061123f565b60006108638660006004610ba3565b905061087a818460405160200161025691906110fc565b6108965760405162461bcd60e51b81526004016101f890611323565b600063ffffffff8316886004610483565b600080868060200190518101906108be9190610e69565b60808501519091506108e25760405162461bcd60e51b81526004016101f8906112ad565b6001600160a01b03811686600360200201516001600160a01b03161461090757600080fd5b600085600181111561092957634e487b7160e01b600052602160045260246000fd5b1461093357600080fd5b600061093e84610d71565b90506000811161079a5760405162461bcd60e51b81526004016101f890611364565b6000806000878060200190518101906109799190610fb0565b6080870151919350915061099f5760405162461bcd60e51b81526004016101f8906112ad565b6001600160a01b03821687600360200201516001600160a01b0316146109c457600080fd5b60008660018111156109e657634e487b7160e01b600052602160045260246000fd5b146109f057600080fd5b60006109fb85610d14565b90508086600460200201511015610a625760405162461bcd60e51b815260206004820152602560248201527f5354415449435f56414c494441544f522f455843454544535f43555252454e5460448201526417d192531360da1b60648201526084016101f8565b60808801516040808a01519051610a859288926104449287908790602401611173565b610a8e57600080fd5b60808601516106fd90829061140d565b60008060008088806020019051810190610ab89190610f5d565b919450925090506000876001811115610ae157634e487b7160e01b600052602160045260246000fd5b14610afe5760405162461bcd60e51b81526004016101f8906111fe565b60608801516001600160a01b03848116911614610b2d5760405162461bcd60e51b81526004016101f89061123f565b6000610b3c8660006004610ba3565b9050610b53818460405160200161025691906110fc565b610b6f5760405162461bcd60e51b81526004016101f890611323565b6000610b83878463ffffffff166020610ba3565b806020019051810190610b9691906110ca565b90506000818960046102bc565b606081610bb181601f6113f5565b1015610bf05760405162461bcd60e51b815260206004820152600e60248201526d736c6963655f6f766572666c6f7760901b60448201526064016101f8565b610bfa82846113f5565b84511015610c3e5760405162461bcd60e51b8152602060048201526011602482015270736c6963655f6f75744f66426f756e647360781b60448201526064016101f8565b606082158015610c5d5760405191506000825260208201604052610ca7565b6040519150601f8416801560200281840101858101878315602002848b0101015b81831015610c96578051835260209283019201610c7e565b5050858452601f01601f1916604052505b50949350505050565b815181516000916001918114808314610ccc5760009250610d0a565b600160208701838101602088015b600284838510011415610d05578051835114610cf95760009650600093505b60209283019201610cda565b505050505b5090949350505050565b6000610d238260646020610ba3565b806020019051810190610d3691906110ca565b92915050565b6060610d56826004808551610d51919061140d565b610ba3565b806020019051810190610d699190610e8c565b949350505050565b6000610d238260446020610ba3565b600082601f830112610d90578081fd5b610d9a60a06113a5565b80838560a086011115610dab578384fd5b835b6005811015610dcc578135845260209384019390910190600101610dad565b509095945050505050565b600082601f830112610de7578081fd5b81356001600160401b03811115610e0057610e0061143a565b610e13601f8201601f19166020016113a5565b818152846020838601011115610e27578283fd5b816020850160208301379081016020019190915292915050565b803560028110610e5057600080fd5b919050565b805163ffffffff81168114610e5057600080fd5b600060208284031215610e7a578081fd5b8151610e8581611450565b9392505050565b600080600060608486031215610ea0578182fd5b8351610eab81611450565b80935050602080850151610ebe81611450565b60408601519093506001600160401b0380821115610eda578384fd5b818701915087601f830112610eed578384fd5b815181811115610eff57610eff61143a565b8060051b9150610f108483016113a5565b8181528481019084860184860187018c1015610f2a578788fd5b8795505b83861015610f4c578051835260019590950194918601918601610f2e565b508096505050505050509250925092565b600080600060608486031215610f71578283fd5b8351610f7c81611450565b60208501519093506001600160e01b031981168114610f99578283fd5b9150610fa760408501610e55565b90509250925092565b60008060408385031215610fc2578182fd5b8251610fcd81611450565b6020939093015192949293505050565b60008060008060006101a08688031215610ff5578081fd5b85356001600160401b038082111561100b578283fd5b61101789838a01610dd7565b96506020915088603f89011261102b578283fd5b600561103e611039826113d5565b6113a5565b80848b0160c08c018d811115611052578788fd5b875b8581101561107957823561106781611450565b85529387019391870191600101611054565b50829a5061108681610e41565b9950505050505061109a8960e08a01610d80565b93506101808801359150808211156110b0578283fd5b506110bd88828901610dd7565b9150509295509295909350565b6000602082840312156110db578081fd5b5051919050565b6000602082840312156110f3578081fd5b610e8582610e55565b6001600160e01b031991909116815260040190565b6001600160a01b0384811682528316602080830191909152606060408301819052835190830181905260009184810191608085019190845b8181101561116557845184529382019392820192600101611149565b509198975050505050505050565b6001600160a01b0394851681529290931660208301526040820152606081019190915260a06080820181905260009082015260c00190565b6000602080835283518082850152825b818110156111d7578581018301518582016040015282016111bb565b818111156111e85783604083870101525b50601f01601f1916929092016040019392505050565b60208082526021908201527f5354415449435f56414c494441544f522f494e56414c49445f43414c4c5459506040820152604560f81b606082015260800190565b6020808252601f908201527f5354415449435f56414c494441544f522f494e56414c49445f54415247455400604082015260600190565b6020808252601f908201527f5354415449435f56414c494441544f522f414c52454144595f46494c4c454400604082015260600190565b6020808252601b908201527a14d510551250d7d590531251105513d48bd393d517d19253131151602a1b604082015260600190565b60208082526021908201527f5354415449435f56414c494441544f522f455843454544535f4d41585f46494c6040820152601360fa1b606082015260800190565b60208082526021908201527f5354415449435f56414c494441544f522f494e56414c49445f53454c4543544f6040820152602960f91b606082015260800190565b60208082526021908201527f5354415449435f56414c494441544f522f494e56414c49445f544f4b454e5f496040820152601160fa1b606082015260800190565b604051601f8201601f191681016001600160401b03811182821017156113cd576113cd61143a565b604052919050565b60006001600160401b038211156113ee576113ee61143a565b5060051b90565b6000821982111561140857611408611424565b500190565b60008282101561141f5761141f611424565b500390565b634e487b7160e01b600052601160045260246000fd5b634e487b7160e01b600052604160045260246000fd5b6001600160a01b038116811461146557600080fd5b5056fea264697066735822122019103cf0ac720cfa9d13ddd5cb5daba96c84e67233796405e42027dec3e6d06c64736f6c63430008030033",
  "devdoc": {
    "kind": "dev",
    "methods": {},
    "version": 1
  },
  "userdoc": {
    "kind": "user",
    "methods": {
      "acceptContractAndSelectorAddUint256FillFromCallData(bytes,address[5],uint8,uint256[5],bytes)": {
        "notice": "Useful for offers that allow buyers provide how much they want to fill (e.g. buyers can choose how many punks to mint on each investment). This static check assumes position of chosen amount (must be uint256) is predictable from the call data. (e.g. PunksContract.mint(bytes32 punkType, uint256 amountToMint) -> offset must be \"33\""
      },
      "acceptContractAndSelectorAddUint32FillFromExtraData(bytes,address[5],uint8,uint256[5],bytes)": {
        "notice": "Useful for offers that give buyers same amount of fill (e.g. all buyers get 2 punks for each investment)."
      }
    },
    "version": 1
  },
  "storageLayout": {
    "storage": [],
    "types": null
  }
}