{
  "address": "0x5C7C7E058dF26669Ce5623d8B0a6C4d8Ac3EF4fD",
  "abi": [
    {
      "inputs": [],
      "stateMutability": "nonpayable",
      "type": "constructor"
    },
    {
      "inputs": [
        {
          "internalType": "bytes",
          "name": "extraData",
          "type": "bytes"
        },
        {
          "internalType": "address[5]",
          "name": "addresses",
          "type": "address[5]"
        },
        {
          "internalType": "enum AuthenticatedProxy.HowToCall",
          "name": "howToCall",
          "type": "uint8"
        },
        {
          "internalType": "uint256[5]",
          "name": "uints",
          "type": "uint256[5]"
        },
        {
          "internalType": "bytes",
          "name": "data",
          "type": "bytes"
        }
      ],
      "name": "acceptContractAndSelectorAddUint256FillFromCallData",
      "outputs": [
        {
          "internalType": "uint256",
          "name": "",
          "type": "uint256"
        }
      ],
      "stateMutability": "pure",
      "type": "function"
    },
    {
      "inputs": [
        {
          "internalType": "bytes",
          "name": "extraData",
          "type": "bytes"
        },
        {
          "internalType": "address[5]",
          "name": "addresses",
          "type": "address[5]"
        },
        {
          "internalType": "enum AuthenticatedProxy.HowToCall",
          "name": "howToCall",
          "type": "uint8"
        },
        {
          "internalType": "uint256[5]",
          "name": "uints",
          "type": "uint256[5]"
        },
        {
          "internalType": "bytes",
          "name": "data",
          "type": "bytes"
        }
      ],
      "name": "acceptContractAndSelectorAddUint32FillFromCallData",
      "outputs": [
        {
          "internalType": "uint256",
          "name": "",
          "type": "uint256"
        }
      ],
      "stateMutability": "pure",
      "type": "function"
    },
    {
      "inputs": [
        {
          "internalType": "bytes",
          "name": "extraData",
          "type": "bytes"
        },
        {
          "internalType": "address[5]",
          "name": "addresses",
          "type": "address[5]"
        },
        {
          "internalType": "enum AuthenticatedProxy.HowToCall",
          "name": "howToCall",
          "type": "uint8"
        },
        {
          "internalType": "uint256[5]",
          "name": "uints",
          "type": "uint256[5]"
        },
        {
          "internalType": "bytes",
          "name": "data",
          "type": "bytes"
        }
      ],
      "name": "acceptContractAndSelectorAddUint32FillFromExtraData",
      "outputs": [
        {
          "internalType": "uint256",
          "name": "",
          "type": "uint256"
        }
      ],
      "stateMutability": "pure",
      "type": "function"
    },
    {
      "inputs": [
        {
          "internalType": "bytes",
          "name": "extraData",
          "type": "bytes"
        },
        {
          "internalType": "address[5]",
          "name": "addresses",
          "type": "address[5]"
        },
        {
          "internalType": "enum AuthenticatedProxy.HowToCall",
          "name": "howToCall",
          "type": "uint8"
        },
        {
          "internalType": "uint256[5]",
          "name": "uints",
          "type": "uint256[5]"
        },
        {
          "internalType": "bytes",
          "name": "data",
          "type": "bytes"
        }
      ],
      "name": "acceptTransferERC1155AnyAmount",
      "outputs": [
        {
          "internalType": "uint256",
          "name": "",
          "type": "uint256"
        }
      ],
      "stateMutability": "pure",
      "type": "function"
    },
    {
      "inputs": [
        {
          "internalType": "bytes",
          "name": "extraData",
          "type": "bytes"
        },
        {
          "internalType": "address[5]",
          "name": "addresses",
          "type": "address[5]"
        },
        {
          "internalType": "enum AuthenticatedProxy.HowToCall",
          "name": "howToCall",
          "type": "uint8"
        },
        {
          "internalType": "uint256[5]",
          "name": "uints",
          "type": "uint256[5]"
        },
        {
          "internalType": "bytes",
          "name": "data",
          "type": "bytes"
        }
      ],
      "name": "acceptTransferERC721Exact",
      "outputs": [
        {
          "internalType": "uint256",
          "name": "",
          "type": "uint256"
        }
      ],
      "stateMutability": "pure",
      "type": "function"
    },
    {
      "inputs": [],
      "name": "name",
      "outputs": [
        {
          "internalType": "string",
          "name": "",
          "type": "string"
        }
      ],
      "stateMutability": "view",
      "type": "function"
    }
  ],
  "transactionHash": "0x8ae85b3b68cab2a2f150432c66fa94d82a631c68d96de32c5be780b66de9516b",
  "args": [],
  "solcInputHash": "2d95abac8e50c5f9e04c30c90de607ff",
  "bytecode": "0x608060405234801561001057600080fd5b50610e20806100206000396000f3fe608060405234801561001057600080fd5b50600436106100625760003560e01c806306fdde03146100675780630c9674ec146100b9578063228cfa34146100da57806337409918146100ed5780633e406a3e14610100578063e9cd06d514610113575b600080fd5b6100a36040518060400160405280601f81526020017f466c6169722e46696e616e6365205374617469632056616c696461746f72730081525081565b6040516100b09190610ba3565b60405180910390f35b6100cc6100c7366004610a68565b610126565b6040519081526020016100b0565b6100cc6100e8366004610a68565b61028f565b6100cc6100fb366004610a68565b610475565b6100cc61010e366004610a68565b610580565b6100cc610121366004610a68565b610662565b6000806000808880602001905181019061014091906109e8565b91945092509050600087600181111561016957634e487b7160e01b600052602160045260246000fd5b1461018f5760405162461bcd60e51b815260040161018690610bf6565b60405180910390fd5b60608801516001600160a01b038481169116146101be5760405162461bcd60e51b815260040161018690610c37565b60006101cd8660006004610767565b90506101f881846040516020016101e49190610b8e565b604051602081830303815290604052610874565b6102145760405162461bcd60e51b815260040161018690610ce6565b6000610228878463ffffffff166004610767565b80602001905181019061023b9190610b6d565b9050600063ffffffff82168960045b60200201516102599190610d77565b60208a01519091508111156102805760405162461bcd60e51b815260040161018690610ca5565b9b9a5050505050505050505050565b6000806000878060200190518101906102a89190610a3b565b60808701516040880151929450909250106102d55760405162461bcd60e51b815260040161018690610c6e565b608085015160408601516000916102eb91610d8f565b90506001600160a01b03831688600360200201516001600160a01b03161461031257600080fd5b600087600181111561033457634e487b7160e01b600052602160045260246000fd5b1461033e57600080fd5b6000610349866108d8565b9050808210156103a95760405162461bcd60e51b815260206004820152602560248201527f5354415449435f56414c494441544f522f455843454544535f4d4158494d554d60448201526417d192531360da1b6064820152608401610186565b6040808a015160808b015191516001600160a01b03918216602482015291166044820152606481018490526084810182905260a060a4820152600060c482015261042190879060e40160408051601f198184030181529190526020810180516001600160e01b0316637921219560e11b179052610874565b61042a57600080fd5b6000818860045b60200201516104409190610d77565b60208901519091508111156104675760405162461bcd60e51b815260040161018690610ca5565b9a9950505050505050505050565b60008060008780602001905181019061048e9190610a3b565b60808701519193509150156104b55760405162461bcd60e51b815260040161018690610c6e565b6001600160a01b03821687600360200201516001600160a01b0316146104da57600080fd5b60008660018111156104fc57634e487b7160e01b600052602160045260246000fd5b1461050657600080fd5b604080880151608089015191516001600160a01b039182166024820152911660448201526064810182905261056990859060840160408051601f198184030181529190526020810180516001600160e01b03166323b872dd60e01b179052610874565b61057257600080fd5b506001979650505050505050565b6000806000808880602001905181019061059a91906109e8565b9194509250905060008760018111156105c357634e487b7160e01b600052602160045260246000fd5b146105e05760405162461bcd60e51b815260040161018690610bf6565b60608801516001600160a01b0384811691161461060f5760405162461bcd60e51b815260040161018690610c37565b600061061e8660006004610767565b905061063581846040516020016101e49190610b8e565b6106515760405162461bcd60e51b815260040161018690610ce6565b600063ffffffff8316886004610431565b6000806000808880602001905181019061067c91906109e8565b9194509250905060008760018111156106a557634e487b7160e01b600052602160045260246000fd5b146106c25760405162461bcd60e51b815260040161018690610bf6565b60608801516001600160a01b038481169116146106f15760405162461bcd60e51b815260040161018690610c37565b60006107008660006004610767565b905061071781846040516020016101e49190610b8e565b6107335760405162461bcd60e51b815260040161018690610ce6565b6000610747878463ffffffff166020610767565b80602001905181019061075a9190610b55565b905060008189600461024a565b60608161077581601f610d77565b10156107b45760405162461bcd60e51b815260206004820152600e60248201526d736c6963655f6f766572666c6f7760901b6044820152606401610186565b6107be8284610d77565b845110156108025760405162461bcd60e51b8152602060048201526011602482015270736c6963655f6f75744f66426f756e647360781b6044820152606401610186565b606082158015610821576040519150600082526020820160405261086b565b6040519150601f8416801560200281840101858101878315602002848b0101015b8183101561085a578051835260209283019201610842565b5050858452601f01601f1916604052505b50949350505050565b81518151600091600191811480831461089057600092506108ce565b600160208701838101602088015b6002848385100114156108c95780518351146108bd5760009650600093505b6020928301920161089e565b505050505b5090949350505050565b6000806108e88360646020610767565b8060200190518101906108fb9190610b55565b9150505b919050565b600082601f830112610914578081fd5b61091e60a0610d27565b80838560a08601111561092f578384fd5b835b6005811015610950578135845260209384019390910190600101610931565b509095945050505050565b600082601f83011261096b578081fd5b81356001600160401b0381111561098457610984610dbc565b610997601f8201601f1916602001610d27565b8181528460208386010111156109ab578283fd5b816020850160208301379081016020019190915292915050565b8035600281106108ff57600080fd5b805163ffffffff811681146108ff57600080fd5b6000806000606084860312156109fc578283fd5b8351610a0781610dd2565b60208501519093506001600160e01b031981168114610a24578283fd5b9150610a32604085016109d4565b90509250925092565b60008060408385031215610a4d578182fd5b8251610a5881610dd2565b6020939093015192949293505050565b60008060008060006101a08688031215610a80578081fd5b85356001600160401b0380821115610a96578283fd5b610aa289838a0161095b565b96506020915088603f890112610ab6578283fd5b6005610ac9610ac482610d57565b610d27565b80848b0160c08c018d811115610add578788fd5b875b85811015610b04578235610af281610dd2565b85529387019391870191600101610adf565b50829a50610b11816109c5565b99505050505050610b258960e08a01610904565b9350610180880135915080821115610b3b578283fd5b50610b488882890161095b565b9150509295509295909350565b600060208284031215610b66578081fd5b5051919050565b600060208284031215610b7e578081fd5b610b87826109d4565b9392505050565b6001600160e01b031991909116815260040190565b6000602080835283518082850152825b81811015610bcf57858101830151858201604001528201610bb3565b81811115610be05783604083870101525b50601f01601f1916929092016040019392505050565b60208082526021908201527f5354415449435f56414c494441544f522f494e56414c49445f43414c4c5459506040820152604560f81b606082015260800190565b6020808252601f908201527f5354415449435f56414c494441544f522f494e56414c49445f54415247455400604082015260600190565b6020808252601f908201527f5354415449435f56414c494441544f522f414c52454144595f46494c4c454400604082015260600190565b60208082526021908201527f5354415449435f56414c494441544f522f455843454544535f4d41585f46494c6040820152601360fa1b606082015260800190565b60208082526021908201527f5354415449435f56414c494441544f522f494e56414c49445f53454c4543544f6040820152602960f91b606082015260800190565b604051601f8201601f191681016001600160401b0381118282101715610d4f57610d4f610dbc565b604052919050565b60006001600160401b03821115610d7057610d70610dbc565b5060051b90565b60008219821115610d8a57610d8a610da6565b500190565b600082821015610da157610da1610da6565b500390565b634e487b7160e01b600052601160045260246000fd5b634e487b7160e01b600052604160045260246000fd5b6001600160a01b0381168114610de757600080fd5b5056fea26469706673582212202f40365b139a9d94a96bfdca80776465daf20850af81fe75d8c2904271e2217a64736f6c63430008030033",
  "devdoc": {
    "kind": "dev",
    "methods": {},
    "version": 1
  },
  "userdoc": {
    "kind": "user",
    "methods": {
      "acceptContractAndSelectorAddUint256FillFromCallData(bytes,address[5],uint8,uint256[5],bytes)": {
        "notice": "Useful for offers that allow buyers provide how much they want to fill (e.g. buyers can choose how many punks to mint on each investment). This static check assumes position of chosen amount (must be uin256) is predictable from the call data. (e.g. PunksContract.mint(bytes32 punkType, uint256 amountToMint) -> offset must be \"33\""
      },
      "acceptContractAndSelectorAddUint32FillFromExtraData(bytes,address[5],uint8,uint256[5],bytes)": {
        "notice": "Useful for offers that give buyers same amount of fill (e.g. all buyers get 2 punks for each investment)."
      }
    },
    "version": 1
  },
  "storageLayout": {
    "storage": [],
    "types": null
  }
}