{
  "address": "0x704Db86993C725288e86d4a995CFDfcF7B0b714F",
  "abi": [
    {
      "anonymous": false,
      "inputs": [
        {
          "indexed": true,
          "internalType": "address",
          "name": "owner",
          "type": "address"
        },
        {
          "indexed": true,
          "internalType": "address",
          "name": "spender",
          "type": "address"
        },
        {
          "indexed": false,
          "internalType": "uint256",
          "name": "value",
          "type": "uint256"
        }
      ],
      "name": "Approval",
      "type": "event"
    },
    {
      "anonymous": false,
      "inputs": [
        {
          "indexed": false,
          "internalType": "address",
          "name": "account",
          "type": "address"
        }
      ],
      "name": "Paused",
      "type": "event"
    },
    {
      "anonymous": false,
      "inputs": [
        {
          "indexed": true,
          "internalType": "bytes32",
          "name": "role",
          "type": "bytes32"
        },
        {
          "indexed": true,
          "internalType": "bytes32",
          "name": "previousAdminRole",
          "type": "bytes32"
        },
        {
          "indexed": true,
          "internalType": "bytes32",
          "name": "newAdminRole",
          "type": "bytes32"
        }
      ],
      "name": "RoleAdminChanged",
      "type": "event"
    },
    {
      "anonymous": false,
      "inputs": [
        {
          "indexed": true,
          "internalType": "bytes32",
          "name": "role",
          "type": "bytes32"
        },
        {
          "indexed": true,
          "internalType": "address",
          "name": "account",
          "type": "address"
        },
        {
          "indexed": true,
          "internalType": "address",
          "name": "sender",
          "type": "address"
        }
      ],
      "name": "RoleGranted",
      "type": "event"
    },
    {
      "anonymous": false,
      "inputs": [
        {
          "indexed": true,
          "internalType": "bytes32",
          "name": "role",
          "type": "bytes32"
        },
        {
          "indexed": true,
          "internalType": "address",
          "name": "account",
          "type": "address"
        },
        {
          "indexed": true,
          "internalType": "address",
          "name": "sender",
          "type": "address"
        }
      ],
      "name": "RoleRevoked",
      "type": "event"
    },
    {
      "anonymous": false,
      "inputs": [
        {
          "indexed": false,
          "internalType": "uint256",
          "name": "id",
          "type": "uint256"
        }
      ],
      "name": "Snapshot",
      "type": "event"
    },
    {
      "anonymous": false,
      "inputs": [
        {
          "indexed": true,
          "internalType": "address",
          "name": "from",
          "type": "address"
        },
        {
          "indexed": true,
          "internalType": "address",
          "name": "to",
          "type": "address"
        },
        {
          "indexed": false,
          "internalType": "uint256",
          "name": "value",
          "type": "uint256"
        }
      ],
      "name": "Transfer",
      "type": "event"
    },
    {
      "anonymous": false,
      "inputs": [
        {
          "indexed": false,
          "internalType": "address",
          "name": "account",
          "type": "address"
        }
      ],
      "name": "Unpaused",
      "type": "event"
    },
    {
      "inputs": [],
      "name": "DEFAULT_ADMIN_ROLE",
      "outputs": [
        {
          "internalType": "bytes32",
          "name": "",
          "type": "bytes32"
        }
      ],
      "stateMutability": "view",
      "type": "function"
    },
    {
      "inputs": [],
      "name": "DOMAIN_SEPARATOR",
      "outputs": [
        {
          "internalType": "bytes32",
          "name": "",
          "type": "bytes32"
        }
      ],
      "stateMutability": "view",
      "type": "function"
    },
    {
      "inputs": [],
      "name": "GOVERNOR_ROLE",
      "outputs": [
        {
          "internalType": "bytes32",
          "name": "",
          "type": "bytes32"
        }
      ],
      "stateMutability": "view",
      "type": "function"
    },
    {
      "inputs": [],
      "name": "MINTER_ROLE",
      "outputs": [
        {
          "internalType": "bytes32",
          "name": "",
          "type": "bytes32"
        }
      ],
      "stateMutability": "view",
      "type": "function"
    },
    {
      "inputs": [
        {
          "internalType": "address",
          "name": "owner",
          "type": "address"
        },
        {
          "internalType": "address",
          "name": "spender",
          "type": "address"
        }
      ],
      "name": "allowance",
      "outputs": [
        {
          "internalType": "uint256",
          "name": "",
          "type": "uint256"
        }
      ],
      "stateMutability": "view",
      "type": "function"
    },
    {
      "inputs": [
        {
          "internalType": "address",
          "name": "spender",
          "type": "address"
        },
        {
          "internalType": "uint256",
          "name": "amount",
          "type": "uint256"
        }
      ],
      "name": "approve",
      "outputs": [
        {
          "internalType": "bool",
          "name": "",
          "type": "bool"
        }
      ],
      "stateMutability": "nonpayable",
      "type": "function"
    },
    {
      "inputs": [
        {
          "internalType": "address",
          "name": "account",
          "type": "address"
        }
      ],
      "name": "balanceOf",
      "outputs": [
        {
          "internalType": "uint256",
          "name": "",
          "type": "uint256"
        }
      ],
      "stateMutability": "view",
      "type": "function"
    },
    {
      "inputs": [
        {
          "internalType": "address",
          "name": "account",
          "type": "address"
        },
        {
          "internalType": "uint256",
          "name": "snapshotId",
          "type": "uint256"
        }
      ],
      "name": "balanceOfAt",
      "outputs": [
        {
          "internalType": "uint256",
          "name": "",
          "type": "uint256"
        }
      ],
      "stateMutability": "view",
      "type": "function"
    },
    {
      "inputs": [
        {
          "internalType": "uint256",
          "name": "amount",
          "type": "uint256"
        }
      ],
      "name": "burn",
      "outputs": [],
      "stateMutability": "nonpayable",
      "type": "function"
    },
    {
      "inputs": [
        {
          "internalType": "address",
          "name": "account",
          "type": "address"
        },
        {
          "internalType": "uint256",
          "name": "amount",
          "type": "uint256"
        }
      ],
      "name": "burnFrom",
      "outputs": [],
      "stateMutability": "nonpayable",
      "type": "function"
    },
    {
      "inputs": [],
      "name": "decimals",
      "outputs": [
        {
          "internalType": "uint8",
          "name": "",
          "type": "uint8"
        }
      ],
      "stateMutability": "view",
      "type": "function"
    },
    {
      "inputs": [
        {
          "internalType": "address",
          "name": "spender",
          "type": "address"
        },
        {
          "internalType": "uint256",
          "name": "subtractedValue",
          "type": "uint256"
        }
      ],
      "name": "decreaseAllowance",
      "outputs": [
        {
          "internalType": "bool",
          "name": "",
          "type": "bool"
        }
      ],
      "stateMutability": "nonpayable",
      "type": "function"
    },
    {
      "inputs": [
        {
          "internalType": "bytes32",
          "name": "role",
          "type": "bytes32"
        }
      ],
      "name": "getRoleAdmin",
      "outputs": [
        {
          "internalType": "bytes32",
          "name": "",
          "type": "bytes32"
        }
      ],
      "stateMutability": "view",
      "type": "function"
    },
    {
      "inputs": [
        {
          "internalType": "bytes32",
          "name": "role",
          "type": "bytes32"
        },
        {
          "internalType": "address",
          "name": "account",
          "type": "address"
        }
      ],
      "name": "grantRole",
      "outputs": [],
      "stateMutability": "nonpayable",
      "type": "function"
    },
    {
      "inputs": [
        {
          "internalType": "bytes32",
          "name": "role",
          "type": "bytes32"
        },
        {
          "internalType": "address",
          "name": "account",
          "type": "address"
        }
      ],
      "name": "hasRole",
      "outputs": [
        {
          "internalType": "bool",
          "name": "",
          "type": "bool"
        }
      ],
      "stateMutability": "view",
      "type": "function"
    },
    {
      "inputs": [
        {
          "internalType": "address",
          "name": "spender",
          "type": "address"
        },
        {
          "internalType": "uint256",
          "name": "addedValue",
          "type": "uint256"
        }
      ],
      "name": "increaseAllowance",
      "outputs": [
        {
          "internalType": "bool",
          "name": "",
          "type": "bool"
        }
      ],
      "stateMutability": "nonpayable",
      "type": "function"
    },
    {
      "inputs": [
        {
          "internalType": "string",
          "name": "name",
          "type": "string"
        },
        {
          "internalType": "string",
          "name": "symbol",
          "type": "string"
        }
      ],
      "name": "initialize",
      "outputs": [],
      "stateMutability": "nonpayable",
      "type": "function"
    },
    {
      "inputs": [
        {
          "internalType": "address",
          "name": "to",
          "type": "address"
        },
        {
          "internalType": "uint256",
          "name": "amount",
          "type": "uint256"
        }
      ],
      "name": "mint",
      "outputs": [],
      "stateMutability": "nonpayable",
      "type": "function"
    },
    {
      "inputs": [],
      "name": "name",
      "outputs": [
        {
          "internalType": "string",
          "name": "",
          "type": "string"
        }
      ],
      "stateMutability": "view",
      "type": "function"
    },
    {
      "inputs": [
        {
          "internalType": "address",
          "name": "owner",
          "type": "address"
        }
      ],
      "name": "nonces",
      "outputs": [
        {
          "internalType": "uint256",
          "name": "",
          "type": "uint256"
        }
      ],
      "stateMutability": "view",
      "type": "function"
    },
    {
      "inputs": [],
      "name": "pause",
      "outputs": [],
      "stateMutability": "nonpayable",
      "type": "function"
    },
    {
      "inputs": [],
      "name": "paused",
      "outputs": [
        {
          "internalType": "bool",
          "name": "",
          "type": "bool"
        }
      ],
      "stateMutability": "view",
      "type": "function"
    },
    {
      "inputs": [
        {
          "internalType": "address",
          "name": "owner",
          "type": "address"
        },
        {
          "internalType": "address",
          "name": "spender",
          "type": "address"
        },
        {
          "internalType": "uint256",
          "name": "value",
          "type": "uint256"
        },
        {
          "internalType": "uint256",
          "name": "deadline",
          "type": "uint256"
        },
        {
          "internalType": "uint8",
          "name": "v",
          "type": "uint8"
        },
        {
          "internalType": "bytes32",
          "name": "r",
          "type": "bytes32"
        },
        {
          "internalType": "bytes32",
          "name": "s",
          "type": "bytes32"
        }
      ],
      "name": "permit",
      "outputs": [],
      "stateMutability": "nonpayable",
      "type": "function"
    },
    {
      "inputs": [
        {
          "internalType": "bytes32",
          "name": "role",
          "type": "bytes32"
        },
        {
          "internalType": "address",
          "name": "account",
          "type": "address"
        }
      ],
      "name": "renounceRole",
      "outputs": [],
      "stateMutability": "nonpayable",
      "type": "function"
    },
    {
      "inputs": [
        {
          "internalType": "bytes32",
          "name": "role",
          "type": "bytes32"
        },
        {
          "internalType": "address",
          "name": "account",
          "type": "address"
        }
      ],
      "name": "revokeRole",
      "outputs": [],
      "stateMutability": "nonpayable",
      "type": "function"
    },
    {
      "inputs": [
        {
          "internalType": "bytes4",
          "name": "interfaceId",
          "type": "bytes4"
        }
      ],
      "name": "supportsInterface",
      "outputs": [
        {
          "internalType": "bool",
          "name": "",
          "type": "bool"
        }
      ],
      "stateMutability": "view",
      "type": "function"
    },
    {
      "inputs": [],
      "name": "symbol",
      "outputs": [
        {
          "internalType": "string",
          "name": "",
          "type": "string"
        }
      ],
      "stateMutability": "view",
      "type": "function"
    },
    {
      "inputs": [],
      "name": "totalSupply",
      "outputs": [
        {
          "internalType": "uint256",
          "name": "",
          "type": "uint256"
        }
      ],
      "stateMutability": "view",
      "type": "function"
    },
    {
      "inputs": [
        {
          "internalType": "uint256",
          "name": "snapshotId",
          "type": "uint256"
        }
      ],
      "name": "totalSupplyAt",
      "outputs": [
        {
          "internalType": "uint256",
          "name": "",
          "type": "uint256"
        }
      ],
      "stateMutability": "view",
      "type": "function"
    },
    {
      "inputs": [
        {
          "internalType": "address",
          "name": "recipient",
          "type": "address"
        },
        {
          "internalType": "uint256",
          "name": "amount",
          "type": "uint256"
        }
      ],
      "name": "transfer",
      "outputs": [
        {
          "internalType": "bool",
          "name": "",
          "type": "bool"
        }
      ],
      "stateMutability": "nonpayable",
      "type": "function"
    },
    {
      "inputs": [
        {
          "internalType": "address",
          "name": "sender",
          "type": "address"
        },
        {
          "internalType": "address",
          "name": "recipient",
          "type": "address"
        },
        {
          "internalType": "uint256",
          "name": "amount",
          "type": "uint256"
        }
      ],
      "name": "transferFrom",
      "outputs": [
        {
          "internalType": "bool",
          "name": "",
          "type": "bool"
        }
      ],
      "stateMutability": "nonpayable",
      "type": "function"
    },
    {
      "inputs": [],
      "name": "unpause",
      "outputs": [],
      "stateMutability": "nonpayable",
      "type": "function"
    }
  ],
  "transactionHash": "0xc840c6583846353c823194a2293cdbf6b2196e8667a31bbd2f0a483d22cea773",
  "args": [],
  "solcInputHash": "6253f7540daccdfc4c0585884c3f6d16",
  "bytecode": "0x608060405234801561001057600080fd5b50612462806100206000396000f3fe608060405234801561001057600080fd5b50600436106101805760003560e01c806301ffc9a71461018557806306fdde03146101ad578063095ea7b3146101c257806318160ddd146101d557806323b872dd146101e7578063248a9ca3146101fa5780632f2ff15d1461020d578063313ce567146102225780633644e5151461023157806336568abe14610239578063395093511461024c5780633f4ba83a1461025f57806340c10f191461026757806342966c681461027a5780634cd88b761461028d5780634ee2cd7e146102a05780635c975abb146102b357806370a08231146102be57806379cc6790146102d15780637ecebe00146102e45780638456cb59146102f757806391d14854146102ff57806395d89b4114610312578063981b24d01461031a578063a217fddf1461032d578063a457c2d714610335578063a9059cbb14610348578063ccc574901461035b578063d505accf14610370578063d539139314610383578063d547741f14610398578063dd62ed3e146103ab575b600080fd5b6101986101933660046120f8565b6103e4565b60405190151581526020015b60405180910390f35b6101b561041d565b6040516101a491906121ef565b6101986101d0366004612095565b6104af565b6099545b6040519081526020016101a4565b6101986101f5366004611fe9565b6104c6565b6101d96102083660046120be565b610575565b61022061021b3660046120d6565b61058a565b005b604051601281526020016101a4565b6101d96105ad565b6102206102473660046120d6565b6105bc565b61019861025a366004612095565b61063a565b610220610676565b610220610275366004612095565b6106b4565b6102206102883660046120be565b610715565b61022061029b366004612120565b610722565b6101d96102ae366004612095565b6107c6565b60fb5460ff16610198565b6101d96102cc366004611f9d565b610810565b6102206102df366004612095565b61082b565b6101d96102f2366004611f9d565b6108ac565b6102206108cb565b61019861030d3660046120d6565b610907565b6101b5610932565b6101d96103283660046120be565b610941565b6101d9600081565b610198610343366004612095565b61096d565b610198610356366004612095565b610a06565b6101d96000805160206123cd83398151915281565b61022061037e366004612024565b610a13565b6101d96000805160206123ed83398151915281565b6102206103a63660046120d6565b610b5a565b6101d96103b9366004611fb7565b6001600160a01b03918216600090815260986020908152604080832093909416825291909152205490565b60006001600160e01b03198216637965db0b60e01b148061041557506301ffc9a760e01b6001600160e01b03198316145b90505b919050565b6060609a805461042c90612341565b80601f016020809104026020016040519081016040528092919081815260200182805461045890612341565b80156104a55780601f1061047a576101008083540402835291602001916104a5565b820191906000526020600020905b81548152906001019060200180831161048857829003601f168201915b5050505050905090565b60006104bc338484610b77565b5060015b92915050565b60006104d3848484610c9b565b6001600160a01b03841660009081526098602090815260408083203384529091529020548281101561055d5760405162461bcd60e51b815260206004820152602860248201527f45524332303a207472616e7366657220616d6f756e74206578636565647320616044820152676c6c6f77616e636560c01b60648201526084015b60405180910390fd5b61056a8533858403610b77565b506001949350505050565b60009081526065602052604090206001015490565b61059382610575565b61059e81335b610e64565b6105a88383610ec8565b505050565b60006105b7610f4e565b905090565b6001600160a01b038116331461062c5760405162461bcd60e51b815260206004820152602f60248201527f416363657373436f6e74726f6c3a2063616e206f6e6c792072656e6f756e636560448201526e103937b632b9903337b91039b2b63360891b6064820152608401610554565b6106368282610fcb565b5050565b3360008181526098602090815260408083206001600160a01b038716845290915281205490916104bc91859061067190869061229c565b610b77565b61068e6000805160206123cd8339815191523361030d565b6106aa5760405162461bcd60e51b815260040161055490612270565b6106b2611032565b565b6106cc6000805160206123ed8339815191523361030d565b61070b5760405162461bcd60e51b815260206004820152601060248201526f2a27a5a2a717a727aa2fa6a4a72a22a960811b6044820152606401610554565b61063682826110c5565b61071f338261119f565b50565b600054610100900460ff168061073b575060005460ff16155b6107575760405162461bcd60e51b815260040161055490612222565b600054610100900460ff16158015610779576000805461ffff19166101011790555b61078383836112e7565b61078c83611350565b6107986000335b6113f0565b6107b06000805160206123cd83398151915233610793565b80156105a8576000805461ff0019169055505050565b6001600160a01b038216600090815261015f60205260408120819081906107ee9085906113fa565b91509150816108055761080085610810565b610807565b805b95945050505050565b6001600160a01b031660009081526097602052604090205490565b600061083783336103b9565b9050818110156108955760405162461bcd60e51b8152602060048201526024808201527f45524332303a206275726e20616d6f756e74206578636565647320616c6c6f77604482015263616e636560e01b6064820152608401610554565b6108a28333848403610b77565b6105a8838361119f565b6001600160a01b03811660009081526101c56020526040812054610415565b6108e36000805160206123cd8339815191523361030d565b6108ff5760405162461bcd60e51b815260040161055490612270565b6106b26114ff565b60009182526065602090815260408084206001600160a01b0393909316845291905290205460ff1690565b6060609b805461042c90612341565b6000806000610952846101606113fa565b915091508161096357609954610965565b805b949350505050565b3360009081526098602090815260408083206001600160a01b0386168452909152812054828110156109ef5760405162461bcd60e51b815260206004820152602560248201527f45524332303a2064656372656173656420616c6c6f77616e63652062656c6f77604482015264207a65726f60d81b6064820152608401610554565b6109fc3385858403610b77565b5060019392505050565b60006104bc338484610c9b565b83421115610a635760405162461bcd60e51b815260206004820152601d60248201527f45524332305065726d69743a206578706972656420646561646c696e650000006044820152606401610554565b60006101c654888888610a758c61157a565b6040805160208101969096526001600160a01b0394851690860152929091166060840152608083015260a082015260c0810186905260e0016040516020818303038152906040528051906020012090506000610ad0826115a3565b90506000610ae0828787876115f1565b9050896001600160a01b0316816001600160a01b031614610b435760405162461bcd60e51b815260206004820152601e60248201527f45524332305065726d69743a20696e76616c6964207369676e617475726500006044820152606401610554565b610b4e8a8a8a610b77565b50505050505050505050565b610b6382610575565b610b6d8133610599565b6105a88383610fcb565b6001600160a01b038316610bd95760405162461bcd60e51b8152602060048201526024808201527f45524332303a20617070726f76652066726f6d20746865207a65726f206164646044820152637265737360e01b6064820152608401610554565b6001600160a01b038216610c3a5760405162461bcd60e51b815260206004820152602260248201527f45524332303a20617070726f766520746f20746865207a65726f206164647265604482015261737360f01b6064820152608401610554565b6001600160a01b0383811660008181526098602090815260408083209487168084529482529182902085905590518481527f8c5be1e5ebec7d5bd14f71427d1e84f3dd0314c0f7b2291e5b200ac8c7c3b925910160405180910390a3505050565b6001600160a01b038316610cff5760405162461bcd60e51b815260206004820152602560248201527f45524332303a207472616e736665722066726f6d20746865207a65726f206164604482015264647265737360d81b6064820152608401610554565b6001600160a01b038216610d615760405162461bcd60e51b815260206004820152602360248201527f45524332303a207472616e7366657220746f20746865207a65726f206164647260448201526265737360e81b6064820152608401610554565b610d6c838383611782565b6001600160a01b03831660009081526097602052604090205481811015610de45760405162461bcd60e51b815260206004820152602660248201527f45524332303a207472616e7366657220616d6f756e7420657863656564732062604482015265616c616e636560d01b6064820152608401610554565b6001600160a01b03808516600090815260976020526040808220858503905591851681529081208054849290610e1b90849061229c565b92505081905550826001600160a01b0316846001600160a01b031660008051602061240d83398151915284604051610e5591815260200190565b60405180910390a35b50505050565b610e6e8282610907565b61063657610e86816001600160a01b0316601461178d565b610e9183602061178d565b604051602001610ea2929190612180565b60408051601f198184030181529082905262461bcd60e51b8252610554916004016121ef565b610ed28282610907565b6106365760008281526065602090815260408083206001600160a01b03851684529091529020805460ff19166001179055610f0a3390565b6001600160a01b0316816001600160a01b0316837f2f8788117e7eff1d82e926ec794901d17c78024a50270940304540a733656f0d60405160405180910390a45050565b60006105b77f8b73c3c69bb8fe3d512ecc4cf759cc79239f7b179b0ffacaa9a75d522b39400f610f7e6101915490565b610192546040805160208101859052908101839052606081018290524660808201523060a082015260009060c0016040516020818303038152906040528051906020012090509392505050565b610fd58282610907565b156106365760008281526065602090815260408083206001600160a01b0385168085529252808320805460ff1916905551339285917ff6391f5c32d9c69d2a47ea670b442974b53935d1edc7fd64eb21e047a839171b9190a45050565b60fb5460ff1661107b5760405162461bcd60e51b815260206004820152601460248201527314185d5cd8589b194e881b9bdd081c185d5cd95960621b6044820152606401610554565b60fb805460ff191690557f5db9ee0a495bf2e6ff9c91a7834c1ba4fdd244a5e8aa4e537bd38aeae4b073aa335b6040516001600160a01b03909116815260200160405180910390a1565b6001600160a01b03821661111b5760405162461bcd60e51b815260206004820152601f60248201527f45524332303a206d696e7420746f20746865207a65726f2061646472657373006044820152606401610554565b61112760008383611782565b8060996000828254611139919061229c565b90915550506001600160a01b0382166000908152609760205260408120805483929061116690849061229c565b90915550506040518181526001600160a01b0383169060009060008051602061240d8339815191529060200160405180910390a3610636565b6001600160a01b0382166111ff5760405162461bcd60e51b815260206004820152602160248201527f45524332303a206275726e2066726f6d20746865207a65726f206164647265736044820152607360f81b6064820152608401610554565b61120b82600083611782565b6001600160a01b0382166000908152609760205260409020548181101561127f5760405162461bcd60e51b815260206004820152602260248201527f45524332303a206275726e20616d6f756e7420657863656564732062616c616e604482015261636560f01b6064820152608401610554565b6001600160a01b03831660009081526097602052604081208383039055609980548492906112ae9084906122e7565b90915550506040518281526000906001600160a01b0385169060008051602061240d8339815191529060200160405180910390a36105a8565b600054610100900460ff1680611300575060005460ff16155b61131c5760405162461bcd60e51b815260040161055490612222565b600054610100900460ff1615801561133e576000805461ffff19166101011790555b611346611975565b6107b083836119e0565b600054610100900460ff1680611369575060005460ff16155b6113855760405162461bcd60e51b815260040161055490612222565b600054610100900460ff161580156113a7576000805461ffff19166101011790555b6113af611975565b6113d282604051806040016040528060018152602001603160f81b815250611a75565b6113db82611b01565b8015610636576000805461ff00191690555050565b6106368282610ec8565b600080600084116114465760405162461bcd60e51b815260206004820152601660248201527504552433230536e617073686f743a20696420697320360541b6044820152606401610554565b61144e611b92565b84111561149d5760405162461bcd60e51b815260206004820152601d60248201527f4552433230536e617073686f743a206e6f6e6578697374656e742069640000006044820152606401610554565b60006114a98486611b9e565b84549091508114156114c25760008092509250506114f8565b60018460010182815481106114e757634e487b7160e01b600052603260045260246000fd5b906000526020600020015492509250505b9250929050565b60fb5460ff16156115455760405162461bcd60e51b815260206004820152601060248201526f14185d5cd8589b194e881c185d5cd95960821b6044820152606401610554565b60fb805460ff191660011790557f62e78cea01bee320cd4e420270b5ea74000d11b0c9f74754ebdbfc544b05a2586110a83390565b6001600160a01b03811660009081526101c5602052604090208054600181018255905b50919050565b60006104156115b0610f4e565b8360405161190160f01b6020820152602281018390526042810182905260009060620160405160208183030381529060405280519060200120905092915050565b60006fa2a8918ca85bafe22016d0b997e4df60600160ff1b038211156116645760405162461bcd60e51b815260206004820152602260248201527f45434453413a20696e76616c6964207369676e6174757265202773272076616c604482015261756560f01b6064820152608401610554565b8360ff16601b148061167957508360ff16601c145b6116d05760405162461bcd60e51b815260206004820152602260248201527f45434453413a20696e76616c6964207369676e6174757265202776272076616c604482015261756560f01b6064820152608401610554565b6040805160008082526020820180845288905260ff871692820192909252606081018590526080810184905260019060a0016020604051602081039080840390855afa158015611724573d6000803e3d6000fd5b5050604051601f1901519150506001600160a01b0381166108075760405162461bcd60e51b815260206004820152601860248201527745434453413a20696e76616c6964207369676e617475726560401b6044820152606401610554565b6105a8838383611c7d565b6060600061179c8360026122c8565b6117a790600261229c565b6001600160401b038111156117cc57634e487b7160e01b600052604160045260246000fd5b6040519080825280601f01601f1916602001820160405280156117f6576020820181803683370190505b509050600360fc1b8160008151811061181f57634e487b7160e01b600052603260045260246000fd5b60200101906001600160f81b031916908160001a905350600f60fb1b8160018151811061185c57634e487b7160e01b600052603260045260246000fd5b60200101906001600160f81b031916908160001a90535060006118808460026122c8565b61188b90600161229c565b90505b600181111561191f576f181899199a1a9b1b9c1cb0b131b232b360811b85600f16601081106118cd57634e487b7160e01b600052603260045260246000fd5b1a60f81b8282815181106118f157634e487b7160e01b600052603260045260246000fd5b60200101906001600160f81b031916908160001a90535060049490941c936119188161232a565b905061188e565b50831561196e5760405162461bcd60e51b815260206004820181905260248201527f537472696e67733a20686578206c656e67746820696e73756666696369656e746044820152606401610554565b9392505050565b600054610100900460ff168061198e575060005460ff16155b6119aa5760405162461bcd60e51b815260040161055490612222565b600054610100900460ff161580156119cc576000805461ffff19166101011790555b801561071f576000805461ff001916905550565b600054610100900460ff16806119f9575060005460ff16155b611a155760405162461bcd60e51b815260040161055490612222565b600054610100900460ff16158015611a37576000805461ffff19166101011790555b8251611a4a90609a906020860190611e67565b508151611a5e90609b906020850190611e67565b5080156105a8576000805461ff0019169055505050565b600054610100900460ff1680611a8e575060005460ff16155b611aaa5760405162461bcd60e51b815260040161055490612222565b600054610100900460ff16158015611acc576000805461ffff19166101011790555b8251602080850191909120835191840191909120610191919091556101925580156105a8576000805461ff0019169055505050565b600054610100900460ff1680611b1a575060005460ff16155b611b365760405162461bcd60e51b815260040161055490612222565b600054610100900460ff16158015611b58576000805461ffff19166101011790555b7f6e71edae12b1b97f4d1f60370fef10105fa2faae0126114a169c64845d6126c96101c6558015610636576000805461ff00191690555050565b60006105b76101625490565b8154600090611baf575060006104c0565b82546000905b80821015611c19576000611bc98383611cd5565b905084868281548110611bec57634e487b7160e01b600052603260045260246000fd5b90600052602060002001541115611c0557809150611c13565b611c1081600161229c565b92505b50611bb5565b600082118015611c5c57508385611c316001856122e7565b81548110611c4f57634e487b7160e01b600052603260045260246000fd5b9060005260206000200154145b15611c7557611c6c6001836122e7565b925050506104c0565b5090506104c0565b611c88838383611d2c565b6001600160a01b038316611cac57611c9f82611d92565b611ca7611dbd565b6105a8565b6001600160a01b038216611cc357611c9f83611d92565b611ccc83611d92565b6105a882611d92565b60006002611ce38184612376565b611cee600286612376565b611cf8919061229c565b611d0291906122b4565b611d0d6002846122b4565b611d186002866122b4565b611d22919061229c565b61196e919061229c565b60fb5460ff16156105a85760405162461bcd60e51b815260206004820152602a60248201527f45524332305061757361626c653a20746f6b656e207472616e736665722077686044820152691a5b19481c185d5cd95960b21b6064820152608401610554565b6001600160a01b038116600090815261015f6020526040902061071f90611db883610810565b611dcc565b6106b2610160611db860995490565b6000611dd6611b92565b905080611de284611e16565b10156105a8578254600180820185556000858152602080822090930193909355938401805494850181558252902090910155565b8054600090611e2757506000610418565b81548290611e37906001906122e7565b81548110611e5557634e487b7160e01b600052603260045260246000fd5b90600052602060002001549050610418565b828054611e7390612341565b90600052602060002090601f016020900481019282611e955760008555611edb565b82601f10611eae57805160ff1916838001178555611edb565b82800160010185558215611edb579182015b82811115611edb578251825591602001919060010190611ec0565b50611ee7929150611eeb565b5090565b5b80821115611ee75760008155600101611eec565b80356001600160a01b038116811461041857600080fd5b600082601f830112611f27578081fd5b81356001600160401b0380821115611f4157611f416123b6565b604051601f8301601f19908116603f01168101908282118183101715611f6957611f696123b6565b81604052838152866020858801011115611f81578485fd5b8360208701602083013792830160200193909352509392505050565b600060208284031215611fae578081fd5b61196e82611f00565b60008060408385031215611fc9578081fd5b611fd283611f00565b9150611fe060208401611f00565b90509250929050565b600080600060608486031215611ffd578081fd5b61200684611f00565b925061201460208501611f00565b9150604084013590509250925092565b600080600080600080600060e0888a03121561203e578283fd5b61204788611f00565b965061205560208901611f00565b95506040880135945060608801359350608088013560ff81168114612078578384fd5b9699959850939692959460a0840135945060c09093013592915050565b600080604083850312156120a7578182fd5b6120b083611f00565b946020939093013593505050565b6000602082840312156120cf578081fd5b5035919050565b600080604083850312156120e8578182fd5b82359150611fe060208401611f00565b600060208284031215612109578081fd5b81356001600160e01b03198116811461196e578182fd5b60008060408385031215612132578182fd5b82356001600160401b0380821115612148578384fd5b61215486838701611f17565b93506020850135915080821115612169578283fd5b5061217685828601611f17565b9150509250929050565b600076020b1b1b2b9b9a1b7b73a3937b61d1030b1b1b7bab73a1604d1b825283516121b28160178501602088016122fe565b7001034b99036b4b9b9b4b733903937b6329607d1b60179184019182015283516121e38160288401602088016122fe565b01602801949350505050565b600060208252825180602084015261220e8160408501602087016122fe565b601f01601f19169190910160400192915050565b6020808252602e908201527f496e697469616c697a61626c653a20636f6e747261637420697320616c72656160408201526d191e481a5b9a5d1a585b1a5e995960921b606082015260800190565b6020808252601290820152712a27a5a2a717a727aa2fa3a7ab22a92727a960711b604082015260600190565b600082198211156122af576122af61238a565b500190565b6000826122c3576122c36123a0565b500490565b60008160001904831182151516156122e2576122e261238a565b500290565b6000828210156122f9576122f961238a565b500390565b60005b83811015612319578181015183820152602001612301565b83811115610e5e5750506000910152565b6000816123395761233961238a565b506000190190565b600181811c9082168061235557607f821691505b6020821081141561159d57634e487b7160e01b600052602260045260246000fd5b600082612385576123856123a0565b500690565b634e487b7160e01b600052601160045260246000fd5b634e487b7160e01b600052601260045260246000fd5b634e487b7160e01b600052604160045260246000fdfe7935bd0ae54bc31f548c14dba4d37c5c64b3f8ca900cb468fb8abd54d5894f559f2df0fed2c77648de5860a4cc508cd0818c85b8b8a1ab4ceeef8d981c8956a6ddf252ad1be2c89b69c2b068fc378daa952ba7f163c4a11628f55a4df523b3efa264697066735822122022398bdcd019a4638fbc787c9cd88993ec90e7a0d4a8876002022047922deab664736f6c63430008030033",
  "devdoc": {
    "kind": "dev",
    "methods": {
      "DOMAIN_SEPARATOR()": {
        "details": "See {IERC20Permit-DOMAIN_SEPARATOR}."
      },
      "allowance(address,address)": {
        "details": "See {IERC20-allowance}."
      },
      "approve(address,uint256)": {
        "details": "See {IERC20-approve}. Requirements: - `spender` cannot be the zero address."
      },
      "balanceOf(address)": {
        "details": "See {IERC20-balanceOf}."
      },
      "balanceOfAt(address,uint256)": {
        "details": "Retrieves the balance of `account` at the time `snapshotId` was created."
      },
      "burn(uint256)": {
        "details": "Destroys `amount` tokens from the caller. See {ERC20-_burn}."
      },
      "burnFrom(address,uint256)": {
        "details": "Destroys `amount` tokens from `account`, deducting from the caller's allowance. See {ERC20-_burn} and {ERC20-allowance}. Requirements: - the caller must have allowance for ``accounts``'s tokens of at least `amount`."
      },
      "decimals()": {
        "details": "Returns the number of decimals used to get its user representation. For example, if `decimals` equals `2`, a balance of `505` tokens should be displayed to a user as `5,05` (`505 / 10 ** 2`). Tokens usually opt for a value of 18, imitating the relationship between Ether and Wei. This is the value {ERC20} uses, unless this function is overridden; NOTE: This information is only used for _display_ purposes: it in no way affects any of the arithmetic of the contract, including {IERC20-balanceOf} and {IERC20-transfer}."
      },
      "decreaseAllowance(address,uint256)": {
        "details": "Atomically decreases the allowance granted to `spender` by the caller. This is an alternative to {approve} that can be used as a mitigation for problems described in {IERC20-approve}. Emits an {Approval} event indicating the updated allowance. Requirements: - `spender` cannot be the zero address. - `spender` must have allowance for the caller of at least `subtractedValue`."
      },
      "getRoleAdmin(bytes32)": {
        "details": "Returns the admin role that controls `role`. See {grantRole} and {revokeRole}. To change a role's admin, use {_setRoleAdmin}."
      },
      "grantRole(bytes32,address)": {
        "details": "Grants `role` to `account`. If `account` had not been already granted `role`, emits a {RoleGranted} event. Requirements: - the caller must have ``role``'s admin role."
      },
      "hasRole(bytes32,address)": {
        "details": "Returns `true` if `account` has been granted `role`."
      },
      "increaseAllowance(address,uint256)": {
        "details": "Atomically increases the allowance granted to `spender` by the caller. This is an alternative to {approve} that can be used as a mitigation for problems described in {IERC20-approve}. Emits an {Approval} event indicating the updated allowance. Requirements: - `spender` cannot be the zero address."
      },
      "name()": {
        "details": "Returns the name of the token."
      },
      "nonces(address)": {
        "details": "See {IERC20Permit-nonces}."
      },
      "paused()": {
        "details": "Returns true if the contract is paused, and false otherwise."
      },
      "permit(address,address,uint256,uint256,uint8,bytes32,bytes32)": {
        "details": "See {IERC20Permit-permit}."
      },
      "renounceRole(bytes32,address)": {
        "details": "Revokes `role` from the calling account. Roles are often managed via {grantRole} and {revokeRole}: this function's purpose is to provide a mechanism for accounts to lose their privileges if they are compromised (such as when a trusted device is misplaced). If the calling account had been granted `role`, emits a {RoleRevoked} event. Requirements: - the caller must be `account`."
      },
      "revokeRole(bytes32,address)": {
        "details": "Revokes `role` from `account`. If `account` had been granted `role`, emits a {RoleRevoked} event. Requirements: - the caller must have ``role``'s admin role."
      },
      "supportsInterface(bytes4)": {
        "details": "See {IERC165-supportsInterface}."
      },
      "symbol()": {
        "details": "Returns the symbol of the token, usually a shorter version of the name."
      },
      "totalSupply()": {
        "details": "See {IERC20-totalSupply}."
      },
      "totalSupplyAt(uint256)": {
        "details": "Retrieves the total supply at the time `snapshotId` was created."
      },
      "transfer(address,uint256)": {
        "details": "See {IERC20-transfer}. Requirements: - `recipient` cannot be the zero address. - the caller must have a balance of at least `amount`."
      },
      "transferFrom(address,address,uint256)": {
        "details": "See {IERC20-transferFrom}. Emits an {Approval} event indicating the updated allowance. This is not required by the EIP. See the note at the beginning of {ERC20}. Requirements: - `sender` and `recipient` cannot be the zero address. - `sender` must have a balance of at least `amount`. - the caller must have allowance for ``sender``'s tokens of at least `amount`."
      }
    },
    "version": 1
  },
  "userdoc": {
    "kind": "user",
    "methods": {},
    "version": 1
  },
  "storageLayout": {
    "storage": [
      {
        "astId": 401,
        "contract": "contracts/Token.sol:Token",
        "label": "_initialized",
        "offset": 0,
        "slot": "0",
        "type": "t_bool"
      },
      {
        "astId": 404,
        "contract": "contracts/Token.sol:Token",
        "label": "_initializing",
        "offset": 1,
        "slot": "0",
        "type": "t_bool"
      },
      {
        "astId": 2397,
        "contract": "contracts/Token.sol:Token",
        "label": "__gap",
        "offset": 0,
        "slot": "1",
        "type": "t_array(t_uint256)50_storage"
      },
      {
        "astId": 3052,
        "contract": "contracts/Token.sol:Token",
        "label": "__gap",
        "offset": 0,
        "slot": "51",
        "type": "t_array(t_uint256)50_storage"
      },
      {
        "astId": 86,
        "contract": "contracts/Token.sol:Token",
        "label": "_roles",
        "offset": 0,
        "slot": "101",
        "type": "t_mapping(t_bytes32,t_struct(RoleData)81_storage)"
      },
      {
        "astId": 394,
        "contract": "contracts/Token.sol:Token",
        "label": "__gap",
        "offset": 0,
        "slot": "102",
        "type": "t_array(t_uint256)49_storage"
      },
      {
        "astId": 631,
        "contract": "contracts/Token.sol:Token",
        "label": "_balances",
        "offset": 0,
        "slot": "151",
        "type": "t_mapping(t_address,t_uint256)"
      },
      {
        "astId": 637,
        "contract": "contracts/Token.sol:Token",
        "label": "_allowances",
        "offset": 0,
        "slot": "152",
        "type": "t_mapping(t_address,t_mapping(t_address,t_uint256))"
      },
      {
        "astId": 639,
        "contract": "contracts/Token.sol:Token",
        "label": "_totalSupply",
        "offset": 0,
        "slot": "153",
        "type": "t_uint256"
      },
      {
        "astId": 641,
        "contract": "contracts/Token.sol:Token",
        "label": "_name",
        "offset": 0,
        "slot": "154",
        "type": "t_string_storage"
      },
      {
        "astId": 643,
        "contract": "contracts/Token.sol:Token",
        "label": "_symbol",
        "offset": 0,
        "slot": "155",
        "type": "t_string_storage"
      },
      {
        "astId": 1184,
        "contract": "contracts/Token.sol:Token",
        "label": "__gap",
        "offset": 0,
        "slot": "156",
        "type": "t_array(t_uint256)45_storage"
      },
      {
        "astId": 1349,
        "contract": "contracts/Token.sol:Token",
        "label": "__gap",
        "offset": 0,
        "slot": "201",
        "type": "t_array(t_uint256)50_storage"
      },
      {
        "astId": 462,
        "contract": "contracts/Token.sol:Token",
        "label": "_paused",
        "offset": 0,
        "slot": "251",
        "type": "t_bool"
      },
      {
        "astId": 553,
        "contract": "contracts/Token.sol:Token",
        "label": "__gap",
        "offset": 0,
        "slot": "252",
        "type": "t_array(t_uint256)49_storage"
      },
      {
        "astId": 1414,
        "contract": "contracts/Token.sol:Token",
        "label": "__gap",
        "offset": 0,
        "slot": "301",
        "type": "t_array(t_uint256)50_storage"
      },
      {
        "astId": 1464,
        "contract": "contracts/Token.sol:Token",
        "label": "_accountBalanceSnapshots",
        "offset": 0,
        "slot": "351",
        "type": "t_mapping(t_address,t_struct(Snapshots)1459_storage)"
      },
      {
        "astId": 1467,
        "contract": "contracts/Token.sol:Token",
        "label": "_totalSupplySnapshots",
        "offset": 0,
        "slot": "352",
        "type": "t_struct(Snapshots)1459_storage"
      },
      {
        "astId": 1470,
        "contract": "contracts/Token.sol:Token",
        "label": "_currentSnapshotId",
        "offset": 0,
        "slot": "354",
        "type": "t_struct(Counter)2404_storage"
      },
      {
        "astId": 1767,
        "contract": "contracts/Token.sol:Token",
        "label": "__gap",
        "offset": 0,
        "slot": "355",
        "type": "t_array(t_uint256)46_storage"
      },
      {
        "astId": 2867,
        "contract": "contracts/Token.sol:Token",
        "label": "_HASHED_NAME",
        "offset": 0,
        "slot": "401",
        "type": "t_bytes32"
      },
      {
        "astId": 2869,
        "contract": "contracts/Token.sol:Token",
        "label": "_HASHED_VERSION",
        "offset": 0,
        "slot": "402",
        "type": "t_bytes32"
      },
      {
        "astId": 3006,
        "contract": "contracts/Token.sol:Token",
        "label": "__gap",
        "offset": 0,
        "slot": "403",
        "type": "t_array(t_uint256)50_storage"
      },
      {
        "astId": 1819,
        "contract": "contracts/Token.sol:Token",
        "label": "_nonces",
        "offset": 0,
        "slot": "453",
        "type": "t_mapping(t_address,t_struct(Counter)2404_storage)"
      },
      {
        "astId": 1821,
        "contract": "contracts/Token.sol:Token",
        "label": "_PERMIT_TYPEHASH",
        "offset": 0,
        "slot": "454",
        "type": "t_bytes32"
      },
      {
        "astId": 1989,
        "contract": "contracts/Token.sol:Token",
        "label": "__gap",
        "offset": 0,
        "slot": "455",
        "type": "t_array(t_uint256)49_storage"
      }
    ],
    "types": {
      "t_address": {
        "encoding": "inplace",
        "label": "address",
        "numberOfBytes": "20"
      },
      "t_array(t_uint256)45_storage": {
        "base": "t_uint256",
        "encoding": "inplace",
        "label": "uint256[45]",
        "numberOfBytes": "1440"
      },
      "t_array(t_uint256)46_storage": {
        "base": "t_uint256",
        "encoding": "inplace",
        "label": "uint256[46]",
        "numberOfBytes": "1472"
      },
      "t_array(t_uint256)49_storage": {
        "base": "t_uint256",
        "encoding": "inplace",
        "label": "uint256[49]",
        "numberOfBytes": "1568"
      },
      "t_array(t_uint256)50_storage": {
        "base": "t_uint256",
        "encoding": "inplace",
        "label": "uint256[50]",
        "numberOfBytes": "1600"
      },
      "t_array(t_uint256)dyn_storage": {
        "base": "t_uint256",
        "encoding": "dynamic_array",
        "label": "uint256[]",
        "numberOfBytes": "32"
      },
      "t_bool": {
        "encoding": "inplace",
        "label": "bool",
        "numberOfBytes": "1"
      },
      "t_bytes32": {
        "encoding": "inplace",
        "label": "bytes32",
        "numberOfBytes": "32"
      },
      "t_mapping(t_address,t_bool)": {
        "encoding": "mapping",
        "key": "t_address",
        "label": "mapping(address => bool)",
        "numberOfBytes": "32",
        "value": "t_bool"
      },
      "t_mapping(t_address,t_mapping(t_address,t_uint256))": {
        "encoding": "mapping",
        "key": "t_address",
        "label": "mapping(address => mapping(address => uint256))",
        "numberOfBytes": "32",
        "value": "t_mapping(t_address,t_uint256)"
      },
      "t_mapping(t_address,t_struct(Counter)2404_storage)": {
        "encoding": "mapping",
        "key": "t_address",
        "label": "mapping(address => struct CountersUpgradeable.Counter)",
        "numberOfBytes": "32",
        "value": "t_struct(Counter)2404_storage"
      },
      "t_mapping(t_address,t_struct(Snapshots)1459_storage)": {
        "encoding": "mapping",
        "key": "t_address",
        "label": "mapping(address => struct ERC20SnapshotUpgradeable.Snapshots)",
        "numberOfBytes": "32",
        "value": "t_struct(Snapshots)1459_storage"
      },
      "t_mapping(t_address,t_uint256)": {
        "encoding": "mapping",
        "key": "t_address",
        "label": "mapping(address => uint256)",
        "numberOfBytes": "32",
        "value": "t_uint256"
      },
      "t_mapping(t_bytes32,t_struct(RoleData)81_storage)": {
        "encoding": "mapping",
        "key": "t_bytes32",
        "label": "mapping(bytes32 => struct AccessControlUpgradeable.RoleData)",
        "numberOfBytes": "32",
        "value": "t_struct(RoleData)81_storage"
      },
      "t_string_storage": {
        "encoding": "bytes",
        "label": "string",
        "numberOfBytes": "32"
      },
      "t_struct(Counter)2404_storage": {
        "encoding": "inplace",
        "label": "struct CountersUpgradeable.Counter",
        "members": [
          {
            "astId": 2403,
            "contract": "contracts/Token.sol:Token",
            "label": "_value",
            "offset": 0,
            "slot": "0",
            "type": "t_uint256"
          }
        ],
        "numberOfBytes": "32"
      },
      "t_struct(RoleData)81_storage": {
        "encoding": "inplace",
        "label": "struct AccessControlUpgradeable.RoleData",
        "members": [
          {
            "astId": 78,
            "contract": "contracts/Token.sol:Token",
            "label": "members",
            "offset": 0,
            "slot": "0",
            "type": "t_mapping(t_address,t_bool)"
          },
          {
            "astId": 80,
            "contract": "contracts/Token.sol:Token",
            "label": "adminRole",
            "offset": 0,
            "slot": "1",
            "type": "t_bytes32"
          }
        ],
        "numberOfBytes": "64"
      },
      "t_struct(Snapshots)1459_storage": {
        "encoding": "inplace",
        "label": "struct ERC20SnapshotUpgradeable.Snapshots",
        "members": [
          {
            "astId": 1455,
            "contract": "contracts/Token.sol:Token",
            "label": "ids",
            "offset": 0,
            "slot": "0",
            "type": "t_array(t_uint256)dyn_storage"
          },
          {
            "astId": 1458,
            "contract": "contracts/Token.sol:Token",
            "label": "values",
            "offset": 0,
            "slot": "1",
            "type": "t_array(t_uint256)dyn_storage"
          }
        ],
        "numberOfBytes": "64"
      },
      "t_uint256": {
        "encoding": "inplace",
        "label": "uint256",
        "numberOfBytes": "32"
      }
    }
  }
}