{
  "address": "0x11e7D95b116B8470888E70F165Fb4DE27dE543c6",
  "abi": [
    {
      "anonymous": false,
      "inputs": [
        {
          "indexed": false,
          "internalType": "bytes32",
          "name": "hash",
          "type": "bytes32"
        },
        {
          "indexed": true,
          "internalType": "address",
          "name": "creator",
          "type": "address"
        },
        {
          "indexed": true,
          "internalType": "address",
          "name": "operator",
          "type": "address"
        },
        {
          "indexed": false,
          "internalType": "uint256",
          "name": "unfilledAmount",
          "type": "uint256"
        },
        {
          "indexed": false,
          "internalType": "uint256",
          "name": "newFill",
          "type": "uint256"
        }
      ],
      "name": "FundingCancelled",
      "type": "event"
    },
    {
      "anonymous": false,
      "inputs": [
        {
          "indexed": true,
          "internalType": "bytes32",
          "name": "hash",
          "type": "bytes32"
        },
        {
          "indexed": false,
          "internalType": "address",
          "name": "registry",
          "type": "address"
        },
        {
          "indexed": true,
          "internalType": "address",
          "name": "creator",
          "type": "address"
        },
        {
          "indexed": false,
          "internalType": "address",
          "name": "contributionValidatorTarget",
          "type": "address"
        },
        {
          "indexed": false,
          "internalType": "bytes4",
          "name": "contributionValidatorSelector",
          "type": "bytes4"
        },
        {
          "indexed": false,
          "internalType": "bytes",
          "name": "contributionValidatorExtradata",
          "type": "bytes"
        },
        {
          "indexed": false,
          "internalType": "address",
          "name": "cancellationValidatorTarget",
          "type": "address"
        },
        {
          "indexed": false,
          "internalType": "bytes4",
          "name": "cancellationValidatorSelector",
          "type": "bytes4"
        },
        {
          "indexed": false,
          "internalType": "bytes",
          "name": "cancellationValidatorExtradata",
          "type": "bytes"
        },
        {
          "indexed": false,
          "internalType": "uint256",
          "name": "maximumFill",
          "type": "uint256"
        },
        {
          "indexed": false,
          "internalType": "uint256",
          "name": "listingTime",
          "type": "uint256"
        },
        {
          "indexed": false,
          "internalType": "uint256",
          "name": "expirationTime",
          "type": "uint256"
        }
      ],
      "name": "OfferApproved",
      "type": "event"
    },
    {
      "anonymous": false,
      "inputs": [
        {
          "indexed": true,
          "internalType": "bytes32",
          "name": "hash",
          "type": "bytes32"
        },
        {
          "indexed": true,
          "internalType": "address",
          "name": "creator",
          "type": "address"
        },
        {
          "indexed": false,
          "internalType": "uint256",
          "name": "newFill",
          "type": "uint256"
        }
      ],
      "name": "OfferFillChanged",
      "type": "event"
    },
    {
      "anonymous": false,
      "inputs": [
        {
          "indexed": false,
          "internalType": "bytes32",
          "name": "hash",
          "type": "bytes32"
        },
        {
          "indexed": true,
          "internalType": "address",
          "name": "creator",
          "type": "address"
        },
        {
          "indexed": true,
          "internalType": "address",
          "name": "operator",
          "type": "address"
        },
        {
          "indexed": false,
          "internalType": "uint256",
          "name": "filledAmount",
          "type": "uint256"
        },
        {
          "indexed": false,
          "internalType": "uint256",
          "name": "newFill",
          "type": "uint256"
        }
      ],
      "name": "OfferFunded",
      "type": "event"
    },
    {
      "anonymous": false,
      "inputs": [
        {
          "indexed": true,
          "internalType": "bytes32",
          "name": "role",
          "type": "bytes32"
        },
        {
          "indexed": true,
          "internalType": "bytes32",
          "name": "previousAdminRole",
          "type": "bytes32"
        },
        {
          "indexed": true,
          "internalType": "bytes32",
          "name": "newAdminRole",
          "type": "bytes32"
        }
      ],
      "name": "RoleAdminChanged",
      "type": "event"
    },
    {
      "anonymous": false,
      "inputs": [
        {
          "indexed": true,
          "internalType": "bytes32",
          "name": "role",
          "type": "bytes32"
        },
        {
          "indexed": true,
          "internalType": "address",
          "name": "account",
          "type": "address"
        },
        {
          "indexed": true,
          "internalType": "address",
          "name": "sender",
          "type": "address"
        }
      ],
      "name": "RoleGranted",
      "type": "event"
    },
    {
      "anonymous": false,
      "inputs": [
        {
          "indexed": true,
          "internalType": "bytes32",
          "name": "role",
          "type": "bytes32"
        },
        {
          "indexed": true,
          "internalType": "address",
          "name": "account",
          "type": "address"
        },
        {
          "indexed": true,
          "internalType": "address",
          "name": "sender",
          "type": "address"
        }
      ],
      "name": "RoleRevoked",
      "type": "event"
    },
    {
      "inputs": [],
      "name": "DEFAULT_ADMIN_ROLE",
      "outputs": [
        {
          "internalType": "bytes32",
          "name": "",
          "type": "bytes32"
        }
      ],
      "stateMutability": "view",
      "type": "function"
    },
    {
      "inputs": [],
      "name": "GOVERNOR_ROLE",
      "outputs": [
        {
          "internalType": "bytes32",
          "name": "",
          "type": "bytes32"
        }
      ],
      "stateMutability": "view",
      "type": "function"
    },
    {
      "inputs": [
        {
          "internalType": "uint256[8]",
          "name": "fundingOptions",
          "type": "uint256[8]"
        },
        {
          "internalType": "address[6]",
          "name": "addrs",
          "type": "address[6]"
        },
        {
          "internalType": "uint256[3]",
          "name": "uints",
          "type": "uint256[3]"
        },
        {
          "internalType": "bytes4[2]",
          "name": "validatorSelectors",
          "type": "bytes4[2]"
        },
        {
          "internalType": "bytes",
          "name": "contributionValidatorExtradata",
          "type": "bytes"
        },
        {
          "internalType": "bytes",
          "name": "cancellationValidatorExtradata",
          "type": "bytes"
        }
      ],
      "name": "approveOffer",
      "outputs": [],
      "stateMutability": "nonpayable",
      "type": "function"
    },
    {
      "inputs": [
        {
          "internalType": "bytes32",
          "name": "hash",
          "type": "bytes32"
        }
      ],
      "name": "approveOfferHash",
      "outputs": [],
      "stateMutability": "nonpayable",
      "type": "function"
    },
    {
      "inputs": [
        {
          "internalType": "address",
          "name": "",
          "type": "address"
        },
        {
          "internalType": "bytes32",
          "name": "",
          "type": "bytes32"
        }
      ],
      "name": "approved",
      "outputs": [
        {
          "internalType": "bool",
          "name": "",
          "type": "bool"
        }
      ],
      "stateMutability": "view",
      "type": "function"
    },
    {
      "inputs": [
        {
          "internalType": "uint256[8]",
          "name": "fundingOptions",
          "type": "uint256[8]"
        },
        {
          "internalType": "address[6]",
          "name": "addrs",
          "type": "address[6]"
        },
        {
          "internalType": "uint256[4]",
          "name": "uints",
          "type": "uint256[4]"
        },
        {
          "internalType": "bytes4[2]",
          "name": "validatorSelectors",
          "type": "bytes4[2]"
        },
        {
          "internalType": "bytes",
          "name": "contributionValidatorExtradata",
          "type": "bytes"
        },
        {
          "internalType": "bytes",
          "name": "cancellationValidatorExtradata",
          "type": "bytes"
        },
        {
          "internalType": "bytes",
          "name": "signature",
          "type": "bytes"
        },
        {
          "internalType": "enum AuthenticatedProxy.HowToCall",
          "name": "howToCall",
          "type": "uint8"
        },
        {
          "internalType": "bytes",
          "name": "data",
          "type": "bytes"
        }
      ],
      "name": "cancelFunding",
      "outputs": [],
      "stateMutability": "nonpayable",
      "type": "function"
    },
    {
      "inputs": [
        {
          "internalType": "address",
          "name": "",
          "type": "address"
        },
        {
          "internalType": "bytes32",
          "name": "",
          "type": "bytes32"
        }
      ],
      "name": "fills",
      "outputs": [
        {
          "internalType": "uint256",
          "name": "",
          "type": "uint256"
        }
      ],
      "stateMutability": "view",
      "type": "function"
    },
    {
      "inputs": [
        {
          "internalType": "uint256[8]",
          "name": "fundingOptions",
          "type": "uint256[8]"
        },
        {
          "internalType": "address[6]",
          "name": "addrs",
          "type": "address[6]"
        },
        {
          "internalType": "uint256[3]",
          "name": "uints",
          "type": "uint256[3]"
        },
        {
          "internalType": "bytes4[2]",
          "name": "validatorSelectors",
          "type": "bytes4[2]"
        },
        {
          "internalType": "bytes",
          "name": "contributionValidatorExtradata",
          "type": "bytes"
        },
        {
          "internalType": "bytes",
          "name": "cancellationValidatorExtradata",
          "type": "bytes"
        },
        {
          "internalType": "bytes",
          "name": "signature",
          "type": "bytes"
        },
        {
          "internalType": "enum AuthenticatedProxy.HowToCall",
          "name": "howToCall",
          "type": "uint8"
        },
        {
          "internalType": "bytes",
          "name": "data",
          "type": "bytes"
        }
      ],
      "name": "fundOffer",
      "outputs": [],
      "stateMutability": "payable",
      "type": "function"
    },
    {
      "inputs": [
        {
          "internalType": "address",
          "name": "creator",
          "type": "address"
        },
        {
          "internalType": "bytes32",
          "name": "hash",
          "type": "bytes32"
        },
        {
          "internalType": "uint256[8]",
          "name": "fundingOptions",
          "type": "uint256[8]"
        },
        {
          "internalType": "uint256",
          "name": "fillAmount",
          "type": "uint256"
        }
      ],
      "name": "getOfferFundingCost",
      "outputs": [
        {
          "internalType": "uint256",
          "name": "fundingCost",
          "type": "uint256"
        },
        {
          "internalType": "uint256",
          "name": "protocolFeeAmount",
          "type": "uint256"
        }
      ],
      "stateMutability": "view",
      "type": "function"
    },
    {
      "inputs": [],
      "name": "getParameters",
      "outputs": [
        {
          "internalType": "uint256",
          "name": "protocolFee",
          "type": "uint256"
        }
      ],
      "stateMutability": "view",
      "type": "function"
    },
    {
      "inputs": [
        {
          "internalType": "bytes32",
          "name": "role",
          "type": "bytes32"
        }
      ],
      "name": "getRoleAdmin",
      "outputs": [
        {
          "internalType": "bytes32",
          "name": "",
          "type": "bytes32"
        }
      ],
      "stateMutability": "view",
      "type": "function"
    },
    {
      "inputs": [
        {
          "internalType": "bytes32",
          "name": "role",
          "type": "bytes32"
        },
        {
          "internalType": "address",
          "name": "account",
          "type": "address"
        }
      ],
      "name": "grantRole",
      "outputs": [],
      "stateMutability": "nonpayable",
      "type": "function"
    },
    {
      "inputs": [
        {
          "internalType": "bytes32",
          "name": "role",
          "type": "bytes32"
        },
        {
          "internalType": "address",
          "name": "account",
          "type": "address"
        }
      ],
      "name": "hasRole",
      "outputs": [
        {
          "internalType": "bool",
          "name": "",
          "type": "bool"
        }
      ],
      "stateMutability": "view",
      "type": "function"
    },
    {
      "inputs": [
        {
          "internalType": "uint256[8]",
          "name": "fundingOptions",
          "type": "uint256[8]"
        },
        {
          "internalType": "address[6]",
          "name": "addrs",
          "type": "address[6]"
        },
        {
          "internalType": "uint256[3]",
          "name": "uints",
          "type": "uint256[3]"
        },
        {
          "internalType": "bytes4[2]",
          "name": "validatorSelectors",
          "type": "bytes4[2]"
        },
        {
          "internalType": "bytes",
          "name": "contributionValidatorExtradata",
          "type": "bytes"
        },
        {
          "internalType": "bytes",
          "name": "cancellationValidatorExtradata",
          "type": "bytes"
        }
      ],
      "name": "hashOffer",
      "outputs": [
        {
          "internalType": "bytes32",
          "name": "hash",
          "type": "bytes32"
        }
      ],
      "stateMutability": "pure",
      "type": "function"
    },
    {
      "inputs": [
        {
          "internalType": "bytes32",
          "name": "orderHash",
          "type": "bytes32"
        }
      ],
      "name": "hashToSign",
      "outputs": [
        {
          "internalType": "bytes32",
          "name": "hash",
          "type": "bytes32"
        }
      ],
      "stateMutability": "view",
      "type": "function"
    },
    {
      "inputs": [
        {
          "internalType": "address[]",
          "name": "registryAddrs",
          "type": "address[]"
        },
        {
          "internalType": "address",
          "name": "treasury",
          "type": "address"
        },
        {
          "internalType": "address",
          "name": "funding",
          "type": "address"
        },
        {
          "internalType": "uint256",
          "name": "protocolFee",
          "type": "uint256"
        }
      ],
      "name": "initialize",
      "outputs": [],
      "stateMutability": "nonpayable",
      "type": "function"
    },
    {
      "inputs": [],
      "name": "name",
      "outputs": [
        {
          "internalType": "string",
          "name": "",
          "type": "string"
        }
      ],
      "stateMutability": "view",
      "type": "function"
    },
    {
      "inputs": [
        {
          "internalType": "address",
          "name": "",
          "type": "address"
        },
        {
          "internalType": "bytes32",
          "name": "",
          "type": "bytes32"
        }
      ],
      "name": "offerTotalFunded",
      "outputs": [
        {
          "internalType": "uint256",
          "name": "",
          "type": "uint256"
        }
      ],
      "stateMutability": "view",
      "type": "function"
    },
    {
      "inputs": [
        {
          "internalType": "address",
          "name": "",
          "type": "address"
        }
      ],
      "name": "registries",
      "outputs": [
        {
          "internalType": "bool",
          "name": "",
          "type": "bool"
        }
      ],
      "stateMutability": "view",
      "type": "function"
    },
    {
      "inputs": [
        {
          "internalType": "bytes32",
          "name": "role",
          "type": "bytes32"
        },
        {
          "internalType": "address",
          "name": "account",
          "type": "address"
        }
      ],
      "name": "renounceRole",
      "outputs": [],
      "stateMutability": "nonpayable",
      "type": "function"
    },
    {
      "inputs": [
        {
          "internalType": "bytes32",
          "name": "role",
          "type": "bytes32"
        },
        {
          "internalType": "address",
          "name": "account",
          "type": "address"
        }
      ],
      "name": "revokeRole",
      "outputs": [],
      "stateMutability": "nonpayable",
      "type": "function"
    },
    {
      "inputs": [
        {
          "internalType": "address",
          "name": "newAddress",
          "type": "address"
        }
      ],
      "name": "setFunding",
      "outputs": [],
      "stateMutability": "nonpayable",
      "type": "function"
    },
    {
      "inputs": [
        {
          "internalType": "bytes32",
          "name": "hash",
          "type": "bytes32"
        },
        {
          "internalType": "uint256",
          "name": "fill",
          "type": "uint256"
        }
      ],
      "name": "setOfferFill",
      "outputs": [],
      "stateMutability": "nonpayable",
      "type": "function"
    },
    {
      "inputs": [
        {
          "internalType": "uint256",
          "name": "newValue",
          "type": "uint256"
        }
      ],
      "name": "setProtocolFee",
      "outputs": [],
      "stateMutability": "nonpayable",
      "type": "function"
    },
    {
      "inputs": [
        {
          "internalType": "address",
          "name": "newAddress",
          "type": "address"
        }
      ],
      "name": "setTreasury",
      "outputs": [],
      "stateMutability": "nonpayable",
      "type": "function"
    },
    {
      "inputs": [
        {
          "internalType": "bytes4",
          "name": "interfaceId",
          "type": "bytes4"
        }
      ],
      "name": "supportsInterface",
      "outputs": [
        {
          "internalType": "bool",
          "name": "",
          "type": "bool"
        }
      ],
      "stateMutability": "view",
      "type": "function"
    },
    {
      "inputs": [
        {
          "internalType": "bytes32",
          "name": "hash",
          "type": "bytes32"
        },
        {
          "internalType": "address",
          "name": "creator",
          "type": "address"
        },
        {
          "internalType": "bytes",
          "name": "signature",
          "type": "bytes"
        }
      ],
      "name": "validateOfferAuthorization",
      "outputs": [
        {
          "internalType": "bool",
          "name": "",
          "type": "bool"
        }
      ],
      "stateMutability": "view",
      "type": "function"
    },
    {
      "inputs": [
        {
          "internalType": "uint256[8]",
          "name": "fundingOptions",
          "type": "uint256[8]"
        },
        {
          "internalType": "address[6]",
          "name": "addrs",
          "type": "address[6]"
        },
        {
          "internalType": "uint256[3]",
          "name": "uints",
          "type": "uint256[3]"
        },
        {
          "internalType": "bytes4[2]",
          "name": "validatorSelectors",
          "type": "bytes4[2]"
        },
        {
          "internalType": "bytes",
          "name": "contributionValidatorExtradata",
          "type": "bytes"
        },
        {
          "internalType": "bytes",
          "name": "cancellationValidatorExtradata",
          "type": "bytes"
        }
      ],
      "name": "validateOfferParameters",
      "outputs": [
        {
          "internalType": "bool",
          "name": "",
          "type": "bool"
        }
      ],
      "stateMutability": "view",
      "type": "function"
    },
    {
      "inputs": [],
      "name": "version",
      "outputs": [
        {
          "internalType": "string",
          "name": "",
          "type": "string"
        }
      ],
      "stateMutability": "view",
      "type": "function"
    }
  ],
  "transactionHash": "0x89e3a6e74640be3fade8a71e296e9687df9be328eabee8a21bb471362595e635",
  "args": [],
  "solcInputHash": "233757979a060566d670d2bd0adf8ffc",
  "bytecode": "0x608060405234801561001057600080fd5b50615435806100206000396000f3fe6080604052600436106101525760003560e01c806301ffc9a71461015757806306fdde031461018c5780631fff53da146101d2578063248a9ca3146101f25780632f2ff15d1461022057806336568abe1461024257806341d1ac78146102625780634f3fb160146102825780635192174a146102bb57806354996a7c146102db57806354fd4d50146102fb578063787dce3d1461032a5780637fad46f21461034a57806391d148541461036a5780639f9ce2c71461038a578063a217fddf146103aa578063a5ea11da146103bf578063a9ee2ba1146103d5578063c40cf3f9146103e8578063caed80df14610408578063ccc5749014610438578063d547741f1461045a578063f0f442601461047a578063f399a7221461049a578063f7a7faa8146104ba578063fac7fc38146104da578063fc623ef814610515578063fcbecc6314610535578063ffc2ab141461056a575b600080fd5b34801561016357600080fd5b50610177610172366004614cc8565b6105a2565b60405190151581526020015b60405180910390f35b34801561019857600080fd5b506101c56040518060400160405280600d81526020016c466c6169722046696e616e636560981b81525081565b60405161018391906150c0565b3480156101de57600080fd5b506101776101ed366004614c4e565b6105db565b3480156101fe57600080fd5b5061021261020d366004614c07565b610629565b604051908152602001610183565b34801561022c57600080fd5b5061024061023b366004614c1f565b61063f565b005b34801561024e57600080fd5b5061024061025d366004614c1f565b610662565b34801561026e57600080fd5b5061024061027d366004614aca565b6106e5565b34801561028e57600080fd5b5061021261029d36600461478d565b61020360209081526000928352604080842090915290825290205481565b3480156102c757600080fd5b506102406102d6366004614ca7565b61094e565b3480156102e757600080fd5b506102406102f6366004614c07565b610958565b34801561030757600080fd5b506101c560405180604001604052806003815260200162302e3160e81b81525081565b34801561033657600080fd5b50610240610345366004614c07565b610964565b34801561035657600080fd5b50610240610365366004614800565b61099e565b34801561037657600080fd5b50610177610385366004614c1f565b610b07565b34801561039657600080fd5b506102406103a53660046148dd565b610b35565b3480156103b657600080fd5b50610212600081565b3480156103cb57600080fd5b5061020254610212565b6102406103e3366004614995565b610cf2565b3480156103f457600080fd5b506101776104033660046148dd565b610f48565b34801561041457600080fd5b50610177610423366004614755565b60996020526000908152604090205460ff1681565b34801561044457600080fd5b506102126000805160206153e083398151915281565b34801561046657600080fd5b50610240610475366004614c1f565b611118565b34801561048657600080fd5b50610240610495366004614755565b611135565b3480156104a657600080fd5b506102406104b5366004614755565b61118c565b3480156104c657600080fd5b506102126104d53660046148dd565b6111e3565b3480156104e657600080fd5b506101776104f536600461478d565b609b60209081526000928352604080842090915290825290205460ff1681565b34801561052157600080fd5b50610212610530366004614c07565b6113a5565b34801561054157600080fd5b506105556105503660046147b8565b6113b0565b60408051928352602083019190915201610183565b34801561057657600080fd5b5061021261058536600461478d565b609a60209081526000928352604080842090915290825290205481565b60006001600160e01b03198216637965db0b60e01b14806105d357506301ffc9a760e01b6001600160e01b03198316145b90505b919050565b600061061e858585858080601f01602080910402602001604051908101604052809392919081815260200183838082843760009201919091525061144f92505050565b90505b949350505050565b60009081526101ce602052604090206001015490565b61064882610629565b61065381335b61164f565b61065d83836116b3565b505050565b6001600160a01b03811633146106d75760405162461bcd60e51b815260206004820152602f60248201527f416363657373436f6e74726f6c3a2063616e206f6e6c792072656e6f756e636560448201526e103937b632b9903337b91039b2b63360891b60648201526084015b60405180910390fd5b6106e1828261173a565b5050565b610940604051806101a001604052808d60006006811061071557634e487b7160e01b600052603260045260246000fd5b6020020160208101906107289190614755565b6001600160a01b031681526020018e6008806020026040519081016040528092919082600860200280828437600092019190915250505081526020018d600160200201602081019061077a9190614755565b6001600160a01b031681526020018d600260200201602081019061079e9190614755565b6001600160a01b031681526020018d60036020020160208101906107c29190614755565b6001600160a01b031681528b516001600160e01b03191660208083019190915260408051601f8d0183900483028101830182528c8152920191908c908c90819084018382808284376000920191909152505050908252506020018d60046020020160208101906108329190614755565b6001600160a01b0316815260208c8101516001600160e01b0319168183015260408051601f8b0183900483028101830182528a8152920191908a908a90819084018382808284376000920191909152505050908252508c356020808301919091528d013560408201526060018c6002602002013590526040805160608101909152808e60056020020160208101906108ca9190614755565b6001600160a01b031681526020018660018111156108f857634e487b7160e01b600052602160045260246000fd5b815260200185858080601f01602080910402602001604051908101604052809392919081815260200183838082843760009201919091525050509152508660608e01356117a2565b505050505050505050505050565b6106e18282611984565b61096181611a38565b50565b61097c6000805160206153e083398151915233610385565b6109985760405162461bcd60e51b81526004016106ce906150d3565b61020255565b600054610100900460ff16806109b7575060005460ff16155b6109d35760405162461bcd60e51b81526004016106ce90615136565b600054610100900460ff161580156109f5576000805461ffff19166101011790555b610a3f6040518060400160405280600d81526020016c466c6169722046696e616e636560981b81525060405180604001604052806003815260200162302e3160e81b815250611ac3565b61020080546001600160a01b038087166001600160a01b03199283161790925561020180549286169290911691909117905561020282905560005b8551811015610aed57600160996000888481518110610aa957634e487b7160e01b600052603260045260246000fd5b6020908102919091018101516001600160a01b03168252810191909152604001600020805460ff191691151591909117905580610ae581615343565b915050610a7a565b508015610b00576000805461ff00191690555b5050505050565b60008281526101ce602090815260408083206001600160a01b038516845290915290205460ff165b92915050565b610ce8604051806101a0016040528089600060068110610b6557634e487b7160e01b600052603260045260246000fd5b602002016020810190610b789190614755565b6001600160a01b031681526020018a600880602002604051908101604052809291908260086020028082843760009201919091525050508152602090810190610bc79060408c01908c01614755565b6001600160a01b03168152602001610be560608b0160408c01614755565b6001600160a01b03168152602001610c0360808b0160608c01614755565b6001600160a01b0316815287516001600160e01b03191660208083019190915260408051601f89018390048302810183018252888152920191908890889081908401838280828437600092019190915250505090825250602001610c6d60a08b0160808c01614755565b6001600160a01b031681526020888101516001600160e01b0319168183015260408051601f870183900483028101830182528681529201919086908690819084018382808284376000920191909152505050908252508835602080830191909152890135604082015260600188600260200201359052611b4a565b5050505050505050565b610940604051806101a001604052808d600060068110610d2257634e487b7160e01b600052603260045260246000fd5b602002016020810190610d359190614755565b6001600160a01b031681526020018e6008806020026040519081016040528092919082600860200280828437600092019190915250505081526020018d6001602002016020810190610d879190614755565b6001600160a01b031681526020018d6002602002016020810190610dab9190614755565b6001600160a01b031681526020018d6003602002016020810190610dcf9190614755565b6001600160a01b031681528b516001600160e01b03191660208083019190915260408051601f8d0183900483028101830182528c8152920191908c908c90819084018382808284376000920191909152505050908252506020018d6004602002016020810190610e3f9190614755565b6001600160a01b0316815260208c8101516001600160e01b0319168183015260408051601f8b0183900483028101830182528a8152920191908a908a90819084018382808284376000920191909152505050908252508c356020808301919091528d013560408201526060018c6002602002013590526040805160608101909152808e6005602002016020810190610ed79190614755565b6001600160a01b03168152602001866001811115610f0557634e487b7160e01b600052602160045260246000fd5b815260200185858080601f016020809104026020016040519081016040528093929190818152602001838380828437600092019190915250505091525086611c29565b600080604051806101a001604052808a600060068110610f7857634e487b7160e01b600052603260045260246000fd5b602002016020810190610f8b9190614755565b6001600160a01b031681526020018b600880602002604051908101604052809291908260086020028082843760009201919091525050508152602090810190610fda9060408d01908d01614755565b6001600160a01b03168152602001610ff860608c0160408d01614755565b6001600160a01b0316815260200161101660808c0160608d01614755565b6001600160a01b0316815288516001600160e01b03191660208083019190915260408051601f8a01839004830281018301825289815292019190899089908190840183828082843760009201919091525050509082525060200161108060a08c0160808d01614755565b6001600160a01b031681526020898101516001600160e01b0319168183015260408051601f8801839004830281018301825287815292019190879087908190840183828082843760009201919091525050509082525089356020808301919091528a0135604082015260600189600260200201359052905061110a8161110581611f38565b61200f565b9a9950505050505050505050565b61112182610629565b61112b813361064e565b61065d838361173a565b61114d6000805160206153e083398151915233610385565b6111695760405162461bcd60e51b81526004016106ce906150d3565b61020080546001600160a01b0319166001600160a01b0392909216919091179055565b6111a46000805160206153e083398151915233610385565b6111c05760405162461bcd60e51b81526004016106ce906150d3565b61020180546001600160a01b0319166001600160a01b0392909216919091179055565b6000611398604051806101a001604052808a60006006811061121557634e487b7160e01b600052603260045260246000fd5b6020020160208101906112289190614755565b6001600160a01b031681526020018b6008806020026040519081016040528092919082600860200280828437600092019190915250505081526020908101906112779060408d01908d01614755565b6001600160a01b0316815260200161129560608c0160408d01614755565b6001600160a01b031681526020016112b360808c0160608d01614755565b6001600160a01b0316815288516001600160e01b03191660208083019190915260408051601f8a01839004830281018301825289815292019190899089908190840183828082843760009201919091525050509082525060200161131d60a08c0160808d01614755565b6001600160a01b031681526020898101516001600160e01b0319168183015260408051601f8801839004830281018301825287815292019190879087908190840183828082843760009201919091525050509082525089356020808301919091528a0135604082015260600189600260200201359052611f38565b9998505050505050505050565b60006105d38261209e565b6001600160a01b0384166000908152609a602090815260408083208684529091528120548190611426906113e89060a08701356151eb565b6001600160a01b0388166000908152610203602090815260408083208a845290915290205461141b9060c08801356151eb565b60e0870135866120a9565b9150612710610202548361143a919061525e565b6114449190615228565b905094509492505050565b6001600160a01b0382166000908152609a602090815260408083208684529091528120541561148057506001611648565b6001600160a01b0383166000908152609b6020908152604080832087845290915290205460ff16156114b457506001611648565b60006114bf8561209e565b9050833b158015906115895760408051602080820185905282518083039091018152818301928390526320c13b0b60e01b928390526001600160a01b038816916320c13b0b9161151391899060440161509b565b60206040518083038186803b15801561152b57600080fd5b505afa15801561153f573d6000803e3d6000fd5b505050506040513d601f19601f820116820180604052508101906115639190614ce4565b6001600160e01b031916141561157e57600192505050611648565b600092505050611648565b6000806000868060200190518101906115a29190614d00565b9250925092506000600186858585604051600081526020016040526040516115e6949392919093845260ff9290921660208401526040830152606082015260800190565b6020604051602081039080840390855afa158015611608573d6000803e3d6000fd5b505050602060405103519050886001600160a01b0316816001600160a01b0316141561163d5760019650505050505050611648565b600096505050505050505b9392505050565b6116598282610b07565b6106e157611671816001600160a01b0316601461225d565b61167c83602061225d565b60405160200161168d929190614de9565b60408051601f198184030181529082905262461bcd60e51b82526106ce916004016150c0565b6116bd8282610b07565b6106e15760008281526101ce602090815260408083206001600160a01b03851684529091529020805460ff191660011790556116f63390565b6001600160a01b0316816001600160a01b0316837f2f8788117e7eff1d82e926ec794901d17c78024a50270940304540a733656f0d60405160405180910390a45050565b6117448282610b07565b156106e15760008281526101ce602090815260408083206001600160a01b0385168085529252808320805460ff1916905551339285917ff6391f5c32d9c69d2a47ea670b442974b53935d1edc7fd64eb21e047a839171b9190a45050565b33600080806117b288888861243e565b9250925092508082116118045760405162461bcd60e51b815260206004820152601a602482015279119310525497d19253905390d14bd393d517d55391925313115160321b60448201526064016106ce565b600061181082846152a9565b610201548a516040516001600160a01b0391821660248201526044810188905288821660648201526084810184905260a481018a905292935060009291169060c40160408051601f198184030181529181526020820180516001600160e01b03166321a5ec5560e21b179052516118879190614dcd565b6000604051808303816000865af19150503d80600081146118c4576040519150601f19603f3d011682016040523d82523d6000602084013e6118c9565b606091505b50509050806119245760405162461bcd60e51b815260206004820152602160248201527f464c4149525f46494e414e43452f43414e43454c4c4154494f4e5f4641494c456044820152601160fa1b60648201526084016106ce565b60608a810151604080518881526020810186905290810186905233926001600160a01b03909216917fdf549223bc8d876b6f3ec5a6851b4e01dd9ee3eed3407e0cd4ba5640fa62d21c91015b60405180910390a350505050505050505050565b336000908152609a602090815260408083208584529091529020548114156119e35760405162461bcd60e51b815260206004820152601260248201527113d191915494cbd053149150511657d4d15560721b60448201526064016106ce565b336000818152609a60209081526040808320868452825291829020849055905183815284917f0e847c9965d8cc4f9906e90cafbe22a94be7c6fc0d07629284df4d0d92c23ba791015b60405180910390a35050565b336000908152609b6020908152604080832084845290915290205460ff1615611a9d5760405162461bcd60e51b815260206004820152601760248201527613d191915494cbd053149150511657d054141493d59151604a1b60448201526064016106ce565b336000908152609b6020908152604080832093835292905220805460ff19166001179055565b600054610100900460ff1680611adc575060005460ff16155b611af85760405162461bcd60e51b81526004016106ce90615136565b600054610100900460ff16158015611b1a576000805461ffff19166101011790555b611b248383612614565b611b2c61269e565b611b3461270e565b801561065d576000805461ff0019169055505050565b60608101516001600160a01b03163314611b965760405162461bcd60e51b815260206004820152600d60248201526c13d191915494cbd11153925151609a1b60448201526064016106ce565b6000611ba182611f38565b9050611bac81611a38565b81606001516001600160a01b0316817f1c8e14d33ce42ca319f40b2414bf255bc016fa18cbfba4e7226ffbf14860723c846040015185608001518660a001518760c001518860e001518961010001518a61012001518b61014001518c61016001518d6101800151604051611a2c9a99989796959493929190614e58565b3360008080611c39878787612779565b925092509250818111611c895760405162461bcd60e51b8152602060048201526018602482015277119310525497d19253905390d14bd393d517d1925313115160421b60448201526064016106ce565b6000611c9583836152a9565b90506000611d1b848a60200151600560088110611cc257634e487b7160e01b600052603260045260246000fd5b6020020151611cd191906151eb565b60608b01516001600160a01b03166000908152610203602090815260408083208a8452825290912054908c015160c00151611d0c91906151eb565b60208c015160e00151856120a9565b60608a01516001600160a01b0316600090815261020360209081526040808320898452909152812080549293508392909190611d589084906151eb565b90915550506102025460009061271090611d72908461525e565b611d7c9190615228565b9050611d8881836151eb565b3414611dd65760405162461bcd60e51b815260206004820152601d60248201527f464c4149525f46494e414e43452f494e56414c49445f5041594d454e5400000060448201526064016106ce565b61020054611ded906001600160a01b031682612908565b5061020154895160208b01516040516000936001600160a01b0316928592611e20928b91908d908a908790602401614ee1565b60408051601f198184030181529181526020820180516001600160e01b03166347cb53b160e01b17905251611e559190614dcd565b60006040518083038185875af1925050503d8060008114611e92576040519150601f19603f3d011682016040523d82523d6000602084013e611e97565b606091505b5050905080611ee85760405162461bcd60e51b815260206004820152601f60248201527f464c4149525f46494e414e43452f494e564553544d454e545f4641494c45440060448201526064016106ce565b60608a810151604080518981526020810187905290810187905233926001600160a01b03909216917fceddde4c0c21b65d05c297969912b7e11bde7d56974e9a90935f7fb6eddc9f099101611970565b60007f0bbb411b5496fa95ca5790465a01c54898a4fc71ab6b5f361a2cf1295a73699e82600001518360200151604051602001611f759190614f58565b604051602081830303815290604052805190602001208460400151856060015186608001518760a001518860c00151805190602001208960e001518a61010001518b6101200151805190602001208c61014001518d61016001518e6101800151604051602001611ff29e9d9c9b9a99989796959493929190614f67565b604051602081830303815290604052805190602001209050919050565b600042836101600151118061203857506101808301511580159061203857504283610180015111155b1561204557506000610b2f565b61014083015160608401516001600160a01b03166000908152609a602090815260408083208684529091529020541061208057506000610b2f565b60808301513b15155b61209557506000610b2f565b50600192915050565b60006105d382612a1e565b60008085116120ef5760405162461bcd60e51b81526020600482015260126024820152714552525f494e56414c49445f535550504c5960701b60448201526064016106ce565b6000841161213d5760405162461bcd60e51b815260206004820152601b60248201527a4552525f494e56414c49445f524553455256455f42414c414e434560281b60448201526064016106ce565b60018363ffffffff1611801561216c575061215c620f4240600261527d565b63ffffffff168363ffffffff1611155b6121b45760405162461bcd60e51b81526020600482015260196024820152784552525f494e56414c49445f524553455256455f524154494f60381b60448201526064016106ce565b816121c157506000610621565b63ffffffff8316620f42401415612205578460016121df8487612a6c565b6121e991906152a9565b6121f39190615228565b6121fe9060016151eb565b9050610621565b600080806122138886612a78565b90506122248189620f424089612a84565b9093509150600060ff8316600161223b8a87612a6c565b61224591906152a9565b612251911c60016151eb565b905061139888826152a9565b6060600061226c83600261525e565b6122779060026151eb565b6001600160401b0381111561229c57634e487b7160e01b600052604160045260246000fd5b6040519080825280601f01601f1916602001820160405280156122c6576020820181803683370190505b509050600360fc1b816000815181106122ef57634e487b7160e01b600052603260045260246000fd5b60200101906001600160f81b031916908160001a905350600f60fb1b8160018151811061232c57634e487b7160e01b600052603260045260246000fd5b60200101906001600160f81b031916908160001a905350600061235084600261525e565b61235b9060016151eb565b90505b60018111156123ef576f181899199a1a9b1b9c1cb0b131b232b360811b85600f166010811061239d57634e487b7160e01b600052603260045260246000fd5b1a60f81b8282815181106123c157634e487b7160e01b600052603260045260246000fd5b60200101906001600160f81b031916908160001a90535060049490941c936123e88161530f565b905061235e565b5083156116485760405162461bcd60e51b815260206004820181905260248201527f537472696e67733a20686578206c656e67746820696e73756666696369656e7460448201526064016106ce565b6000806000600260335414156124665760405162461bcd60e51b81526004016106ce90615184565b600260335561247486611f38565b92506124808684612b71565b6124ca5760405162461bcd60e51b815260206004820152601b60248201527a13d191915494cbd0d05390d1531310551253d397d2539590531251602a1b60448201526064016106ce565b6124d98387606001518661144f565b6125255760405162461bcd60e51b815260206004820181905260248201527f4f46464552532f43414e43454c4c4154494f4e5f554e415554484f52495a454460448201526064016106ce565b6125388660400151876060015187612bcd565b6125815760405162461bcd60e51b815260206004820152601a60248201527913d191915494cbd0d05390d1531310551253d397d1905253115160321b60448201526064016106ce565b60608601516001600160a01b03166000908152609a6020908152604080832086845290915290205491506125b88686333486612f1a565b90508181106125d95760405162461bcd60e51b81526004016106ce90615107565b60608601516001600160a01b03166000908152609a602090815260408083208684529091529020819055600160338190555093509350939050565b600054610100900460ff168061262d575060005460ff16155b6126495760405162461bcd60e51b81526004016106ce90615136565b600054610100900460ff1615801561266b576000805461ffff19166101011790555b8251602080850191909120835191840191909120606591909155606655801561065d576000805461ff0019169055505050565b600054610100900460ff16806126b7575060005460ff16155b6126d35760405162461bcd60e51b81526004016106ce90615136565b600054610100900460ff161580156126f5576000805461ffff19166101011790555b60016033558015610961576000805461ff001916905550565b600054610100900460ff1680612727575060005460ff16155b6127435760405162461bcd60e51b81526004016106ce90615136565b600054610100900460ff16158015612765576000805461ffff19166101011790555b8015610961576000805461ff001916905550565b6000806000600260335414156127a15760405162461bcd60e51b81526004016106ce90615184565b60026033556127af86611f38565b92506127bb868461200f565b6128005760405162461bcd60e51b815260206004820152601660248201527513d191915494cbd1955391125391d7d253959053125160521b60448201526064016106ce565b61280f8387606001518661144f565b6128595760405162461bcd60e51b815260206004820152601b60248201527a13d191915494cbd1955391125391d7d5539055551213d492569151602a1b60448201526064016106ce565b61286c8660400151876060015187612bcd565b6128b05760405162461bcd60e51b815260206004820152601560248201527413d191915494cbd1955391125391d7d19052531151605a1b60448201526064016106ce565b60608601516001600160a01b03166000908152609a6020908152604080832086845290915290205491506128e78686333486612f36565b90508181116125d95760405162461bcd60e51b81526004016106ce90615107565b804710156129585760405162461bcd60e51b815260206004820152601d60248201527f416464726573733a20696e73756666696369656e742062616c616e636500000060448201526064016106ce565b6000826001600160a01b03168260405160006040518083038185875af1925050503d80600081146129a5576040519150601f19603f3d011682016040523d82523d6000602084013e6129aa565b606091505b505090508061065d5760405162461bcd60e51b815260206004820152603a60248201527f416464726573733a20756e61626c6520746f2073656e642076616c75652c20726044820152791958da5c1a595b9d081b585e481a185d99481c995d995c9d195960321b60648201526084016106ce565b60006105d3612a2b612f4d565b8360405161190160f01b6020820152602281018390526042810182905260009060620160405160208183030381529060405280519060200120905092915050565b6000611648828461525e565b600061164882846151eb565b600080600160811b8610612a9757600080fd5b60008086612aa96001607f1b8a61525e565b612ab39190615228565b905070015bf0a8b1457695355fb8ac404e7a79e3811015612ade57612ad781612fcd565b9150612aea565b612ae78161353c565b91505b60008563ffffffff168763ffffffff1684612b05919061525e565b612b0f9190615228565b9050600160831b811015612b3457612b268161362a565b607f94509450505050612b68565b6000612b3f82613c55565b9050612b5b612b4f82607f6152c0565b60ff1683901c82613d35565b95509350612b6892505050565b94509492505050565b6000428361016001511115612b8857506000610b2f565b60608301516001600160a01b03166000908152609a6020908152604080832085845290915290205460011115612bc057506000610b2f565b60e08301513b1515612089565b6001600160a01b03831660009081526099602052604081205460ff16612bf257600080fd5b81513b612c3e5760405162461bcd60e51b815260206004820152601a60248201527910d85b1b081d185c99d95d08191bd95cc81b9bdd08195e1a5cdd60321b60448201526064016106ce565b60405163c455279160e01b81526001600160a01b0384811660048301526000919086169063c455279190602401602060405180830381600087803b158015612c8557600080fd5b505af1158015612c99573d6000803e3d6000fd5b505050506040513d601f19601f82011682018060405250810190612cbd9190614771565b90506001600160a01b038116612d275760405162461bcd60e51b815260206004820152602960248201527f44656c65676174652070726f787920646f6573206e6f7420657869737420666f604482015268391031b932b0ba37b960b91b60648201526084016106ce565b846001600160a01b03166397204d8e6040518163ffffffff1660e01b8152600401602060405180830381600087803b158015612d6257600080fd5b505af1158015612d76573d6000803e3d6000fd5b505050506040513d601f19601f82011682018060405250810190612d9a9190614771565b6001600160a01b0316816001600160a01b0316635c60da1b6040518163ffffffff1660e01b815260040160206040518083038186803b158015612ddc57600080fd5b505afa158015612df0573d6000803e3d6000fd5b505050506040513d601f19601f82011682018060405250810190612e149190614771565b6001600160a01b031614612e865760405162461bcd60e51b815260206004820152603360248201527f496e636f72726563742064656c65676174652070726f787920696d706c656d65604482015272373a30ba34b7b7103337b91031b932b0ba37b960691b60648201526084016106ce565b825160208401516040808601519051631b0f7ba960e01b815284936001600160a01b03851693631b0f7ba993612ebe93600401614f29565b602060405180830381600087803b158015612ed857600080fd5b505af1158015612eec573d6000803e3d6000fd5b505050506040513d601f19601f82011682018060405250810190612f109190614be7565b9695505050505050565b6000612f108660e00151612f318888888888614397565b614479565b6000612f108660800151612f3188888888886144df565b6000612fc87f8b73c3c69bb8fe3d512ecc4cf759cc79239f7b179b0ffacaa9a75d522b39400f612f7c60655490565b6066546040805160208101859052908101839052606081018290524660808201523060a082015260009060c0016040516020818303038152906040528051906020012090509392505050565b905090565b6000808080806fd3094c70f034de4b96ff7d5b6f99fcd8861061302657612ff86001607e1b856151eb565b93506fd3094c70f034de4b96ff7d5b6f99fcd86130196001607f1b8861525e565b6130239190615228565b95505b6fa45af1e1f40c333b3de1db4dd55f29a786106130795761304b6001607d1b856151eb565b93506fa45af1e1f40c333b3de1db4dd55f29a761306c6001607f1b8861525e565b6130769190615228565b95505b6f910b022db7ae67ce76b441c27035c6a186106130cc5761309e6001607c1b856151eb565b93506f910b022db7ae67ce76b441c27035c6a16130bf6001607f1b8861525e565b6130c99190615228565b95505b6f88415abbe9a76bead8d00cf112e4d4a8861061311f576130f16001607b1b856151eb565b93506f88415abbe9a76bead8d00cf112e4d4a86131126001607f1b8861525e565b61311c9190615228565b95505b6f84102b00893f64c705e841d5d4064bd38610613172576131446001607a1b856151eb565b93506f84102b00893f64c705e841d5d4064bd36131656001607f1b8861525e565b61316f9190615228565b95505b6f8204055aaef1c8bd5c3259f4822735a286106131c557613197600160791b856151eb565b93506f8204055aaef1c8bd5c3259f4822735a26131b86001607f1b8861525e565b6131c29190615228565b95505b6f810100ab00222d861931c15e39b44e998610613218576131ea600160781b856151eb565b93506f810100ab00222d861931c15e39b44e9961320b6001607f1b8861525e565b6132159190615228565b95505b6f808040155aabbbe9451521693554f733861061326b5761323d600160771b856151eb565b93506f808040155aabbbe9451521693554f73361325e6001607f1b8861525e565b6132689190615228565b95505b6132796001607f1b876152a9565b92508291506001607f1b61328d838061525e565b6132979190615228565b9050600160801b6132a884826152a9565b6132b2908461525e565b6132bc9190615228565b6132c690856151eb565b93506001607f1b6132d7828461525e565b6132e19190615228565b9150600160811b613302846faaaaaaaaaaaaaaaaaaaaaaaaaaaaaaaa6152a9565b61330c908461525e565b6133169190615228565b61332090856151eb565b93506001607f1b613331828461525e565b61333b9190615228565b9150600360801b61335c846f999999999999999999999999999999996152a9565b613366908461525e565b6133709190615228565b61337a90856151eb565b93506001607f1b61338b828461525e565b6133959190615228565b9150600160821b6133b6846f924924924924924924924924924924926152a9565b6133c0908461525e565b6133ca9190615228565b6133d490856151eb565b93506001607f1b6133e5828461525e565b6133ef9190615228565b9150600560801b613410846f8e38e38e38e38e38e38e38e38e38e38e6152a9565b61341a908461525e565b6134249190615228565b61342e90856151eb565b93506001607f1b61343f828461525e565b6134499190615228565b9150600360811b61346a846f8ba2e8ba2e8ba2e8ba2e8ba2e8ba2e8b6152a9565b613474908461525e565b61347e9190615228565b61348890856151eb565b93506001607f1b613499828461525e565b6134a39190615228565b9150600760801b6134c4846f89d89d89d89d89d89d89d89d89d89d896152a9565b6134ce908461525e565b6134d89190615228565b6134e290856151eb565b93506001607f1b6134f3828461525e565b6134fd9190615228565b9150600160831b61351e846f888888888888888888888888888888886152a9565b613528908461525e565b6135329190615228565b612f1090856151eb565b600080600160801b831061358057600061356261355d6001607f1b86615228565b614580565b60ff811694851c9490915061357c906001607f1b9061525e565b9150505b6001607f1b8311156135f557607f5b60ff8116156135f3576001607f1b6135a7858061525e565b6135b19190615228565b9350600160801b84106135e357600193841c936135ce90826152c0565b60ff166001901b826135e091906151eb565b91505b6135ec81615326565b905061358f565b505b6f05b9de1d10bf4103d647b0955897ba806136206f03f80fe03f80fe03f80fe03f80fe03f88361525e565b6116489190615228565b600080808061363d6001607c1b8661535e565b91508190506001607f1b613651828061525e565b61365b9190615228565b905061366f816710e1b3be415a000061525e565b61367990846151eb565b92506001607f1b61368a838361525e565b6136949190615228565b90506136a8816705a0913f6b1e000061525e565b6136b290846151eb565b92506001607f1b6136c3838361525e565b6136cd9190615228565b90506136e181670168244fdac7800061525e565b6136eb90846151eb565b92506001607f1b6136fc838361525e565b6137069190615228565b905061371981664807432bc1800061525e565b61372390846151eb565b92506001607f1b613734838361525e565b61373e9190615228565b905061375181660c0135dca0400061525e565b61375b90846151eb565b92506001607f1b61376c838361525e565b6137769190615228565b9050613789816601b707b1cdc00061525e565b61379390846151eb565b92506001607f1b6137a4838361525e565b6137ae9190615228565b90506137c0816536e0f639b80061525e565b6137ca90846151eb565b92506001607f1b6137db838361525e565b6137e59190615228565b90506137f781650618fee9f80061525e565b61380190846151eb565b92506001607f1b613812838361525e565b61381c9190615228565b905061382d81649c197dcc0061525e565b61383790846151eb565b92506001607f1b613848838361525e565b6138529190615228565b905061386381640e30dce40061525e565b61386d90846151eb565b92506001607f1b61387e838361525e565b6138889190615228565b90506138998164012ebd130061525e565b6138a390846151eb565b92506001607f1b6138b4838361525e565b6138be9190615228565b90506138ce816317499f0061525e565b6138d890846151eb565b92506001607f1b6138e9838361525e565b6138f39190615228565b9050613903816301a9d48061525e565b61390d90846151eb565b92506001607f1b61391e838361525e565b6139289190615228565b905061393781621c638061525e565b61394190846151eb565b92506001607f1b613952838361525e565b61395c9190615228565b905061396b816201c63861525e565b61397590846151eb565b92506001607f1b613986838361525e565b6139909190615228565b905061399e81611ab861525e565b6139a890846151eb565b92506001607f1b6139b9838361525e565b6139c39190615228565b90506139d18161017c61525e565b6139db90846151eb565b92506001607f1b6139ec838361525e565b6139f69190615228565b9050613a0381601461525e565b613a0d90846151eb565b92506001607f1b613a1e838361525e565b613a289190615228565b9050613a3581600161525e565b613a3f90846151eb565b92506001607f1b82613a596721c3677c82b4000086615228565b613a6391906151eb565b613a6d91906151eb565b92506001607c1b851615613ab55770018ebef9eac820ae8682b9793ac6d1e776613aa8847001c3d6a24ed82218787d624d3e5eba95f961525e565b613ab29190615228565b92505b6001607d1b851615613afb577001368b2fc6f9609fe7aceb46aa619baed4613aee8470018ebef9eac820ae8682b9793ac6d1e77861525e565b613af89190615228565b92505b6001607e1b851615613b40576fbc5ab1b16779be3575bd8f0520a9f21f613b33847001368b2fc6f9609fe7aceb46aa619baed561525e565b613b3d9190615228565b92505b6001607f1b851615613b84576f454aaa8efe072e7f6ddbab84b40a55c9613b77846fbc5ab1b16779be3575bd8f0520a9f21e61525e565b613b819190615228565b92505b600160801b851615613bc8576f0960aadc109e7a3bf4578099615711ea613bbb846f454aaa8efe072e7f6ddbab84b40a55c561525e565b613bc59190615228565b92505b600160811b851615613c0b576e2bf84208204f5977f9a8cf01fdce3d613bfe846f0960aadc109e7a3bf4578099615711d761525e565b613c089190615228565b92505b600160821b851615613c4c576d03c6ab775dd0b95b4cbee7e65d11613c3f846e2bf84208204f5977f9a8cf01fdc30761525e565b613c499190615228565b92505b50909392505050565b60006020607f5b60ff8116613c6b836001615203565b60ff161015613ccc5760006002613c828385615203565b613c8c919061523c565b905084609c8260ff1660808110613cb357634e487b7160e01b600052603260045260246000fd5b015410613cc257809250613cc6565b8091505b50613c5c565b83609c8260ff1660808110613cf157634e487b7160e01b600052603260045260246000fd5b015410613d015791506105d69050565b83609c8360ff1660808110613d2657634e487b7160e01b600052603260045260246000fd5b015410610152575090506105d6565b6000828160ff8416613d47838061525e565b901c9150613d64826b0d10b13981d2a0bc5e5fdcab601e1b61525e565b613d6e90826151eb565b905060ff8416613d7e868461525e565b901c9150613d9b826b045ae5bdd5f0e03eca1ff439601e1b61525e565b613da590826151eb565b905060ff8416613db5868461525e565b901c9150613dd2826e45ae5bdd5f0e03eca1ff439000000061525e565b613ddc90826151eb565b905060ff8416613dec868461525e565b901c9150613e08826adefabf91302cd95b9ffda5601c1b61525e565b613e1290826151eb565b905060ff8416613e22868461525e565b901c9150613e3e826a4a53953065644873dfff37601b1b61525e565b613e4890826151eb565b905060ff8416613e58868461525e565b901c9150613e74826d54f1cf12bd04e516b6da8800000061525e565b613e7e90826151eb565b905060ff8416613e8e868461525e565b901c9150613eaa826d0a9e39e257a09ca2d6db5100000061525e565b613eb490826151eb565b905060ff8416613ec4868461525e565b901c9150613ee0826d012e066e7b839fa050c30900000061525e565b613eea90826151eb565b905060ff8416613efa868461525e565b901c9150613f15826c1e33d7d926c329a1ad1a80000061525e565b613f1f90826151eb565b905060ff8416613f2f868461525e565b901c9150613f4a826c02bee513bdb4a6b19b5f80000061525e565b613f5490826151eb565b905060ff8416613f64868461525e565b901c9150613f7e826b3a9316fa79b88eccf2a0000061525e565b613f8890826151eb565b905060ff8416613f98868461525e565b901c9150613fb2826b048177ebe1fa81237520000061525e565b613fbc90826151eb565b905060ff8416613fcc868461525e565b901c9150613fe5826a5263fe90242dcbacf0000061525e565b613fef90826151eb565b905060ff8416613fff868461525e565b901c9150614018826a057e22099c030d9410000061525e565b61402290826151eb565b905060ff8416614032868461525e565b901c915061404a826957e22099c030d941000061525e565b61405490826151eb565b905060ff8416614064868461525e565b901c915061407c8269052b6b5456997631000061525e565b61408690826151eb565b905060ff8416614096868461525e565b901c91506140ad82684985f67696bf74800061525e565b6140b790826151eb565b905060ff84166140c7868461525e565b901c91506140de826803dea12ea99e49800061525e565b6140e890826151eb565b905060ff84166140f8868461525e565b901c915061410e826731880f2214b6e00061525e565b61411890826151eb565b905060ff8416614128868461525e565b901c915061413e8267025bcff56eb3600061525e565b61414890826151eb565b905060ff8416614158868461525e565b901c915061416d82661b722e10ab100061525e565b61417790826151eb565b905060ff8416614187868461525e565b901c915061419c826601317c7007700061525e565b6141a690826151eb565b905060ff84166141b6868461525e565b901c91506141ca82650cba84aafa0061525e565b6141d490826151eb565b905060ff84166141e4868461525e565b901c91506141f7826482573a0a0061525e565b61420190826151eb565b905060ff8416614211868461525e565b901c9150614224826405035ad90061525e565b61422e90826151eb565b905060ff841661423e868461525e565b901c915061425082632f881b0061525e565b61425a90826151eb565b905060ff841661426a868461525e565b901c915061427c826301b2934061525e565b61428690826151eb565b905060ff8416614296868461525e565b901c91506142a782620efc4061525e565b6142b190826151eb565b905060ff84166142c1868461525e565b901c91506142d182617fe061525e565b6142db90826151eb565b905060ff84166142eb868461525e565b901c91506142fb8261042061525e565b61430590826151eb565b905060ff8416614315868461525e565b901c915061432482602161525e565b61432e90826151eb565b905060ff841661433e868461525e565b901c915061434d82600161525e565b61435790826151eb565b9050600160ff85161b8561437a6b0d10b13981d2a0bc5e5fdcab601f1b84615228565b61438491906151eb565b61438e91906151eb565b95945050505050565b6040805160a0808201835287516001600160a01b03908116835288840151811660208085019190915260608a8101518316858701528951831685820152918816608080860191909152855193840186528784526101408b0151848301526101608b0151848701526101808b01518484015283018690526101008a01516101208b0151918a01518a87015196519396919361443a9392879291879190602401615000565b60408051601f198184030181529190526020810180516001600160e01b03166001600160e01b0319909316929092179091529250505095945050505050565b60008060206040518181865160208801895afa9250805193505050806144d85760405162461bcd60e51b815260206004820152601460248201527314d510551250d7d0d0531311548bd1905253115160621b60448201526064016106ce565b5092915050565b6040805160a0808201835287516001600160a01b03908116835288840151811660208085019190915260608a8101518316858701528951831685820152918816608080860191909152855180850187528881526101408c0151818401526101608c0151818801526101808c015181850152908101879052928a015160c08b0151918a01518a87015196519396919361443a9392879291879190602401615000565b6000806101008310156145b3575b60018311156145ae57600192831c926145a79082615203565b905061458e565b6105d3565b60805b60ff8116156144d857600160ff82161b84106145da5760ff81169390931c92908117905b60011c607f166145b6565b80356105d6816153b4565b8060c08101831015610b2f57600080fd5b600082601f830112614611578081fd5b61461b60406151bb565b80838560408601111561462c578384fd5b835b6002811015614657578135614642816153c9565b8452602093840193919091019060010161462e565b509095945050505050565b8060608101831015610b2f57600080fd5b8060808101831015610b2f57600080fd5b806101008101831015610b2f57600080fd5b60008083601f8401126146a7578182fd5b5081356001600160401b038111156146bd578182fd5b6020830191508360208285010111156146d557600080fd5b9250929050565b600082601f8301126146ec578081fd5b81356001600160401b038111156147055761470561539e565b614718601f8201601f19166020016151bb565b81815284602083860101111561472c578283fd5b816020850160208301379081016020019190915292915050565b8035600281106105d657600080fd5b600060208284031215614766578081fd5b8135611648816153b4565b600060208284031215614782578081fd5b8151611648816153b4565b6000806040838503121561479f578081fd5b82356147aa816153b4565b946020939093013593505050565b60008060008061016085870312156147ce578182fd5b84356147d9816153b4565b9350602085013592506147ef8660408701614684565b939692955092936101400135925050565b60008060008060808587031215614815578384fd5b84356001600160401b038082111561482b578586fd5b818701915087601f83011261483e578586fd5b81356020828211156148525761485261539e565b8160051b92506148638184016151bb565b8281528181019085830185870184018d101561487d578a8bfd5b8a96505b848710156148ab5780359550614896866153b4565b85835260019690960195918301918301614881565b5098506148bb90508982016145e5565b9650505050506148cd604086016145e5565b9396929550929360600135925050565b6000806000806000806000806102a0898b0312156148f9578586fd5b6149038a8a614684565b97506149138a6101008b016145f0565b96506149238a6101c08b01614662565b95506149338a6102208b01614601565b94506102608901356001600160401b038082111561494f578586fd5b61495b8c838d01614696565b90965094506102808b0135915080821115614974578384fd5b506149818b828c01614696565b999c989b5096995094979396929594505050565b6000806000806000806000806000806000806103008d8f0312156149b7578586fd5b6149c18e8e614684565b9b506149d18e6101008f016145f0565b9a506149e18e6101c08f01614662565b99506149f18e6102208f01614601565b98506001600160401b036102608e01351115614a0b578586fd5b614a1c8e6102608f01358f01614696565b90985096506001600160401b036102808e01351115614a39578586fd5b614a4a8e6102808f01358f01614696565b90965094506001600160401b036102a08e01351115614a67578384fd5b614a788e6102a08f01358f016146dc565b9350614a876102c08e01614746565b92506001600160401b036102e08e01351115614aa1578081fd5b614ab28e6102e08f01358f01614696565b81935080925050509295989b509295989b509295989b565b6000806000806000806000806000806000806103208d8f031215614aec578586fd5b614af68e8e614684565b9b50614b068e6101008f016145f0565b9a50614b168e6101c08f01614673565b9950614b268e6102408f01614601565b98506001600160401b036102808e01351115614b40578586fd5b614b518e6102808f01358f01614696565b90985096506001600160401b036102a08e01351115614b6e578586fd5b614b7f8e6102a08f01358f01614696565b90965094506001600160401b036102c08e01351115614b9c578182fd5b614bad8e6102c08f01358f016146dc565b9350614bbc6102e08e01614746565b92506001600160401b036103008e01351115614bd6578182fd5b614ab28e6103008f01358f01614696565b600060208284031215614bf8578081fd5b81518015158114611648578182fd5b600060208284031215614c18578081fd5b5035919050565b60008060408385031215614c31578182fd5b823591506020830135614c43816153b4565b809150509250929050565b60008060008060608587031215614c63578182fd5b843593506020850135614c75816153b4565b925060408501356001600160401b03811115614c8f578283fd5b614c9b87828801614696565b95989497509550505050565b60008060408385031215614cb9578182fd5b50508035926020909101359150565b600060208284031215614cd9578081fd5b8135611648816153c9565b600060208284031215614cf5578081fd5b8151611648816153c9565b600080600060608486031215614d14578081fd5b835160ff81168114614d24578182fd5b602085015160409095015190969495509392505050565b6001600160a01b03169052565b8060005b6008811015614d6b578151845260209384019390910190600101614d4c565b50505050565b6001600160e01b0319169052565b60008151808452614d978160208601602086016152e3565b601f01601f19169290920160200192915050565b60028110614dc957634e487b7160e01b600052602160045260246000fd5b9052565b60008251614ddf8184602087016152e3565b9190910192915050565b600076020b1b1b2b9b9a1b7b73a3937b61d1030b1b1b7bab73a1604d1b82528351614e1b8160178501602088016152e3565b7001034b99036b4b9b9b4b733903937b6329607d1b6017918401918201528351614e4c8160288401602088016152e3565b01602801949350505050565b6001600160a01b038b811682528a811660208301526001600160e01b03198a81166040840152610140606084018190526000929091614e998584018d614d7f565b918b166080860152891660a085015283810360c08501529050614ebc8188614d7f565b60e0840196909652505061010081019290925261012090910152979650505050505050565b6001600160a01b038781168252602082018790526101a0820190614f086040840188614d48565b94909416610140820152610160810192909252610180909101529392505050565b6001600160a01b03841681526000614f446020830185614dab565b6060604083015261061e6060830184614d7f565b6101008101610b2f8284614d48565b8e81526001600160a01b038e81166020830152604082018e90528c811660608301528b1660808201526101c08101614fa260a083018c614d3b565b614faf60c083018b614d71565b8860e0830152614fc3610100830189614d3b565b614fd1610120830188614d71565b856101408301528461016083015283610180830152826101a08301529f9e505050505050505050505050505050565b60006101a080835261501481840189614d7f565b9050602080840188845b60058110156150445781516001600160a01b03168352918301919083019060010161501e565b50505061505460c0850188614dab565b60e0840186845b60058110156150785781518352918301919083019060010161505b565b5050505082810361018084015261508f8185614d7f565b98975050505050505050565b6000604082526150ae6040830185614d7f565b828103602084015261438e8185614d7f565b6000602082526116486020830184614d7f565b6020808252601a9082015279232620a4a92fa324a720a721a297a727aa2fa3a7ab22a92727a960311b604082015260600190565b60208082526015908201527413d191915494cbd192531317d55390d2105391d151605a1b604082015260600190565b6020808252602e908201527f496e697469616c697a61626c653a20636f6e747261637420697320616c72656160408201526d191e481a5b9a5d1a585b1a5e995960921b606082015260800190565b6020808252601f908201527f5265656e7472616e637947756172643a207265656e7472616e742063616c6c00604082015260600190565b604051601f8201601f191681016001600160401b03811182821017156151e3576151e361539e565b604052919050565b600082198211156151fe576151fe615372565b500190565b600060ff821660ff84168060ff0382111561522057615220615372565b019392505050565b60008261523757615237615388565b500490565b600060ff83168061524f5761524f615388565b8060ff84160491505092915050565b600081600019048311821515161561527857615278615372565b500290565b600063ffffffff808316818516818304811182151516156152a0576152a0615372565b02949350505050565b6000828210156152bb576152bb615372565b500390565b600060ff821660ff8416808210156152da576152da615372565b90039392505050565b60005b838110156152fe5781810151838201526020016152e6565b83811115614d6b5750506000910152565b60008161531e5761531e615372565b506000190190565b600060ff82168061533957615339615372565b6000190192915050565b600060001982141561535757615357615372565b5060010190565b60008261536d5761536d615388565b500690565b634e487b7160e01b600052601160045260246000fd5b634e487b7160e01b600052601260045260246000fd5b634e487b7160e01b600052604160045260246000fd5b6001600160a01b038116811461096157600080fd5b6001600160e01b03198116811461096157600080fdfe7935bd0ae54bc31f548c14dba4d37c5c64b3f8ca900cb468fb8abd54d5894f55a26469706673582212201ebe157ac2a69829e6b0e392c83cc33e2cd4e93bec084444606567fdafeed7ea64736f6c63430008030033",
  "devdoc": {
    "kind": "dev",
    "methods": {
      "getRoleAdmin(bytes32)": {
        "details": "Returns the admin role that controls `role`. See {grantRole} and {revokeRole}. To change a role's admin, use {_setRoleAdmin}."
      },
      "grantRole(bytes32,address)": {
        "details": "Grants `role` to `account`. If `account` had not been already granted `role`, emits a {RoleGranted} event. Requirements: - the caller must have ``role``'s admin role."
      },
      "hasRole(bytes32,address)": {
        "details": "Returns `true` if `account` has been granted `role`."
      },
      "renounceRole(bytes32,address)": {
        "details": "Revokes `role` from the calling account. Roles are often managed via {grantRole} and {revokeRole}: this function's purpose is to provide a mechanism for accounts to lose their privileges if they are compromised (such as when a trusted device is misplaced). If the calling account had been granted `role`, emits a {RoleRevoked} event. Requirements: - the caller must be `account`."
      },
      "revokeRole(bytes32,address)": {
        "details": "Revokes `role` from `account`. If `account` had been granted `role`, emits a {RoleRevoked} event. Requirements: - the caller must have ``role``'s admin role."
      },
      "supportsInterface(bytes4)": {
        "details": "See {IERC165-supportsInterface}."
      }
    },
    "version": 1
  },
  "userdoc": {
    "kind": "user",
    "methods": {},
    "version": 1
  },
  "storageLayout": {
    "storage": [
      {
        "astId": 401,
        "contract": "contracts/Finance.sol:Finance",
        "label": "_initialized",
        "offset": 0,
        "slot": "0",
        "type": "t_bool"
      },
      {
        "astId": 404,
        "contract": "contracts/Finance.sol:Finance",
        "label": "_initializing",
        "offset": 1,
        "slot": "0",
        "type": "t_bool"
      },
      {
        "astId": 2397,
        "contract": "contracts/Finance.sol:Finance",
        "label": "__gap",
        "offset": 0,
        "slot": "1",
        "type": "t_array(t_uint256)50_storage"
      },
      {
        "astId": 568,
        "contract": "contracts/Finance.sol:Finance",
        "label": "_status",
        "offset": 0,
        "slot": "51",
        "type": "t_uint256"
      },
      {
        "astId": 611,
        "contract": "contracts/Finance.sol:Finance",
        "label": "__gap",
        "offset": 0,
        "slot": "52",
        "type": "t_array(t_uint256)49_storage"
      },
      {
        "astId": 2867,
        "contract": "contracts/Finance.sol:Finance",
        "label": "_HASHED_NAME",
        "offset": 0,
        "slot": "101",
        "type": "t_bytes32"
      },
      {
        "astId": 2869,
        "contract": "contracts/Finance.sol:Finance",
        "label": "_HASHED_VERSION",
        "offset": 0,
        "slot": "102",
        "type": "t_bytes32"
      },
      {
        "astId": 3006,
        "contract": "contracts/Finance.sol:Finance",
        "label": "__gap",
        "offset": 0,
        "slot": "103",
        "type": "t_array(t_uint256)50_storage"
      },
      {
        "astId": 8166,
        "contract": "contracts/Finance.sol:Finance",
        "label": "registries",
        "offset": 0,
        "slot": "153",
        "type": "t_mapping(t_address,t_bool)"
      },
      {
        "astId": 8172,
        "contract": "contracts/Finance.sol:Finance",
        "label": "fills",
        "offset": 0,
        "slot": "154",
        "type": "t_mapping(t_address,t_mapping(t_bytes32,t_uint256))"
      },
      {
        "astId": 8178,
        "contract": "contracts/Finance.sol:Finance",
        "label": "approved",
        "offset": 0,
        "slot": "155",
        "type": "t_mapping(t_address,t_mapping(t_bytes32,t_bool))"
      },
      {
        "astId": 10695,
        "contract": "contracts/Finance.sol:Finance",
        "label": "maxExpArray",
        "offset": 0,
        "slot": "156",
        "type": "t_array(t_uint256)128_storage"
      },
      {
        "astId": 11279,
        "contract": "contracts/Finance.sol:Finance",
        "label": "lambertArray",
        "offset": 0,
        "slot": "284",
        "type": "t_array(t_uint256)128_storage"
      },
      {
        "astId": 3052,
        "contract": "contracts/Finance.sol:Finance",
        "label": "__gap",
        "offset": 0,
        "slot": "412",
        "type": "t_array(t_uint256)50_storage"
      },
      {
        "astId": 86,
        "contract": "contracts/Finance.sol:Finance",
        "label": "_roles",
        "offset": 0,
        "slot": "462",
        "type": "t_mapping(t_bytes32,t_struct(RoleData)81_storage)"
      },
      {
        "astId": 394,
        "contract": "contracts/Finance.sol:Finance",
        "label": "__gap",
        "offset": 0,
        "slot": "463",
        "type": "t_array(t_uint256)49_storage"
      },
      {
        "astId": 6382,
        "contract": "contracts/Finance.sol:Finance",
        "label": "_treasury",
        "offset": 0,
        "slot": "512",
        "type": "t_address"
      },
      {
        "astId": 6384,
        "contract": "contracts/Finance.sol:Finance",
        "label": "_funding",
        "offset": 0,
        "slot": "513",
        "type": "t_address"
      },
      {
        "astId": 6386,
        "contract": "contracts/Finance.sol:Finance",
        "label": "_protocolFee",
        "offset": 0,
        "slot": "514",
        "type": "t_uint256"
      },
      {
        "astId": 6392,
        "contract": "contracts/Finance.sol:Finance",
        "label": "offerTotalFunded",
        "offset": 0,
        "slot": "515",
        "type": "t_mapping(t_address,t_mapping(t_bytes32,t_uint256))"
      }
    ],
    "types": {
      "t_address": {
        "encoding": "inplace",
        "label": "address",
        "numberOfBytes": "20"
      },
      "t_array(t_uint256)128_storage": {
        "base": "t_uint256",
        "encoding": "inplace",
        "label": "uint256[128]",
        "numberOfBytes": "4096"
      },
      "t_array(t_uint256)49_storage": {
        "base": "t_uint256",
        "encoding": "inplace",
        "label": "uint256[49]",
        "numberOfBytes": "1568"
      },
      "t_array(t_uint256)50_storage": {
        "base": "t_uint256",
        "encoding": "inplace",
        "label": "uint256[50]",
        "numberOfBytes": "1600"
      },
      "t_bool": {
        "encoding": "inplace",
        "label": "bool",
        "numberOfBytes": "1"
      },
      "t_bytes32": {
        "encoding": "inplace",
        "label": "bytes32",
        "numberOfBytes": "32"
      },
      "t_mapping(t_address,t_bool)": {
        "encoding": "mapping",
        "key": "t_address",
        "label": "mapping(address => bool)",
        "numberOfBytes": "32",
        "value": "t_bool"
      },
      "t_mapping(t_address,t_mapping(t_bytes32,t_bool))": {
        "encoding": "mapping",
        "key": "t_address",
        "label": "mapping(address => mapping(bytes32 => bool))",
        "numberOfBytes": "32",
        "value": "t_mapping(t_bytes32,t_bool)"
      },
      "t_mapping(t_address,t_mapping(t_bytes32,t_uint256))": {
        "encoding": "mapping",
        "key": "t_address",
        "label": "mapping(address => mapping(bytes32 => uint256))",
        "numberOfBytes": "32",
        "value": "t_mapping(t_bytes32,t_uint256)"
      },
      "t_mapping(t_bytes32,t_bool)": {
        "encoding": "mapping",
        "key": "t_bytes32",
        "label": "mapping(bytes32 => bool)",
        "numberOfBytes": "32",
        "value": "t_bool"
      },
      "t_mapping(t_bytes32,t_struct(RoleData)81_storage)": {
        "encoding": "mapping",
        "key": "t_bytes32",
        "label": "mapping(bytes32 => struct AccessControlUpgradeable.RoleData)",
        "numberOfBytes": "32",
        "value": "t_struct(RoleData)81_storage"
      },
      "t_mapping(t_bytes32,t_uint256)": {
        "encoding": "mapping",
        "key": "t_bytes32",
        "label": "mapping(bytes32 => uint256)",
        "numberOfBytes": "32",
        "value": "t_uint256"
      },
      "t_struct(RoleData)81_storage": {
        "encoding": "inplace",
        "label": "struct AccessControlUpgradeable.RoleData",
        "members": [
          {
            "astId": 78,
            "contract": "contracts/Finance.sol:Finance",
            "label": "members",
            "offset": 0,
            "slot": "0",
            "type": "t_mapping(t_address,t_bool)"
          },
          {
            "astId": 80,
            "contract": "contracts/Finance.sol:Finance",
            "label": "adminRole",
            "offset": 0,
            "slot": "1",
            "type": "t_bytes32"
          }
        ],
        "numberOfBytes": "64"
      },
      "t_uint256": {
        "encoding": "inplace",
        "label": "uint256",
        "numberOfBytes": "32"
      }
    }
  }
}