{
  "address": "0xFA00567561ddB645B61Ae2C90EF9879A77fcd131",
  "abi": [
    {
      "anonymous": false,
      "inputs": [
        {
          "indexed": false,
          "internalType": "bytes32",
          "name": "hash",
          "type": "bytes32"
        },
        {
          "indexed": true,
          "internalType": "address",
          "name": "creator",
          "type": "address"
        },
        {
          "indexed": true,
          "internalType": "address",
          "name": "operator",
          "type": "address"
        },
        {
          "indexed": false,
          "internalType": "uint256",
          "name": "unfilledAmount",
          "type": "uint256"
        },
        {
          "indexed": false,
          "internalType": "uint256",
          "name": "newFill",
          "type": "uint256"
        }
      ],
      "name": "FundingCancelled",
      "type": "event"
    },
    {
      "anonymous": false,
      "inputs": [
        {
          "indexed": false,
          "internalType": "uint256[8]",
          "name": "fundingOptions",
          "type": "uint256[8]"
        },
        {
          "indexed": true,
          "internalType": "bytes32",
          "name": "hash",
          "type": "bytes32"
        },
        {
          "indexed": false,
          "internalType": "address",
          "name": "registry",
          "type": "address"
        },
        {
          "indexed": true,
          "internalType": "address",
          "name": "creator",
          "type": "address"
        },
        {
          "indexed": false,
          "internalType": "address",
          "name": "contributionValidatorTarget",
          "type": "address"
        },
        {
          "indexed": false,
          "internalType": "bytes4",
          "name": "contributionValidatorSelector",
          "type": "bytes4"
        },
        {
          "indexed": false,
          "internalType": "bytes",
          "name": "contributionValidatorExtradata",
          "type": "bytes"
        },
        {
          "indexed": false,
          "internalType": "address",
          "name": "cancellationValidatorTarget",
          "type": "address"
        },
        {
          "indexed": false,
          "internalType": "bytes4",
          "name": "cancellationValidatorSelector",
          "type": "bytes4"
        },
        {
          "indexed": false,
          "internalType": "bytes",
          "name": "cancellationValidatorExtradata",
          "type": "bytes"
        },
        {
          "indexed": false,
          "internalType": "uint256",
          "name": "maximumFill",
          "type": "uint256"
        },
        {
          "indexed": false,
          "internalType": "uint256",
          "name": "listingTime",
          "type": "uint256"
        },
        {
          "indexed": false,
          "internalType": "uint256",
          "name": "expirationTime",
          "type": "uint256"
        }
      ],
      "name": "OfferApproved",
      "type": "event"
    },
    {
      "anonymous": false,
      "inputs": [
        {
          "indexed": true,
          "internalType": "bytes32",
          "name": "hash",
          "type": "bytes32"
        },
        {
          "indexed": true,
          "internalType": "address",
          "name": "creator",
          "type": "address"
        },
        {
          "indexed": false,
          "internalType": "uint256",
          "name": "newFill",
          "type": "uint256"
        }
      ],
      "name": "OfferFillChanged",
      "type": "event"
    },
    {
      "anonymous": false,
      "inputs": [
        {
          "indexed": false,
          "internalType": "bytes32",
          "name": "hash",
          "type": "bytes32"
        },
        {
          "indexed": true,
          "internalType": "address",
          "name": "creator",
          "type": "address"
        },
        {
          "indexed": true,
          "internalType": "address",
          "name": "operator",
          "type": "address"
        },
        {
          "indexed": false,
          "internalType": "uint256",
          "name": "filledAmount",
          "type": "uint256"
        },
        {
          "indexed": false,
          "internalType": "uint256",
          "name": "newFill",
          "type": "uint256"
        }
      ],
      "name": "OfferFunded",
      "type": "event"
    },
    {
      "anonymous": false,
      "inputs": [
        {
          "indexed": true,
          "internalType": "bytes32",
          "name": "role",
          "type": "bytes32"
        },
        {
          "indexed": true,
          "internalType": "bytes32",
          "name": "previousAdminRole",
          "type": "bytes32"
        },
        {
          "indexed": true,
          "internalType": "bytes32",
          "name": "newAdminRole",
          "type": "bytes32"
        }
      ],
      "name": "RoleAdminChanged",
      "type": "event"
    },
    {
      "anonymous": false,
      "inputs": [
        {
          "indexed": true,
          "internalType": "bytes32",
          "name": "role",
          "type": "bytes32"
        },
        {
          "indexed": true,
          "internalType": "address",
          "name": "account",
          "type": "address"
        },
        {
          "indexed": true,
          "internalType": "address",
          "name": "sender",
          "type": "address"
        }
      ],
      "name": "RoleGranted",
      "type": "event"
    },
    {
      "anonymous": false,
      "inputs": [
        {
          "indexed": true,
          "internalType": "bytes32",
          "name": "role",
          "type": "bytes32"
        },
        {
          "indexed": true,
          "internalType": "address",
          "name": "account",
          "type": "address"
        },
        {
          "indexed": true,
          "internalType": "address",
          "name": "sender",
          "type": "address"
        }
      ],
      "name": "RoleRevoked",
      "type": "event"
    },
    {
      "inputs": [],
      "name": "DEFAULT_ADMIN_ROLE",
      "outputs": [
        {
          "internalType": "bytes32",
          "name": "",
          "type": "bytes32"
        }
      ],
      "stateMutability": "view",
      "type": "function"
    },
    {
      "inputs": [],
      "name": "GOVERNOR_ROLE",
      "outputs": [
        {
          "internalType": "bytes32",
          "name": "",
          "type": "bytes32"
        }
      ],
      "stateMutability": "view",
      "type": "function"
    },
    {
      "inputs": [
        {
          "internalType": "uint256[8]",
          "name": "fundingOptions",
          "type": "uint256[8]"
        },
        {
          "internalType": "address[6]",
          "name": "addrs",
          "type": "address[6]"
        },
        {
          "internalType": "uint256[3]",
          "name": "uints",
          "type": "uint256[3]"
        },
        {
          "internalType": "bytes4[2]",
          "name": "validatorSelectors",
          "type": "bytes4[2]"
        },
        {
          "internalType": "bytes",
          "name": "contributionValidatorExtradata",
          "type": "bytes"
        },
        {
          "internalType": "bytes",
          "name": "cancellationValidatorExtradata",
          "type": "bytes"
        }
      ],
      "name": "approveOffer",
      "outputs": [],
      "stateMutability": "nonpayable",
      "type": "function"
    },
    {
      "inputs": [
        {
          "internalType": "bytes32",
          "name": "hash",
          "type": "bytes32"
        }
      ],
      "name": "approveOfferHash",
      "outputs": [],
      "stateMutability": "nonpayable",
      "type": "function"
    },
    {
      "inputs": [
        {
          "internalType": "address",
          "name": "",
          "type": "address"
        },
        {
          "internalType": "bytes32",
          "name": "",
          "type": "bytes32"
        }
      ],
      "name": "approved",
      "outputs": [
        {
          "internalType": "bool",
          "name": "",
          "type": "bool"
        }
      ],
      "stateMutability": "view",
      "type": "function"
    },
    {
      "inputs": [
        {
          "internalType": "uint256[8]",
          "name": "fundingOptions",
          "type": "uint256[8]"
        },
        {
          "internalType": "address[6]",
          "name": "addrs",
          "type": "address[6]"
        },
        {
          "internalType": "uint256[4]",
          "name": "uints",
          "type": "uint256[4]"
        },
        {
          "internalType": "bytes4[2]",
          "name": "validatorSelectors",
          "type": "bytes4[2]"
        },
        {
          "internalType": "bytes",
          "name": "contributionValidatorExtradata",
          "type": "bytes"
        },
        {
          "internalType": "bytes",
          "name": "cancellationValidatorExtradata",
          "type": "bytes"
        },
        {
          "internalType": "bytes",
          "name": "signature",
          "type": "bytes"
        },
        {
          "internalType": "enum AuthenticatedProxy.HowToCall",
          "name": "howToCall",
          "type": "uint8"
        },
        {
          "internalType": "bytes",
          "name": "data",
          "type": "bytes"
        }
      ],
      "name": "cancelFunding",
      "outputs": [],
      "stateMutability": "nonpayable",
      "type": "function"
    },
    {
      "inputs": [
        {
          "internalType": "address",
          "name": "",
          "type": "address"
        },
        {
          "internalType": "bytes32",
          "name": "",
          "type": "bytes32"
        }
      ],
      "name": "fills",
      "outputs": [
        {
          "internalType": "uint256",
          "name": "",
          "type": "uint256"
        }
      ],
      "stateMutability": "view",
      "type": "function"
    },
    {
      "inputs": [
        {
          "internalType": "uint256[8]",
          "name": "fundingOptions",
          "type": "uint256[8]"
        },
        {
          "internalType": "address[6]",
          "name": "addrs",
          "type": "address[6]"
        },
        {
          "internalType": "uint256[3]",
          "name": "uints",
          "type": "uint256[3]"
        },
        {
          "internalType": "bytes4[2]",
          "name": "validatorSelectors",
          "type": "bytes4[2]"
        },
        {
          "internalType": "bytes",
          "name": "contributionValidatorExtradata",
          "type": "bytes"
        },
        {
          "internalType": "bytes",
          "name": "cancellationValidatorExtradata",
          "type": "bytes"
        },
        {
          "internalType": "bytes",
          "name": "signature",
          "type": "bytes"
        },
        {
          "internalType": "enum AuthenticatedProxy.HowToCall",
          "name": "howToCall",
          "type": "uint8"
        },
        {
          "internalType": "bytes",
          "name": "data",
          "type": "bytes"
        }
      ],
      "name": "fundOffer",
      "outputs": [],
      "stateMutability": "payable",
      "type": "function"
    },
    {
      "inputs": [
        {
          "internalType": "address",
          "name": "creator",
          "type": "address"
        },
        {
          "internalType": "bytes32",
          "name": "hash",
          "type": "bytes32"
        },
        {
          "internalType": "uint256[8]",
          "name": "fundingOptions",
          "type": "uint256[8]"
        },
        {
          "internalType": "uint256",
          "name": "fillAmount",
          "type": "uint256"
        }
      ],
      "name": "getOfferFundingCost",
      "outputs": [
        {
          "internalType": "uint256",
          "name": "fundingCost",
          "type": "uint256"
        },
        {
          "internalType": "uint256",
          "name": "protocolFeeAmount",
          "type": "uint256"
        }
      ],
      "stateMutability": "view",
      "type": "function"
    },
    {
      "inputs": [],
      "name": "getParameters",
      "outputs": [
        {
          "internalType": "uint256",
          "name": "protocolFee",
          "type": "uint256"
        }
      ],
      "stateMutability": "view",
      "type": "function"
    },
    {
      "inputs": [
        {
          "internalType": "bytes32",
          "name": "role",
          "type": "bytes32"
        }
      ],
      "name": "getRoleAdmin",
      "outputs": [
        {
          "internalType": "bytes32",
          "name": "",
          "type": "bytes32"
        }
      ],
      "stateMutability": "view",
      "type": "function"
    },
    {
      "inputs": [
        {
          "internalType": "bytes32",
          "name": "role",
          "type": "bytes32"
        },
        {
          "internalType": "address",
          "name": "account",
          "type": "address"
        }
      ],
      "name": "grantRole",
      "outputs": [],
      "stateMutability": "nonpayable",
      "type": "function"
    },
    {
      "inputs": [
        {
          "internalType": "bytes32",
          "name": "role",
          "type": "bytes32"
        },
        {
          "internalType": "address",
          "name": "account",
          "type": "address"
        }
      ],
      "name": "hasRole",
      "outputs": [
        {
          "internalType": "bool",
          "name": "",
          "type": "bool"
        }
      ],
      "stateMutability": "view",
      "type": "function"
    },
    {
      "inputs": [
        {
          "internalType": "uint256[8]",
          "name": "fundingOptions",
          "type": "uint256[8]"
        },
        {
          "internalType": "address[6]",
          "name": "addrs",
          "type": "address[6]"
        },
        {
          "internalType": "uint256[3]",
          "name": "uints",
          "type": "uint256[3]"
        },
        {
          "internalType": "bytes4[2]",
          "name": "validatorSelectors",
          "type": "bytes4[2]"
        },
        {
          "internalType": "bytes",
          "name": "contributionValidatorExtradata",
          "type": "bytes"
        },
        {
          "internalType": "bytes",
          "name": "cancellationValidatorExtradata",
          "type": "bytes"
        }
      ],
      "name": "hashOffer",
      "outputs": [
        {
          "internalType": "bytes32",
          "name": "hash",
          "type": "bytes32"
        }
      ],
      "stateMutability": "pure",
      "type": "function"
    },
    {
      "inputs": [
        {
          "internalType": "bytes32",
          "name": "offerHash",
          "type": "bytes32"
        }
      ],
      "name": "hashToSign",
      "outputs": [
        {
          "internalType": "bytes32",
          "name": "hash",
          "type": "bytes32"
        }
      ],
      "stateMutability": "view",
      "type": "function"
    },
    {
      "inputs": [
        {
          "internalType": "address[]",
          "name": "registryAddrs",
          "type": "address[]"
        },
        {
          "internalType": "address",
          "name": "treasury",
          "type": "address"
        },
        {
          "internalType": "address",
          "name": "funding",
          "type": "address"
        },
        {
          "internalType": "uint256",
          "name": "protocolFee",
          "type": "uint256"
        }
      ],
      "name": "initialize",
      "outputs": [],
      "stateMutability": "nonpayable",
      "type": "function"
    },
    {
      "inputs": [],
      "name": "name",
      "outputs": [
        {
          "internalType": "string",
          "name": "",
          "type": "string"
        }
      ],
      "stateMutability": "view",
      "type": "function"
    },
    {
      "inputs": [
        {
          "internalType": "address",
          "name": "",
          "type": "address"
        },
        {
          "internalType": "bytes32",
          "name": "",
          "type": "bytes32"
        }
      ],
      "name": "offerTotalFunded",
      "outputs": [
        {
          "internalType": "uint256",
          "name": "",
          "type": "uint256"
        }
      ],
      "stateMutability": "view",
      "type": "function"
    },
    {
      "inputs": [
        {
          "internalType": "address",
          "name": "",
          "type": "address"
        }
      ],
      "name": "registries",
      "outputs": [
        {
          "internalType": "bool",
          "name": "",
          "type": "bool"
        }
      ],
      "stateMutability": "view",
      "type": "function"
    },
    {
      "inputs": [
        {
          "internalType": "bytes32",
          "name": "role",
          "type": "bytes32"
        },
        {
          "internalType": "address",
          "name": "account",
          "type": "address"
        }
      ],
      "name": "renounceRole",
      "outputs": [],
      "stateMutability": "nonpayable",
      "type": "function"
    },
    {
      "inputs": [
        {
          "internalType": "bytes32",
          "name": "role",
          "type": "bytes32"
        },
        {
          "internalType": "address",
          "name": "account",
          "type": "address"
        }
      ],
      "name": "revokeRole",
      "outputs": [],
      "stateMutability": "nonpayable",
      "type": "function"
    },
    {
      "inputs": [
        {
          "internalType": "address",
          "name": "newAddress",
          "type": "address"
        }
      ],
      "name": "setFunding",
      "outputs": [],
      "stateMutability": "nonpayable",
      "type": "function"
    },
    {
      "inputs": [
        {
          "internalType": "bytes32",
          "name": "hash",
          "type": "bytes32"
        },
        {
          "internalType": "uint256",
          "name": "fill",
          "type": "uint256"
        }
      ],
      "name": "setOfferFill",
      "outputs": [],
      "stateMutability": "nonpayable",
      "type": "function"
    },
    {
      "inputs": [
        {
          "internalType": "uint256",
          "name": "newValue",
          "type": "uint256"
        }
      ],
      "name": "setProtocolFee",
      "outputs": [],
      "stateMutability": "nonpayable",
      "type": "function"
    },
    {
      "inputs": [
        {
          "internalType": "address",
          "name": "newAddress",
          "type": "address"
        }
      ],
      "name": "setTreasury",
      "outputs": [],
      "stateMutability": "nonpayable",
      "type": "function"
    },
    {
      "inputs": [
        {
          "internalType": "bytes4",
          "name": "interfaceId",
          "type": "bytes4"
        }
      ],
      "name": "supportsInterface",
      "outputs": [
        {
          "internalType": "bool",
          "name": "",
          "type": "bool"
        }
      ],
      "stateMutability": "view",
      "type": "function"
    },
    {
      "inputs": [
        {
          "internalType": "address",
          "name": "addr",
          "type": "address"
        },
        {
          "internalType": "bool",
          "name": "isActive",
          "type": "bool"
        }
      ],
      "name": "updateRegistryAddress",
      "outputs": [],
      "stateMutability": "nonpayable",
      "type": "function"
    },
    {
      "inputs": [
        {
          "internalType": "bytes32",
          "name": "hash",
          "type": "bytes32"
        },
        {
          "internalType": "address",
          "name": "creator",
          "type": "address"
        },
        {
          "internalType": "bytes",
          "name": "signature",
          "type": "bytes"
        }
      ],
      "name": "validateOfferAuthorization",
      "outputs": [
        {
          "internalType": "bool",
          "name": "",
          "type": "bool"
        }
      ],
      "stateMutability": "view",
      "type": "function"
    },
    {
      "inputs": [
        {
          "internalType": "uint256[8]",
          "name": "fundingOptions",
          "type": "uint256[8]"
        },
        {
          "internalType": "address[6]",
          "name": "addrs",
          "type": "address[6]"
        },
        {
          "internalType": "uint256[3]",
          "name": "uints",
          "type": "uint256[3]"
        },
        {
          "internalType": "bytes4[2]",
          "name": "validatorSelectors",
          "type": "bytes4[2]"
        },
        {
          "internalType": "bytes",
          "name": "contributionValidatorExtradata",
          "type": "bytes"
        },
        {
          "internalType": "bytes",
          "name": "cancellationValidatorExtradata",
          "type": "bytes"
        }
      ],
      "name": "validateOfferParameters",
      "outputs": [
        {
          "internalType": "bool",
          "name": "",
          "type": "bool"
        }
      ],
      "stateMutability": "view",
      "type": "function"
    },
    {
      "inputs": [],
      "name": "version",
      "outputs": [
        {
          "internalType": "string",
          "name": "",
          "type": "string"
        }
      ],
      "stateMutability": "view",
      "type": "function"
    }
  ],
  "transactionHash": "0xe3cd914692ad8735e1b53846f44a968d41fe8febd9c88aa2d32a9be29c053ca9",
  "args": [],
  "solcInputHash": "f36d90ebbeb23a15c71ecf19a08ad484",
  "bytecode": "0x608060405234801561001057600080fd5b5061552c806100206000396000f3fe60806040526004361061015d5760003560e01c806301ffc9a71461016257806306fdde03146101975780631fff53da146101dd578063248a9ca3146101fd5780632f2ff15d1461022b57806336568abe1461024d57806341d1ac781461026d5780634f3fb1601461028d5780635192174a146102c657806354996a7c146102e657806354fd4d5014610306578063787dce3d146103355780637fad46f21461035557806391d14854146103755780639f9ce2c714610395578063a217fddf146103b5578063a5ea11da146103ca578063a9ee2ba1146103e0578063c40cf3f9146103f3578063caed80df14610413578063ccc5749014610443578063d547741f14610465578063eedee7fe14610485578063f0f44260146104a5578063f399a722146104c5578063f7a7faa8146104e5578063fac7fc3814610505578063fc623ef814610540578063fcbecc6314610560578063ffc2ab1414610595575b600080fd5b34801561016e57600080fd5b5061018261017d366004614d54565b6105cd565b60405190151581526020015b60405180910390f35b3480156101a357600080fd5b506101d06040518060400160405280600d81526020016c466c6169722046696e616e636560981b81525081565b60405161018e91906151a9565b3480156101e957600080fd5b506101826101f8366004614cda565b610606565b34801561020957600080fd5b5061021d610218366004614c9e565b610654565b60405190815260200161018e565b34801561023757600080fd5b5061024b610246366004614cb6565b61066a565b005b34801561025957600080fd5b5061024b610268366004614cb6565b61068d565b34801561027957600080fd5b5061024b610288366004614b65565b610710565b34801561029957600080fd5b5061021d6102a8366004614828565b61020360209081526000928352604080842090915290825290205481565b3480156102d257600080fd5b5061024b6102e1366004614d33565b610979565b3480156102f257600080fd5b5061024b610301366004614c9e565b610983565b34801561031257600080fd5b506101d060405180604001604052806003815260200162302e3160e81b81525081565b34801561034157600080fd5b5061024b610350366004614c9e565b61098f565b34801561036157600080fd5b5061024b61037036600461489b565b6109c9565b34801561038157600080fd5b50610182610390366004614cb6565b610b56565b3480156103a157600080fd5b5061024b6103b0366004614978565b610b84565b3480156103c157600080fd5b5061021d600081565b3480156103d657600080fd5b506102025461021d565b61024b6103ee366004614a30565b610d41565b3480156103ff57600080fd5b5061018261040e366004614978565b610f97565b34801561041f57600080fd5b5061018261042e3660046147b8565b60996020526000908152604090205460ff1681565b34801561044f57600080fd5b5061021d6000805160206154d783398151915281565b34801561047157600080fd5b5061024b610480366004614cb6565b611167565b34801561049157600080fd5b5061024b6104a03660046147f0565b611184565b3480156104b157600080fd5b5061024b6104c03660046147b8565b6111e3565b3480156104d157600080fd5b5061024b6104e03660046147b8565b61123a565b3480156104f157600080fd5b5061021d610500366004614978565b611291565b34801561051157600080fd5b50610182610520366004614828565b609b60209081526000928352604080842090915290825290205460ff1681565b34801561054c57600080fd5b5061021d61055b366004614c9e565b611453565b34801561056c57600080fd5b5061058061057b366004614853565b61145e565b6040805192835260208301919091520161018e565b3480156105a157600080fd5b5061021d6105b0366004614828565b609a60209081526000928352604080842090915290825290205481565b60006001600160e01b03198216637965db0b60e01b14806105fe57506301ffc9a760e01b6001600160e01b03198316145b90505b919050565b6000610649858585858080601f0160208091040260200160405190810160405280939291908181526020018383808284376000920191909152506114fd92505050565b90505b949350505050565b60009081526101ce602052604090206001015490565b61067382610654565b61067e81335b6116fd565b6106888383611761565b505050565b6001600160a01b03811633146107025760405162461bcd60e51b815260206004820152602f60248201527f416363657373436f6e74726f6c3a2063616e206f6e6c792072656e6f756e636560448201526e103937b632b9903337b91039b2b63360891b60648201526084015b60405180910390fd5b61070c82826117e8565b5050565b61096b604051806101a001604052808d60006006811061074057634e487b7160e01b600052603260045260246000fd5b60200201602081019061075391906147b8565b6001600160a01b031681526020018e6008806020026040519081016040528092919082600860200280828437600092019190915250505081526020018d60016020020160208101906107a591906147b8565b6001600160a01b031681526020018d60026020020160208101906107c991906147b8565b6001600160a01b031681526020018d60036020020160208101906107ed91906147b8565b6001600160a01b031681528b516001600160e01b03191660208083019190915260408051601f8d0183900483028101830182528c8152920191908c908c90819084018382808284376000920191909152505050908252506020018d600460200201602081019061085d91906147b8565b6001600160a01b0316815260208c8101516001600160e01b0319168183015260408051601f8b0183900483028101830182528a8152920191908a908a90819084018382808284376000920191909152505050908252508c356020808301919091528d013560408201526060018c6002602002013590526040805160608101909152808e60056020020160208101906108f591906147b8565b6001600160a01b0316815260200186600181111561092357634e487b7160e01b600052602160045260246000fd5b815260200185858080601f01602080910402602001604051908101604052809392919081815260200183838082843760009201919091525050509152508660608e0135611850565b505050505050505050505050565b61070c8282611a5e565b61098c81611b12565b50565b6109a76000805160206154d783398151915233610390565b6109c35760405162461bcd60e51b81526004016106f9906151bc565b61020255565b600054610100900460ff16806109e2575060005460ff16155b6109fe5760405162461bcd60e51b81526004016106f99061521f565b600054610100900460ff16158015610a20576000805461ffff19166101011790555b610a6a6040518060400160405280600d81526020016c466c6169722046696e616e636560981b81525060405180604001604052806003815260200162302e3160e81b815250611b9d565b61020080546001600160a01b038087166001600160a01b03199283161790925561020180549286169290911691909117905561020282905560005b8551811015610b1857600160996000888481518110610ad457634e487b7160e01b600052603260045260246000fd5b6020908102919091018101516001600160a01b03168252810191909152604001600020805460ff191691151591909117905580610b108161542c565b915050610aa5565b50610b256000335b611c24565b610b3d6000805160206154d783398151915233610b20565b8015610b4f576000805461ff00191690555b5050505050565b60008281526101ce602090815260408083206001600160a01b038516845290915290205460ff165b92915050565b610d37604051806101a0016040528089600060068110610bb457634e487b7160e01b600052603260045260246000fd5b602002016020810190610bc791906147b8565b6001600160a01b031681526020018a600880602002604051908101604052809291908260086020028082843760009201919091525050508152602090810190610c169060408c01908c016147b8565b6001600160a01b03168152602001610c3460608b0160408c016147b8565b6001600160a01b03168152602001610c5260808b0160608c016147b8565b6001600160a01b0316815287516001600160e01b03191660208083019190915260408051601f89018390048302810183018252888152920191908890889081908401838280828437600092019190915250505090825250602001610cbc60a08b0160808c016147b8565b6001600160a01b031681526020888101516001600160e01b0319168183015260408051601f870183900483028101830182528681529201919086908690819084018382808284376000920191909152505050908252508835602080830191909152890135604082015260600188600260200201359052611c2e565b5050505050505050565b61096b604051806101a001604052808d600060068110610d7157634e487b7160e01b600052603260045260246000fd5b602002016020810190610d8491906147b8565b6001600160a01b031681526020018e6008806020026040519081016040528092919082600860200280828437600092019190915250505081526020018d6001602002016020810190610dd691906147b8565b6001600160a01b031681526020018d6002602002016020810190610dfa91906147b8565b6001600160a01b031681526020018d6003602002016020810190610e1e91906147b8565b6001600160a01b031681528b516001600160e01b03191660208083019190915260408051601f8d0183900483028101830182528c8152920191908c908c90819084018382808284376000920191909152505050908252506020018d6004602002016020810190610e8e91906147b8565b6001600160a01b0316815260208c8101516001600160e01b0319168183015260408051601f8b0183900483028101830182528a8152920191908a908a90819084018382808284376000920191909152505050908252508c356020808301919091528d013560408201526060018c6002602002013590526040805160608101909152808e6005602002016020810190610f2691906147b8565b6001600160a01b03168152602001866001811115610f5457634e487b7160e01b600052602160045260246000fd5b815260200185858080601f016020809104026020016040519081016040528093929190818152602001838380828437600092019190915250505091525086611d13565b600080604051806101a001604052808a600060068110610fc757634e487b7160e01b600052603260045260246000fd5b602002016020810190610fda91906147b8565b6001600160a01b031681526020018b6008806020026040519081016040528092919082600860200280828437600092019190915250505081526020908101906110299060408d01908d016147b8565b6001600160a01b0316815260200161104760608c0160408d016147b8565b6001600160a01b0316815260200161106560808c0160608d016147b8565b6001600160a01b0316815288516001600160e01b03191660208083019190915260408051601f8a0183900483028101830182528981529201919089908990819084018382808284376000920191909152505050908252506020016110cf60a08c0160808d016147b8565b6001600160a01b031681526020898101516001600160e01b0319168183015260408051601f8801839004830281018301825287815292019190879087908190840183828082843760009201919091525050509082525089356020808301919091528a013560408201526060018960026020020135905290506111598161115481611f9b565b612072565b9a9950505050505050505050565b61117082610654565b61117a8133610679565b61068883836117e8565b61119c6000805160206154d783398151915233610390565b6111b85760405162461bcd60e51b81526004016106f9906151bc565b6001600160a01b03919091166000908152609960205260409020805460ff1916911515919091179055565b6111fb6000805160206154d783398151915233610390565b6112175760405162461bcd60e51b81526004016106f9906151bc565b61020080546001600160a01b0319166001600160a01b0392909216919091179055565b6112526000805160206154d783398151915233610390565b61126e5760405162461bcd60e51b81526004016106f9906151bc565b61020180546001600160a01b0319166001600160a01b0392909216919091179055565b6000611446604051806101a001604052808a6000600681106112c357634e487b7160e01b600052603260045260246000fd5b6020020160208101906112d691906147b8565b6001600160a01b031681526020018b6008806020026040519081016040528092919082600860200280828437600092019190915250505081526020908101906113259060408d01908d016147b8565b6001600160a01b0316815260200161134360608c0160408d016147b8565b6001600160a01b0316815260200161136160808c0160608d016147b8565b6001600160a01b0316815288516001600160e01b03191660208083019190915260408051601f8a0183900483028101830182528981529201919089908990819084018382808284376000920191909152505050908252506020016113cb60a08c0160808d016147b8565b6001600160a01b031681526020898101516001600160e01b0319168183015260408051601f8801839004830281018301825287815292019190879087908190840183828082843760009201919091525050509082525089356020808301919091528a0135604082015260600189600260200201359052611f9b565b9998505050505050505050565b60006105fe82612101565b6001600160a01b0384166000908152609a6020908152604080832086845290915281205481906114d4906114969060a08701356152d4565b6001600160a01b0388166000908152610203602090815260408083208a84529091529020546114c99060c08801356152d4565b60e08701358661210c565b915061271061020254836114e89190615347565b6114f29190615311565b905094509492505050565b6001600160a01b0382166000908152609a602090815260408083208684529091528120541561152e575060016116f6565b6001600160a01b0383166000908152609b6020908152604080832087845290915290205460ff1615611562575060016116f6565b600061156d85612101565b9050833b158015906116375760408051602080820185905282518083039091018152818301928390526320c13b0b60e01b928390526001600160a01b038816916320c13b0b916115c1918990604401615184565b60206040518083038186803b1580156115d957600080fd5b505afa1580156115ed573d6000803e3d6000fd5b505050506040513d601f19601f820116820180604052508101906116119190614d70565b6001600160e01b031916141561162c576001925050506116f6565b6000925050506116f6565b6000806000868060200190518101906116509190614df2565b925092509250600060018685858560405160008152602001604052604051611694949392919093845260ff9290921660208401526040830152606082015260800190565b6020604051602081039080840390855afa1580156116b6573d6000803e3d6000fd5b505050602060405103519050886001600160a01b0316816001600160a01b031614156116eb57600196505050505050506116f6565b600096505050505050505b9392505050565b6117078282610b56565b61070c5761171f816001600160a01b031660146122c0565b61172a8360206122c0565b60405160200161173b929190614ebf565b60408051601f198184030181529082905262461bcd60e51b82526106f9916004016151a9565b61176b8282610b56565b61070c5760008281526101ce602090815260408083206001600160a01b03851684529091529020805460ff191660011790556117a43390565b6001600160a01b0316816001600160a01b0316837f2f8788117e7eff1d82e926ec794901d17c78024a50270940304540a733656f0d60405160405180910390a45050565b6117f28282610b56565b1561070c5760008281526101ce602090815260408083206001600160a01b0385168085529252808320805460ff1916905551339285917ff6391f5c32d9c69d2a47ea670b442974b53935d1edc7fd64eb21e047a839171b9190a45050565b33600080806118608888886124a1565b9250925092508082116118b25760405162461bcd60e51b815260206004820152601a602482015279119310525497d19253905390d14bd393d517d55391925313115160321b60448201526064016106f9565b61020154604051621cee0760e81b8152600481018790526001600160a01b0390911690631cee07009060240160c060405180830381600087803b1580156118f857600080fd5b505af115801561190c573d6000803e3d6000fd5b505050506040513d601f19601f820116820180604052508101906119309190614d8c565b60409081015160608a01516001600160a01b031660009081526102036020908152838220878352905291822080549192909161196d908490615392565b909155506000905061197f8284615392565b610201548a516040516321a5ec5560e21b81526001600160a01b03918216600482015260248101889052888216604482015260648101849052608481018a90529293501690638697b1549060a401600060405180830381600087803b1580156119e757600080fd5b505af11580156119fb573d6000803e3d6000fd5b50505050606089810151604080518781526020810185905290810185905233926001600160a01b03909216917fdf549223bc8d876b6f3ec5a6851b4e01dd9ee3eed3407e0cd4ba5640fa62d21c91015b60405180910390a3505050505050505050565b336000908152609a60209081526040808320858452909152902054811415611abd5760405162461bcd60e51b815260206004820152601260248201527113d191915494cbd053149150511657d4d15560721b60448201526064016106f9565b336000818152609a60209081526040808320868452825291829020849055905183815284917f0e847c9965d8cc4f9906e90cafbe22a94be7c6fc0d07629284df4d0d92c23ba791015b60405180910390a35050565b336000908152609b6020908152604080832084845290915290205460ff1615611b775760405162461bcd60e51b815260206004820152601760248201527613d191915494cbd053149150511657d054141493d59151604a1b60448201526064016106f9565b336000908152609b6020908152604080832093835292905220805460ff19166001179055565b600054610100900460ff1680611bb6575060005460ff16155b611bd25760405162461bcd60e51b81526004016106f99061521f565b600054610100900460ff16158015611bf4576000805461ffff19166101011790555b611bfe8383612677565b611c06612701565b611c0e612771565b8015610688576000805461ff0019169055505050565b61070c8282611761565b60608101516001600160a01b03163314611c7a5760405162461bcd60e51b815260206004820152600d60248201526c13d191915494cbd11153925151609a1b60448201526064016106f9565b6000611c8582611f9b565b9050611c9081611b12565b81606001516001600160a01b0316817fa884c877aefc90541c6149f08e303e904418f5152db299bc07a9b702013c6c4f8460200151856040015186608001518760a001518860c001518960e001518a61010001518b61012001518c61014001518d61016001518e6101800151604051611b069b9a99989796959493929190614fb4565b3360008080611d238787876127dc565b925092509250818111611d735760405162461bcd60e51b8152602060048201526018602482015277119310525497d19253905390d14bd393d517d1925313115160421b60448201526064016106f9565b6000611d7f8383615392565b90506000611e05848a60200151600560088110611dac57634e487b7160e01b600052603260045260246000fd5b6020020151611dbb91906152d4565b60608b01516001600160a01b03166000908152610203602090815260408083208a8452825290912054908c015160c00151611df691906152d4565b60208c015160e001518561210c565b60608a01516001600160a01b0316600090815261020360209081526040808320898452909152812080549293508392909190611e429084906152d4565b90915550506102025460009061271090611e5c9084615347565b611e669190615311565b9050611e7281836152d4565b3414611ec05760405162461bcd60e51b815260206004820152601d60248201527f464c4149525f46494e414e43452f494e56414c49445f5041594d454e5400000060448201526064016106f9565b61020054611ed7906001600160a01b03168261296b565b5061020154895160208b01516040516347cb53b160e01b81526001600160a01b03909316926347cb53b1928592611f19928b91908d908a908790600401614f2e565b6000604051808303818588803b158015611f3257600080fd5b505af1158015611f46573d6000803e3d6000fd5b5050505060608a81015160408051898152602081018790529081018790523393506001600160a01b03909116917fceddde4c0c21b65d05c297969912b7e11bde7d56974e9a90935f7fb6eddc9f099101611a4b565b60007f0bbb411b5496fa95ca5790465a01c54898a4fc71ab6b5f361a2cf1295a73699e82600001518360200151604051602001611fd89190614fa5565b604051602081830303815290604052805190602001208460400151856060015186608001518760a001518860c00151805190602001208960e001518a61010001518b6101200151805190602001208c61014001518d61016001518e61018001516040516020016120559e9d9c9b9a99989796959493929190615050565b604051602081830303815290604052805190602001209050919050565b600042836101600151118061209b57506101808301511580159061209b57504283610180015111155b156120a857506000610b7e565b61014083015160608401516001600160a01b03166000908152609a60209081526040808320868452909152902054106120e357506000610b7e565b60808301513b15155b6120f857506000610b7e565b50600192915050565b60006105fe82612a81565b60008085116121525760405162461bcd60e51b81526020600482015260126024820152714552525f494e56414c49445f535550504c5960701b60448201526064016106f9565b600084116121a05760405162461bcd60e51b815260206004820152601b60248201527a4552525f494e56414c49445f524553455256455f42414c414e434560281b60448201526064016106f9565b60018363ffffffff161180156121cf57506121bf620f42406002615366565b63ffffffff168363ffffffff1611155b6122175760405162461bcd60e51b81526020600482015260196024820152784552525f494e56414c49445f524553455256455f524154494f60381b60448201526064016106f9565b816122245750600061064c565b63ffffffff8316620f42401415612268578460016122428487612acf565b61224c9190615392565b6122569190615311565b6122619060016152d4565b905061064c565b600080806122768886612adb565b90506122878189620f424089612ae7565b9093509150600060ff8316600161229e8a87612acf565b6122a89190615392565b6122b4911c60016152d4565b90506114468882615392565b606060006122cf836002615347565b6122da9060026152d4565b6001600160401b038111156122ff57634e487b7160e01b600052604160045260246000fd5b6040519080825280601f01601f191660200182016040528015612329576020820181803683370190505b509050600360fc1b8160008151811061235257634e487b7160e01b600052603260045260246000fd5b60200101906001600160f81b031916908160001a905350600f60fb1b8160018151811061238f57634e487b7160e01b600052603260045260246000fd5b60200101906001600160f81b031916908160001a90535060006123b3846002615347565b6123be9060016152d4565b90505b6001811115612452576f181899199a1a9b1b9c1cb0b131b232b360811b85600f166010811061240057634e487b7160e01b600052603260045260246000fd5b1a60f81b82828151811061242457634e487b7160e01b600052603260045260246000fd5b60200101906001600160f81b031916908160001a90535060049490941c9361244b816153f8565b90506123c1565b5083156116f65760405162461bcd60e51b815260206004820181905260248201527f537472696e67733a20686578206c656e67746820696e73756666696369656e7460448201526064016106f9565b6000806000600260335414156124c95760405162461bcd60e51b81526004016106f99061526d565b60026033556124d786611f9b565b92506124e38684612bd4565b61252d5760405162461bcd60e51b815260206004820152601b60248201527a13d191915494cbd0d05390d1531310551253d397d2539590531251602a1b60448201526064016106f9565b61253c838760600151866114fd565b6125885760405162461bcd60e51b815260206004820181905260248201527f4f46464552532f43414e43454c4c4154494f4e5f554e415554484f52495a454460448201526064016106f9565b61259b8660400151876060015187612c30565b6125e45760405162461bcd60e51b815260206004820152601a60248201527913d191915494cbd0d05390d1531310551253d397d1905253115160321b60448201526064016106f9565b60608601516001600160a01b03166000908152609a60209081526040808320868452909152902054915061261b8686333486612f7d565b905081811061263c5760405162461bcd60e51b81526004016106f9906151f0565b60608601516001600160a01b03166000908152609a602090815260408083208684529091529020819055600160338190555093509350939050565b600054610100900460ff1680612690575060005460ff16155b6126ac5760405162461bcd60e51b81526004016106f99061521f565b600054610100900460ff161580156126ce576000805461ffff19166101011790555b82516020808501919091208351918401919091206065919091556066558015610688576000805461ff0019169055505050565b600054610100900460ff168061271a575060005460ff16155b6127365760405162461bcd60e51b81526004016106f99061521f565b600054610100900460ff16158015612758576000805461ffff19166101011790555b6001603355801561098c576000805461ff001916905550565b600054610100900460ff168061278a575060005460ff16155b6127a65760405162461bcd60e51b81526004016106f99061521f565b600054610100900460ff161580156127c8576000805461ffff19166101011790555b801561098c576000805461ff001916905550565b6000806000600260335414156128045760405162461bcd60e51b81526004016106f99061526d565b600260335561281286611f9b565b925061281e8684612072565b6128635760405162461bcd60e51b815260206004820152601660248201527513d191915494cbd1955391125391d7d253959053125160521b60448201526064016106f9565b612872838760600151866114fd565b6128bc5760405162461bcd60e51b815260206004820152601b60248201527a13d191915494cbd1955391125391d7d5539055551213d492569151602a1b60448201526064016106f9565b6128cf8660400151876060015187612c30565b6129135760405162461bcd60e51b815260206004820152601560248201527413d191915494cbd1955391125391d7d19052531151605a1b60448201526064016106f9565b60608601516001600160a01b03166000908152609a60209081526040808320868452909152902054915061294a8686333486612f99565b905081811161263c5760405162461bcd60e51b81526004016106f9906151f0565b804710156129bb5760405162461bcd60e51b815260206004820152601d60248201527f416464726573733a20696e73756666696369656e742062616c616e636500000060448201526064016106f9565b6000826001600160a01b03168260405160006040518083038185875af1925050503d8060008114612a08576040519150601f19603f3d011682016040523d82523d6000602084013e612a0d565b606091505b50509050806106885760405162461bcd60e51b815260206004820152603a60248201527f416464726573733a20756e61626c6520746f2073656e642076616c75652c20726044820152791958da5c1a595b9d081b585e481a185d99481c995d995c9d195960321b60648201526084016106f9565b60006105fe612a8e612fb0565b8360405161190160f01b6020820152602281018390526042810182905260009060620160405160208183030381529060405280519060200120905092915050565b60006116f68284615347565b60006116f682846152d4565b600080600160811b8610612afa57600080fd5b60008086612b0c6001607f1b8a615347565b612b169190615311565b905070015bf0a8b1457695355fb8ac404e7a79e3811015612b4157612b3a81613030565b9150612b4d565b612b4a8161359f565b91505b60008563ffffffff168763ffffffff1684612b689190615347565b612b729190615311565b9050600160831b811015612b9757612b898161368d565b607f94509450505050612bcb565b6000612ba282613cb8565b9050612bbe612bb282607f6153a9565b60ff1683901c82613d98565b95509350612bcb92505050565b94509492505050565b6000428361016001511115612beb57506000610b7e565b60608301516001600160a01b03166000908152609a6020908152604080832085845290915290205460011115612c2357506000610b7e565b60e08301513b15156120ec565b6001600160a01b03831660009081526099602052604081205460ff16612c5557600080fd5b81513b612ca15760405162461bcd60e51b815260206004820152601a60248201527910d85b1b081d185c99d95d08191bd95cc81b9bdd08195e1a5cdd60321b60448201526064016106f9565b60405163c455279160e01b81526001600160a01b0384811660048301526000919086169063c455279190602401602060405180830381600087803b158015612ce857600080fd5b505af1158015612cfc573d6000803e3d6000fd5b505050506040513d601f19601f82011682018060405250810190612d2091906147d4565b90506001600160a01b038116612d8a5760405162461bcd60e51b815260206004820152602960248201527f44656c65676174652070726f787920646f6573206e6f7420657869737420666f604482015268391031b932b0ba37b960b91b60648201526084016106f9565b846001600160a01b03166397204d8e6040518163ffffffff1660e01b8152600401602060405180830381600087803b158015612dc557600080fd5b505af1158015612dd9573d6000803e3d6000fd5b505050506040513d601f19601f82011682018060405250810190612dfd91906147d4565b6001600160a01b0316816001600160a01b0316635c60da1b6040518163ffffffff1660e01b815260040160206040518083038186803b158015612e3f57600080fd5b505afa158015612e53573d6000803e3d6000fd5b505050506040513d601f19601f82011682018060405250810190612e7791906147d4565b6001600160a01b031614612ee95760405162461bcd60e51b815260206004820152603360248201527f496e636f72726563742064656c65676174652070726f787920696d706c656d65604482015272373a30ba34b7b7103337b91031b932b0ba37b960691b60648201526084016106f9565b825160208401516040808601519051631b0f7ba960e01b815284936001600160a01b03851693631b0f7ba993612f2193600401614f76565b602060405180830381600087803b158015612f3b57600080fd5b505af1158015612f4f573d6000803e3d6000fd5b505050506040513d601f19601f82011682018060405250810190612f739190614c82565b9695505050505050565b6000612f738660e00151612f9488888888886143fa565b6144dc565b6000612f738660800151612f948888888888614542565b600061302b7f8b73c3c69bb8fe3d512ecc4cf759cc79239f7b179b0ffacaa9a75d522b39400f612fdf60655490565b6066546040805160208101859052908101839052606081018290524660808201523060a082015260009060c0016040516020818303038152906040528051906020012090509392505050565b905090565b6000808080806fd3094c70f034de4b96ff7d5b6f99fcd886106130895761305b6001607e1b856152d4565b93506fd3094c70f034de4b96ff7d5b6f99fcd861307c6001607f1b88615347565b6130869190615311565b95505b6fa45af1e1f40c333b3de1db4dd55f29a786106130dc576130ae6001607d1b856152d4565b93506fa45af1e1f40c333b3de1db4dd55f29a76130cf6001607f1b88615347565b6130d99190615311565b95505b6f910b022db7ae67ce76b441c27035c6a1861061312f576131016001607c1b856152d4565b93506f910b022db7ae67ce76b441c27035c6a16131226001607f1b88615347565b61312c9190615311565b95505b6f88415abbe9a76bead8d00cf112e4d4a88610613182576131546001607b1b856152d4565b93506f88415abbe9a76bead8d00cf112e4d4a86131756001607f1b88615347565b61317f9190615311565b95505b6f84102b00893f64c705e841d5d4064bd386106131d5576131a76001607a1b856152d4565b93506f84102b00893f64c705e841d5d4064bd36131c86001607f1b88615347565b6131d29190615311565b95505b6f8204055aaef1c8bd5c3259f4822735a28610613228576131fa600160791b856152d4565b93506f8204055aaef1c8bd5c3259f4822735a261321b6001607f1b88615347565b6132259190615311565b95505b6f810100ab00222d861931c15e39b44e99861061327b5761324d600160781b856152d4565b93506f810100ab00222d861931c15e39b44e9961326e6001607f1b88615347565b6132789190615311565b95505b6f808040155aabbbe9451521693554f73386106132ce576132a0600160771b856152d4565b93506f808040155aabbbe9451521693554f7336132c16001607f1b88615347565b6132cb9190615311565b95505b6132dc6001607f1b87615392565b92508291506001607f1b6132f08380615347565b6132fa9190615311565b9050600160801b61330b8482615392565b6133159084615347565b61331f9190615311565b61332990856152d4565b93506001607f1b61333a8284615347565b6133449190615311565b9150600160811b613365846faaaaaaaaaaaaaaaaaaaaaaaaaaaaaaaa615392565b61336f9084615347565b6133799190615311565b61338390856152d4565b93506001607f1b6133948284615347565b61339e9190615311565b9150600360801b6133bf846f99999999999999999999999999999999615392565b6133c99084615347565b6133d39190615311565b6133dd90856152d4565b93506001607f1b6133ee8284615347565b6133f89190615311565b9150600160821b613419846f92492492492492492492492492492492615392565b6134239084615347565b61342d9190615311565b61343790856152d4565b93506001607f1b6134488284615347565b6134529190615311565b9150600560801b613473846f8e38e38e38e38e38e38e38e38e38e38e615392565b61347d9084615347565b6134879190615311565b61349190856152d4565b93506001607f1b6134a28284615347565b6134ac9190615311565b9150600360811b6134cd846f8ba2e8ba2e8ba2e8ba2e8ba2e8ba2e8b615392565b6134d79084615347565b6134e19190615311565b6134eb90856152d4565b93506001607f1b6134fc8284615347565b6135069190615311565b9150600760801b613527846f89d89d89d89d89d89d89d89d89d89d89615392565b6135319084615347565b61353b9190615311565b61354590856152d4565b93506001607f1b6135568284615347565b6135609190615311565b9150600160831b613581846f88888888888888888888888888888888615392565b61358b9084615347565b6135959190615311565b612f7390856152d4565b600080600160801b83106135e35760006135c56135c06001607f1b86615311565b6145e3565b60ff811694851c949091506135df906001607f1b90615347565b9150505b6001607f1b83111561365857607f5b60ff811615613656576001607f1b61360a8580615347565b6136149190615311565b9350600160801b841061364657600193841c9361363190826153a9565b60ff166001901b8261364391906152d4565b91505b61364f8161540f565b90506135f2565b505b6f05b9de1d10bf4103d647b0955897ba806136836f03f80fe03f80fe03f80fe03f80fe03f883615347565b6116f69190615311565b60008080806136a06001607c1b86615447565b91508190506001607f1b6136b48280615347565b6136be9190615311565b90506136d2816710e1b3be415a0000615347565b6136dc90846152d4565b92506001607f1b6136ed8383615347565b6136f79190615311565b905061370b816705a0913f6b1e0000615347565b61371590846152d4565b92506001607f1b6137268383615347565b6137309190615311565b905061374481670168244fdac78000615347565b61374e90846152d4565b92506001607f1b61375f8383615347565b6137699190615311565b905061377c81664807432bc18000615347565b61378690846152d4565b92506001607f1b6137978383615347565b6137a19190615311565b90506137b481660c0135dca04000615347565b6137be90846152d4565b92506001607f1b6137cf8383615347565b6137d99190615311565b90506137ec816601b707b1cdc000615347565b6137f690846152d4565b92506001607f1b6138078383615347565b6138119190615311565b9050613823816536e0f639b800615347565b61382d90846152d4565b92506001607f1b61383e8383615347565b6138489190615311565b905061385a81650618fee9f800615347565b61386490846152d4565b92506001607f1b6138758383615347565b61387f9190615311565b905061389081649c197dcc00615347565b61389a90846152d4565b92506001607f1b6138ab8383615347565b6138b59190615311565b90506138c681640e30dce400615347565b6138d090846152d4565b92506001607f1b6138e18383615347565b6138eb9190615311565b90506138fc8164012ebd1300615347565b61390690846152d4565b92506001607f1b6139178383615347565b6139219190615311565b9050613931816317499f00615347565b61393b90846152d4565b92506001607f1b61394c8383615347565b6139569190615311565b9050613966816301a9d480615347565b61397090846152d4565b92506001607f1b6139818383615347565b61398b9190615311565b905061399a81621c6380615347565b6139a490846152d4565b92506001607f1b6139b58383615347565b6139bf9190615311565b90506139ce816201c638615347565b6139d890846152d4565b92506001607f1b6139e98383615347565b6139f39190615311565b9050613a0181611ab8615347565b613a0b90846152d4565b92506001607f1b613a1c8383615347565b613a269190615311565b9050613a348161017c615347565b613a3e90846152d4565b92506001607f1b613a4f8383615347565b613a599190615311565b9050613a66816014615347565b613a7090846152d4565b92506001607f1b613a818383615347565b613a8b9190615311565b9050613a98816001615347565b613aa290846152d4565b92506001607f1b82613abc6721c3677c82b4000086615311565b613ac691906152d4565b613ad091906152d4565b92506001607c1b851615613b185770018ebef9eac820ae8682b9793ac6d1e776613b0b847001c3d6a24ed82218787d624d3e5eba95f9615347565b613b159190615311565b92505b6001607d1b851615613b5e577001368b2fc6f9609fe7aceb46aa619baed4613b518470018ebef9eac820ae8682b9793ac6d1e778615347565b613b5b9190615311565b92505b6001607e1b851615613ba3576fbc5ab1b16779be3575bd8f0520a9f21f613b96847001368b2fc6f9609fe7aceb46aa619baed5615347565b613ba09190615311565b92505b6001607f1b851615613be7576f454aaa8efe072e7f6ddbab84b40a55c9613bda846fbc5ab1b16779be3575bd8f0520a9f21e615347565b613be49190615311565b92505b600160801b851615613c2b576f0960aadc109e7a3bf4578099615711ea613c1e846f454aaa8efe072e7f6ddbab84b40a55c5615347565b613c289190615311565b92505b600160811b851615613c6e576e2bf84208204f5977f9a8cf01fdce3d613c61846f0960aadc109e7a3bf4578099615711d7615347565b613c6b9190615311565b92505b600160821b851615613caf576d03c6ab775dd0b95b4cbee7e65d11613ca2846e2bf84208204f5977f9a8cf01fdc307615347565b613cac9190615311565b92505b50909392505050565b60006020607f5b60ff8116613cce8360016152ec565b60ff161015613d2f5760006002613ce583856152ec565b613cef9190615325565b905084609c8260ff1660808110613d1657634e487b7160e01b600052603260045260246000fd5b015410613d2557809250613d29565b8091505b50613cbf565b83609c8260ff1660808110613d5457634e487b7160e01b600052603260045260246000fd5b015410613d645791506106019050565b83609c8360ff1660808110613d8957634e487b7160e01b600052603260045260246000fd5b01541061015d57509050610601565b6000828160ff8416613daa8380615347565b901c9150613dc7826b0d10b13981d2a0bc5e5fdcab601e1b615347565b613dd190826152d4565b905060ff8416613de18684615347565b901c9150613dfe826b045ae5bdd5f0e03eca1ff439601e1b615347565b613e0890826152d4565b905060ff8416613e188684615347565b901c9150613e35826e45ae5bdd5f0e03eca1ff4390000000615347565b613e3f90826152d4565b905060ff8416613e4f8684615347565b901c9150613e6b826adefabf91302cd95b9ffda5601c1b615347565b613e7590826152d4565b905060ff8416613e858684615347565b901c9150613ea1826a4a53953065644873dfff37601b1b615347565b613eab90826152d4565b905060ff8416613ebb8684615347565b901c9150613ed7826d54f1cf12bd04e516b6da88000000615347565b613ee190826152d4565b905060ff8416613ef18684615347565b901c9150613f0d826d0a9e39e257a09ca2d6db51000000615347565b613f1790826152d4565b905060ff8416613f278684615347565b901c9150613f43826d012e066e7b839fa050c309000000615347565b613f4d90826152d4565b905060ff8416613f5d8684615347565b901c9150613f78826c1e33d7d926c329a1ad1a800000615347565b613f8290826152d4565b905060ff8416613f928684615347565b901c9150613fad826c02bee513bdb4a6b19b5f800000615347565b613fb790826152d4565b905060ff8416613fc78684615347565b901c9150613fe1826b3a9316fa79b88eccf2a00000615347565b613feb90826152d4565b905060ff8416613ffb8684615347565b901c9150614015826b048177ebe1fa812375200000615347565b61401f90826152d4565b905060ff841661402f8684615347565b901c9150614048826a5263fe90242dcbacf00000615347565b61405290826152d4565b905060ff84166140628684615347565b901c915061407b826a057e22099c030d94100000615347565b61408590826152d4565b905060ff84166140958684615347565b901c91506140ad826957e22099c030d9410000615347565b6140b790826152d4565b905060ff84166140c78684615347565b901c91506140df8269052b6b54569976310000615347565b6140e990826152d4565b905060ff84166140f98684615347565b901c915061411082684985f67696bf748000615347565b61411a90826152d4565b905060ff841661412a8684615347565b901c9150614141826803dea12ea99e498000615347565b61414b90826152d4565b905060ff841661415b8684615347565b901c9150614171826731880f2214b6e000615347565b61417b90826152d4565b905060ff841661418b8684615347565b901c91506141a18267025bcff56eb36000615347565b6141ab90826152d4565b905060ff84166141bb8684615347565b901c91506141d082661b722e10ab1000615347565b6141da90826152d4565b905060ff84166141ea8684615347565b901c91506141ff826601317c70077000615347565b61420990826152d4565b905060ff84166142198684615347565b901c915061422d82650cba84aafa00615347565b61423790826152d4565b905060ff84166142478684615347565b901c915061425a826482573a0a00615347565b61426490826152d4565b905060ff84166142748684615347565b901c9150614287826405035ad900615347565b61429190826152d4565b905060ff84166142a18684615347565b901c91506142b382632f881b00615347565b6142bd90826152d4565b905060ff84166142cd8684615347565b901c91506142df826301b29340615347565b6142e990826152d4565b905060ff84166142f98684615347565b901c915061430a82620efc40615347565b61431490826152d4565b905060ff84166143248684615347565b901c915061433482617fe0615347565b61433e90826152d4565b905060ff841661434e8684615347565b901c915061435e82610420615347565b61436890826152d4565b905060ff84166143788684615347565b901c9150614387826021615347565b61439190826152d4565b905060ff84166143a18684615347565b901c91506143b0826001615347565b6143ba90826152d4565b9050600160ff85161b856143dd6b0d10b13981d2a0bc5e5fdcab601f1b84615311565b6143e791906152d4565b6143f191906152d4565b95945050505050565b6040805160a0808201835287516001600160a01b03908116835288840151811660208085019190915260608a8101518316858701528951831685820152918816608080860191909152855193840186528784526101408b0151848301526101608b0151848701526101808b01518484015283018690526101008a01516101208b0151918a01518a87015196519396919361449d93928792918791906024016150e9565b60408051601f198184030181529190526020810180516001600160e01b03166001600160e01b0319909316929092179091529250505095945050505050565b60008060206040518181865160208801895afa92508051935050508061453b5760405162461bcd60e51b815260206004820152601460248201527314d510551250d7d0d0531311548bd1905253115160621b60448201526064016106f9565b5092915050565b6040805160a0808201835287516001600160a01b03908116835288840151811660208085019190915260608a8101518316858701528951831685820152918816608080860191909152855180850187528881526101408c0151818401526101608c0151818801526101808c015181850152908101879052928a015160c08b0151918a01518a87015196519396919361449d93928792918791906024016150e9565b600080610100831015614616575b600183111561461157600192831c9261460a90826152ec565b90506145f1565b6105fe565b60805b60ff81161561453b57600160ff82161b841061463d5760ff81169390931c92908117905b60011c607f16614619565b80356106018161549d565b8060c08101831015610b7e57600080fd5b600082601f830112614674578081fd5b61467e60406152a4565b80838560408601111561468f578384fd5b835b60028110156146ba5781356146a5816154c0565b84526020938401939190910190600101614691565b509095945050505050565b8060608101831015610b7e57600080fd5b8060808101831015610b7e57600080fd5b806101008101831015610b7e57600080fd5b60008083601f84011261470a578182fd5b5081356001600160401b03811115614720578182fd5b60208301915083602082850101111561473857600080fd5b9250929050565b600082601f83011261474f578081fd5b81356001600160401b0381111561476857614768615487565b61477b601f8201601f19166020016152a4565b81815284602083860101111561478f578283fd5b816020850160208301379081016020019190915292915050565b80356002811061060157600080fd5b6000602082840312156147c9578081fd5b81356116f68161549d565b6000602082840312156147e5578081fd5b81516116f68161549d565b60008060408385031215614802578081fd5b823561480d8161549d565b9150602083013561481d816154b2565b809150509250929050565b6000806040838503121561483a578182fd5b82356148458161549d565b946020939093013593505050565b6000806000806101608587031215614869578182fd5b84356148748161549d565b93506020850135925061488a86604087016146e7565b939692955092936101400135925050565b600080600080608085870312156148b0578182fd5b84356001600160401b03808211156148c6578384fd5b818701915087601f8301126148d9578384fd5b81356020828211156148ed576148ed615487565b8160051b92506148fe8184016152a4565b8281528181019085830185870184018d1015614918578889fd5b8896505b8487101561494657803595506149318661549d565b8583526001969096019591830191830161491c565b5098506149569050898201614648565b96505050505061496860408601614648565b9396929550929360600135925050565b6000806000806000806000806102a0898b031215614994578586fd5b61499e8a8a6146e7565b97506149ae8a6101008b01614653565b96506149be8a6101c08b016146c5565b95506149ce8a6102208b01614664565b94506102608901356001600160401b03808211156149ea578586fd5b6149f68c838d016146f9565b90965094506102808b0135915080821115614a0f578384fd5b50614a1c8b828c016146f9565b999c989b5096995094979396929594505050565b6000806000806000806000806000806000806103008d8f031215614a52578586fd5b614a5c8e8e6146e7565b9b50614a6c8e6101008f01614653565b9a50614a7c8e6101c08f016146c5565b9950614a8c8e6102208f01614664565b98506001600160401b036102608e01351115614aa6578586fd5b614ab78e6102608f01358f016146f9565b90985096506001600160401b036102808e01351115614ad4578586fd5b614ae58e6102808f01358f016146f9565b90965094506001600160401b036102a08e01351115614b02578384fd5b614b138e6102a08f01358f0161473f565b9350614b226102c08e016147a9565b92506001600160401b036102e08e01351115614b3c578081fd5b614b4d8e6102e08f01358f016146f9565b81935080925050509295989b509295989b509295989b565b6000806000806000806000806000806000806103208d8f031215614b87578586fd5b614b918e8e6146e7565b9b50614ba18e6101008f01614653565b9a50614bb18e6101c08f016146d6565b9950614bc18e6102408f01614664565b98506001600160401b036102808e01351115614bdb578586fd5b614bec8e6102808f01358f016146f9565b90985096506001600160401b036102a08e01351115614c09578586fd5b614c1a8e6102a08f01358f016146f9565b90965094506001600160401b036102c08e01351115614c37578182fd5b614c488e6102c08f01358f0161473f565b9350614c576102e08e016147a9565b92506001600160401b036103008e01351115614c71578182fd5b614b4d8e6103008f01358f016146f9565b600060208284031215614c93578081fd5b81516116f6816154b2565b600060208284031215614caf578081fd5b5035919050565b60008060408385031215614cc8578182fd5b82359150602083013561481d8161549d565b60008060008060608587031215614cef578182fd5b843593506020850135614d018161549d565b925060408501356001600160401b03811115614d1b578283fd5b614d27878288016146f9565b95989497509550505050565b60008060408385031215614d45578182fd5b50508035926020909101359150565b600060208284031215614d65578081fd5b81356116f6816154c0565b600060208284031215614d81578081fd5b81516116f6816154c0565b600060c08284031215614d9d578081fd5b614da760c06152a4565b8251614db28161549d565b808252506020830151602082015260408301516040820152606083015160608201526080830151608082015260a083015160a08201528091505092915050565b600080600060608486031215614e06578081fd5b835160ff81168114614e16578182fd5b602085015160409095015190969495509392505050565b6001600160a01b03169052565b8060005b6008811015614e5d578151845260209384019390910190600101614e3e565b50505050565b6001600160e01b0319169052565b60008151808452614e898160208601602086016153cc565b601f01601f19169290920160200192915050565b60028110614ebb57634e487b7160e01b600052602160045260246000fd5b9052565b600076020b1b1b2b9b9a1b7b73a3937b61d1030b1b1b7bab73a1604d1b82528351614ef18160178501602088016153cc565b7001034b99036b4b9b9b4b733903937b6329607d1b6017918401918201528351614f228160288401602088016153cc565b01602801949350505050565b6001600160a01b038781168252602082018790526101a0820190614f556040840188614e3a565b94909416610140820152610160810192909252610180909101529392505050565b6001600160a01b03841681526000614f916020830185614e9d565b606060408301526106496060830184614e71565b6101008101610b7e8284614e3a565b6000610240614fc3838f614e3a565b6001600160a01b038d81166101008501528c81166101208501526001600160e01b03198c811661014086015261016085018390526150038386018d614e71565b918b1661018086015289166101a08501528381036101c085015290506150298188614e71565b6101e084019690965250506102008101929092526102209091015298975050505050505050565b8e81526001600160a01b038e81166020830152604082018e90528c811660608301528b1660808201526101c0810161508b60a083018c614e2d565b61509860c083018b614e63565b8860e08301526150ac610100830189614e2d565b6150ba610120830188614e63565b856101408301528461016083015283610180830152826101a08301529f9e505050505050505050505050505050565b60006101a08083526150fd81840189614e71565b9050602080840188845b600581101561512d5781516001600160a01b031683529183019190830190600101615107565b50505061513d60c0850188614e9d565b60e0840186845b600581101561516157815183529183019190830190600101615144565b505050508281036101808401526151788185614e71565b98975050505050505050565b6000604082526151976040830185614e71565b82810360208401526143f18185614e71565b6000602082526116f66020830184614e71565b6020808252601a9082015279232620a4a92fa324a720a721a297a727aa2fa3a7ab22a92727a960311b604082015260600190565b60208082526015908201527413d191915494cbd192531317d55390d2105391d151605a1b604082015260600190565b6020808252602e908201527f496e697469616c697a61626c653a20636f6e747261637420697320616c72656160408201526d191e481a5b9a5d1a585b1a5e995960921b606082015260800190565b6020808252601f908201527f5265656e7472616e637947756172643a207265656e7472616e742063616c6c00604082015260600190565b604051601f8201601f191681016001600160401b03811182821017156152cc576152cc615487565b604052919050565b600082198211156152e7576152e761545b565b500190565b600060ff821660ff84168060ff038211156153095761530961545b565b019392505050565b60008261532057615320615471565b500490565b600060ff83168061533857615338615471565b8060ff84160491505092915050565b60008160001904831182151516156153615761536161545b565b500290565b600063ffffffff808316818516818304811182151516156153895761538961545b565b02949350505050565b6000828210156153a4576153a461545b565b500390565b600060ff821660ff8416808210156153c3576153c361545b565b90039392505050565b60005b838110156153e75781810151838201526020016153cf565b83811115614e5d5750506000910152565b6000816154075761540761545b565b506000190190565b600060ff8216806154225761542261545b565b6000190192915050565b60006000198214156154405761544061545b565b5060010190565b60008261545657615456615471565b500690565b634e487b7160e01b600052601160045260246000fd5b634e487b7160e01b600052601260045260246000fd5b634e487b7160e01b600052604160045260246000fd5b6001600160a01b038116811461098c57600080fd5b801515811461098c57600080fd5b6001600160e01b03198116811461098c57600080fdfe7935bd0ae54bc31f548c14dba4d37c5c64b3f8ca900cb468fb8abd54d5894f55a264697066735822122016d266cd29af8ff3c8e6592f29d7420cd9d8469d926a5acd98765f46c91ac50864736f6c63430008030033",
  "devdoc": {
    "kind": "dev",
    "methods": {
      "getRoleAdmin(bytes32)": {
        "details": "Returns the admin role that controls `role`. See {grantRole} and {revokeRole}. To change a role's admin, use {_setRoleAdmin}."
      },
      "grantRole(bytes32,address)": {
        "details": "Grants `role` to `account`. If `account` had not been already granted `role`, emits a {RoleGranted} event. Requirements: - the caller must have ``role``'s admin role."
      },
      "hasRole(bytes32,address)": {
        "details": "Returns `true` if `account` has been granted `role`."
      },
      "renounceRole(bytes32,address)": {
        "details": "Revokes `role` from the calling account. Roles are often managed via {grantRole} and {revokeRole}: this function's purpose is to provide a mechanism for accounts to lose their privileges if they are compromised (such as when a trusted device is misplaced). If the calling account had been granted `role`, emits a {RoleRevoked} event. Requirements: - the caller must be `account`."
      },
      "revokeRole(bytes32,address)": {
        "details": "Revokes `role` from `account`. If `account` had been granted `role`, emits a {RoleRevoked} event. Requirements: - the caller must have ``role``'s admin role."
      },
      "supportsInterface(bytes4)": {
        "details": "See {IERC165-supportsInterface}."
      }
    },
    "version": 1
  },
  "userdoc": {
    "kind": "user",
    "methods": {},
    "version": 1
  },
  "storageLayout": {
    "storage": [
      {
        "astId": 413,
        "contract": "contracts/Finance.sol:Finance",
        "label": "_initialized",
        "offset": 0,
        "slot": "0",
        "type": "t_bool"
      },
      {
        "astId": 416,
        "contract": "contracts/Finance.sol:Finance",
        "label": "_initializing",
        "offset": 1,
        "slot": "0",
        "type": "t_bool"
      },
      {
        "astId": 2411,
        "contract": "contracts/Finance.sol:Finance",
        "label": "__gap",
        "offset": 0,
        "slot": "1",
        "type": "t_array(t_uint256)50_storage"
      },
      {
        "astId": 580,
        "contract": "contracts/Finance.sol:Finance",
        "label": "_status",
        "offset": 0,
        "slot": "51",
        "type": "t_uint256"
      },
      {
        "astId": 623,
        "contract": "contracts/Finance.sol:Finance",
        "label": "__gap",
        "offset": 0,
        "slot": "52",
        "type": "t_array(t_uint256)49_storage"
      },
      {
        "astId": 3065,
        "contract": "contracts/Finance.sol:Finance",
        "label": "_HASHED_NAME",
        "offset": 0,
        "slot": "101",
        "type": "t_bytes32"
      },
      {
        "astId": 3067,
        "contract": "contracts/Finance.sol:Finance",
        "label": "_HASHED_VERSION",
        "offset": 0,
        "slot": "102",
        "type": "t_bytes32"
      },
      {
        "astId": 3204,
        "contract": "contracts/Finance.sol:Finance",
        "label": "__gap",
        "offset": 0,
        "slot": "103",
        "type": "t_array(t_uint256)50_storage"
      },
      {
        "astId": 10193,
        "contract": "contracts/Finance.sol:Finance",
        "label": "registries",
        "offset": 0,
        "slot": "153",
        "type": "t_mapping(t_address,t_bool)"
      },
      {
        "astId": 10199,
        "contract": "contracts/Finance.sol:Finance",
        "label": "fills",
        "offset": 0,
        "slot": "154",
        "type": "t_mapping(t_address,t_mapping(t_bytes32,t_uint256))"
      },
      {
        "astId": 10205,
        "contract": "contracts/Finance.sol:Finance",
        "label": "approved",
        "offset": 0,
        "slot": "155",
        "type": "t_mapping(t_address,t_mapping(t_bytes32,t_bool))"
      },
      {
        "astId": 12965,
        "contract": "contracts/Finance.sol:Finance",
        "label": "maxExpArray",
        "offset": 0,
        "slot": "156",
        "type": "t_array(t_uint256)128_storage"
      },
      {
        "astId": 13549,
        "contract": "contracts/Finance.sol:Finance",
        "label": "lambertArray",
        "offset": 0,
        "slot": "284",
        "type": "t_array(t_uint256)128_storage"
      },
      {
        "astId": 3250,
        "contract": "contracts/Finance.sol:Finance",
        "label": "__gap",
        "offset": 0,
        "slot": "412",
        "type": "t_array(t_uint256)50_storage"
      },
      {
        "astId": 48,
        "contract": "contracts/Finance.sol:Finance",
        "label": "_roles",
        "offset": 0,
        "slot": "462",
        "type": "t_mapping(t_bytes32,t_struct(RoleData)43_storage)"
      },
      {
        "astId": 333,
        "contract": "contracts/Finance.sol:Finance",
        "label": "__gap",
        "offset": 0,
        "slot": "463",
        "type": "t_array(t_uint256)49_storage"
      },
      {
        "astId": 8141,
        "contract": "contracts/Finance.sol:Finance",
        "label": "_treasury",
        "offset": 0,
        "slot": "512",
        "type": "t_address"
      },
      {
        "astId": 8144,
        "contract": "contracts/Finance.sol:Finance",
        "label": "_funding",
        "offset": 0,
        "slot": "513",
        "type": "t_contract(IFunding)10127"
      },
      {
        "astId": 8146,
        "contract": "contracts/Finance.sol:Finance",
        "label": "_protocolFee",
        "offset": 0,
        "slot": "514",
        "type": "t_uint256"
      },
      {
        "astId": 8152,
        "contract": "contracts/Finance.sol:Finance",
        "label": "offerTotalFunded",
        "offset": 0,
        "slot": "515",
        "type": "t_mapping(t_address,t_mapping(t_bytes32,t_uint256))"
      }
    ],
    "types": {
      "t_address": {
        "encoding": "inplace",
        "label": "address",
        "numberOfBytes": "20"
      },
      "t_array(t_uint256)128_storage": {
        "base": "t_uint256",
        "encoding": "inplace",
        "label": "uint256[128]",
        "numberOfBytes": "4096"
      },
      "t_array(t_uint256)49_storage": {
        "base": "t_uint256",
        "encoding": "inplace",
        "label": "uint256[49]",
        "numberOfBytes": "1568"
      },
      "t_array(t_uint256)50_storage": {
        "base": "t_uint256",
        "encoding": "inplace",
        "label": "uint256[50]",
        "numberOfBytes": "1600"
      },
      "t_bool": {
        "encoding": "inplace",
        "label": "bool",
        "numberOfBytes": "1"
      },
      "t_bytes32": {
        "encoding": "inplace",
        "label": "bytes32",
        "numberOfBytes": "32"
      },
      "t_contract(IFunding)10127": {
        "encoding": "inplace",
        "label": "contract IFunding",
        "numberOfBytes": "20"
      },
      "t_mapping(t_address,t_bool)": {
        "encoding": "mapping",
        "key": "t_address",
        "label": "mapping(address => bool)",
        "numberOfBytes": "32",
        "value": "t_bool"
      },
      "t_mapping(t_address,t_mapping(t_bytes32,t_bool))": {
        "encoding": "mapping",
        "key": "t_address",
        "label": "mapping(address => mapping(bytes32 => bool))",
        "numberOfBytes": "32",
        "value": "t_mapping(t_bytes32,t_bool)"
      },
      "t_mapping(t_address,t_mapping(t_bytes32,t_uint256))": {
        "encoding": "mapping",
        "key": "t_address",
        "label": "mapping(address => mapping(bytes32 => uint256))",
        "numberOfBytes": "32",
        "value": "t_mapping(t_bytes32,t_uint256)"
      },
      "t_mapping(t_bytes32,t_bool)": {
        "encoding": "mapping",
        "key": "t_bytes32",
        "label": "mapping(bytes32 => bool)",
        "numberOfBytes": "32",
        "value": "t_bool"
      },
      "t_mapping(t_bytes32,t_struct(RoleData)43_storage)": {
        "encoding": "mapping",
        "key": "t_bytes32",
        "label": "mapping(bytes32 => struct AccessControlUpgradeable.RoleData)",
        "numberOfBytes": "32",
        "value": "t_struct(RoleData)43_storage"
      },
      "t_mapping(t_bytes32,t_uint256)": {
        "encoding": "mapping",
        "key": "t_bytes32",
        "label": "mapping(bytes32 => uint256)",
        "numberOfBytes": "32",
        "value": "t_uint256"
      },
      "t_struct(RoleData)43_storage": {
        "encoding": "inplace",
        "label": "struct AccessControlUpgradeable.RoleData",
        "members": [
          {
            "astId": 40,
            "contract": "contracts/Finance.sol:Finance",
            "label": "members",
            "offset": 0,
            "slot": "0",
            "type": "t_mapping(t_address,t_bool)"
          },
          {
            "astId": 42,
            "contract": "contracts/Finance.sol:Finance",
            "label": "adminRole",
            "offset": 0,
            "slot": "1",
            "type": "t_bytes32"
          }
        ],
        "numberOfBytes": "64"
      },
      "t_uint256": {
        "encoding": "inplace",
        "label": "uint256",
        "numberOfBytes": "32"
      }
    }
  }
}