{
  "address": "0x4d2F58b0990E33ABD1784615afC18585230F8D60",
  "abi": [
    {
      "anonymous": false,
      "inputs": [
        {
          "indexed": true,
          "internalType": "bytes32",
          "name": "hash",
          "type": "bytes32"
        },
        {
          "indexed": false,
          "internalType": "address",
          "name": "registry",
          "type": "address"
        },
        {
          "indexed": true,
          "internalType": "address",
          "name": "maker",
          "type": "address"
        },
        {
          "indexed": false,
          "internalType": "address",
          "name": "staticTarget",
          "type": "address"
        },
        {
          "indexed": false,
          "internalType": "bytes4",
          "name": "staticSelector",
          "type": "bytes4"
        },
        {
          "indexed": false,
          "internalType": "bytes",
          "name": "staticExtradata",
          "type": "bytes"
        },
        {
          "indexed": false,
          "internalType": "uint256",
          "name": "maximumFill",
          "type": "uint256"
        },
        {
          "indexed": false,
          "internalType": "uint256",
          "name": "listingTime",
          "type": "uint256"
        },
        {
          "indexed": false,
          "internalType": "uint256",
          "name": "expirationTime",
          "type": "uint256"
        },
        {
          "indexed": false,
          "internalType": "uint256",
          "name": "salt",
          "type": "uint256"
        }
      ],
      "name": "OfferApproved",
      "type": "event"
    },
    {
      "anonymous": false,
      "inputs": [
        {
          "indexed": true,
          "internalType": "bytes32",
          "name": "hash",
          "type": "bytes32"
        },
        {
          "indexed": true,
          "internalType": "address",
          "name": "maker",
          "type": "address"
        },
        {
          "indexed": false,
          "internalType": "uint256",
          "name": "newFill",
          "type": "uint256"
        }
      ],
      "name": "OfferFillChanged",
      "type": "event"
    },
    {
      "anonymous": false,
      "inputs": [
        {
          "indexed": false,
          "internalType": "bytes32",
          "name": "hash",
          "type": "bytes32"
        },
        {
          "indexed": true,
          "internalType": "address",
          "name": "maker",
          "type": "address"
        },
        {
          "indexed": true,
          "internalType": "address",
          "name": "operator",
          "type": "address"
        },
        {
          "indexed": false,
          "internalType": "uint256",
          "name": "filledAmount",
          "type": "uint256"
        },
        {
          "indexed": false,
          "internalType": "uint256",
          "name": "newFill",
          "type": "uint256"
        }
      ],
      "name": "OfferFunded",
      "type": "event"
    },
    {
      "anonymous": false,
      "inputs": [
        {
          "indexed": true,
          "internalType": "bytes32",
          "name": "role",
          "type": "bytes32"
        },
        {
          "indexed": true,
          "internalType": "bytes32",
          "name": "previousAdminRole",
          "type": "bytes32"
        },
        {
          "indexed": true,
          "internalType": "bytes32",
          "name": "newAdminRole",
          "type": "bytes32"
        }
      ],
      "name": "RoleAdminChanged",
      "type": "event"
    },
    {
      "anonymous": false,
      "inputs": [
        {
          "indexed": true,
          "internalType": "bytes32",
          "name": "role",
          "type": "bytes32"
        },
        {
          "indexed": true,
          "internalType": "address",
          "name": "account",
          "type": "address"
        },
        {
          "indexed": true,
          "internalType": "address",
          "name": "sender",
          "type": "address"
        }
      ],
      "name": "RoleGranted",
      "type": "event"
    },
    {
      "anonymous": false,
      "inputs": [
        {
          "indexed": true,
          "internalType": "bytes32",
          "name": "role",
          "type": "bytes32"
        },
        {
          "indexed": true,
          "internalType": "address",
          "name": "account",
          "type": "address"
        },
        {
          "indexed": true,
          "internalType": "address",
          "name": "sender",
          "type": "address"
        }
      ],
      "name": "RoleRevoked",
      "type": "event"
    },
    {
      "inputs": [],
      "name": "DEFAULT_ADMIN_ROLE",
      "outputs": [
        {
          "internalType": "bytes32",
          "name": "",
          "type": "bytes32"
        }
      ],
      "stateMutability": "view",
      "type": "function"
    },
    {
      "inputs": [],
      "name": "GOVERNOR_ROLE",
      "outputs": [
        {
          "internalType": "bytes32",
          "name": "",
          "type": "bytes32"
        }
      ],
      "stateMutability": "view",
      "type": "function"
    },
    {
      "inputs": [],
      "name": "__BancorFormula_init",
      "outputs": [],
      "stateMutability": "nonpayable",
      "type": "function"
    },
    {
      "inputs": [
        {
          "internalType": "string",
          "name": "name",
          "type": "string"
        },
        {
          "internalType": "string",
          "name": "version",
          "type": "string"
        }
      ],
      "name": "__Offer_init",
      "outputs": [],
      "stateMutability": "nonpayable",
      "type": "function"
    },
    {
      "inputs": [],
      "name": "__Offer_init_unchained",
      "outputs": [],
      "stateMutability": "nonpayable",
      "type": "function"
    },
    {
      "inputs": [
        {
          "internalType": "address",
          "name": "beneficiary",
          "type": "address"
        },
        {
          "internalType": "uint256[8]",
          "name": "fundingOptions",
          "type": "uint256[8]"
        },
        {
          "internalType": "address",
          "name": "registry",
          "type": "address"
        },
        {
          "internalType": "address",
          "name": "maker",
          "type": "address"
        },
        {
          "internalType": "address",
          "name": "staticTarget",
          "type": "address"
        },
        {
          "internalType": "bytes4",
          "name": "staticSelector",
          "type": "bytes4"
        },
        {
          "internalType": "bytes",
          "name": "staticExtradata",
          "type": "bytes"
        },
        {
          "internalType": "uint256",
          "name": "maximumFill",
          "type": "uint256"
        },
        {
          "internalType": "uint256",
          "name": "listingTime",
          "type": "uint256"
        },
        {
          "internalType": "uint256",
          "name": "expirationTime",
          "type": "uint256"
        },
        {
          "internalType": "uint256",
          "name": "salt",
          "type": "uint256"
        }
      ],
      "name": "approveOffer",
      "outputs": [],
      "stateMutability": "nonpayable",
      "type": "function"
    },
    {
      "inputs": [
        {
          "internalType": "bytes32",
          "name": "hash",
          "type": "bytes32"
        }
      ],
      "name": "approveOfferHash",
      "outputs": [],
      "stateMutability": "nonpayable",
      "type": "function"
    },
    {
      "inputs": [
        {
          "internalType": "address",
          "name": "",
          "type": "address"
        },
        {
          "internalType": "bytes32",
          "name": "",
          "type": "bytes32"
        }
      ],
      "name": "approved",
      "outputs": [
        {
          "internalType": "bool",
          "name": "",
          "type": "bool"
        }
      ],
      "stateMutability": "view",
      "type": "function"
    },
    {
      "inputs": [
        {
          "internalType": "address",
          "name": "",
          "type": "address"
        },
        {
          "internalType": "bytes32",
          "name": "",
          "type": "bytes32"
        }
      ],
      "name": "fills",
      "outputs": [
        {
          "internalType": "uint256",
          "name": "",
          "type": "uint256"
        }
      ],
      "stateMutability": "view",
      "type": "function"
    },
    {
      "inputs": [
        {
          "internalType": "uint256[8]",
          "name": "fundingOptions",
          "type": "uint256[8]"
        },
        {
          "internalType": "address[5]",
          "name": "addrs",
          "type": "address[5]"
        },
        {
          "internalType": "uint256[4]",
          "name": "uints",
          "type": "uint256[4]"
        },
        {
          "internalType": "bytes4",
          "name": "staticSelector",
          "type": "bytes4"
        },
        {
          "internalType": "bytes",
          "name": "staticExtradata",
          "type": "bytes"
        },
        {
          "internalType": "bytes",
          "name": "signature",
          "type": "bytes"
        },
        {
          "internalType": "enum AuthenticatedProxy.HowToCall",
          "name": "howToCall",
          "type": "uint8"
        },
        {
          "internalType": "bytes",
          "name": "data",
          "type": "bytes"
        }
      ],
      "name": "fundOffer",
      "outputs": [],
      "stateMutability": "payable",
      "type": "function"
    },
    {
      "inputs": [
        {
          "internalType": "address",
          "name": "maker",
          "type": "address"
        },
        {
          "internalType": "bytes32",
          "name": "hash",
          "type": "bytes32"
        },
        {
          "internalType": "uint256[8]",
          "name": "fundingOptions",
          "type": "uint256[8]"
        },
        {
          "internalType": "uint256",
          "name": "fillAmount",
          "type": "uint256"
        }
      ],
      "name": "getOfferFundingCost",
      "outputs": [
        {
          "internalType": "uint256",
          "name": "fundingCost",
          "type": "uint256"
        },
        {
          "internalType": "uint256",
          "name": "protocolFeeAmount",
          "type": "uint256"
        }
      ],
      "stateMutability": "view",
      "type": "function"
    },
    {
      "inputs": [
        {
          "internalType": "bytes32",
          "name": "role",
          "type": "bytes32"
        }
      ],
      "name": "getRoleAdmin",
      "outputs": [
        {
          "internalType": "bytes32",
          "name": "",
          "type": "bytes32"
        }
      ],
      "stateMutability": "view",
      "type": "function"
    },
    {
      "inputs": [
        {
          "internalType": "bytes32",
          "name": "role",
          "type": "bytes32"
        },
        {
          "internalType": "address",
          "name": "account",
          "type": "address"
        }
      ],
      "name": "grantRole",
      "outputs": [],
      "stateMutability": "nonpayable",
      "type": "function"
    },
    {
      "inputs": [
        {
          "internalType": "bytes32",
          "name": "role",
          "type": "bytes32"
        },
        {
          "internalType": "address",
          "name": "account",
          "type": "address"
        }
      ],
      "name": "hasRole",
      "outputs": [
        {
          "internalType": "bool",
          "name": "",
          "type": "bool"
        }
      ],
      "stateMutability": "view",
      "type": "function"
    },
    {
      "inputs": [
        {
          "internalType": "address",
          "name": "beneficiary",
          "type": "address"
        },
        {
          "internalType": "uint256[8]",
          "name": "fundingOptions",
          "type": "uint256[8]"
        },
        {
          "internalType": "address",
          "name": "registry",
          "type": "address"
        },
        {
          "internalType": "address",
          "name": "maker",
          "type": "address"
        },
        {
          "internalType": "address",
          "name": "staticTarget",
          "type": "address"
        },
        {
          "internalType": "bytes4",
          "name": "staticSelector",
          "type": "bytes4"
        },
        {
          "internalType": "bytes",
          "name": "staticExtradata",
          "type": "bytes"
        },
        {
          "internalType": "uint256",
          "name": "maximumFill",
          "type": "uint256"
        },
        {
          "internalType": "uint256",
          "name": "listingTime",
          "type": "uint256"
        },
        {
          "internalType": "uint256",
          "name": "expirationTime",
          "type": "uint256"
        },
        {
          "internalType": "uint256",
          "name": "salt",
          "type": "uint256"
        }
      ],
      "name": "hashOffer",
      "outputs": [
        {
          "internalType": "bytes32",
          "name": "hash",
          "type": "bytes32"
        }
      ],
      "stateMutability": "pure",
      "type": "function"
    },
    {
      "inputs": [
        {
          "internalType": "bytes32",
          "name": "orderHash",
          "type": "bytes32"
        }
      ],
      "name": "hashToSign",
      "outputs": [
        {
          "internalType": "bytes32",
          "name": "hash",
          "type": "bytes32"
        }
      ],
      "stateMutability": "view",
      "type": "function"
    },
    {
      "inputs": [
        {
          "internalType": "address[]",
          "name": "registryAddrs",
          "type": "address[]"
        },
        {
          "internalType": "address",
          "name": "treasury",
          "type": "address"
        },
        {
          "internalType": "address",
          "name": "funding",
          "type": "address"
        },
        {
          "internalType": "uint256",
          "name": "protocolFee",
          "type": "uint256"
        }
      ],
      "name": "initialize",
      "outputs": [],
      "stateMutability": "nonpayable",
      "type": "function"
    },
    {
      "inputs": [],
      "name": "name",
      "outputs": [
        {
          "internalType": "string",
          "name": "",
          "type": "string"
        }
      ],
      "stateMutability": "view",
      "type": "function"
    },
    {
      "inputs": [
        {
          "internalType": "address",
          "name": "",
          "type": "address"
        },
        {
          "internalType": "bytes32",
          "name": "",
          "type": "bytes32"
        }
      ],
      "name": "offerFundings",
      "outputs": [
        {
          "internalType": "uint256",
          "name": "",
          "type": "uint256"
        }
      ],
      "stateMutability": "view",
      "type": "function"
    },
    {
      "inputs": [
        {
          "internalType": "address",
          "name": "",
          "type": "address"
        }
      ],
      "name": "registries",
      "outputs": [
        {
          "internalType": "bool",
          "name": "",
          "type": "bool"
        }
      ],
      "stateMutability": "view",
      "type": "function"
    },
    {
      "inputs": [
        {
          "internalType": "bytes32",
          "name": "role",
          "type": "bytes32"
        },
        {
          "internalType": "address",
          "name": "account",
          "type": "address"
        }
      ],
      "name": "renounceRole",
      "outputs": [],
      "stateMutability": "nonpayable",
      "type": "function"
    },
    {
      "inputs": [
        {
          "internalType": "bytes32",
          "name": "role",
          "type": "bytes32"
        },
        {
          "internalType": "address",
          "name": "account",
          "type": "address"
        }
      ],
      "name": "revokeRole",
      "outputs": [],
      "stateMutability": "nonpayable",
      "type": "function"
    },
    {
      "inputs": [
        {
          "internalType": "address",
          "name": "newAddress",
          "type": "address"
        }
      ],
      "name": "setFunding",
      "outputs": [],
      "stateMutability": "nonpayable",
      "type": "function"
    },
    {
      "inputs": [
        {
          "internalType": "bytes32",
          "name": "hash",
          "type": "bytes32"
        },
        {
          "internalType": "uint256",
          "name": "fill",
          "type": "uint256"
        }
      ],
      "name": "setOfferFill",
      "outputs": [],
      "stateMutability": "nonpayable",
      "type": "function"
    },
    {
      "inputs": [
        {
          "internalType": "uint256",
          "name": "newValue",
          "type": "uint256"
        }
      ],
      "name": "setProtocolFee",
      "outputs": [],
      "stateMutability": "nonpayable",
      "type": "function"
    },
    {
      "inputs": [
        {
          "internalType": "address",
          "name": "newAddress",
          "type": "address"
        }
      ],
      "name": "setTreasury",
      "outputs": [],
      "stateMutability": "nonpayable",
      "type": "function"
    },
    {
      "inputs": [
        {
          "internalType": "bytes4",
          "name": "interfaceId",
          "type": "bytes4"
        }
      ],
      "name": "supportsInterface",
      "outputs": [
        {
          "internalType": "bool",
          "name": "",
          "type": "bool"
        }
      ],
      "stateMutability": "view",
      "type": "function"
    },
    {
      "inputs": [
        {
          "internalType": "bytes32",
          "name": "hash",
          "type": "bytes32"
        },
        {
          "internalType": "address",
          "name": "maker",
          "type": "address"
        },
        {
          "internalType": "bytes",
          "name": "signature",
          "type": "bytes"
        }
      ],
      "name": "validateOfferAuthorization",
      "outputs": [
        {
          "internalType": "bool",
          "name": "",
          "type": "bool"
        }
      ],
      "stateMutability": "view",
      "type": "function"
    },
    {
      "inputs": [
        {
          "internalType": "address",
          "name": "beneficiary",
          "type": "address"
        },
        {
          "internalType": "uint256[8]",
          "name": "fundingOptions",
          "type": "uint256[8]"
        },
        {
          "internalType": "address",
          "name": "registry",
          "type": "address"
        },
        {
          "internalType": "address",
          "name": "maker",
          "type": "address"
        },
        {
          "internalType": "address",
          "name": "staticTarget",
          "type": "address"
        },
        {
          "internalType": "bytes4",
          "name": "staticSelector",
          "type": "bytes4"
        },
        {
          "internalType": "bytes",
          "name": "staticExtradata",
          "type": "bytes"
        },
        {
          "internalType": "uint256",
          "name": "maximumFill",
          "type": "uint256"
        },
        {
          "internalType": "uint256",
          "name": "listingTime",
          "type": "uint256"
        },
        {
          "internalType": "uint256",
          "name": "expirationTime",
          "type": "uint256"
        },
        {
          "internalType": "uint256",
          "name": "salt",
          "type": "uint256"
        }
      ],
      "name": "validateOfferParameters",
      "outputs": [
        {
          "internalType": "bool",
          "name": "",
          "type": "bool"
        }
      ],
      "stateMutability": "view",
      "type": "function"
    },
    {
      "inputs": [],
      "name": "version",
      "outputs": [
        {
          "internalType": "string",
          "name": "",
          "type": "string"
        }
      ],
      "stateMutability": "view",
      "type": "function"
    }
  ],
  "transactionHash": "0x35c14ed63e9982db92b0179177177e2751a40b75551b0261bfe44f338c32b925",
  "args": [],
  "solcInputHash": "f21156e82218e2b880a2c84e92ddbd39",
  "bytecode": "0x608060405234801561001057600080fd5b50615a5580620000216000396000f3fe60806040526004361061015d5760003560e01c806301ffc9a71461016257806306fdde03146101975780631fff53da146101dd57806321421c19146101fd578063238b31541461021d578063248a9ca3146102345780632f2ff15d1461026257806336568abe1461028257806343e33040146102a257806350a42af1146102c25780635192174a146102e257806354996a7c1461030257806354fd4d5014610322578063787dce3d146103515780637fad46f214610371578063877cb811146103915780638ccff867146103ca57806391d14854146103dd57806393b9ea6d146103fd578063a217fddf14610412578063caed80df14610427578063ccc5749014610457578063d547741f14610479578063f0f4426014610499578063f399a722146104b9578063f4b27ed8146104d9578063fac7fc38146104f9578063fc623ef814610534578063fcbecc6314610554578063ffc2ab1414610589575b600080fd5b34801561016e57600080fd5b5061018261017d3660046153dc565b6105c1565b60405190151581526020015b60405180910390f35b3480156101a357600080fd5b506101d06040518060400160405280600d81526020016c466c6169722e46696e616e636560981b81525081565b60405161018e9190615714565b3480156101e957600080fd5b506101826101f8366004615362565b6105fa565b34801561020957600080fd5b50610182610218366004614fd5565b610648565b34801561022957600080fd5b50610232610742565b005b34801561024057600080fd5b5061025461024f36600461531b565b610754565b60405190815260200161018e565b34801561026e57600080fd5b5061023261027d366004615333565b61076a565b34801561028e57600080fd5b5061023261029d366004615333565b61078d565b3480156102ae57600080fd5b506102546102bd366004614fd5565b610810565b3480156102ce57600080fd5b506102326102dd366004614fd5565b6108fc565b3480156102ee57600080fd5b506102326102fd3660046153bb565b6109e3565b34801561030e57600080fd5b5061023261031d36600461531b565b6109ed565b34801561032e57600080fd5b506101d060405180604001604052806003815260200162302e3160e81b81525081565b34801561035d57600080fd5b5061023261036c36600461531b565b6109f9565b34801561037d57600080fd5b5061023261038c366004615122565b610a33565b34801561039d57600080fd5b506102546103ac3660046150af565b61020360209081526000928352604080842090915290825290205481565b6102326103d83660046151ff565b610b9c565b3480156103e957600080fd5b506101826103f8366004615333565b610dc1565b34801561040957600080fd5b50610232610def565b34801561041e57600080fd5b50610254600081565b34801561043357600080fd5b50610182610442366004614f9d565b60996020526000908152604090205460ff1681565b34801561046357600080fd5b50610254600080516020615a0083398151915281565b34801561048557600080fd5b50610232610494366004615333565b610e5a565b3480156104a557600080fd5b506102326104b4366004614f9d565b610e77565b3480156104c557600080fd5b506102326104d4366004614f9d565b610ece565b3480156104e557600080fd5b506102326104f4366004615414565b610f25565b34801561050557600080fd5b506101826105143660046150af565b609b60209081526000928352604080842090915290825290205460ff1681565b34801561054057600080fd5b5061025461054f36600461531b565b610fac565b34801561056057600080fd5b5061057461056f3660046150da565b610fb7565b6040805192835260208301919091520161018e565b34801561059557600080fd5b506102546105a43660046150af565b609a60209081526000928352604080842090915290825290205481565b60006001600160e01b03198216637965db0b60e01b14806105f257506301ffc9a760e01b6001600160e01b03198316145b90505b919050565b600061063d858585858080601f01602080910402602001604051908101604052809392919081815260200183838082843760009201919091525061105692505050565b90505b949350505050565b6000806040518061016001604052808f6001600160a01b031681526020018e6008806020026040519081016040528092919082600860200280828437600092019190915250505081526001600160a01b03808f166020808401919091528e8216604080850191909152918e1660608401526001600160e01b03198d1660808401528151601f8c018290048202810182019092528a825260a0909201918b908b908190840183828082843760009201919091525050509082525060208101889052604081018790526060810186905260800184905290506107308161072b81611256565b611386565b9e9d5050505050505050505050505050565b61074a611411565b610752611b5b565b565b60009081526101ce602052604090206001015490565b61077382610754565b61077e81335b6125e1565b6107888383612645565b505050565b6001600160a01b03811633146108025760405162461bcd60e51b815260206004820152602f60248201527f416363657373436f6e74726f6c3a2063616e206f6e6c792072656e6f756e636560448201526e103937b632b9903337b91039b2b63360891b60648201526084015b60405180910390fd5b61080c82826126cc565b5050565b60006108eb6040518061016001604052808f6001600160a01b031681526020018e6008806020026040519081016040528092919082600860200280828437600092019190915250505081526001600160a01b03808f166020808401919091528e8216604080850191909152918e1660608401526001600160e01b03198d1660808401528151601f8c018290048202810182019092528a825260a0909201918b908b9081908401838280828437600092019190915250505090825250602081018890526040810187905260608101869052608001849052611256565b9d9c50505050505050505050505050565b6109d56040518061016001604052808e6001600160a01b031681526020018d6008806020026040519081016040528092919082600860200280828437600092019190915250505081526001600160a01b03808e166020808401919091528d8216604080850191909152918d1660608401526001600160e01b03198c1660808401528151601f8b0182900482028101820190925289825260a0909201918a908a9081908401838280828437600092019190915250505090825250602081018790526040810186905260608101859052608001839052612734565b505050505050505050505050565b61080c8282612811565b6109f6816128bd565b50565b610a11600080516020615a00833981519152336103f8565b610a2d5760405162461bcd60e51b81526004016107f990615727565b61020255565b600054610100900460ff1680610a4c575060005460ff16155b610a685760405162461bcd60e51b81526004016107f99061575b565b600054610100900460ff16158015610a8a576000805461ffff19166101011790555b610ad46040518060400160405280600d81526020016c466c6169722e46696e616e636560981b81525060405180604001604052806003815260200162302e3160e81b815250610f25565b61020080546001600160a01b038087166001600160a01b03199283161790925561020180549286169290911691909117905561020282905560005b8551811015610b8257600160996000888481518110610b3e57634e487b7160e01b600052603260045260246000fd5b6020908102919091018101516001600160a01b03168252810191909152604001600020805460ff191691151591909117905580610b7a81615963565b915050610b0f565b508015610b95576000805461ff00191690555b5050505050565b610db46040518061016001604052808c600060058110610bcc57634e487b7160e01b600052603260045260246000fd5b602002016020810190610bdf9190614f9d565b6001600160a01b031681526020018d600880602002604051908101604052809291908260086020028082843760009201919091525050508152602090810190610c2e9060408f01908f01614f9d565b6001600160a01b03168152602001610c4c60608e0160408f01614f9d565b6001600160a01b03168152602001610c6a60808e0160608f01614f9d565b6001600160a01b031681526020018a6001600160e01b031916815260200189898080601f0160208091040260200160405190810160405280939291908181526020018383808284376000920191909152505050908252508b356020808301919091528c01356040808301919091528c013560608201526080018b6003602002013590526040805160608101909152808d6004602002016020810190610d0f9190614f9d565b6001600160a01b03168152602001866001811115610d3d57634e487b7160e01b600052602160045260246000fd5b815260200185858080601f0160208091040260200160405190810160405280939291908181526020018383808284376000920191909152505050915250604080516020601f8a0181900481028201810190925288815290899089908190840183828082843760009201919091525061294892505050565b5050505050505050505050565b60008281526101ce602090815260408083206001600160a01b038516845290915290205460ff165b92915050565b600054610100900460ff1680610e08575060005460ff16155b610e245760405162461bcd60e51b81526004016107f99061575b565b600054610100900460ff16158015610e46576000805461ffff19166101011790555b80156109f6576000805461ff001916905550565b610e6382610754565b610e6d8133610779565b61078883836126cc565b610e8f600080516020615a00833981519152336103f8565b610eab5760405162461bcd60e51b81526004016107f990615727565b61020080546001600160a01b0319166001600160a01b0392909216919091179055565b610ee6600080516020615a00833981519152336103f8565b610f025760405162461bcd60e51b81526004016107f990615727565b61020180546001600160a01b0319166001600160a01b0392909216919091179055565b600054610100900460ff1680610f3e575060005460ff16155b610f5a5760405162461bcd60e51b81526004016107f99061575b565b600054610100900460ff16158015610f7c576000805461ffff19166101011790555b610f868383612c62565b610f8e612cec565b610f96610def565b8015610788576000805461ff0019169055505050565b60006105f282612d5c565b6001600160a01b0384166000908152609a60209081526040808320868452909152812054819061102d90610fef9060a087013561580b565b6001600160a01b0388166000908152610203602090815260408083208a84529091529020546110229060c088013561580b565b60e087013586612d67565b91506127106102025483611041919061587e565b61104b9190615848565b905094509492505050565b6001600160a01b0382166000908152609a60209081526040808320868452909152812054156110875750600161124f565b6001600160a01b0383166000908152609b6020908152604080832087845290915290205460ff16156110bb5750600161124f565b60006110c685612d5c565b9050833b158015906111905760408051602080820185905282518083039091018152818301928390526320c13b0b60e01b928390526001600160a01b038816916320c13b0b9161111a9189906044016156ef565b60206040518083038186803b15801561113257600080fd5b505afa158015611146573d6000803e3d6000fd5b505050506040513d601f19601f8201168201806040525081019061116a91906153f8565b6001600160e01b03191614156111855760019250505061124f565b60009250505061124f565b6000806000868060200190518101906111a99190615474565b9250925092506000600186858585604051600081526020016040526040516111ed949392919093845260ff9290921660208401526040830152606082015260800190565b6020604051602081039080840390855afa15801561120f573d6000803e3d6000fd5b505050602060405103519050886001600160a01b0316816001600160a01b03161415611244576001965050505050505061124f565b600096505050505050505b9392505050565b60007f8ed62595e97f0b032d2e82b5fafe3c7d00cc81a3aa6ff17f94fc4a5a855de360826000015183602001516040516020016112939190615645565b604051602081830303815290604052805190602001208460400151856060015186608001518760a001518860c00151805190602001208960e001518a61010001518b61012001518c61014001516040516020016113699c9b9a999897969594939291909b8c526001600160a01b039a8b1660208d015260408c019990995296891660608b015294881660808a01529290961660a08801526001600160e01b03191660c087015260e08601949094526101008501939093526101208401929092526101408301919091526101608201526101800190565b604051602081830303815290604052805190602001209050919050565b60004283610100015111806113af5750610120830151158015906113af57504283610120015111155b156113bc57506000610de9565b60e083015160608401516001600160a01b03166000908152609a60209081526040808320868452909152902054106113f657506000610de9565b60808301513b61140857506000610de9565b50600192915050565b6001641c35fedd1560601b0360bc556001646c3390ecc9605e1b0360bd556001640cf801476160611b0360be5560016431bdb23e1d605f1b0360bf5560016502fb1d8fe083605b1b0360c05560016505b771955b37605a1b0360c1556001650af67a93bb5160591b0360c25560016515060c256cb360581b0360c3556001651428a2f98d7360581b0360c4556001654d515663970960561b0360c555600165944620b0e70f60551b0360c655600166011c592761c66760541b0360c75560016602214d10d014eb60531b0360c855600166020ade36b7dbef60531b0360c95560016603eab73b3bbfe360521b0360ca556001660782ee3593f6d760511b0360cb556001661ccf4b44bb4821604f1b0360cc5560016606e7f88ad8a77760511b0360cd5560016669f3d1c921891d604d1b0360ce55600166cb2ff529eb71e5604c1b0360cf55600166c2d415c3db974b604c1b0360d05560016702eb40f9f620fda7604a1b0360d15560016705990681d961a1eb60491b0360d255600167055e12902701414760491b0360d35560016714962dee9dc9764160471b0360d45560016704ef57b9b560fab560491b0360d55560016712ed7b32a58f552b60471b0360d6556001679131271922eaa60760441b0360d7556001678b380f3558668c4760441b0360d8556001680215f77c045fbe885760421b0360d9556001600160831b0360da556001670f577eded5773a1160471b0360db556001680eb5ec597592befbf5603f1b0360dc556001681c35fedd14b861eb05603e1b0360dd556001683619c87664579bc94b603d1b0360de5560016867c00a3b07ffc01fd7603c1b0360df55600168c6f6c8f8739773a7a5603b1b0360e055600168bec763f8209b7a72b1603b1b0360e15560016902dbb8caad9b7097b91b60391b0360e255600169057b3d49dda84556d6f760381b0360e355600169054183095b2c8ececf3160381b0360e4556001690a14517cc6b9457111ef60371b0360e55560016913545598e5c23276ccf160361b0360e6556001692511882c39c3adea96ff60351b0360e755600169471649d87199aa99075760341b0360e8557004429a21a029d4c1457cfbffffffffffff60e955700415bc6d6fb7dd71af2cb3ffffffffffff60ea557003eab73b3bbfe282243ce1ffffffffffff60eb557003c1771ac9fb6b4c18e229ffffffffffff60ec55700399e96897690418f785257fffffffffff60ed55700373fc456c53bb779bf0ea9fffffffffff60ee5570034f9e8e490c48e67e6ab8bfffffffffff60ef5570032cbfd4a7adc790560b3337ffffffffff60f05570030b50570f6e5d2acca94613ffffffffff60f1557002eb40f9f620fda6b56c2861ffffffffff60f2557002cc8340ecb0d0f520a6af58ffffffffff60f3557002af09481380a0a35cf1ba02ffffffffff60f455700292c5bdd3b92ec810287b1b3fffffffff60f555700277abdcdab07d5a77ac6d6b9fffffffff60f65570025daf6654b1eaa55fd64df5efffffffff60f755700244c49c648baa98192dce88b7ffffffff60f85570022ce03cd5619a311b2471268bffffffff60f955700215f77c045fbe885654a44a0fffffffff60fa556001600160811b0360fb557001eaefdbdaaee7421fc4d3ede5ffffffff60fc557001d6bd8b2eb257df7e8ca57b09bfffffff60fd557001c35fedd14b861eb0443f7f133fffffff60fe557001b0ce43b322bcde4a56e8ada5afffffff60ff5570019f0028ec1fff007f5a195a39dfffffff6101005570018ded91f0e72ee74f49b15ba527ffffff6101015570017d8ec7f04136f4e5615fd41a63ffffff6101025570016ddc6556cdb84bdc8d12d22e6fffffff6101035570015ecf52776a1155b5bd8395814f7fffff6101045570015060c256cb23b3b3cc3754cf40ffffff610105557001428a2f98d728ae223ddab715be3fffff6101065570013545598e5c23276ccf0ede68034fffff610107557001288c4161ce1d6f54b7f61081194fffff6101085570011c592761c666aa641d5a01a40f17ffff61010955700110a688680a7530515f3e6e6cfdcdffff61010a557001056f1b5bedf75c6bcb2ce8aed428ffff61010b556ffaadceceeff8a0890f3875f008277fff61010c556ff05dc6b27edad306388a600f6ba0bfff61010d556fe67a5a25da41063de1495d5b18cdbfff61010e556fdcff115b14eedde6fc3aa5353f2e4fff61010f556fd3e7a3924312399f9aae2e0f868f8fff610110556fcb2ff529eb71e41582cccd5a1ee26fff610111556fc2d415c3db974ab32a51840c0b67edff610112556fbad03e7d883f69ad5b0a186184e06bff610113556fb320d03b2c343d4829abd6075f0cc5ff610114556fabc25204e02828d73c6e80bcdb1a95bf610115556fa4b16f74ee4bb2040a1ec6c15fbbf2df610116556f9deaf736ac1f569deb1b5ae3f36c130f610117556f976bd9952c7aa957f5937d790ef65037610118556f9131271922eaa6064b73a22d0bd4f2bf610119556f8b380f3558668c46c91c49a2f8e967b961011a556f857ddf0117efa215952912839f6473e6609c607f5b0155565b6f60e393c68d20b1bd09deaabc0373b9c561011c9081556f5f8f46e4854120989ed94719fb4c201161011d556f5e479ebb9129fb1b7e72a648f992b60661011e556f5d0bd23fe42dfedde2e9586be12b85fe61011f556f5bdb29ddee979308ddfca81aeeb8095a610120556f5ab4fd8a260d2c7e2c0d2afcf0009dad610121556f5998b31359a55d48724c65cf09001221610122556f5885bcad2b322dfc43e8860f9c018cf5610123556f577b97aa1fe222bb452fdf111b1f0be2610124556f5679cb5e3575632e5baa27e2b949f704610125556f557fe8241b3a31c83c732f1cdff4a1c5610126556f548d868026504875d6e59bbe95fc2a6b610127556f53a2465ce347cf34d05a867c17dd3088610128556f52bdce5dcd4faed59c7f5511cf8f8acc610129556f51dfcb453c07f8da817606e7885f7c3e61012a556f5107ef6b0a5a2be8f8ff15590daa3cce61012b556f5035f241d6eae0cd7bacba119993de7b61012c556f4f698fe90d5b53d532171e1210164c6661012d556f4ea288ca297a0e6a09a0eee240e16c8561012e556f4de0a13fdcf5d4213fc398ba6e3becde61012f556f4d23a145eef91fec06b06140804c4808610130556f4c6b5430d4c1ee5526473db4ae0f11de610131556f4bb7886c240562eba11f4963a53b4240610132556f4b080f3f1cb491d2d521e0ea4583521e610133556f4a5cbc96a05589cb4d86be1db3168364610134556f49b566d40243517658d78c33162d6ece610135556f4911e6a02e5507a30f947383fd9a3276610136556f487216c2b31be4adc41db8a8d5cc0c88610137556f47d5d3fc4a7a1b188cd3d788b5c5e9fc610138556f473cfce4871a2c40bc4f9e1c32b955d0610139556f46a771ca578ab878485810e285e31c6761013a556f4615149718aed4c258c373dc676aa72d61013b556f4585c8b3f8fe489c6e1833ca4787138461013c556f44f972f174e41e5efb7e9d63c29ce73561013d556f446ff970ba86d8b00beb05ecebf3c4dc61013e556f43e9438ec88971812d6f198b5ccaad9661013f556f436539d11ff7bea657aeddb394e809ef610140556f42e3c5d3e5a913401d86f66db5d81c2c610141556f4264d2395303070ea726cbe98df62174610142556f41e84a9a593bb7194c3a6349ecae4eea610143556f416e1b785d13eba07a08f3f18876a5ab610144556f40f6322ff389d423ba9dd7e7e7b7e809610145556f40807cec8a466880ecf4184545d240a4610146556f400cea9ce88a8d3ae668e8ea0d9bf07f610147556f3f9b6ae8772d4c55091e0ed7dfea0ac1610148556f3f2bee253fd84594f54bcaafac383a13610149556f3ebe654e95208bb9210c575c081c595861014a556f3e52c1fc5665635b78ce1f05ad53c08661014b556f3de8f65ac388101ddf718a6f5c1eff6561014c556f3d80f522d59bd0b328ca012df4cd2d4961014d556f3d1ab193129ea72b23648a161163a85a61014e556f3cb61f68d32576c135b95cfb53f76d7561014f556f3c5332d9f1aae851a3619e77e4cc8473610150556f3bf1e08edbe2aa109e1525f65759ef73610151556f3b921d9cff13fa2c197746a3dfc4918f610152556f3b33df818910bfc1a5aefb8f63ae2ac4610153556f3ad71c1c77e34fa32a9f184967eccbf6610154556f3a7bc9abf2c5bb53e2f7384a8a16521a610155556f3a21dec7e76369783a68a0c6385a1c57610156556f39c9525de6c9cdf7c1c157ca4a7a6ee3610157556f39721bad3dc85d1240ff0190e0adaac3610158556f391c324344d3248f0469eb28dd3d77e0610159556f38c78df7e3c796279fb4ff84394ab3da61015a556f387426ea4638ae9aae08049d3554c20a61015b556f3821f57dbd2763256c1a99bbd205137861015c556f37d0f256cb46a8c92ff62fbbef28969861015d556f37811658591ffc7abdd1feaf3cef9b7361015e556f37325aa10e9e82f7df0f380f7997154b61015f556f36e4b888cfb408d873b9a80d439311c6610160556f3698299e59f4bb9de645fc9b08c64cca610161556f364ca7a5012cb603023b57dd3ebfd50d610162556f36022c928915b778ab1b06aaee7e61d4610163556f35b8b28d1a73dc27500ffe35559cc028610164556f357033e951fe250ec5eb4e60955132d7610165556f3528ab2867934e3a21b5412e4c4f8881610166556f34e212f66c55057f9676c80094a61d59610167556f349c66289e5b3c4b540c24f42fa4b9bb610168556f34579fbbd0c733a9c8d6af6b0f7d00f7610169556f3413bad2e712288b924b5882b5b369bf61016a556f33d0b2b56286510ef730e213f71f12e961016b556f338e82ce00e2496262c64457535ba1a161016c556f334d26a96b373bb7c2f8ea1827f27a9261016d556f330c99f4f4211469e00b3e18c31475ea61016e556f32ccd87d6486094999c7d5e6f33237d861016f556f328dde2dd617b6665a2e8556f250c1af610170556f324fa70e9adc270f8262755af5a99af9610171556f32122f443110611ca51040f41fa6e1e3610172556f31d5730e42c0831482f0f1485c4263d8610173556f31996ec6b07b4a83421b5ebc4ab4e1f1610174556f315e1ee0a68ff46bb43ec2b85032e876610175556f31237fe7bc4deacf6775b9efa1a145f8610176556f30e98e7f1cc5a356e44627a6972ea2ff610177556f30b04760b8917ec74205a3002650ec05610178556f3077a75c803468e9132ce0cf3224241d610179556f303fab57a6a275c36f19cda9bace667a61017a556f3008504beb8dcbd2cf3bc1f6d5a064f061017b556f2fd19346ed17dac61219ce0c2c5ac4b061017c556f2f9b7169808c324b5852fd3d54ba971461017d556f2f65e7e711cf4b064eea9c08cbdad57461017e556f2f30f405093042ddff8a251b6bf6d10361017f556f2efc931a3750f2e8bfe323edfe037574610180556f2ec8c28e46dbe56d98685278339400cb610181556f2e957fd933c3926d8a599b602379b851610182556f2e62c882c7c9ed4473412702f08ba0e5610183556f2e309a221c12ba361e3ed695167feee2610184556f2dfef25d1f865ae18dd07cfea4bcea10610185556f2dcdcee821cdc80decc02c44344aeb31610186556f2d9d2d8562b34944d0b201bb87260c83610187556f2d6d0c04a5b62a2c42636308669b729a610188556f2d3d6842c9a235517fc5a0332691528f610189556f2d0e402963fe1ea2834abc408c437c1061018a556f2cdf91ae602647908aff975e4d6a2a8c61018b556f2cb15ad3a1eb65f6d74a75da09a1b6c561018c556f2c8399a6ab8e9774d6fcff373d21072761018d556f2c564c4046f64edba6883ca06bbc453561018e556f2c2970c431f952641e05cb493e23eed361018f556f2bfd0560cd9eb14563bc7c0732856c18610190556f2bd1084ed0332f7ff4150f9d0ef41a2c610191556f2ba577d0fa1628b76d040b12a82492fb610192556f2b7a5233cd21581e855e89dc2f1e8a92610193556f2b4f95cd46904d05d72bdcde337d9cc7610194556f2b2540fc9b4d9abba3faca6691914675610195556f2afb5229f68d0830d8be8adb0a0db70f610196556f2ad1c7c63a9b294c5bc73a3ba3ab7a2b610197556f2aa8a04ac3cbe1ee1c9c86361465dbb8610198556f2a7fda392d725a44a2c8aeb9ab35430d610199556f2a57741b18cde618717792b4faa216db61019a556f2a2f6c81f5d84dd950a35626d6d5503a90607f611b57565b6125eb8282610dc1565b61080c57612603816001600160a01b03166014612f28565b61260e836020612f28565b60405160200161261f929190615542565b60408051601f198184030181529082905262461bcd60e51b82526107f991600401615714565b61264f8282610dc1565b61080c5760008281526101ce602090815260408083206001600160a01b03851684529091529020805460ff191660011790556126883390565b6001600160a01b0316816001600160a01b0316837f2f8788117e7eff1d82e926ec794901d17c78024a50270940304540a733656f0d60405160405180910390a45050565b6126d68282610dc1565b1561080c5760008281526101ce602090815260408083206001600160a01b0385168085529252808320805460ff1916905551339285917ff6391f5c32d9c69d2a47ea670b442974b53935d1edc7fd64eb21e047a839171b9190a45050565b60608101516001600160a01b031633146127805760405162461bcd60e51b815260206004820152600d60248201526c13d191915494cbd11153925151609a1b60448201526064016107f9565b600061278b82611256565b9050612796816128bd565b81606001516001600160a01b0316817f91676636a3d7c5122b12ee04253dfeabcd5e6b4aed344b8eb5bdc18f3ed7dad2846040015185608001518660a001518760c001518860e001518961010001518a61012001518b61014001516040516128059897969594939291906155b1565b60405180910390a35050565b336000908152609a602090815260408083208584529091529020548114156128705760405162461bcd60e51b815260206004820152601260248201527113d191915494cbd053149150511657d4d15560721b60448201526064016107f9565b336000818152609a60209081526040808320868452825291829020849055905183815284917f0e847c9965d8cc4f9906e90cafbe22a94be7c6fc0d07629284df4d0d92c23ba79101612805565b336000908152609b6020908152604080832084845290915290205460ff16156129225760405162461bcd60e51b815260206004820152601760248201527613d191915494cbd053149150511657d054141493d59151604a1b60448201526064016107f9565b336000908152609b6020908152604080832093835292905220805460ff19166001179055565b6000806000612958868686613109565b91945092509050600061296b83836158c9565b9050600081116129b65760405162461bcd60e51b8152602060048201526016602482015275119310525497d19253905390d14bd55391925313115160521b60448201526064016107f9565b6000612a3a8489602001516005600881106129e157634e487b7160e01b600052603260045260246000fd5b60200201516129f0919061580b565b60608a01516001600160a01b03166000908152610203602090815260408083208a8452825290912054908b015160c00151612a2b919061580b565b60208b015160e0015185612d67565b60608901516001600160a01b0316600090815261020360209081526040808320898452909152812080549293508392909190612a7790849061580b565b90915550506102025460009061271090612a91908461587e565b612a9b9190615848565b9050612aa7818361580b565b3414612af55760405162461bcd60e51b815260206004820152601d60248201527f464c4149525f46494e414e43452f494e56414c49445f5041594d454e5400000060448201526064016107f9565b61020054612b0c906001600160a01b0316826132d4565b5061020154885160208a01516040516000936001600160a01b0316928592612b3c9288928c9286926024016157a9565b60408051601f198184030181529181526020820180516001600160e01b031663851f7c4b60e01b17905251612b719190615526565b60006040518083038185875af1925050503d8060008114612bae576040519150601f19603f3d011682016040523d82523d6000602084013e612bb3565b606091505b5050905080612c045760405162461bcd60e51b815260206004820152601f60248201527f464c4149525f46494e414e43452f494e564553544d454e545f4641494c45440060448201526064016107f9565b606089810151604080518981526020810187905290810187905233926001600160a01b03909216917fceddde4c0c21b65d05c297969912b7e11bde7d56974e9a90935f7fb6eddc9f09910160405180910390a3505050505050505050565b600054610100900460ff1680612c7b575060005460ff16155b612c975760405162461bcd60e51b81526004016107f99061575b565b600054610100900460ff16158015612cb9576000805461ffff19166101011790555b82516020808501919091208351918401919091206065919091556066558015610788576000805461ff0019169055505050565b600054610100900460ff1680612d05575060005460ff16155b612d215760405162461bcd60e51b81526004016107f99061575b565b600054610100900460ff16158015612d43576000805461ffff19166101011790555b600160335580156109f6576000805461ff001916905550565b60006105f2826133ea565b6000808511612dad5760405162461bcd60e51b81526020600482015260126024820152714552525f494e56414c49445f535550504c5960701b60448201526064016107f9565b60008411612dfb5760405162461bcd60e51b815260206004820152601b60248201527a4552525f494e56414c49445f524553455256455f42414c414e434560281b60448201526064016107f9565b60018363ffffffff16118015612e2a5750612e1a620f4240600261589d565b63ffffffff168363ffffffff1611155b612e725760405162461bcd60e51b81526020600482015260196024820152784552525f494e56414c49445f524553455256455f524154494f60381b60448201526064016107f9565b81612e7f57506000610640565b63ffffffff8316620f42401415612ec357846001612e9d8487613438565b612ea791906158c9565b612eb19190615848565b612ebc90600161580b565b9050610640565b60008080612ed18886613444565b9050612ee28189620f424089613450565b9093509150600060ff83166001612ef98a87613438565b612f0391906158c9565b612f0f911c600161580b565b9050612f1b88826158c9565b9998505050505050505050565b60606000612f3783600261587e565b612f4290600261580b565b6001600160401b03811115612f6757634e487b7160e01b600052604160045260246000fd5b6040519080825280601f01601f191660200182016040528015612f91576020820181803683370190505b509050600360fc1b81600081518110612fba57634e487b7160e01b600052603260045260246000fd5b60200101906001600160f81b031916908160001a905350600f60fb1b81600181518110612ff757634e487b7160e01b600052603260045260246000fd5b60200101906001600160f81b031916908160001a905350600061301b84600261587e565b61302690600161580b565b90505b60018111156130ba576f181899199a1a9b1b9c1cb0b131b232b360811b85600f166010811061306857634e487b7160e01b600052603260045260246000fd5b1a60f81b82828151811061308c57634e487b7160e01b600052603260045260246000fd5b60200101906001600160f81b031916908160001a90535060049490941c936130b38161592f565b9050613029565b50831561124f5760405162461bcd60e51b815260206004820181905260248201527f537472696e67733a20686578206c656e67746820696e73756666696369656e7460448201526064016107f9565b6000806000600260335414156131615760405162461bcd60e51b815260206004820152601f60248201527f5265656e7472616e637947756172643a207265656e7472616e742063616c6c0060448201526064016107f9565b600260335561316f86611256565b925061317b8684611386565b6131b85760405162461bcd60e51b815260206004820152600e60248201526d13d191915494cbd253959053125160921b60448201526064016107f9565b6131c783876060015186611056565b6132095760405162461bcd60e51b815260206004820152601360248201527213d191915494cbd5539055551213d492569151606a1b60448201526064016107f9565b61321c866040015187606001518761353d565b6132585760405162461bcd60e51b815260206004820152600d60248201526c13d191915494cbd19052531151609a1b60448201526064016107f9565b60608601516001600160a01b03166000908152609a60209081526040808320868452909152902054915061328f8686333486613886565b90508181146132c35760608601516001600160a01b03166000908152609a6020908152604080832086845290915290208190555b600160338190555093509350939050565b804710156133245760405162461bcd60e51b815260206004820152601d60248201527f416464726573733a20696e73756666696369656e742062616c616e636500000060448201526064016107f9565b6000826001600160a01b03168260405160006040518083038185875af1925050503d8060008114613371576040519150601f19603f3d011682016040523d82523d6000602084013e613376565b606091505b50509050806107885760405162461bcd60e51b815260206004820152603a60248201527f416464726573733a20756e61626c6520746f2073656e642076616c75652c20726044820152791958da5c1a595b9d081b585e481a185d99481c995d995c9d195960321b60648201526084016107f9565b60006105f26133f76138a2565b8360405161190160f01b6020820152602281018390526042810182905260009060620160405160208183030381529060405280519060200120905092915050565b600061124f828461587e565b600061124f828461580b565b600080600160811b861061346357600080fd5b600080866134756001607f1b8a61587e565b61347f9190615848565b905070015bf0a8b1457695355fb8ac404e7a79e38110156134aa576134a381613922565b91506134b6565b6134b381613e91565b91505b60008563ffffffff168763ffffffff16846134d1919061587e565b6134db9190615848565b9050600160831b811015613500576134f281613f7f565b607f94509450505050613534565b600061350b826145aa565b905061352761351b82607f6158e0565b60ff1683901c8261468a565b9550935061353492505050565b94509492505050565b6001600160a01b03831660009081526099602052604081205460ff1661356257600080fd5b81513b6135ae5760405162461bcd60e51b815260206004820152601a60248201527910d85b1b081d185c99d95d08191bd95cc81b9bdd08195e1a5cdd60321b60448201526064016107f9565b60405163c455279160e01b81526001600160a01b0384811660048301526000919086169063c455279190602401602060405180830381600087803b1580156135f557600080fd5b505af1158015613609573d6000803e3d6000fd5b505050506040513d601f19601f8201168201806040525081019061362d9190614fb9565b90506001600160a01b0381166136955760405162461bcd60e51b815260206004820152602760248201527f44656c65676174652070726f787920646f6573206e6f7420657869737420666f604482015266391036b0b5b2b960c91b60648201526084016107f9565b846001600160a01b03166397204d8e6040518163ffffffff1660e01b8152600401602060405180830381600087803b1580156136d057600080fd5b505af11580156136e4573d6000803e3d6000fd5b505050506040513d601f19601f820116820180604052508101906137089190614fb9565b6001600160a01b0316816001600160a01b0316635c60da1b6040518163ffffffff1660e01b815260040160206040518083038186803b15801561374a57600080fd5b505afa15801561375e573d6000803e3d6000fd5b505050506040513d601f19601f820116820180604052508101906137829190614fb9565b6001600160a01b0316146137f25760405162461bcd60e51b815260206004820152603160248201527f496e636f72726563742064656c65676174652070726f787920696d706c656d65604482015270373a30ba34b7b7103337b91036b0b5b2b960791b60648201526084016107f9565b825160208401516040808601519051631b0f7ba960e01b815284936001600160a01b03851693631b0f7ba99361382a93600401615616565b602060405180830381600087803b15801561384457600080fd5b505af1158015613858573d6000803e3d6000fd5b505050506040513d601f19601f8201168201806040525081019061387c91906152fb565b9695505050505050565b600061387c866080015161389d8888888888614cec565b614dcb565b600061391d7f8b73c3c69bb8fe3d512ecc4cf759cc79239f7b179b0ffacaa9a75d522b39400f6138d160655490565b6066546040805160208101859052908101839052606081018290524660808201523060a082015260009060c0016040516020818303038152906040528051906020012090509392505050565b905090565b6000808080806fd3094c70f034de4b96ff7d5b6f99fcd8861061397b5761394d6001607e1b8561580b565b93506fd3094c70f034de4b96ff7d5b6f99fcd861396e6001607f1b8861587e565b6139789190615848565b95505b6fa45af1e1f40c333b3de1db4dd55f29a786106139ce576139a06001607d1b8561580b565b93506fa45af1e1f40c333b3de1db4dd55f29a76139c16001607f1b8861587e565b6139cb9190615848565b95505b6f910b022db7ae67ce76b441c27035c6a18610613a21576139f36001607c1b8561580b565b93506f910b022db7ae67ce76b441c27035c6a1613a146001607f1b8861587e565b613a1e9190615848565b95505b6f88415abbe9a76bead8d00cf112e4d4a88610613a7457613a466001607b1b8561580b565b93506f88415abbe9a76bead8d00cf112e4d4a8613a676001607f1b8861587e565b613a719190615848565b95505b6f84102b00893f64c705e841d5d4064bd38610613ac757613a996001607a1b8561580b565b93506f84102b00893f64c705e841d5d4064bd3613aba6001607f1b8861587e565b613ac49190615848565b95505b6f8204055aaef1c8bd5c3259f4822735a28610613b1a57613aec600160791b8561580b565b93506f8204055aaef1c8bd5c3259f4822735a2613b0d6001607f1b8861587e565b613b179190615848565b95505b6f810100ab00222d861931c15e39b44e998610613b6d57613b3f600160781b8561580b565b93506f810100ab00222d861931c15e39b44e99613b606001607f1b8861587e565b613b6a9190615848565b95505b6f808040155aabbbe9451521693554f7338610613bc057613b92600160771b8561580b565b93506f808040155aabbbe9451521693554f733613bb36001607f1b8861587e565b613bbd9190615848565b95505b613bce6001607f1b876158c9565b92508291506001607f1b613be2838061587e565b613bec9190615848565b9050600160801b613bfd84826158c9565b613c07908461587e565b613c119190615848565b613c1b908561580b565b93506001607f1b613c2c828461587e565b613c369190615848565b9150600160811b613c57846faaaaaaaaaaaaaaaaaaaaaaaaaaaaaaaa6158c9565b613c61908461587e565b613c6b9190615848565b613c75908561580b565b93506001607f1b613c86828461587e565b613c909190615848565b9150600360801b613cb1846f999999999999999999999999999999996158c9565b613cbb908461587e565b613cc59190615848565b613ccf908561580b565b93506001607f1b613ce0828461587e565b613cea9190615848565b9150600160821b613d0b846f924924924924924924924924924924926158c9565b613d15908461587e565b613d1f9190615848565b613d29908561580b565b93506001607f1b613d3a828461587e565b613d449190615848565b9150600560801b613d65846f8e38e38e38e38e38e38e38e38e38e38e6158c9565b613d6f908461587e565b613d799190615848565b613d83908561580b565b93506001607f1b613d94828461587e565b613d9e9190615848565b9150600360811b613dbf846f8ba2e8ba2e8ba2e8ba2e8ba2e8ba2e8b6158c9565b613dc9908461587e565b613dd39190615848565b613ddd908561580b565b93506001607f1b613dee828461587e565b613df89190615848565b9150600760801b613e19846f89d89d89d89d89d89d89d89d89d89d896158c9565b613e23908461587e565b613e2d9190615848565b613e37908561580b565b93506001607f1b613e48828461587e565b613e529190615848565b9150600160831b613e73846f888888888888888888888888888888886158c9565b613e7d908461587e565b613e879190615848565b61387c908561580b565b600080600160801b8310613ed5576000613eb7613eb26001607f1b86615848565b614e2f565b60ff811694851c94909150613ed1906001607f1b9061587e565b9150505b6001607f1b831115613f4a57607f5b60ff811615613f48576001607f1b613efc858061587e565b613f069190615848565b9350600160801b8410613f3857600193841c93613f2390826158e0565b60ff166001901b82613f35919061580b565b91505b613f4181615946565b9050613ee4565b505b6f05b9de1d10bf4103d647b0955897ba80613f756f03f80fe03f80fe03f80fe03f80fe03f88361587e565b61124f9190615848565b6000808080613f926001607c1b8661597e565b91508190506001607f1b613fa6828061587e565b613fb09190615848565b9050613fc4816710e1b3be415a000061587e565b613fce908461580b565b92506001607f1b613fdf838361587e565b613fe99190615848565b9050613ffd816705a0913f6b1e000061587e565b614007908461580b565b92506001607f1b614018838361587e565b6140229190615848565b905061403681670168244fdac7800061587e565b614040908461580b565b92506001607f1b614051838361587e565b61405b9190615848565b905061406e81664807432bc1800061587e565b614078908461580b565b92506001607f1b614089838361587e565b6140939190615848565b90506140a681660c0135dca0400061587e565b6140b0908461580b565b92506001607f1b6140c1838361587e565b6140cb9190615848565b90506140de816601b707b1cdc00061587e565b6140e8908461580b565b92506001607f1b6140f9838361587e565b6141039190615848565b9050614115816536e0f639b80061587e565b61411f908461580b565b92506001607f1b614130838361587e565b61413a9190615848565b905061414c81650618fee9f80061587e565b614156908461580b565b92506001607f1b614167838361587e565b6141719190615848565b905061418281649c197dcc0061587e565b61418c908461580b565b92506001607f1b61419d838361587e565b6141a79190615848565b90506141b881640e30dce40061587e565b6141c2908461580b565b92506001607f1b6141d3838361587e565b6141dd9190615848565b90506141ee8164012ebd130061587e565b6141f8908461580b565b92506001607f1b614209838361587e565b6142139190615848565b9050614223816317499f0061587e565b61422d908461580b565b92506001607f1b61423e838361587e565b6142489190615848565b9050614258816301a9d48061587e565b614262908461580b565b92506001607f1b614273838361587e565b61427d9190615848565b905061428c81621c638061587e565b614296908461580b565b92506001607f1b6142a7838361587e565b6142b19190615848565b90506142c0816201c63861587e565b6142ca908461580b565b92506001607f1b6142db838361587e565b6142e59190615848565b90506142f381611ab861587e565b6142fd908461580b565b92506001607f1b61430e838361587e565b6143189190615848565b90506143268161017c61587e565b614330908461580b565b92506001607f1b614341838361587e565b61434b9190615848565b905061435881601461587e565b614362908461580b565b92506001607f1b614373838361587e565b61437d9190615848565b905061438a81600161587e565b614394908461580b565b92506001607f1b826143ae6721c3677c82b4000086615848565b6143b8919061580b565b6143c2919061580b565b92506001607c1b85161561440a5770018ebef9eac820ae8682b9793ac6d1e7766143fd847001c3d6a24ed82218787d624d3e5eba95f961587e565b6144079190615848565b92505b6001607d1b851615614450577001368b2fc6f9609fe7aceb46aa619baed46144438470018ebef9eac820ae8682b9793ac6d1e77861587e565b61444d9190615848565b92505b6001607e1b851615614495576fbc5ab1b16779be3575bd8f0520a9f21f614488847001368b2fc6f9609fe7aceb46aa619baed561587e565b6144929190615848565b92505b6001607f1b8516156144d9576f454aaa8efe072e7f6ddbab84b40a55c96144cc846fbc5ab1b16779be3575bd8f0520a9f21e61587e565b6144d69190615848565b92505b600160801b85161561451d576f0960aadc109e7a3bf4578099615711ea614510846f454aaa8efe072e7f6ddbab84b40a55c561587e565b61451a9190615848565b92505b600160811b851615614560576e2bf84208204f5977f9a8cf01fdce3d614553846f0960aadc109e7a3bf4578099615711d761587e565b61455d9190615848565b92505b600160821b8516156145a1576d03c6ab775dd0b95b4cbee7e65d11614594846e2bf84208204f5977f9a8cf01fdc30761587e565b61459e9190615848565b92505b50909392505050565b60006020607f5b60ff81166145c0836001615823565b60ff16101561462157600060026145d78385615823565b6145e1919061585c565b905084609c8260ff166080811061460857634e487b7160e01b600052603260045260246000fd5b0154106146175780925061461b565b8091505b506145b1565b83609c8260ff166080811061464657634e487b7160e01b600052603260045260246000fd5b0154106146565791506105f59050565b83609c8360ff166080811061467b57634e487b7160e01b600052603260045260246000fd5b01541061015d575090506105f5565b6000828160ff841661469c838061587e565b901c91506146b9826b0d10b13981d2a0bc5e5fdcab601e1b61587e565b6146c3908261580b565b905060ff84166146d3868461587e565b901c91506146f0826b045ae5bdd5f0e03eca1ff439601e1b61587e565b6146fa908261580b565b905060ff841661470a868461587e565b901c9150614727826e45ae5bdd5f0e03eca1ff439000000061587e565b614731908261580b565b905060ff8416614741868461587e565b901c915061475d826adefabf91302cd95b9ffda5601c1b61587e565b614767908261580b565b905060ff8416614777868461587e565b901c9150614793826a4a53953065644873dfff37601b1b61587e565b61479d908261580b565b905060ff84166147ad868461587e565b901c91506147c9826d54f1cf12bd04e516b6da8800000061587e565b6147d3908261580b565b905060ff84166147e3868461587e565b901c91506147ff826d0a9e39e257a09ca2d6db5100000061587e565b614809908261580b565b905060ff8416614819868461587e565b901c9150614835826d012e066e7b839fa050c30900000061587e565b61483f908261580b565b905060ff841661484f868461587e565b901c915061486a826c1e33d7d926c329a1ad1a80000061587e565b614874908261580b565b905060ff8416614884868461587e565b901c915061489f826c02bee513bdb4a6b19b5f80000061587e565b6148a9908261580b565b905060ff84166148b9868461587e565b901c91506148d3826b3a9316fa79b88eccf2a0000061587e565b6148dd908261580b565b905060ff84166148ed868461587e565b901c9150614907826b048177ebe1fa81237520000061587e565b614911908261580b565b905060ff8416614921868461587e565b901c915061493a826a5263fe90242dcbacf0000061587e565b614944908261580b565b905060ff8416614954868461587e565b901c915061496d826a057e22099c030d9410000061587e565b614977908261580b565b905060ff8416614987868461587e565b901c915061499f826957e22099c030d941000061587e565b6149a9908261580b565b905060ff84166149b9868461587e565b901c91506149d18269052b6b5456997631000061587e565b6149db908261580b565b905060ff84166149eb868461587e565b901c9150614a0282684985f67696bf74800061587e565b614a0c908261580b565b905060ff8416614a1c868461587e565b901c9150614a33826803dea12ea99e49800061587e565b614a3d908261580b565b905060ff8416614a4d868461587e565b901c9150614a63826731880f2214b6e00061587e565b614a6d908261580b565b905060ff8416614a7d868461587e565b901c9150614a938267025bcff56eb3600061587e565b614a9d908261580b565b905060ff8416614aad868461587e565b901c9150614ac282661b722e10ab100061587e565b614acc908261580b565b905060ff8416614adc868461587e565b901c9150614af1826601317c7007700061587e565b614afb908261580b565b905060ff8416614b0b868461587e565b901c9150614b1f82650cba84aafa0061587e565b614b29908261580b565b905060ff8416614b39868461587e565b901c9150614b4c826482573a0a0061587e565b614b56908261580b565b905060ff8416614b66868461587e565b901c9150614b79826405035ad90061587e565b614b83908261580b565b905060ff8416614b93868461587e565b901c9150614ba582632f881b0061587e565b614baf908261580b565b905060ff8416614bbf868461587e565b901c9150614bd1826301b2934061587e565b614bdb908261580b565b905060ff8416614beb868461587e565b901c9150614bfc82620efc4061587e565b614c06908261580b565b905060ff8416614c16868461587e565b901c9150614c2682617fe061587e565b614c30908261580b565b905060ff8416614c40868461587e565b901c9150614c508261042061587e565b614c5a908261580b565b905060ff8416614c6a868461587e565b901c9150614c7982602161587e565b614c83908261580b565b905060ff8416614c93868461587e565b901c9150614ca282600161587e565b614cac908261580b565b9050600160ff85161b85614ccf6b0d10b13981d2a0bc5e5fdcab601f1b84615848565b614cd9919061580b565b614ce3919061580b565b95945050505050565b6040805160a0808201835287516001600160a01b03908116835288840151811660208085019190915260608a81015183168587015289518316858201529188166080808601919091528551808501875288815260e08c0151818401526101008c0151818801526101208c015181850152908101879052928a015160c08b0151918a01518a870151965193969193614d8c9392879291879190602401615654565b60408051601f198184030181529190526020810180516001600160e01b03166001600160e01b0319909316929092179091529250505095945050505050565b60008060206040518181865160208801895afa925080519350505080614e285760405162461bcd60e51b815260206004820152601260248201527114dd185d1a58c818d85b1b0819985a5b195960721b60448201526064016107f9565b5092915050565b600080610100831015614e62575b6001831115614e5d57600192831c92614e569082615823565b9050614e3d565b6105f2565b60805b60ff811615614e2857600160ff82161b8410614e895760ff81169390931c92908117905b60011c607f16614e65565b80356105f5816159d4565b8060a08101831015610de957600080fd5b8060808101831015610de957600080fd5b806101008101831015610de957600080fd5b80356105f5816159e9565b60008083601f840112614eef578182fd5b5081356001600160401b03811115614f05578182fd5b602083019150836020828501011115614f1d57600080fd5b9250929050565b8035600281106105f557600080fd5b600082601f830112614f43578081fd5b81356001600160401b03811115614f5c57614f5c6159be565b614f6f601f8201601f19166020016157db565b818152846020838601011115614f83578283fd5b816020850160208301379081016020019190915292915050565b600060208284031215614fae578081fd5b813561124f816159d4565b600060208284031215614fca578081fd5b815161124f816159d4565b6000806000806000806000806000806000806102408d8f031215614ff7578788fd5b6150018d356159d4565b8c359b506150128e60208f01614ec1565b9a506101208d0135615023816159d4565b99506150326101408e01614e94565b98506150416101608e01614e94565b97506150506101808e01614ed3565b96506001600160401b036101a08e0135111561506a578586fd5b61507b8e6101a08f01358f01614ede565b9c9f9b9e50999c989b979a9699986101c0810135976101e08201359750610200820135965061022090910135945092505050565b600080604083850312156150c1578182fd5b82356150cc816159d4565b946020939093013593505050565b60008060008061016085870312156150f0578384fd5b84356150fb816159d4565b9350602085013592506151118660408701614ec1565b939692955092936101400135925050565b60008060008060808587031215615137578384fd5b84356001600160401b038082111561514d578586fd5b818701915087601f830112615160578586fd5b8135602082821115615174576151746159be565b8160051b92506151858184016157db565b8281528181019085830185870184018d101561519f578a8bfd5b8a96505b848710156151cd57803595506151b8866159d4565b858352600196909601959183019183016151a3565b5098506151dd9050898201614e94565b9650505050506151ef60408601614e94565b9396929550929360600135925050565b60008060008060008060008060008060006102c08c8e031215615220578485fd5b61522a8d8d614ec1565b9a5061523a8d6101008e01614e9f565b995061524a8d6101a08e01614eb0565b98506152596102208d01614ed3565b97506001600160401b036102408d0135811015615274578586fd5b6152858e6102408f01358f01614ede565b90985096506102608d013581101561529b578586fd5b6152ac8e6102608f01358f01614ede565b90965094506152be6102808e01614f24565b9350806102a08e013511156152d1578182fd5b506152e38d6102a08e01358e01614ede565b81935080925050509295989b509295989b9093969950565b60006020828403121561530c578081fd5b8151801515811461124f578182fd5b60006020828403121561532c578081fd5b5035919050565b60008060408385031215615345578182fd5b823591506020830135615357816159d4565b809150509250929050565b60008060008060608587031215615377578182fd5b843593506020850135615389816159d4565b925060408501356001600160401b038111156153a3578283fd5b6153af87828801614ede565b95989497509550505050565b600080604083850312156153cd578182fd5b50508035926020909101359150565b6000602082840312156153ed578081fd5b813561124f816159e9565b600060208284031215615409578081fd5b815161124f816159e9565b60008060408385031215615426578182fd5b82356001600160401b038082111561543c578384fd5b61544886838701614f33565b9350602085013591508082111561545d578283fd5b5061546a85828601614f33565b9150509250929050565b600080600060608486031215615488578081fd5b835160ff81168114615498578182fd5b602085015160409095015190969495509392505050565b8060005b60088110156154d25781518452602093840193909101906001016154b3565b50505050565b600081518084526154f0816020860160208601615903565b601f01601f19169290920160200192915050565b6002811061552257634e487b7160e01b600052602160045260246000fd5b9052565b60008251615538818460208701615903565b9190910192915050565b600076020b1b1b2b9b9a1b7b73a3937b61d1030b1b1b7bab73a1604d1b82528351615574816017850160208801615903565b7001034b99036b4b9b9b4b733903937b6329607d1b60179184019182015283516155a5816028840160208801615903565b01602801949350505050565b6001600160a01b038981168252881660208201526001600160e01b031987166040820152610100606082018190526000906155ee838201896154d8565b9150508560808301528460a08301528360c08301528260e08301529998505050505050505050565b6001600160a01b038416815260006156316020830185615504565b6060604083015261063d60608301846154d8565b6101008101610de982846154af565b60006101a0808352615668818401896154d8565b9050602080840188845b60058110156156985781516001600160a01b031683529183019190830190600101615672565b5050506156a860c0850188615504565b60e0840186845b60058110156156cc578151835291830191908301906001016156af565b505050508281036101808401526156e381856154d8565b98975050505050505050565b60006040825261570260408301856154d8565b8281036020840152614ce381856154d8565b60006020825261124f60208301846154d8565b6020808252601a9082015279232620a4a92fa324a720a721a297a727aa2fa3a7ab22a92727a960311b604082015260600190565b6020808252602e908201527f496e697469616c697a61626c653a20636f6e747261637420697320616c72656160408201526d191e481a5b9a5d1a585b1a5e995960921b606082015260800190565b85815260208101859052604081018490526001600160a01b0383166060820152610180810161387c60808301846154af565b604051601f8201601f191681016001600160401b0381118282101715615803576158036159be565b604052919050565b6000821982111561581e5761581e615992565b500190565b600060ff821660ff84168060ff0382111561584057615840615992565b019392505050565b600082615857576158576159a8565b500490565b600060ff83168061586f5761586f6159a8565b8060ff84160491505092915050565b600081600019048311821515161561589857615898615992565b500290565b600063ffffffff808316818516818304811182151516156158c0576158c0615992565b02949350505050565b6000828210156158db576158db615992565b500390565b600060ff821660ff8416808210156158fa576158fa615992565b90039392505050565b60005b8381101561591e578181015183820152602001615906565b838111156154d25750506000910152565b60008161593e5761593e615992565b506000190190565b600060ff82168061595957615959615992565b6000190192915050565b600060001982141561597757615977615992565b5060010190565b60008261598d5761598d6159a8565b500690565b634e487b7160e01b600052601160045260246000fd5b634e487b7160e01b600052601260045260246000fd5b634e487b7160e01b600052604160045260246000fd5b6001600160a01b03811681146109f657600080fd5b6001600160e01b0319811681146109f657600080fdfe7935bd0ae54bc31f548c14dba4d37c5c64b3f8ca900cb468fb8abd54d5894f55a2646970667358221220b8a5644980c64383ee68a324d005619d1e1f94b1e4aabe1efc5c1e6fb2b5085664736f6c63430008030033",
  "devdoc": {
    "kind": "dev",
    "methods": {
      "__BancorFormula_init()": {
        "details": "should be executed after construction (too large for the constructor)"
      },
      "getRoleAdmin(bytes32)": {
        "details": "Returns the admin role that controls `role`. See {grantRole} and {revokeRole}. To change a role's admin, use {_setRoleAdmin}."
      },
      "grantRole(bytes32,address)": {
        "details": "Grants `role` to `account`. If `account` had not been already granted `role`, emits a {RoleGranted} event. Requirements: - the caller must have ``role``'s admin role."
      },
      "hasRole(bytes32,address)": {
        "details": "Returns `true` if `account` has been granted `role`."
      },
      "renounceRole(bytes32,address)": {
        "details": "Revokes `role` from the calling account. Roles are often managed via {grantRole} and {revokeRole}: this function's purpose is to provide a mechanism for accounts to lose their privileges if they are compromised (such as when a trusted device is misplaced). If the calling account had been granted `role`, emits a {RoleRevoked} event. Requirements: - the caller must be `account`."
      },
      "revokeRole(bytes32,address)": {
        "details": "Revokes `role` from `account`. If `account` had been granted `role`, emits a {RoleRevoked} event. Requirements: - the caller must have ``role``'s admin role."
      },
      "supportsInterface(bytes4)": {
        "details": "See {IERC165-supportsInterface}."
      }
    },
    "version": 1
  },
  "userdoc": {
    "kind": "user",
    "methods": {},
    "version": 1
  },
  "storageLayout": {
    "storage": [
      {
        "astId": 401,
        "contract": "contracts/Flair.sol:Flair",
        "label": "_initialized",
        "offset": 0,
        "slot": "0",
        "type": "t_bool"
      },
      {
        "astId": 404,
        "contract": "contracts/Flair.sol:Flair",
        "label": "_initializing",
        "offset": 1,
        "slot": "0",
        "type": "t_bool"
      },
      {
        "astId": 2351,
        "contract": "contracts/Flair.sol:Flair",
        "label": "__gap",
        "offset": 0,
        "slot": "1",
        "type": "t_array(t_uint256)50_storage"
      },
      {
        "astId": 568,
        "contract": "contracts/Flair.sol:Flair",
        "label": "_status",
        "offset": 0,
        "slot": "51",
        "type": "t_uint256"
      },
      {
        "astId": 611,
        "contract": "contracts/Flair.sol:Flair",
        "label": "__gap",
        "offset": 0,
        "slot": "52",
        "type": "t_array(t_uint256)49_storage"
      },
      {
        "astId": 2769,
        "contract": "contracts/Flair.sol:Flair",
        "label": "_HASHED_NAME",
        "offset": 0,
        "slot": "101",
        "type": "t_bytes32"
      },
      {
        "astId": 2771,
        "contract": "contracts/Flair.sol:Flair",
        "label": "_HASHED_VERSION",
        "offset": 0,
        "slot": "102",
        "type": "t_bytes32"
      },
      {
        "astId": 2908,
        "contract": "contracts/Flair.sol:Flair",
        "label": "__gap",
        "offset": 0,
        "slot": "103",
        "type": "t_array(t_uint256)50_storage"
      },
      {
        "astId": 8739,
        "contract": "contracts/Flair.sol:Flair",
        "label": "registries",
        "offset": 0,
        "slot": "153",
        "type": "t_mapping(t_address,t_bool)"
      },
      {
        "astId": 8745,
        "contract": "contracts/Flair.sol:Flair",
        "label": "fills",
        "offset": 0,
        "slot": "154",
        "type": "t_mapping(t_address,t_mapping(t_bytes32,t_uint256))"
      },
      {
        "astId": 8751,
        "contract": "contracts/Flair.sol:Flair",
        "label": "approved",
        "offset": 0,
        "slot": "155",
        "type": "t_mapping(t_address,t_mapping(t_bytes32,t_bool))"
      },
      {
        "astId": 9540,
        "contract": "contracts/Flair.sol:Flair",
        "label": "maxExpArray",
        "offset": 0,
        "slot": "156",
        "type": "t_array(t_uint256)128_storage"
      },
      {
        "astId": 10124,
        "contract": "contracts/Flair.sol:Flair",
        "label": "lambertArray",
        "offset": 0,
        "slot": "284",
        "type": "t_array(t_uint256)128_storage"
      },
      {
        "astId": 2954,
        "contract": "contracts/Flair.sol:Flair",
        "label": "__gap",
        "offset": 0,
        "slot": "412",
        "type": "t_array(t_uint256)50_storage"
      },
      {
        "astId": 86,
        "contract": "contracts/Flair.sol:Flair",
        "label": "_roles",
        "offset": 0,
        "slot": "462",
        "type": "t_mapping(t_bytes32,t_struct(RoleData)81_storage)"
      },
      {
        "astId": 394,
        "contract": "contracts/Flair.sol:Flair",
        "label": "__gap",
        "offset": 0,
        "slot": "463",
        "type": "t_array(t_uint256)49_storage"
      },
      {
        "astId": 6257,
        "contract": "contracts/Flair.sol:Flair",
        "label": "_treasury",
        "offset": 0,
        "slot": "512",
        "type": "t_address"
      },
      {
        "astId": 6259,
        "contract": "contracts/Flair.sol:Flair",
        "label": "_funding",
        "offset": 0,
        "slot": "513",
        "type": "t_address"
      },
      {
        "astId": 6261,
        "contract": "contracts/Flair.sol:Flair",
        "label": "_protocolFee",
        "offset": 0,
        "slot": "514",
        "type": "t_uint256"
      },
      {
        "astId": 6267,
        "contract": "contracts/Flair.sol:Flair",
        "label": "offerFundings",
        "offset": 0,
        "slot": "515",
        "type": "t_mapping(t_address,t_mapping(t_bytes32,t_uint256))"
      }
    ],
    "types": {
      "t_address": {
        "encoding": "inplace",
        "label": "address",
        "numberOfBytes": "20"
      },
      "t_array(t_uint256)128_storage": {
        "base": "t_uint256",
        "encoding": "inplace",
        "label": "uint256[128]",
        "numberOfBytes": "4096"
      },
      "t_array(t_uint256)49_storage": {
        "base": "t_uint256",
        "encoding": "inplace",
        "label": "uint256[49]",
        "numberOfBytes": "1568"
      },
      "t_array(t_uint256)50_storage": {
        "base": "t_uint256",
        "encoding": "inplace",
        "label": "uint256[50]",
        "numberOfBytes": "1600"
      },
      "t_bool": {
        "encoding": "inplace",
        "label": "bool",
        "numberOfBytes": "1"
      },
      "t_bytes32": {
        "encoding": "inplace",
        "label": "bytes32",
        "numberOfBytes": "32"
      },
      "t_mapping(t_address,t_bool)": {
        "encoding": "mapping",
        "key": "t_address",
        "label": "mapping(address => bool)",
        "numberOfBytes": "32",
        "value": "t_bool"
      },
      "t_mapping(t_address,t_mapping(t_bytes32,t_bool))": {
        "encoding": "mapping",
        "key": "t_address",
        "label": "mapping(address => mapping(bytes32 => bool))",
        "numberOfBytes": "32",
        "value": "t_mapping(t_bytes32,t_bool)"
      },
      "t_mapping(t_address,t_mapping(t_bytes32,t_uint256))": {
        "encoding": "mapping",
        "key": "t_address",
        "label": "mapping(address => mapping(bytes32 => uint256))",
        "numberOfBytes": "32",
        "value": "t_mapping(t_bytes32,t_uint256)"
      },
      "t_mapping(t_bytes32,t_bool)": {
        "encoding": "mapping",
        "key": "t_bytes32",
        "label": "mapping(bytes32 => bool)",
        "numberOfBytes": "32",
        "value": "t_bool"
      },
      "t_mapping(t_bytes32,t_struct(RoleData)81_storage)": {
        "encoding": "mapping",
        "key": "t_bytes32",
        "label": "mapping(bytes32 => struct AccessControlUpgradeable.RoleData)",
        "numberOfBytes": "32",
        "value": "t_struct(RoleData)81_storage"
      },
      "t_mapping(t_bytes32,t_uint256)": {
        "encoding": "mapping",
        "key": "t_bytes32",
        "label": "mapping(bytes32 => uint256)",
        "numberOfBytes": "32",
        "value": "t_uint256"
      },
      "t_struct(RoleData)81_storage": {
        "encoding": "inplace",
        "label": "struct AccessControlUpgradeable.RoleData",
        "members": [
          {
            "astId": 78,
            "contract": "contracts/Flair.sol:Flair",
            "label": "members",
            "offset": 0,
            "slot": "0",
            "type": "t_mapping(t_address,t_bool)"
          },
          {
            "astId": 80,
            "contract": "contracts/Flair.sol:Flair",
            "label": "adminRole",
            "offset": 0,
            "slot": "1",
            "type": "t_bytes32"
          }
        ],
        "numberOfBytes": "64"
      },
      "t_uint256": {
        "encoding": "inplace",
        "label": "uint256",
        "numberOfBytes": "32"
      }
    }
  }
}