{
  "address": "0xC790460dF71c190D8fba47d8a633b0D3F504e312",
  "abi": [
    {
      "anonymous": false,
      "inputs": [
        {
          "indexed": true,
          "internalType": "address",
          "name": "beneficiary",
          "type": "address"
        },
        {
          "indexed": true,
          "internalType": "bytes32",
          "name": "offerHash",
          "type": "bytes32"
        },
        {
          "indexed": true,
          "internalType": "address",
          "name": "investor",
          "type": "address"
        },
        {
          "indexed": false,
          "internalType": "uint256",
          "name": "unfilled",
          "type": "uint256"
        },
        {
          "indexed": false,
          "internalType": "uint256",
          "name": "remainderAmount",
          "type": "uint256"
        },
        {
          "indexed": false,
          "internalType": "uint256",
          "name": "contributionID",
          "type": "uint256"
        }
      ],
      "name": "ContributionRefunded",
      "type": "event"
    },
    {
      "anonymous": false,
      "inputs": [
        {
          "indexed": true,
          "internalType": "address",
          "name": "beneficiary",
          "type": "address"
        },
        {
          "indexed": true,
          "internalType": "bytes32",
          "name": "offerHash",
          "type": "bytes32"
        },
        {
          "indexed": true,
          "internalType": "address",
          "name": "investor",
          "type": "address"
        },
        {
          "indexed": false,
          "internalType": "uint256",
          "name": "filled",
          "type": "uint256"
        },
        {
          "indexed": false,
          "internalType": "uint256",
          "name": "amount",
          "type": "uint256"
        },
        {
          "indexed": false,
          "internalType": "uint256",
          "name": "contributionID",
          "type": "uint256"
        }
      ],
      "name": "ContributionRegistered",
      "type": "event"
    },
    {
      "anonymous": false,
      "inputs": [
        {
          "indexed": true,
          "internalType": "address",
          "name": "sender",
          "type": "address"
        },
        {
          "indexed": false,
          "internalType": "uint256",
          "name": "amount",
          "type": "uint256"
        }
      ],
      "name": "ReceivedEther",
      "type": "event"
    },
    {
      "anonymous": false,
      "inputs": [
        {
          "indexed": true,
          "internalType": "bytes32",
          "name": "role",
          "type": "bytes32"
        },
        {
          "indexed": true,
          "internalType": "bytes32",
          "name": "previousAdminRole",
          "type": "bytes32"
        },
        {
          "indexed": true,
          "internalType": "bytes32",
          "name": "newAdminRole",
          "type": "bytes32"
        }
      ],
      "name": "RoleAdminChanged",
      "type": "event"
    },
    {
      "anonymous": false,
      "inputs": [
        {
          "indexed": true,
          "internalType": "bytes32",
          "name": "role",
          "type": "bytes32"
        },
        {
          "indexed": true,
          "internalType": "address",
          "name": "account",
          "type": "address"
        },
        {
          "indexed": true,
          "internalType": "address",
          "name": "sender",
          "type": "address"
        }
      ],
      "name": "RoleGranted",
      "type": "event"
    },
    {
      "anonymous": false,
      "inputs": [
        {
          "indexed": true,
          "internalType": "bytes32",
          "name": "role",
          "type": "bytes32"
        },
        {
          "indexed": true,
          "internalType": "address",
          "name": "account",
          "type": "address"
        },
        {
          "indexed": true,
          "internalType": "address",
          "name": "sender",
          "type": "address"
        }
      ],
      "name": "RoleRevoked",
      "type": "event"
    },
    {
      "inputs": [],
      "name": "DEFAULT_ADMIN_ROLE",
      "outputs": [
        {
          "internalType": "bytes32",
          "name": "",
          "type": "bytes32"
        }
      ],
      "stateMutability": "view",
      "type": "function"
    },
    {
      "inputs": [],
      "name": "GOVERNOR_ROLE",
      "outputs": [
        {
          "internalType": "bytes32",
          "name": "",
          "type": "bytes32"
        }
      ],
      "stateMutability": "view",
      "type": "function"
    },
    {
      "inputs": [],
      "name": "ORCHESTRATOR_ROLE",
      "outputs": [
        {
          "internalType": "bytes32",
          "name": "",
          "type": "bytes32"
        }
      ],
      "stateMutability": "view",
      "type": "function"
    },
    {
      "inputs": [
        {
          "internalType": "address",
          "name": "beneficiary",
          "type": "address"
        },
        {
          "internalType": "uint256",
          "name": "contributionId",
          "type": "uint256"
        }
      ],
      "name": "calculateReleasedAmountByContributionId",
      "outputs": [
        {
          "internalType": "uint256",
          "name": "",
          "type": "uint256"
        }
      ],
      "stateMutability": "view",
      "type": "function"
    },
    {
      "inputs": [
        {
          "internalType": "address",
          "name": "beneficiary",
          "type": "address"
        }
      ],
      "name": "calculateStatsByBeneficiary",
      "outputs": [
        {
          "internalType": "uint256",
          "name": "totalReleasable",
          "type": "uint256"
        },
        {
          "internalType": "uint256",
          "name": "totalAlreadyReleased",
          "type": "uint256"
        },
        {
          "internalType": "uint256",
          "name": "totalFilled",
          "type": "uint256"
        }
      ],
      "stateMutability": "view",
      "type": "function"
    },
    {
      "inputs": [
        {
          "internalType": "address",
          "name": "beneficiary",
          "type": "address"
        },
        {
          "internalType": "bytes32[]",
          "name": "hashes",
          "type": "bytes32[]"
        }
      ],
      "name": "calculateStatsByHashBatch",
      "outputs": [
        {
          "internalType": "uint256",
          "name": "totalReleasable",
          "type": "uint256"
        },
        {
          "internalType": "uint256",
          "name": "totalAlreadyReleased",
          "type": "uint256"
        },
        {
          "internalType": "uint256",
          "name": "totalFilled",
          "type": "uint256"
        }
      ],
      "stateMutability": "view",
      "type": "function"
    },
    {
      "inputs": [
        {
          "internalType": "uint256",
          "name": "",
          "type": "uint256"
        }
      ],
      "name": "contributions",
      "outputs": [
        {
          "internalType": "address",
          "name": "investor",
          "type": "address"
        },
        {
          "internalType": "bytes32",
          "name": "offerHash",
          "type": "bytes32"
        },
        {
          "internalType": "uint256",
          "name": "amount",
          "type": "uint256"
        },
        {
          "internalType": "uint256",
          "name": "filled",
          "type": "uint256"
        },
        {
          "internalType": "uint256",
          "name": "registeredAt",
          "type": "uint256"
        },
        {
          "internalType": "uint256",
          "name": "refundedAt",
          "type": "uint256"
        }
      ],
      "stateMutability": "view",
      "type": "function"
    },
    {
      "inputs": [
        {
          "internalType": "bytes32",
          "name": "",
          "type": "bytes32"
        },
        {
          "internalType": "uint256",
          "name": "",
          "type": "uint256"
        }
      ],
      "name": "contributionsByHash",
      "outputs": [
        {
          "internalType": "uint256",
          "name": "",
          "type": "uint256"
        }
      ],
      "stateMutability": "view",
      "type": "function"
    },
    {
      "inputs": [
        {
          "internalType": "address",
          "name": "",
          "type": "address"
        },
        {
          "internalType": "bytes32",
          "name": "",
          "type": "bytes32"
        }
      ],
      "name": "filledTotalByBeneficiaryAndHash",
      "outputs": [
        {
          "internalType": "uint256",
          "name": "",
          "type": "uint256"
        }
      ],
      "stateMutability": "view",
      "type": "function"
    },
    {
      "inputs": [
        {
          "internalType": "bytes32",
          "name": "role",
          "type": "bytes32"
        }
      ],
      "name": "getRoleAdmin",
      "outputs": [
        {
          "internalType": "bytes32",
          "name": "",
          "type": "bytes32"
        }
      ],
      "stateMutability": "view",
      "type": "function"
    },
    {
      "inputs": [
        {
          "internalType": "bytes32",
          "name": "role",
          "type": "bytes32"
        },
        {
          "internalType": "address",
          "name": "account",
          "type": "address"
        }
      ],
      "name": "grantRole",
      "outputs": [],
      "stateMutability": "nonpayable",
      "type": "function"
    },
    {
      "inputs": [
        {
          "internalType": "bytes32",
          "name": "role",
          "type": "bytes32"
        },
        {
          "internalType": "address",
          "name": "account",
          "type": "address"
        }
      ],
      "name": "hasRole",
      "outputs": [
        {
          "internalType": "bool",
          "name": "",
          "type": "bool"
        }
      ],
      "stateMutability": "view",
      "type": "function"
    },
    {
      "inputs": [
        {
          "internalType": "address",
          "name": "",
          "type": "address"
        },
        {
          "internalType": "uint256",
          "name": "",
          "type": "uint256"
        }
      ],
      "name": "hashesByBeneficiary",
      "outputs": [
        {
          "internalType": "bytes32",
          "name": "",
          "type": "bytes32"
        }
      ],
      "stateMutability": "view",
      "type": "function"
    },
    {
      "inputs": [
        {
          "internalType": "address",
          "name": "token",
          "type": "address"
        },
        {
          "internalType": "uint32",
          "name": "rewardRatio",
          "type": "uint32"
        }
      ],
      "name": "initialize",
      "outputs": [],
      "stateMutability": "nonpayable",
      "type": "function"
    },
    {
      "inputs": [],
      "name": "name",
      "outputs": [
        {
          "internalType": "string",
          "name": "",
          "type": "string"
        }
      ],
      "stateMutability": "view",
      "type": "function"
    },
    {
      "inputs": [
        {
          "internalType": "bytes32",
          "name": "",
          "type": "bytes32"
        },
        {
          "internalType": "uint256",
          "name": "",
          "type": "uint256"
        }
      ],
      "name": "optionsByHash",
      "outputs": [
        {
          "internalType": "uint256",
          "name": "",
          "type": "uint256"
        }
      ],
      "stateMutability": "view",
      "type": "function"
    },
    {
      "inputs": [
        {
          "internalType": "address",
          "name": "beneficiary",
          "type": "address"
        },
        {
          "internalType": "bytes32",
          "name": "offerHash",
          "type": "bytes32"
        },
        {
          "internalType": "address",
          "name": "investor",
          "type": "address"
        },
        {
          "internalType": "uint256",
          "name": "unfilled",
          "type": "uint256"
        },
        {
          "internalType": "uint256",
          "name": "contributionId",
          "type": "uint256"
        }
      ],
      "name": "refundContribution",
      "outputs": [],
      "stateMutability": "payable",
      "type": "function"
    },
    {
      "inputs": [
        {
          "internalType": "address",
          "name": "beneficiary",
          "type": "address"
        },
        {
          "internalType": "bytes32",
          "name": "offerHash",
          "type": "bytes32"
        },
        {
          "internalType": "uint256[8]",
          "name": "fundingOptions",
          "type": "uint256[8]"
        },
        {
          "internalType": "address",
          "name": "investor",
          "type": "address"
        },
        {
          "internalType": "uint256",
          "name": "filled",
          "type": "uint256"
        },
        {
          "internalType": "uint256",
          "name": "amount",
          "type": "uint256"
        }
      ],
      "name": "registerContribution",
      "outputs": [],
      "stateMutability": "payable",
      "type": "function"
    },
    {
      "inputs": [],
      "name": "releaseAllToBeneficiary",
      "outputs": [],
      "stateMutability": "nonpayable",
      "type": "function"
    },
    {
      "inputs": [
        {
          "internalType": "bytes32",
          "name": "hash",
          "type": "bytes32"
        }
      ],
      "name": "releaseToBeneficiaryByHash",
      "outputs": [],
      "stateMutability": "nonpayable",
      "type": "function"
    },
    {
      "inputs": [
        {
          "internalType": "address",
          "name": "",
          "type": "address"
        },
        {
          "internalType": "bytes32",
          "name": "",
          "type": "bytes32"
        }
      ],
      "name": "releasedTimes",
      "outputs": [
        {
          "internalType": "uint256",
          "name": "",
          "type": "uint256"
        }
      ],
      "stateMutability": "view",
      "type": "function"
    },
    {
      "inputs": [
        {
          "internalType": "bytes32",
          "name": "role",
          "type": "bytes32"
        },
        {
          "internalType": "address",
          "name": "account",
          "type": "address"
        }
      ],
      "name": "renounceRole",
      "outputs": [],
      "stateMutability": "nonpayable",
      "type": "function"
    },
    {
      "inputs": [
        {
          "internalType": "bytes32",
          "name": "role",
          "type": "bytes32"
        },
        {
          "internalType": "address",
          "name": "account",
          "type": "address"
        }
      ],
      "name": "revokeRole",
      "outputs": [],
      "stateMutability": "nonpayable",
      "type": "function"
    },
    {
      "inputs": [
        {
          "internalType": "uint32",
          "name": "newRatio",
          "type": "uint32"
        }
      ],
      "name": "setRewardRatio",
      "outputs": [],
      "stateMutability": "nonpayable",
      "type": "function"
    },
    {
      "inputs": [
        {
          "internalType": "address",
          "name": "newAddress",
          "type": "address"
        }
      ],
      "name": "setToken",
      "outputs": [],
      "stateMutability": "nonpayable",
      "type": "function"
    },
    {
      "inputs": [
        {
          "internalType": "bytes4",
          "name": "interfaceId",
          "type": "bytes4"
        }
      ],
      "name": "supportsInterface",
      "outputs": [
        {
          "internalType": "bool",
          "name": "",
          "type": "bool"
        }
      ],
      "stateMutability": "view",
      "type": "function"
    },
    {
      "inputs": [
        {
          "internalType": "bytes32",
          "name": "offerHash",
          "type": "bytes32"
        }
      ],
      "name": "totalContributionsByHash",
      "outputs": [
        {
          "internalType": "uint256",
          "name": "",
          "type": "uint256"
        }
      ],
      "stateMutability": "view",
      "type": "function"
    },
    {
      "inputs": [],
      "name": "version",
      "outputs": [
        {
          "internalType": "string",
          "name": "",
          "type": "string"
        }
      ],
      "stateMutability": "view",
      "type": "function"
    },
    {
      "stateMutability": "payable",
      "type": "receive"
    }
  ],
  "transactionHash": "0xb81824856ddf7f6e762a312cc37e11ebf91b79493e971b9d7d9d0bb659308e52",
  "args": [],
  "solcInputHash": "86b378fb72aeda56f0f2efabc9d6ddc2",
  "bytecode": "0x608060405234801561001057600080fd5b506140f3806100206000396000f3fe60806040526004361061014b5760003560e01c806301ffc9a71461018c57806306fdde03146101c157806309e0a34f146102135780630e7ebb651461024357806312ba4f6a14610263578063144fa6d7146102915780631cee0700146102b3578063248a9ca31461030a5780632f2ff15d1461032a57806336568abe1461034a57806347cb53b11461036a57806354fd4d501461037d578063574c911b146103ac5780635cd16d4b146103c15780638697b154146103e157806386a4f976146103f457806391d148541461042d5780639b4f231e1461044d578063a1ed5db91461047c578063a217fddf1461049c578063ac06e489146104b1578063c5e4c9f9146104d1578063ccc57490146104f1578063d05ed88f14610513578063d547741f14610533578063dbf6ad8114610553578063e2016e8a14610573578063edf1c1591461059357610187565b366101875760405134815233907fa419615bc8fda4c87663805ee2a3597a6d71c1d476911d9892f340d965bc7bf19060200160405180910390a2005b600080fd5b34801561019857600080fd5b506101ac6101a7366004613bee565b6105cc565b60405190151581526020015b60405180910390f35b3480156101cd57600080fd5b5061020660405180604001604052806019815260200178119b185a5c8810dbdb5b5bdb88119d5b991a5b99c8141bdbdb603a1b81525081565b6040516101b89190613cbb565b34801561021f57600080fd5b5061023560008051602061409e83398151915281565b6040519081526020016101b8565b34801561024f57600080fd5b5061023561025e366004613bcd565b610605565b34801561026f57600080fd5b5061023561027e366004613b93565b60009081526101ce602052604090205490565b34801561029d57600080fd5b506102b16102ac36600461396f565b610637565b005b3480156102bf57600080fd5b506102d36102ce366004613b93565b610697565b604080516001600160a01b0390971687526020870195909552938501929092526060840152608083015260a082015260c0016101b8565b34801561031657600080fd5b50610235610325366004613b93565b6106e8565b34801561033657600080fd5b506102b1610345366004613bab565b6106fd565b34801561035657600080fd5b506102b1610365366004613bab565b610720565b6102b1610378366004613ab9565b61079e565b34801561038957600080fd5b5061020660405180604001604052806003815260200162302e3160e81b81525081565b3480156103b857600080fd5b506102b1610ac8565b3480156103cd57600080fd5b506102356103dc366004613a43565b610bca565b6102b16103ef366004613a6c565b610be7565b34801561040057600080fd5b5061023561040f366004613a43565b6101d160209081526000928352604080842090915290825290205481565b34801561043957600080fd5b506101ac610448366004613bab565b6110de565b34801561045957600080fd5b5061046d61046836600461396f565b611109565b6040516101b893929190613e9a565b34801561048857600080fd5b50610235610497366004613a43565b611199565b3480156104a857600080fd5b50610235600081565b3480156104bd57600080fd5b506102b16104cc366004613b93565b611262565b3480156104dd57600080fd5b506102b16104ec366004613b61565b6112e2565b3480156104fd57600080fd5b5061023560008051602061407e83398151915281565b34801561051f57600080fd5b5061023561052e366004613bcd565b6113c2565b34801561053f57600080fd5b506102b161054e366004613bab565b6113e8565b34801561055f57600080fd5b506102b161056e366004613c16565b611405565b34801561057f57600080fd5b5061046d61058e366004613989565b611460565b34801561059f57600080fd5b506102356105ae366004613a43565b6101d260209081526000928352604080842090915290825290205481565b60006001600160e01b03198216637965db0b60e01b14806105fd57506301ffc9a760e01b6001600160e01b03198316145b90505b919050565b6101ce602052816000526040600020818154811061062257600080fd5b90600052602060002001600091509150505481565b61064f60008051602061407e83398151915233610448565b6106745760405162461bcd60e51b815260040161066b90613e6e565b60405180910390fd5b6101c980546001600160a01b0319166001600160a01b0392909216919091179055565b6101cc81815481106106a857600080fd5b60009182526020909120600690910201805460018201546002830154600384015460048501546005909501546001600160a01b0390941695509193909286565b60009081526097602052604090206001015490565b610706826106e8565b61071181335b611564565b61071b83836115c8565b505050565b6001600160a01b03811633146107905760405162461bcd60e51b815260206004820152602f60248201527f416363657373436f6e74726f6c3a2063616e206f6e6c792072656e6f756e636560448201526e103937b632b9903337b91039b2b63360891b606482015260840161066b565b61079a828261164e565b5050565b600260335414156107c15760405162461bcd60e51b815260040161066b90613e37565b60026033556107de60008051602061409e83398151915233610448565b6107fa5760405162461bcd60e51b815260040161066b90613d9d565b600082116108435760405162461bcd60e51b815260206004820152601660248201527511955391125391cbd253959053125117d1925313115160521b604482015260640161066b565b6001600160a01b03861660009081526101d160209081526040808320888452909152902054600111156108b7576001600160a01b03861660009081526101d0602090815260408083208054600181018255908452828420018890558783526101cf90915290206108b5908560086138f1565b505b6040805160c0810182526001600160a01b03858116825260208201888152928201848152606083018681524260808501908152600060a086018181526101cc80546001808201835582855298517f9a37fbd5e796e9046c2f5f7e29046a230a4ba9ada48a80535ed93a51fec5cfbc600690920291820180546001600160a01b031916919099161790975597517f9a37fbd5e796e9046c2f5f7e29046a230a4ba9ada48a80535ed93a51fec5cfbd87015593517f9a37fbd5e796e9046c2f5f7e29046a230a4ba9ada48a80535ed93a51fec5cfbe86015591517f9a37fbd5e796e9046c2f5f7e29046a230a4ba9ada48a80535ed93a51fec5cfbf850155517f9a37fbd5e796e9046c2f5f7e29046a230a4ba9ada48a80535ed93a51fec5cfc084015590517f9a37fbd5e796e9046c2f5f7e29046a230a4ba9ada48a80535ed93a51fec5cfc1909201919091559154610a0e9190613f72565b60008781526101ce602090815260408083208054600181018255908452828420018490556001600160a01b038b1683526101d182528083208a8452909152812080549293508592909190610a63908490613ee0565b92505081905550836001600160a01b031686886001600160a01b03167fdf7914158578b4fa3633fd22870b445d13981be1f3b0dfd5fb1c677c33d5c16b868686604051610ab293929190613e9a565b60405180910390a4505060016033555050505050565b60026033541415610aeb5760405162461bcd60e51b815260040161066b90613e37565b6002603355336000805b6001600160a01b03831660009081526101d06020526040902054811015610b83576001600160a01b03831660009081526101d0602052604090208054610b6591859184908110610b5557634e487b7160e01b600052603260045260246000fd5b90600052602060002001546116b5565b610b6f9083613ee0565b915080610b7b8161400c565b915050610af5565b5060008111610ba45760405162461bcd60e51b815260040161066b90613dcf565b610bb76001600160a01b0383168261176f565b610bc18282611885565b50506001603355565b6101d0602052816000526040600020818154811061062257600080fd5b60026033541415610c0a5760405162461bcd60e51b815260040161066b90613e37565b6002603355610c2760008051602061409e83398151915233610448565b610c435760405162461bcd60e51b815260040161066b90613d9d565b60006101cc8281548110610c6757634e487b7160e01b600052603260045260246000fd5b90600052602060002090600602016004015411610cc55760405162461bcd60e51b815260206004820152601c60248201527b232aa72224a72397a4a72b20a624a22fa1a7a72a2924a12aaa24a7a760211b604482015260640161066b565b600082118015610cf957506001600160a01b03851660009081526101d1602090815260408083208784529091529020548211155b610d405760405162461bcd60e51b815260206004820152601860248201527711955391125391cbd253959053125117d55391925313115160421b604482015260640161066b565b6101cc8181548110610d6257634e487b7160e01b600052603260045260246000fd5b906000526020600020906006020160050154600014610dbe5760405162461bcd60e51b815260206004820152601860248201527711955391125391cbd053149150511657d0d05390d153115160421b604482015260640161066b565b826001600160a01b03166101cc8281548110610dea57634e487b7160e01b600052603260045260246000fd5b60009182526020909120600690910201546001600160a01b031614610e485760405162461bcd60e51b8152602060048201526014602482015273232aa72224a72397a727aa2fa4a72b22a9aa27a960611b604482015260640161066b565b816101cc8281548110610e6b57634e487b7160e01b600052603260045260246000fd5b90600052602060002090600602016003015414610ec25760405162461bcd60e51b815260206004820152601560248201527408caa9c88929c8e5e8c929898be9a92a69a82a8869605b1b604482015260640161066b565b6000610f4e6101cc8381548110610ee957634e487b7160e01b600052603260045260246000fd5b60009182526020918290206040805160c081018252600690930290910180546001600160a01b03168352600181015493830193909352600283015490820152600382015460608201526004820154608082015260059091015460a082015242876119cc565b90506101cc8281548110610f7257634e487b7160e01b600052603260045260246000fd5b9060005260206000209060060201600201548110610fce5760405162461bcd60e51b815260206004820152601960248201527811955391125391cbd393d512125391d7d513d7d49151955391603a1b604482015260640161066b565b6000816101cc8481548110610ff357634e487b7160e01b600052603260045260246000fd5b90600052602060002090600602016002015461100f9190613f72565b9050426101cc848154811061103457634e487b7160e01b600052603260045260246000fd5b60009182526020808320600560069093020191909101929092556001600160a01b03891681526101d182526040808220898352909252908120805486929061107d908490613f72565b9091555061109690506001600160a01b0386168261176f565b846001600160a01b031686886001600160a01b03167f259bdf60a0c51bf7cda85ba7118f986298f98af4655bb337fc8208f8a1766254878588604051610ab293929190613e9a565b60009182526097602090815260408084206001600160a01b0393909316845291905290205460ff1690565b600080600061118c846101d06000876001600160a01b03166001600160a01b0316815260200190815260200160002080548060200260200160405190810160405280929190818152602001828054801561118257602002820191906000526020600020905b81548152602001906001019080831161116e575b5050505050611460565b9250925092509193909250565b600061125b6101cc83815481106111c057634e487b7160e01b600052603260045260246000fd5b60009182526020918290206040805160c081018252600690930290910180546001600160a01b03168352600181015493830193909352600283015490820152600382015460608201526004820154608082015260059091015460a08201526101cc80544291908690811061124457634e487b7160e01b600052603260045260246000fd5b9060005260206000209060060201600101546119cc565b9392505050565b600260335414156112855760405162461bcd60e51b815260040161066b90613e37565b60026033553342600061129883856116b5565b9050600081116112ba5760405162461bcd60e51b815260040161066b90613dcf565b6112cd6001600160a01b0384168261176f565b6112d78382611885565b505060016033555050565b600054610100900460ff16806112fb575060005460ff16155b6113175760405162461bcd60e51b815260040161066b90613d4f565b600054610100900460ff16158015611339576000805461ffff19166101011790555b611341611b70565b61134d6000335b611be4565b61136560008051602061407e83398151915233611348565b6101c9805463ffffffff8416600160a01b026001600160c01b03199091166001600160a01b03861617179055670de0b6b3a76400006101ca55683635c9adc5dea000006101cb55801561071b576000805461ff0019169055505050565b6101cf60205281600052604060002081600881106113df57600080fd5b01549150829050565b6113f1826106e8565b6113fb813361070c565b61071b838361164e565b61141d60008051602061407e83398151915233610448565b6114395760405162461bcd60e51b815260040161066b90613e6e565b6101c9805463ffffffff909216600160a01b0263ffffffff60a01b19909216919091179055565b60008080805b845181101561155c576114a08686838151811061149357634e487b7160e01b600052603260045260246000fd5b6020026020010151611bee565b6114aa9085613ee0565b93506114dd868683815181106114d057634e487b7160e01b600052603260045260246000fd5b6020026020010151611de9565b6114e79084613ee0565b6001600160a01b03871660009081526101d16020526040812087519295509187908490811061152657634e487b7160e01b600052603260045260246000fd5b6020026020010151815260200190815260200160002054826115489190613ee0565b9150806115548161400c565b915050611466565b509250925092565b61156e82826110de565b61079a57611586816001600160a01b03166014611ef0565b611591836020611ef0565b6040516020016115a2929190613c4c565b60408051601f198184030181529082905262461bcd60e51b825261066b91600401613cbb565b6115d282826110de565b61079a5760008281526097602090815260408083206001600160a01b03851684529091529020805460ff1916600117905561160a3390565b6001600160a01b0316816001600160a01b0316837f2f8788117e7eff1d82e926ec794901d17c78024a50270940304540a733656f0d60405160405180910390a45050565b61165882826110de565b1561079a5760008281526097602090815260408083206001600160a01b0385168085529252808320805460ff1916905551339285917ff6391f5c32d9c69d2a47ea670b442974b53935d1edc7fd64eb21e047a839171b9190a45050565b6001600160a01b03821660009081526101d26020908152604080832084845290915281205442906116e8610e1083613f72565b8111156117365760405162461bcd60e51b815260206004820152601c60248201527b11955391125391cbd49153115054d157d213d554931657d31253525560221b604482015260640161066b565b6117408585611bee565b6001600160a01b0390951660009081526101d26020908152604080832096835295905293909320555090919050565b804710156117bf5760405162461bcd60e51b815260206004820152601d60248201527f416464726573733a20696e73756666696369656e742062616c616e6365000000604482015260640161066b565b6000826001600160a01b03168260405160006040518083038185875af1925050503d806000811461180c576040519150601f19603f3d011682016040523d82523d6000602084013e611811565b606091505b505090508061071b5760405162461bcd60e51b815260206004820152603a60248201527f416464726573733a20756e61626c6520746f2073656e642076616c75652c20726044820152791958da5c1a595b9d081b585e481a185d99481c995d995c9d195960321b606482015260840161066b565b60006118ac6101cb546101ca546101c960149054906101000a900463ffffffff16856120d1565b9050806101cb60008282546118c19190613ee0565b92505081905550816101ca60008282546118db9190613ee0565b90915550506101c9546040516001600160a01b03858116602483015260448201849052600092169060640160408051601f198184030181529181526020820180516001600160e01b03166340c10f1960e01b1790525161193b9190613c30565b6000604051808303816000865af19150503d8060008114611978576040519150601f19603f3d011682016040523d82523d6000602084013e61197d565b606091505b50509050806119c65760405162461bcd60e51b815260206004820152601560248201527411955391125391cbd49155d0549117d19052531151605a1b604482015260640161066b565b50505050565b60008181526101cf60205260408082208151610100810192839052839290919060089082845b8154815260200190600101908083116119f257505050505090506000808660a0015111611a1f5784611a36565b848660a0015110611a305784611a36565b8560a001515b90508560800151811015611a4f5760009250505061125b565b8151600090611a5f576000611a70565b82516040880151611a7091906121d8565b90508083600160200201518860800151611a8a9190613ee0565b831015611a9c57935061125b92505050565b6040840151600090611aaf576000611ac4565b611ac485600260200201518a604001516121d8565b9050611ad08183613ee0565b606086015160408b0151919350906000908390611aee908790613f72565b611af89190613f72565b9050600087600160200201518c60800151611b139190613ee0565b90506000878211611b2d57611b288289613f72565b611b30565b60005b905083811115611b3d5750825b6000611b5285858c60046020020151856121f1565b9050611b5e8188613ee0565b9e9d5050505050505050505050505050565b600054610100900460ff1680611b89575060005460ff16155b611ba55760405162461bcd60e51b815260040161066b90613d4f565b600054610100900460ff16158015611bc7576000805461ffff19166101011790555b611bcf612346565b8015611be1576000805461ff00191690555b50565b61079a82826115c8565b6001600160a01b03821660009081526101d2602090815260408083208484529091528120544290825b60008581526101ce6020526040902054811015611de05760008581526101ce602052604090208054611cf3916101cc9184908110611c6557634e487b7160e01b600052603260045260246000fd5b906000526020600020015481548110611c8e57634e487b7160e01b600052603260045260246000fd5b60009182526020918290206040805160c081018252600690930290910180546001600160a01b03168352600181015493830193909352600283015490820152600382015460608201526004820154608082015260059091015460a082015283876119cc565b60008681526101ce602052604090208054611db8916101cc9185908110611d2a57634e487b7160e01b600052603260045260246000fd5b906000526020600020015481548110611d5357634e487b7160e01b600052603260045260246000fd5b60009182526020918290206040805160c081018252600690930290910180546001600160a01b03168352600181015493830193909352600283015490820152600382015460608201526004820154608082015260059091015460a082015285886119cc565b611dc29190613f72565b611dcc9085613ee0565b935080611dd88161400c565b915050611c17565b50505092915050565b600042815b60008481526101ce6020526040902054811015611ee85760008481526101ce602052604090208054611eca916101cc9184908110611e3c57634e487b7160e01b600052603260045260246000fd5b906000526020600020015481548110611e6557634e487b7160e01b600052603260045260246000fd5b60009182526020918290206040805160c081018252600690930290910180546001600160a01b03168352600181015493830193909352600283015490820152600382015460608201526004820154608082015260059091015460a082015283866119cc565b611ed49084613ee0565b925080611ee08161400c565b915050611dee565b505092915050565b60606000611eff836002613f53565b611f0a906002613ee0565b6001600160401b03811115611f2f57634e487b7160e01b600052604160045260246000fd5b6040519080825280601f01601f191660200182016040528015611f59576020820181803683370190505b509050600360fc1b81600081518110611f8257634e487b7160e01b600052603260045260246000fd5b60200101906001600160f81b031916908160001a905350600f60fb1b81600181518110611fbf57634e487b7160e01b600052603260045260246000fd5b60200101906001600160f81b031916908160001a9053506000611fe3846002613f53565b611fee906001613ee0565b90505b6001811115612082576f181899199a1a9b1b9c1cb0b131b232b360811b85600f166010811061203057634e487b7160e01b600052603260045260246000fd5b1a60f81b82828151811061205457634e487b7160e01b600052603260045260246000fd5b60200101906001600160f81b031916908160001a90535060049490941c9361207b81613fd8565b9050611ff1565b50831561125b5760405162461bcd60e51b815260206004820181905260248201527f537472696e67733a20686578206c656e67746820696e73756666696369656e74604482015260640161066b565b60008085116120f25760405162461bcd60e51b815260040161066b90613d23565b600084116121125760405162461bcd60e51b815260040161066b90613cee565b60008363ffffffff161180156121315750620f424063ffffffff841611155b61214d5760405162461bcd60e51b815260040161066b90613e03565b8161215a575060006121d0565b63ffffffff8316620f42401415612187578361217686846123b6565b6121809190613f1d565b90506121d0565b6000808061219585886123c2565b90506121a6818888620f42406123ce565b9093509150600060ff83166121bb8a866123b6565b901c90506121c98982613f72565b9450505050505b949350505050565b60006127106121e78385613f53565b61125b9190613f1d565b60008085116122125760405162461bcd60e51b815260040161066b90613d23565b600084116122325760405162461bcd60e51b815260040161066b90613cee565b60008363ffffffff161180156122515750620f424063ffffffff841611155b61226d5760405162461bcd60e51b815260040161066b90613e03565b848211156122b25760405162461bcd60e51b815260206004820152601260248201527111549497d253959053125117d05353d5539560721b604482015260640161066b565b816122bf575060006121d0565b848214156122ce5750826121d0565b63ffffffff8316620f424014156122ea578461217685846123b6565b600080806122f88589613f72565b90506123098882620f4240896123ce565b9093509150600061231a88856123b6565b905060ff831688901b8461232e8284613f72565b6123389190613f1d565b9a9950505050505050505050565b600054610100900460ff168061235f575060005460ff16155b61237b5760405162461bcd60e51b815260040161066b90613d4f565b600054610100900460ff1615801561239d576000805461ffff19166101011790555b60016033558015611be1576000805461ff001916905550565b600061125b8284613f53565b600061125b8284613ee0565b600080600160811b86106123e157600080fd5b600080866123f36001607f1b8a613f53565b6123fd9190613f1d565b905070015bf0a8b1457695355fb8ac404e7a79e381101561242857612421816124bb565b9150612434565b61243181612a34565b91505b60008563ffffffff168763ffffffff168461244f9190613f53565b6124599190613f1d565b9050600160831b81101561247e5761247081612b18565b607f945094505050506124b2565b600061248982613143565b90506124a561249982607f613f89565b60ff1683901c82613223565b955093506124b292505050565b94509492505050565b6000808080806fd3094c70f034de4b96ff7d5b6f99fcd88610612514576124e66001607e1b85613ee0565b93506fd3094c70f034de4b96ff7d5b6f99fcd86125076001607f1b88613f53565b6125119190613f1d565b95505b6fa45af1e1f40c333b3de1db4dd55f29a78610612567576125396001607d1b85613ee0565b93506fa45af1e1f40c333b3de1db4dd55f29a761255a6001607f1b88613f53565b6125649190613f1d565b95505b6f910b022db7ae67ce76b441c27035c6a186106125ba5761258c6001607c1b85613ee0565b93506f910b022db7ae67ce76b441c27035c6a16125ad6001607f1b88613f53565b6125b79190613f1d565b95505b6f88415abbe9a76bead8d00cf112e4d4a8861061260d576125df6001607b1b85613ee0565b93506f88415abbe9a76bead8d00cf112e4d4a86126006001607f1b88613f53565b61260a9190613f1d565b95505b6f84102b00893f64c705e841d5d4064bd38610612660576126326001607a1b85613ee0565b93506f84102b00893f64c705e841d5d4064bd36126536001607f1b88613f53565b61265d9190613f1d565b95505b6f8204055aaef1c8bd5c3259f4822735a286106126b357612685600160791b85613ee0565b93506f8204055aaef1c8bd5c3259f4822735a26126a66001607f1b88613f53565b6126b09190613f1d565b95505b6f810100ab00222d861931c15e39b44e998610612706576126d8600160781b85613ee0565b93506f810100ab00222d861931c15e39b44e996126f96001607f1b88613f53565b6127039190613f1d565b95505b6f808040155aabbbe9451521693554f73386106127595761272b600160771b85613ee0565b93506f808040155aabbbe9451521693554f73361274c6001607f1b88613f53565b6127569190613f1d565b95505b6127676001607f1b87613f72565b92508291506001607f1b61277b8380613f53565b6127859190613f1d565b9050600160801b6127968482613f72565b6127a09084613f53565b6127aa9190613f1d565b6127b49085613ee0565b93506001607f1b6127c58284613f53565b6127cf9190613f1d565b9150600160811b6127f0846faaaaaaaaaaaaaaaaaaaaaaaaaaaaaaaa613f72565b6127fa9084613f53565b6128049190613f1d565b61280e9085613ee0565b93506001607f1b61281f8284613f53565b6128299190613f1d565b9150600360801b61284a846f99999999999999999999999999999999613f72565b6128549084613f53565b61285e9190613f1d565b6128689085613ee0565b93506001607f1b6128798284613f53565b6128839190613f1d565b9150600160821b6128a4846f92492492492492492492492492492492613f72565b6128ae9084613f53565b6128b89190613f1d565b6128c29085613ee0565b93506001607f1b6128d38284613f53565b6128dd9190613f1d565b9150600560801b6128fe846f8e38e38e38e38e38e38e38e38e38e38e613f72565b6129089084613f53565b6129129190613f1d565b61291c9085613ee0565b93506001607f1b61292d8284613f53565b6129379190613f1d565b9150600360811b612958846f8ba2e8ba2e8ba2e8ba2e8ba2e8ba2e8b613f72565b6129629084613f53565b61296c9190613f1d565b6129769085613ee0565b93506001607f1b6129878284613f53565b6129919190613f1d565b9150600760801b6129b2846f89d89d89d89d89d89d89d89d89d89d89613f72565b6129bc9084613f53565b6129c69190613f1d565b6129d09085613ee0565b93506001607f1b6129e18284613f53565b6129eb9190613f1d565b9150600160831b612a0c846f88888888888888888888888888888888613f72565b612a169084613f53565b612a209190613f1d565b612a2a9085613ee0565b9695505050505050565b600080600160801b8310612a78576000612a5a612a556001607f1b86613f1d565b613885565b60ff811694851c94909150612a74906001607f1b90613f53565b9150505b6001607f1b831115612aed57607f5b60ff811615612aeb576001607f1b612a9f8580613f53565b612aa99190613f1d565b9350600160801b8410612adb57600193841c93612ac69082613f89565b60ff166001901b82612ad89190613ee0565b91505b612ae481613fef565b9050612a87565b505b6f05b9de1d10bf4103d647b0955897ba806121e76f03f80fe03f80fe03f80fe03f80fe03f883613f53565b6000808080612b2b6001607c1b86614027565b91508190506001607f1b612b3f8280613f53565b612b499190613f1d565b9050612b5d816710e1b3be415a0000613f53565b612b679084613ee0565b92506001607f1b612b788383613f53565b612b829190613f1d565b9050612b96816705a0913f6b1e0000613f53565b612ba09084613ee0565b92506001607f1b612bb18383613f53565b612bbb9190613f1d565b9050612bcf81670168244fdac78000613f53565b612bd99084613ee0565b92506001607f1b612bea8383613f53565b612bf49190613f1d565b9050612c0781664807432bc18000613f53565b612c119084613ee0565b92506001607f1b612c228383613f53565b612c2c9190613f1d565b9050612c3f81660c0135dca04000613f53565b612c499084613ee0565b92506001607f1b612c5a8383613f53565b612c649190613f1d565b9050612c77816601b707b1cdc000613f53565b612c819084613ee0565b92506001607f1b612c928383613f53565b612c9c9190613f1d565b9050612cae816536e0f639b800613f53565b612cb89084613ee0565b92506001607f1b612cc98383613f53565b612cd39190613f1d565b9050612ce581650618fee9f800613f53565b612cef9084613ee0565b92506001607f1b612d008383613f53565b612d0a9190613f1d565b9050612d1b81649c197dcc00613f53565b612d259084613ee0565b92506001607f1b612d368383613f53565b612d409190613f1d565b9050612d5181640e30dce400613f53565b612d5b9084613ee0565b92506001607f1b612d6c8383613f53565b612d769190613f1d565b9050612d878164012ebd1300613f53565b612d919084613ee0565b92506001607f1b612da28383613f53565b612dac9190613f1d565b9050612dbc816317499f00613f53565b612dc69084613ee0565b92506001607f1b612dd78383613f53565b612de19190613f1d565b9050612df1816301a9d480613f53565b612dfb9084613ee0565b92506001607f1b612e0c8383613f53565b612e169190613f1d565b9050612e2581621c6380613f53565b612e2f9084613ee0565b92506001607f1b612e408383613f53565b612e4a9190613f1d565b9050612e59816201c638613f53565b612e639084613ee0565b92506001607f1b612e748383613f53565b612e7e9190613f1d565b9050612e8c81611ab8613f53565b612e969084613ee0565b92506001607f1b612ea78383613f53565b612eb19190613f1d565b9050612ebf8161017c613f53565b612ec99084613ee0565b92506001607f1b612eda8383613f53565b612ee49190613f1d565b9050612ef1816014613f53565b612efb9084613ee0565b92506001607f1b612f0c8383613f53565b612f169190613f1d565b9050612f23816001613f53565b612f2d9084613ee0565b92506001607f1b82612f476721c3677c82b4000086613f1d565b612f519190613ee0565b612f5b9190613ee0565b92506001607c1b851615612fa35770018ebef9eac820ae8682b9793ac6d1e776612f96847001c3d6a24ed82218787d624d3e5eba95f9613f53565b612fa09190613f1d565b92505b6001607d1b851615612fe9577001368b2fc6f9609fe7aceb46aa619baed4612fdc8470018ebef9eac820ae8682b9793ac6d1e778613f53565b612fe69190613f1d565b92505b6001607e1b85161561302e576fbc5ab1b16779be3575bd8f0520a9f21f613021847001368b2fc6f9609fe7aceb46aa619baed5613f53565b61302b9190613f1d565b92505b6001607f1b851615613072576f454aaa8efe072e7f6ddbab84b40a55c9613065846fbc5ab1b16779be3575bd8f0520a9f21e613f53565b61306f9190613f1d565b92505b600160801b8516156130b6576f0960aadc109e7a3bf4578099615711ea6130a9846f454aaa8efe072e7f6ddbab84b40a55c5613f53565b6130b39190613f1d565b92505b600160811b8516156130f9576e2bf84208204f5977f9a8cf01fdce3d6130ec846f0960aadc109e7a3bf4578099615711d7613f53565b6130f69190613f1d565b92505b600160821b85161561313a576d03c6ab775dd0b95b4cbee7e65d1161312d846e2bf84208204f5977f9a8cf01fdc307613f53565b6131379190613f1d565b92505b50909392505050565b60006020607f5b60ff8116613159836001613ef8565b60ff1610156131ba57600060026131708385613ef8565b61317a9190613f31565b90508460c98260ff16608081106131a157634e487b7160e01b600052603260045260246000fd5b0154106131b0578092506131b4565b8091505b5061314a565b8360c98260ff16608081106131df57634e487b7160e01b600052603260045260246000fd5b0154106131ef5791506106009050565b8360c98360ff166080811061321457634e487b7160e01b600052603260045260246000fd5b01541061018757509050610600565b6000828160ff84166132358380613f53565b901c9150613252826b0d10b13981d2a0bc5e5fdcab601e1b613f53565b61325c9082613ee0565b905060ff841661326c8684613f53565b901c9150613289826b045ae5bdd5f0e03eca1ff439601e1b613f53565b6132939082613ee0565b905060ff84166132a38684613f53565b901c91506132c0826e45ae5bdd5f0e03eca1ff4390000000613f53565b6132ca9082613ee0565b905060ff84166132da8684613f53565b901c91506132f6826adefabf91302cd95b9ffda5601c1b613f53565b6133009082613ee0565b905060ff84166133108684613f53565b901c915061332c826a4a53953065644873dfff37601b1b613f53565b6133369082613ee0565b905060ff84166133468684613f53565b901c9150613362826d54f1cf12bd04e516b6da88000000613f53565b61336c9082613ee0565b905060ff841661337c8684613f53565b901c9150613398826d0a9e39e257a09ca2d6db51000000613f53565b6133a29082613ee0565b905060ff84166133b28684613f53565b901c91506133ce826d012e066e7b839fa050c309000000613f53565b6133d89082613ee0565b905060ff84166133e88684613f53565b901c9150613403826c1e33d7d926c329a1ad1a800000613f53565b61340d9082613ee0565b905060ff841661341d8684613f53565b901c9150613438826c02bee513bdb4a6b19b5f800000613f53565b6134429082613ee0565b905060ff84166134528684613f53565b901c915061346c826b3a9316fa79b88eccf2a00000613f53565b6134769082613ee0565b905060ff84166134868684613f53565b901c91506134a0826b048177ebe1fa812375200000613f53565b6134aa9082613ee0565b905060ff84166134ba8684613f53565b901c91506134d3826a5263fe90242dcbacf00000613f53565b6134dd9082613ee0565b905060ff84166134ed8684613f53565b901c9150613506826a057e22099c030d94100000613f53565b6135109082613ee0565b905060ff84166135208684613f53565b901c9150613538826957e22099c030d9410000613f53565b6135429082613ee0565b905060ff84166135528684613f53565b901c915061356a8269052b6b54569976310000613f53565b6135749082613ee0565b905060ff84166135848684613f53565b901c915061359b82684985f67696bf748000613f53565b6135a59082613ee0565b905060ff84166135b58684613f53565b901c91506135cc826803dea12ea99e498000613f53565b6135d69082613ee0565b905060ff84166135e68684613f53565b901c91506135fc826731880f2214b6e000613f53565b6136069082613ee0565b905060ff84166136168684613f53565b901c915061362c8267025bcff56eb36000613f53565b6136369082613ee0565b905060ff84166136468684613f53565b901c915061365b82661b722e10ab1000613f53565b6136659082613ee0565b905060ff84166136758684613f53565b901c915061368a826601317c70077000613f53565b6136949082613ee0565b905060ff84166136a48684613f53565b901c91506136b882650cba84aafa00613f53565b6136c29082613ee0565b905060ff84166136d28684613f53565b901c91506136e5826482573a0a00613f53565b6136ef9082613ee0565b905060ff84166136ff8684613f53565b901c9150613712826405035ad900613f53565b61371c9082613ee0565b905060ff841661372c8684613f53565b901c915061373e82632f881b00613f53565b6137489082613ee0565b905060ff84166137588684613f53565b901c915061376a826301b29340613f53565b6137749082613ee0565b905060ff84166137848684613f53565b901c915061379582620efc40613f53565b61379f9082613ee0565b905060ff84166137af8684613f53565b901c91506137bf82617fe0613f53565b6137c99082613ee0565b905060ff84166137d98684613f53565b901c91506137e982610420613f53565b6137f39082613ee0565b905060ff84166138038684613f53565b901c9150613812826021613f53565b61381c9082613ee0565b905060ff841661382c8684613f53565b901c915061383b826001613f53565b6138459082613ee0565b9050600160ff85161b856138686b0d10b13981d2a0bc5e5fdcab601f1b84613f1d565b6138729190613ee0565b61387c9190613ee0565b95945050505050565b6000806101008310156138b8575b60018311156138b357600192831c926138ac9082613ef8565b9050613893565b6105fd565b60805b60ff8116156138ea57600160ff82161b84106138df5760ff81169390931c92908117905b60011c607f166138bb565b5092915050565b826008810192821561391f579160200282015b8281111561391f578251825591602001919060010190613904565b5061392b92915061392f565b5090565b5b8082111561392b5760008155600101613930565b80356001600160a01b038116811461060057600080fd5b803563ffffffff8116811461060057600080fd5b600060208284031215613980578081fd5b61125b82613944565b6000806040838503121561399b578081fd5b6139a483613944565b91506020838101356001600160401b03808211156139c0578384fd5b818601915086601f8301126139d3578384fd5b8135818111156139e5576139e5614067565b8060051b91506139f6848301613eb0565b8181528481019084860184860187018b1015613a10578788fd5b8795505b83861015613a32578035835260019590950194918601918601613a14565b508096505050505050509250929050565b60008060408385031215613a55578182fd5b613a5e83613944565b946020939093013593505050565b600080600080600060a08688031215613a83578081fd5b613a8c86613944565b945060208601359350613aa160408701613944565b94979396509394606081013594506080013592915050565b6000806000806000806101a08789031215613ad2578081fd5b613adb87613944565b9550602080880135955088605f890112613af3578182fd5b613afe610100613eb0565b8060408a016101408b018c811115613b14578586fd5b855b6008811015613b3357823585529385019391850191600101613b16565b50829850613b4081613944565b97505050505050610160870135915061018087013590509295509295509295565b60008060408385031215613b73578182fd5b613b7c83613944565b9150613b8a6020840161395b565b90509250929050565b600060208284031215613ba4578081fd5b5035919050565b60008060408385031215613bbd578182fd5b82359150613b8a60208401613944565b60008060408385031215613bdf578182fd5b50508035926020909101359150565b600060208284031215613bff578081fd5b81356001600160e01b03198116811461125b578182fd5b600060208284031215613c27578081fd5b61125b8261395b565b60008251613c42818460208701613fac565b9190910192915050565b600076020b1b1b2b9b9a1b7b73a3937b61d1030b1b1b7bab73a1604d1b82528351613c7e816017850160208801613fac565b7001034b99036b4b9b9b4b733903937b6329607d1b6017918401918201528351613caf816028840160208801613fac565b01602801949350505050565b6000602082528251806020840152613cda816040850160208701613fac565b601f01601f19169190910160400192915050565b6020808252601b908201527a4552525f494e56414c49445f524553455256455f42414c414e434560281b604082015260600190565b6020808252601290820152714552525f494e56414c49445f535550504c5960701b604082015260600190565b6020808252602e908201527f496e697469616c697a61626c653a20636f6e747261637420697320616c72656160408201526d191e481a5b9a5d1a585b1a5e995960921b606082015260800190565b602080825260189082015277232aa72224a72397a727aa2fa7a921a422a9aa2920aa27a960411b604082015260600190565b6020808252601a908201527946554e44494e472f4e4f5448494e475f544f5f52454c4541534560301b604082015260600190565b6020808252601a908201527911549497d253959053125117d49154d154959157d5d15251d21560321b604082015260600190565b6020808252601f908201527f5265656e7472616e637947756172643a207265656e7472616e742063616c6c00604082015260600190565b6020808252601290820152712a27a5a2a717a727aa2fa3a7ab22a92727a960711b604082015260600190565b9283526020830191909152604082015260600190565b604051601f8201601f191681016001600160401b0381118282101715613ed857613ed8614067565b604052919050565b60008219821115613ef357613ef361403b565b500190565b600060ff821660ff84168060ff03821115613f1557613f1561403b565b019392505050565b600082613f2c57613f2c614051565b500490565b600060ff831680613f4457613f44614051565b8060ff84160491505092915050565b6000816000190483118215151615613f6d57613f6d61403b565b500290565b600082821015613f8457613f8461403b565b500390565b600060ff821660ff841680821015613fa357613fa361403b565b90039392505050565b60005b83811015613fc7578181015183820152602001613faf565b838111156119c65750506000910152565b600081613fe757613fe761403b565b506000190190565b600060ff8216806140025761400261403b565b6000190192915050565b60006000198214156140205761402061403b565b5060010190565b60008261403657614036614051565b500690565b634e487b7160e01b600052601160045260246000fd5b634e487b7160e01b600052601260045260246000fd5b634e487b7160e01b600052604160045260246000fdfe7935bd0ae54bc31f548c14dba4d37c5c64b3f8ca900cb468fb8abd54d5894f55e098e2e7d2d4d3ca0e3877ceaaf3cdfbd47483f6699688ad12b1d6732deef10ba2646970667358221220aa872566e99cd53eb904b97da6f9cb6c707382a4f1f60d3742ab4fcbcbedd23464736f6c63430008030033",
  "devdoc": {
    "kind": "dev",
    "methods": {
      "getRoleAdmin(bytes32)": {
        "details": "Returns the admin role that controls `role`. See {grantRole} and {revokeRole}. To change a role's admin, use {_setRoleAdmin}."
      },
      "grantRole(bytes32,address)": {
        "details": "Grants `role` to `account`. If `account` had not been already granted `role`, emits a {RoleGranted} event. Requirements: - the caller must have ``role``'s admin role."
      },
      "hasRole(bytes32,address)": {
        "details": "Returns `true` if `account` has been granted `role`."
      },
      "renounceRole(bytes32,address)": {
        "details": "Revokes `role` from the calling account. Roles are often managed via {grantRole} and {revokeRole}: this function's purpose is to provide a mechanism for accounts to lose their privileges if they are compromised (such as when a trusted device is misplaced). If the calling account had been granted `role`, emits a {RoleRevoked} event. Requirements: - the caller must be `account`."
      },
      "revokeRole(bytes32,address)": {
        "details": "Revokes `role` from `account`. If `account` had been granted `role`, emits a {RoleRevoked} event. Requirements: - the caller must have ``role``'s admin role."
      },
      "supportsInterface(bytes4)": {
        "details": "See {IERC165-supportsInterface}."
      }
    },
    "version": 1
  },
  "userdoc": {
    "kind": "user",
    "methods": {},
    "version": 1
  },
  "storageLayout": {
    "storage": [
      {
        "astId": 401,
        "contract": "contracts/Funding.sol:Funding",
        "label": "_initialized",
        "offset": 0,
        "slot": "0",
        "type": "t_bool"
      },
      {
        "astId": 404,
        "contract": "contracts/Funding.sol:Funding",
        "label": "_initializing",
        "offset": 1,
        "slot": "0",
        "type": "t_bool"
      },
      {
        "astId": 2397,
        "contract": "contracts/Funding.sol:Funding",
        "label": "__gap",
        "offset": 0,
        "slot": "1",
        "type": "t_array(t_uint256)50_storage"
      },
      {
        "astId": 568,
        "contract": "contracts/Funding.sol:Funding",
        "label": "_status",
        "offset": 0,
        "slot": "51",
        "type": "t_uint256"
      },
      {
        "astId": 611,
        "contract": "contracts/Funding.sol:Funding",
        "label": "__gap",
        "offset": 0,
        "slot": "52",
        "type": "t_array(t_uint256)49_storage"
      },
      {
        "astId": 3052,
        "contract": "contracts/Funding.sol:Funding",
        "label": "__gap",
        "offset": 0,
        "slot": "101",
        "type": "t_array(t_uint256)50_storage"
      },
      {
        "astId": 86,
        "contract": "contracts/Funding.sol:Funding",
        "label": "_roles",
        "offset": 0,
        "slot": "151",
        "type": "t_mapping(t_bytes32,t_struct(RoleData)81_storage)"
      },
      {
        "astId": 394,
        "contract": "contracts/Funding.sol:Funding",
        "label": "__gap",
        "offset": 0,
        "slot": "152",
        "type": "t_array(t_uint256)49_storage"
      },
      {
        "astId": 12773,
        "contract": "contracts/Funding.sol:Funding",
        "label": "maxExpArray",
        "offset": 0,
        "slot": "201",
        "type": "t_array(t_uint256)128_storage"
      },
      {
        "astId": 13357,
        "contract": "contracts/Funding.sol:Funding",
        "label": "lambertArray",
        "offset": 0,
        "slot": "329",
        "type": "t_array(t_uint256)128_storage"
      },
      {
        "astId": 8875,
        "contract": "contracts/Funding.sol:Funding",
        "label": "_token",
        "offset": 0,
        "slot": "457",
        "type": "t_address"
      },
      {
        "astId": 8877,
        "contract": "contracts/Funding.sol:Funding",
        "label": "_rewardRatio",
        "offset": 20,
        "slot": "457",
        "type": "t_uint32"
      },
      {
        "astId": 8879,
        "contract": "contracts/Funding.sol:Funding",
        "label": "_totalContribution",
        "offset": 0,
        "slot": "458",
        "type": "t_uint256"
      },
      {
        "astId": 8881,
        "contract": "contracts/Funding.sol:Funding",
        "label": "_totalRewarded",
        "offset": 0,
        "slot": "459",
        "type": "t_uint256"
      },
      {
        "astId": 8885,
        "contract": "contracts/Funding.sol:Funding",
        "label": "contributions",
        "offset": 0,
        "slot": "460",
        "type": "t_array(t_struct(Contribution)8870_storage)dyn_storage"
      },
      {
        "astId": 8888,
        "contract": "contracts/Funding.sol:Funding",
        "label": "_contributionIdTracker",
        "offset": 0,
        "slot": "461",
        "type": "t_struct(Counter)2404_storage"
      },
      {
        "astId": 8893,
        "contract": "contracts/Funding.sol:Funding",
        "label": "contributionsByHash",
        "offset": 0,
        "slot": "462",
        "type": "t_mapping(t_bytes32,t_array(t_uint256)dyn_storage)"
      },
      {
        "astId": 8899,
        "contract": "contracts/Funding.sol:Funding",
        "label": "optionsByHash",
        "offset": 0,
        "slot": "463",
        "type": "t_mapping(t_bytes32,t_array(t_uint256)8_storage)"
      },
      {
        "astId": 8904,
        "contract": "contracts/Funding.sol:Funding",
        "label": "hashesByBeneficiary",
        "offset": 0,
        "slot": "464",
        "type": "t_mapping(t_address,t_array(t_bytes32)dyn_storage)"
      },
      {
        "astId": 8910,
        "contract": "contracts/Funding.sol:Funding",
        "label": "filledTotalByBeneficiaryAndHash",
        "offset": 0,
        "slot": "465",
        "type": "t_mapping(t_address,t_mapping(t_bytes32,t_uint256))"
      },
      {
        "astId": 8916,
        "contract": "contracts/Funding.sol:Funding",
        "label": "releasedTimes",
        "offset": 0,
        "slot": "466",
        "type": "t_mapping(t_address,t_mapping(t_bytes32,t_uint256))"
      }
    ],
    "types": {
      "t_address": {
        "encoding": "inplace",
        "label": "address",
        "numberOfBytes": "20"
      },
      "t_array(t_bytes32)dyn_storage": {
        "base": "t_bytes32",
        "encoding": "dynamic_array",
        "label": "bytes32[]",
        "numberOfBytes": "32"
      },
      "t_array(t_struct(Contribution)8870_storage)dyn_storage": {
        "base": "t_struct(Contribution)8870_storage",
        "encoding": "dynamic_array",
        "label": "struct Funding.Contribution[]",
        "numberOfBytes": "32"
      },
      "t_array(t_uint256)128_storage": {
        "base": "t_uint256",
        "encoding": "inplace",
        "label": "uint256[128]",
        "numberOfBytes": "4096"
      },
      "t_array(t_uint256)49_storage": {
        "base": "t_uint256",
        "encoding": "inplace",
        "label": "uint256[49]",
        "numberOfBytes": "1568"
      },
      "t_array(t_uint256)50_storage": {
        "base": "t_uint256",
        "encoding": "inplace",
        "label": "uint256[50]",
        "numberOfBytes": "1600"
      },
      "t_array(t_uint256)8_storage": {
        "base": "t_uint256",
        "encoding": "inplace",
        "label": "uint256[8]",
        "numberOfBytes": "256"
      },
      "t_array(t_uint256)dyn_storage": {
        "base": "t_uint256",
        "encoding": "dynamic_array",
        "label": "uint256[]",
        "numberOfBytes": "32"
      },
      "t_bool": {
        "encoding": "inplace",
        "label": "bool",
        "numberOfBytes": "1"
      },
      "t_bytes32": {
        "encoding": "inplace",
        "label": "bytes32",
        "numberOfBytes": "32"
      },
      "t_mapping(t_address,t_array(t_bytes32)dyn_storage)": {
        "encoding": "mapping",
        "key": "t_address",
        "label": "mapping(address => bytes32[])",
        "numberOfBytes": "32",
        "value": "t_array(t_bytes32)dyn_storage"
      },
      "t_mapping(t_address,t_bool)": {
        "encoding": "mapping",
        "key": "t_address",
        "label": "mapping(address => bool)",
        "numberOfBytes": "32",
        "value": "t_bool"
      },
      "t_mapping(t_address,t_mapping(t_bytes32,t_uint256))": {
        "encoding": "mapping",
        "key": "t_address",
        "label": "mapping(address => mapping(bytes32 => uint256))",
        "numberOfBytes": "32",
        "value": "t_mapping(t_bytes32,t_uint256)"
      },
      "t_mapping(t_bytes32,t_array(t_uint256)8_storage)": {
        "encoding": "mapping",
        "key": "t_bytes32",
        "label": "mapping(bytes32 => uint256[8])",
        "numberOfBytes": "32",
        "value": "t_array(t_uint256)8_storage"
      },
      "t_mapping(t_bytes32,t_array(t_uint256)dyn_storage)": {
        "encoding": "mapping",
        "key": "t_bytes32",
        "label": "mapping(bytes32 => uint256[])",
        "numberOfBytes": "32",
        "value": "t_array(t_uint256)dyn_storage"
      },
      "t_mapping(t_bytes32,t_struct(RoleData)81_storage)": {
        "encoding": "mapping",
        "key": "t_bytes32",
        "label": "mapping(bytes32 => struct AccessControlUpgradeable.RoleData)",
        "numberOfBytes": "32",
        "value": "t_struct(RoleData)81_storage"
      },
      "t_mapping(t_bytes32,t_uint256)": {
        "encoding": "mapping",
        "key": "t_bytes32",
        "label": "mapping(bytes32 => uint256)",
        "numberOfBytes": "32",
        "value": "t_uint256"
      },
      "t_struct(Contribution)8870_storage": {
        "encoding": "inplace",
        "label": "struct Funding.Contribution",
        "members": [
          {
            "astId": 8859,
            "contract": "contracts/Funding.sol:Funding",
            "label": "investor",
            "offset": 0,
            "slot": "0",
            "type": "t_address"
          },
          {
            "astId": 8861,
            "contract": "contracts/Funding.sol:Funding",
            "label": "offerHash",
            "offset": 0,
            "slot": "1",
            "type": "t_bytes32"
          },
          {
            "astId": 8863,
            "contract": "contracts/Funding.sol:Funding",
            "label": "amount",
            "offset": 0,
            "slot": "2",
            "type": "t_uint256"
          },
          {
            "astId": 8865,
            "contract": "contracts/Funding.sol:Funding",
            "label": "filled",
            "offset": 0,
            "slot": "3",
            "type": "t_uint256"
          },
          {
            "astId": 8867,
            "contract": "contracts/Funding.sol:Funding",
            "label": "registeredAt",
            "offset": 0,
            "slot": "4",
            "type": "t_uint256"
          },
          {
            "astId": 8869,
            "contract": "contracts/Funding.sol:Funding",
            "label": "refundedAt",
            "offset": 0,
            "slot": "5",
            "type": "t_uint256"
          }
        ],
        "numberOfBytes": "192"
      },
      "t_struct(Counter)2404_storage": {
        "encoding": "inplace",
        "label": "struct CountersUpgradeable.Counter",
        "members": [
          {
            "astId": 2403,
            "contract": "contracts/Funding.sol:Funding",
            "label": "_value",
            "offset": 0,
            "slot": "0",
            "type": "t_uint256"
          }
        ],
        "numberOfBytes": "32"
      },
      "t_struct(RoleData)81_storage": {
        "encoding": "inplace",
        "label": "struct AccessControlUpgradeable.RoleData",
        "members": [
          {
            "astId": 78,
            "contract": "contracts/Funding.sol:Funding",
            "label": "members",
            "offset": 0,
            "slot": "0",
            "type": "t_mapping(t_address,t_bool)"
          },
          {
            "astId": 80,
            "contract": "contracts/Funding.sol:Funding",
            "label": "adminRole",
            "offset": 0,
            "slot": "1",
            "type": "t_bytes32"
          }
        ],
        "numberOfBytes": "64"
      },
      "t_uint256": {
        "encoding": "inplace",
        "label": "uint256",
        "numberOfBytes": "32"
      },
      "t_uint32": {
        "encoding": "inplace",
        "label": "uint32",
        "numberOfBytes": "4"
      }
    }
  }
}