{
  "address": "0x23CA1036bF1A1Cb53B71d7ae45354b1a5E718Da1",
  "abi": [
    {
      "anonymous": false,
      "inputs": [
        {
          "indexed": true,
          "internalType": "address",
          "name": "sender",
          "type": "address"
        },
        {
          "indexed": false,
          "internalType": "uint256",
          "name": "amount",
          "type": "uint256"
        }
      ],
      "name": "ReceivedEther",
      "type": "event"
    },
    {
      "anonymous": false,
      "inputs": [
        {
          "indexed": true,
          "internalType": "bytes32",
          "name": "role",
          "type": "bytes32"
        },
        {
          "indexed": true,
          "internalType": "bytes32",
          "name": "previousAdminRole",
          "type": "bytes32"
        },
        {
          "indexed": true,
          "internalType": "bytes32",
          "name": "newAdminRole",
          "type": "bytes32"
        }
      ],
      "name": "RoleAdminChanged",
      "type": "event"
    },
    {
      "anonymous": false,
      "inputs": [
        {
          "indexed": true,
          "internalType": "bytes32",
          "name": "role",
          "type": "bytes32"
        },
        {
          "indexed": true,
          "internalType": "address",
          "name": "account",
          "type": "address"
        },
        {
          "indexed": true,
          "internalType": "address",
          "name": "sender",
          "type": "address"
        }
      ],
      "name": "RoleGranted",
      "type": "event"
    },
    {
      "anonymous": false,
      "inputs": [
        {
          "indexed": true,
          "internalType": "bytes32",
          "name": "role",
          "type": "bytes32"
        },
        {
          "indexed": true,
          "internalType": "address",
          "name": "account",
          "type": "address"
        },
        {
          "indexed": true,
          "internalType": "address",
          "name": "sender",
          "type": "address"
        }
      ],
      "name": "RoleRevoked",
      "type": "event"
    },
    {
      "inputs": [],
      "name": "DEFAULT_ADMIN_ROLE",
      "outputs": [
        {
          "internalType": "bytes32",
          "name": "",
          "type": "bytes32"
        }
      ],
      "stateMutability": "view",
      "type": "function"
    },
    {
      "inputs": [],
      "name": "GOVERNOR_ROLE",
      "outputs": [
        {
          "internalType": "bytes32",
          "name": "",
          "type": "bytes32"
        }
      ],
      "stateMutability": "view",
      "type": "function"
    },
    {
      "inputs": [],
      "name": "ORCHESTRATOR_ROLE",
      "outputs": [
        {
          "internalType": "bytes32",
          "name": "",
          "type": "bytes32"
        }
      ],
      "stateMutability": "view",
      "type": "function"
    },
    {
      "inputs": [
        {
          "internalType": "address",
          "name": "",
          "type": "address"
        },
        {
          "internalType": "bytes32",
          "name": "",
          "type": "bytes32"
        }
      ],
      "name": "filledAmountByBeneficiaryAndHash",
      "outputs": [
        {
          "internalType": "uint256",
          "name": "",
          "type": "uint256"
        }
      ],
      "stateMutability": "view",
      "type": "function"
    },
    {
      "inputs": [
        {
          "internalType": "bytes32",
          "name": "role",
          "type": "bytes32"
        }
      ],
      "name": "getRoleAdmin",
      "outputs": [
        {
          "internalType": "bytes32",
          "name": "",
          "type": "bytes32"
        }
      ],
      "stateMutability": "view",
      "type": "function"
    },
    {
      "inputs": [
        {
          "internalType": "bytes32",
          "name": "role",
          "type": "bytes32"
        },
        {
          "internalType": "address",
          "name": "account",
          "type": "address"
        }
      ],
      "name": "grantRole",
      "outputs": [],
      "stateMutability": "nonpayable",
      "type": "function"
    },
    {
      "inputs": [
        {
          "internalType": "bytes32",
          "name": "role",
          "type": "bytes32"
        },
        {
          "internalType": "address",
          "name": "account",
          "type": "address"
        }
      ],
      "name": "hasRole",
      "outputs": [
        {
          "internalType": "bool",
          "name": "",
          "type": "bool"
        }
      ],
      "stateMutability": "view",
      "type": "function"
    },
    {
      "inputs": [
        {
          "internalType": "address",
          "name": "",
          "type": "address"
        },
        {
          "internalType": "uint256",
          "name": "",
          "type": "uint256"
        }
      ],
      "name": "hashesByBeneficiary",
      "outputs": [
        {
          "internalType": "bytes32",
          "name": "",
          "type": "bytes32"
        }
      ],
      "stateMutability": "view",
      "type": "function"
    },
    {
      "inputs": [
        {
          "internalType": "address",
          "name": "token",
          "type": "address"
        },
        {
          "internalType": "uint32",
          "name": "rewardRatio",
          "type": "uint32"
        }
      ],
      "name": "initialize",
      "outputs": [],
      "stateMutability": "nonpayable",
      "type": "function"
    },
    {
      "inputs": [
        {
          "internalType": "bytes32",
          "name": "",
          "type": "bytes32"
        },
        {
          "internalType": "uint256",
          "name": "",
          "type": "uint256"
        }
      ],
      "name": "investmentsByHash",
      "outputs": [
        {
          "internalType": "uint256",
          "name": "amount",
          "type": "uint256"
        },
        {
          "internalType": "uint256",
          "name": "time",
          "type": "uint256"
        }
      ],
      "stateMutability": "view",
      "type": "function"
    },
    {
      "inputs": [],
      "name": "name",
      "outputs": [
        {
          "internalType": "string",
          "name": "",
          "type": "string"
        }
      ],
      "stateMutability": "view",
      "type": "function"
    },
    {
      "inputs": [
        {
          "internalType": "bytes32",
          "name": "",
          "type": "bytes32"
        },
        {
          "internalType": "uint256",
          "name": "",
          "type": "uint256"
        }
      ],
      "name": "optionsByHash",
      "outputs": [
        {
          "internalType": "uint256",
          "name": "",
          "type": "uint256"
        }
      ],
      "stateMutability": "view",
      "type": "function"
    },
    {
      "inputs": [
        {
          "internalType": "uint256",
          "name": "filled",
          "type": "uint256"
        },
        {
          "internalType": "bytes32",
          "name": "hash",
          "type": "bytes32"
        },
        {
          "internalType": "uint256",
          "name": "requiredPayment",
          "type": "uint256"
        },
        {
          "internalType": "address",
          "name": "beneficiary",
          "type": "address"
        },
        {
          "internalType": "uint256[8]",
          "name": "fundingOptions",
          "type": "uint256[8]"
        }
      ],
      "name": "registerInvestment",
      "outputs": [],
      "stateMutability": "payable",
      "type": "function"
    },
    {
      "inputs": [],
      "name": "releaseAllToBeneficiary",
      "outputs": [],
      "stateMutability": "nonpayable",
      "type": "function"
    },
    {
      "inputs": [
        {
          "internalType": "address",
          "name": "",
          "type": "address"
        }
      ],
      "name": "releasedTimes",
      "outputs": [
        {
          "internalType": "uint256",
          "name": "",
          "type": "uint256"
        }
      ],
      "stateMutability": "view",
      "type": "function"
    },
    {
      "inputs": [
        {
          "internalType": "bytes32",
          "name": "role",
          "type": "bytes32"
        },
        {
          "internalType": "address",
          "name": "account",
          "type": "address"
        }
      ],
      "name": "renounceRole",
      "outputs": [],
      "stateMutability": "nonpayable",
      "type": "function"
    },
    {
      "inputs": [
        {
          "internalType": "bytes32",
          "name": "role",
          "type": "bytes32"
        },
        {
          "internalType": "address",
          "name": "account",
          "type": "address"
        }
      ],
      "name": "revokeRole",
      "outputs": [],
      "stateMutability": "nonpayable",
      "type": "function"
    },
    {
      "inputs": [
        {
          "internalType": "uint32",
          "name": "newRatio",
          "type": "uint32"
        }
      ],
      "name": "setRewardRatio",
      "outputs": [],
      "stateMutability": "nonpayable",
      "type": "function"
    },
    {
      "inputs": [
        {
          "internalType": "address",
          "name": "newAddress",
          "type": "address"
        }
      ],
      "name": "setToken",
      "outputs": [],
      "stateMutability": "nonpayable",
      "type": "function"
    },
    {
      "inputs": [
        {
          "internalType": "bytes4",
          "name": "interfaceId",
          "type": "bytes4"
        }
      ],
      "name": "supportsInterface",
      "outputs": [
        {
          "internalType": "bool",
          "name": "",
          "type": "bool"
        }
      ],
      "stateMutability": "view",
      "type": "function"
    },
    {
      "inputs": [],
      "name": "version",
      "outputs": [
        {
          "internalType": "string",
          "name": "",
          "type": "string"
        }
      ],
      "stateMutability": "view",
      "type": "function"
    },
    {
      "stateMutability": "payable",
      "type": "receive"
    }
  ],
  "transactionHash": "0xe8fea28ceadbe32375dd8df7d2349feae3b5a7cb2d5e078bd5ac6ef22cc27bf2",
  "args": [],
  "solcInputHash": "f5713f5d686538ee46e85b464f0d53ec",
  "bytecode": "0x608060405234801561001057600080fd5b506131cf806100206000396000f3fe6080604052600436106100fe5760003560e01c806301ffc9a71461013f57806306fdde031461017457806309e0a34f146101ca578063144fa6d7146101fa578063248a9ca31461021c5780632f2ff15d1461023c57806336568abe1461025c57806354fd4d501461027c578063574c911b146102ab5780635cd16d4b146102c05780636f4d067f146102e0578063851f7c4b14610319578063881f57c91461032c57806391d148541461035a578063a217fddf1461037a578063b1f40d0b1461038f578063c5e4c9f9146103c4578063ccc57490146103e4578063d05ed88f14610406578063d547741f14610426578063dbf6ad81146104465761013a565b3661013a5760405134815233907fa419615bc8fda4c87663805ee2a3597a6d71c1d476911d9892f340d965bc7bf19060200160405180910390a2005b600080fd5b34801561014b57600080fd5b5061015f61015a366004612cf7565b610466565b60405190151581526020015b60405180910390f35b34801561018057600080fd5b506101bd6040518060400160405280601e81526020017f466c6169722e46696e616e63652046756e64696e6720436f6e7472616374000081525081565b60405161016b9190612e7a565b3480156101d657600080fd5b506101ec60008051602061317a83398151915281565b60405190815260200161016b565b34801561020657600080fd5b5061021a610215366004612c15565b61049f565b005b34801561022857600080fd5b506101ec610237366004612c9c565b6104ff565b34801561024857600080fd5b5061021a610257366004612cb4565b610514565b34801561026857600080fd5b5061021a610277366004612cb4565b610537565b34801561028857600080fd5b506101bd60405180604001604052806003815260200162302e3160e81b81525081565b3480156102b757600080fd5b5061021a6105b5565b3480156102cc57600080fd5b506101ec6102db366004612c58565b61088c565b3480156102ec57600080fd5b506101ec6102fb366004612c2f565b6101cc60209081526000928352604080842090915290825290205481565b61021a610327366004612d1f565b6108be565b34801561033857600080fd5b506101ec610347366004612c15565b6101d06020526000908152604090205481565b34801561036657600080fd5b5061015f610375366004612cb4565b610a16565b34801561038657600080fd5b506101ec600081565b34801561039b57600080fd5b506103af6103aa366004612cd6565b610a41565b6040805192835260208301919091520161016b565b3480156103d057600080fd5b5061021a6103df366004612c6a565b610a7e565b3480156103f057600080fd5b506101ec60008051602061315a83398151915281565b34801561041257600080fd5b506101ec610421366004612cd6565b610b5e565b34801561043257600080fd5b5061021a610441366004612cb4565b610b84565b34801561045257600080fd5b5061021a610461366004612dd5565b610ba1565b60006001600160e01b03198216637965db0b60e01b148061049757506301ffc9a760e01b6001600160e01b03198316145b90505b919050565b6104b760008051602061315a83398151915233610375565b6104dc5760405162461bcd60e51b81526004016104d390612f90565b60405180910390fd5b6101c980546001600160a01b0319166001600160a01b0392909216919091179055565b60009081526097602052604090206001015490565b61051d826104ff565b61052881335b610bfc565b6105328383610c60565b505050565b6001600160a01b03811633146105a75760405162461bcd60e51b815260206004820152602f60248201527f416363657373436f6e74726f6c3a2063616e206f6e6c792072656e6f756e636560448201526e103937b632b9903337b91039b2b63360891b60648201526084016104d3565b6105b18282610ce6565b5050565b600260335414156106085760405162461bcd60e51b815260206004820152601f60248201527f5265656e7472616e637947756172643a207265656e7472616e742063616c6c0060448201526064016104d3565b60026033553360008181526101d060205260409020544261062b610e108261304e565b8211156106715760405162461bcd60e51b815260206004820152601460248201527311955391125391cbd213d554931657d31253525560621b60448201526064016104d3565b6000805b6001600160a01b03851660009081526101ce6020526040902054811015610803576001600160a01b03851660009081526101ce602052604081208054839081106106cf57634e487b7160e01b600052603260045260246000fd5b9060005260206000200154905060005b60008281526101cf60205260409020548110156107ee5760008281526101cf60205260409020805461075e91908390811061072a57634e487b7160e01b600052603260045260246000fd5b9060005260206000209060020201604051806040016040529081600082015481526020016001820154815250508784610d4d565b60008381526101cf6020526040902080546107c691908490811061079257634e487b7160e01b600052603260045260246000fd5b9060005260206000209060020201604051806040016040529081600082015481526020016001820154815250508785610d4d565b6107d0919061304e565b6107da9085612fbc565b9350806107e6816130e8565b9150506106df565b505080806107fb906130e8565b915050610675565b50600081116108515760405162461bcd60e51b815260206004820152601a60248201527946554e44494e472f4e4f5448494e475f544f5f52454c4541534560301b60448201526064016104d3565b6001600160a01b03841660008181526101d0602052604090208390556108779082610ebb565b6108818482610fd1565b505060016033555050565b6101ce60205281600052604060002081815481106108a957600080fd5b90600052602060002001600091509150505481565b6108d660008051602061317a83398151915233610375565b61091d5760405162461bcd60e51b8152602060048201526018602482015277232aa72224a72397a727aa2fa7a921a422a9aa2920aa27a960411b60448201526064016104d3565b6001600160a01b03821660009081526101cc6020908152604080832087845290915290205460011115610991576001600160a01b03821660009081526101ce602090815260408083208054600181018255908452828420018790558683526101cd909152902061098f90826008612b97565b505b6001600160a01b03821660009081526101cc60209081526040808320878452909152812080548792906109c5908490612fbc565b909155505050600092835250506101cf602090815260408083208151808301909252348252428284019081528154600181810184559286529390942091516002909302909101918255915191015550565b60009182526097602090815260408084206001600160a01b0393909316845291905290205460ff1690565b6101cf6020528160005260406000208181548110610a5e57600080fd5b600091825260209091206002909102018054600190910154909250905082565b600054610100900460ff1680610a97575060005460ff16155b610ab35760405162461bcd60e51b81526004016104d390612f0e565b600054610100900460ff16158015610ad5576000805461ffff19166101011790555b610add611118565b610ae96000335b61118c565b610b0160008051602061315a83398151915233610ae4565b6101c9805463ffffffff8416600160a01b026001600160c01b03199091166001600160a01b03861617179055670de0b6b3a76400006101ca55683635c9adc5dea000006101cb558015610532576000805461ff0019169055505050565b6101cd6020528160005260406000208160088110610b7b57600080fd5b01549150829050565b610b8d826104ff565b610b978133610523565b6105328383610ce6565b610bb960008051602061315a83398151915233610375565b610bd55760405162461bcd60e51b81526004016104d390612f90565b6101c9805463ffffffff909216600160a01b0263ffffffff60a01b19909216919091179055565b610c068282610a16565b6105b157610c1e816001600160a01b03166014611196565b610c29836020611196565b604051602001610c3a929190612e0b565b60408051601f198184030181529082905262461bcd60e51b82526104d391600401612e7a565b610c6a8282610a16565b6105b15760008281526097602090815260408083206001600160a01b03851684529091529020805460ff19166001179055610ca23390565b6001600160a01b0316816001600160a01b0316837f2f8788117e7eff1d82e926ec794901d17c78024a50270940304540a733656f0d60405160405180910390a45050565b610cf08282610a16565b156105b15760008281526097602090815260408083206001600160a01b0385168085529252808320805460ff1916905551339285917ff6391f5c32d9c69d2a47ea670b442974b53935d1edc7fd64eb21e047a839171b9190a45050565b60008181526101cd60205260408082208151610100810192839052839290919060089082845b815481526020019060010190808311610d7357505050505090508460200151841015610da3576000915050610eb4565b8051600090610db3576000610dc1565b81518651610dc19190611377565b90508082600160200201518760200151610ddb9190612fbc565b861015610dec579250610eb4915050565b6040830151600090610dff576000610e11565b610e1184600260200201518951611377565b9050610e1d8183612fbc565b60608501518951919350906000908390610e3890879061304e565b610e42919061304e565b9050600086600160200201518b60200151610e5d9190612fbc565b905060008a8211610e7757610e72828c61304e565b610e7a565b60005b905083811115610e875750825b6000610e9c85858b6004602002015185611390565b9050610ea88188612fbc565b99505050505050505050505b9392505050565b80471015610f0b5760405162461bcd60e51b815260206004820152601d60248201527f416464726573733a20696e73756666696369656e742062616c616e636500000060448201526064016104d3565b6000826001600160a01b03168260405160006040518083038185875af1925050503d8060008114610f58576040519150601f19603f3d011682016040523d82523d6000602084013e610f5d565b606091505b50509050806105325760405162461bcd60e51b815260206004820152603a60248201527f416464726573733a20756e61626c6520746f2073656e642076616c75652c20726044820152791958da5c1a595b9d081b585e481a185d99481c995d995c9d195960321b60648201526084016104d3565b6000610ff86101cb546101ca546101c960149054906101000a900463ffffffff16856114f8565b9050806101cb600082825461100d9190612fbc565b92505081905550816101ca60008282546110279190612fbc565b90915550506101c9546040516001600160a01b03858116602483015260448201849052600092169060640160408051601f198184030181529181526020820180516001600160e01b03166340c10f1960e01b179052516110879190612def565b6000604051808303816000865af19150503d80600081146110c4576040519150601f19603f3d011682016040523d82523d6000602084013e6110c9565b606091505b50509050806111125760405162461bcd60e51b815260206004820152601560248201527411955391125391cbd49155d0549117d19052531151605a1b60448201526064016104d3565b50505050565b600054610100900460ff1680611131575060005460ff16155b61114d5760405162461bcd60e51b81526004016104d390612f0e565b600054610100900460ff1615801561116f576000805461ffff19166101011790555b6111776115ec565b8015611189576000805461ff00191690555b50565b6105b18282610c60565b606060006111a583600261302f565b6111b0906002612fbc565b6001600160401b038111156111d557634e487b7160e01b600052604160045260246000fd5b6040519080825280601f01601f1916602001820160405280156111ff576020820181803683370190505b509050600360fc1b8160008151811061122857634e487b7160e01b600052603260045260246000fd5b60200101906001600160f81b031916908160001a905350600f60fb1b8160018151811061126557634e487b7160e01b600052603260045260246000fd5b60200101906001600160f81b031916908160001a905350600061128984600261302f565b611294906001612fbc565b90505b6001811115611328576f181899199a1a9b1b9c1cb0b131b232b360811b85600f16601081106112d657634e487b7160e01b600052603260045260246000fd5b1a60f81b8282815181106112fa57634e487b7160e01b600052603260045260246000fd5b60200101906001600160f81b031916908160001a90535060049490941c93611321816130b4565b9050611297565b508315610eb45760405162461bcd60e51b815260206004820181905260248201527f537472696e67733a20686578206c656e67746820696e73756666696369656e7460448201526064016104d3565b6000612710611386838561302f565b610eb49190612ff9565b60008085116113b15760405162461bcd60e51b81526004016104d390612ee2565b600084116113d15760405162461bcd60e51b81526004016104d390612ead565b60008363ffffffff161180156113f05750620f424063ffffffff841611155b61140c5760405162461bcd60e51b81526004016104d390612f5c565b848211156114515760405162461bcd60e51b815260206004820152601260248201527111549497d253959053125117d05353d5539560721b60448201526064016104d3565b8161145e575060006114f0565b8482141561146d5750826114f0565b63ffffffff8316620f4240141561149a5784611489858461165c565b6114939190612ff9565b90506114f0565b600080806114a8858961304e565b90506114b98882620f424089611668565b909350915060006114ca888561165c565b905060ff831688901b846114de828461304e565b6114e89190612ff9565b955050505050505b949350505050565b60008085116115195760405162461bcd60e51b81526004016104d390612ee2565b600084116115395760405162461bcd60e51b81526004016104d390612ead565b60008363ffffffff161180156115585750620f424063ffffffff841611155b6115745760405162461bcd60e51b81526004016104d390612f5c565b81611581575060006114f0565b63ffffffff8316620f4240141561159d5783611489868461165c565b600080806115ab8588611755565b90506115bc818888620f4240611668565b9093509150600060ff83166115d18a8661165c565b901c90506115df898261304e565b9998505050505050505050565b600054610100900460ff1680611605575060005460ff16155b6116215760405162461bcd60e51b81526004016104d390612f0e565b600054610100900460ff16158015611643576000805461ffff19166101011790555b60016033558015611189576000805461ff001916905550565b6000610eb4828461302f565b600080600160811b861061167b57600080fd5b6000808661168d6001607f1b8a61302f565b6116979190612ff9565b905070015bf0a8b1457695355fb8ac404e7a79e38110156116c2576116bb81611761565b91506116ce565b6116cb81611cda565b91505b60008563ffffffff168763ffffffff16846116e9919061302f565b6116f39190612ff9565b9050600160831b8110156117185761170a81611dbe565b607f9450945050505061174c565b6000611723826123e9565b905061173f61173382607f613065565b60ff1683901c826124c9565b9550935061174c92505050565b94509492505050565b6000610eb48284612fbc565b6000808080806fd3094c70f034de4b96ff7d5b6f99fcd886106117ba5761178c6001607e1b85612fbc565b93506fd3094c70f034de4b96ff7d5b6f99fcd86117ad6001607f1b8861302f565b6117b79190612ff9565b95505b6fa45af1e1f40c333b3de1db4dd55f29a7861061180d576117df6001607d1b85612fbc565b93506fa45af1e1f40c333b3de1db4dd55f29a76118006001607f1b8861302f565b61180a9190612ff9565b95505b6f910b022db7ae67ce76b441c27035c6a18610611860576118326001607c1b85612fbc565b93506f910b022db7ae67ce76b441c27035c6a16118536001607f1b8861302f565b61185d9190612ff9565b95505b6f88415abbe9a76bead8d00cf112e4d4a886106118b3576118856001607b1b85612fbc565b93506f88415abbe9a76bead8d00cf112e4d4a86118a66001607f1b8861302f565b6118b09190612ff9565b95505b6f84102b00893f64c705e841d5d4064bd38610611906576118d86001607a1b85612fbc565b93506f84102b00893f64c705e841d5d4064bd36118f96001607f1b8861302f565b6119039190612ff9565b95505b6f8204055aaef1c8bd5c3259f4822735a286106119595761192b600160791b85612fbc565b93506f8204055aaef1c8bd5c3259f4822735a261194c6001607f1b8861302f565b6119569190612ff9565b95505b6f810100ab00222d861931c15e39b44e9986106119ac5761197e600160781b85612fbc565b93506f810100ab00222d861931c15e39b44e9961199f6001607f1b8861302f565b6119a99190612ff9565b95505b6f808040155aabbbe9451521693554f73386106119ff576119d1600160771b85612fbc565b93506f808040155aabbbe9451521693554f7336119f26001607f1b8861302f565b6119fc9190612ff9565b95505b611a0d6001607f1b8761304e565b92508291506001607f1b611a21838061302f565b611a2b9190612ff9565b9050600160801b611a3c848261304e565b611a46908461302f565b611a509190612ff9565b611a5a9085612fbc565b93506001607f1b611a6b828461302f565b611a759190612ff9565b9150600160811b611a96846faaaaaaaaaaaaaaaaaaaaaaaaaaaaaaaa61304e565b611aa0908461302f565b611aaa9190612ff9565b611ab49085612fbc565b93506001607f1b611ac5828461302f565b611acf9190612ff9565b9150600360801b611af0846f9999999999999999999999999999999961304e565b611afa908461302f565b611b049190612ff9565b611b0e9085612fbc565b93506001607f1b611b1f828461302f565b611b299190612ff9565b9150600160821b611b4a846f9249249249249249249249249249249261304e565b611b54908461302f565b611b5e9190612ff9565b611b689085612fbc565b93506001607f1b611b79828461302f565b611b839190612ff9565b9150600560801b611ba4846f8e38e38e38e38e38e38e38e38e38e38e61304e565b611bae908461302f565b611bb89190612ff9565b611bc29085612fbc565b93506001607f1b611bd3828461302f565b611bdd9190612ff9565b9150600360811b611bfe846f8ba2e8ba2e8ba2e8ba2e8ba2e8ba2e8b61304e565b611c08908461302f565b611c129190612ff9565b611c1c9085612fbc565b93506001607f1b611c2d828461302f565b611c379190612ff9565b9150600760801b611c58846f89d89d89d89d89d89d89d89d89d89d8961304e565b611c62908461302f565b611c6c9190612ff9565b611c769085612fbc565b93506001607f1b611c87828461302f565b611c919190612ff9565b9150600160831b611cb2846f8888888888888888888888888888888861304e565b611cbc908461302f565b611cc69190612ff9565b611cd09085612fbc565b9695505050505050565b600080600160801b8310611d1e576000611d00611cfb6001607f1b86612ff9565b612b2b565b60ff811694851c94909150611d1a906001607f1b9061302f565b9150505b6001607f1b831115611d9357607f5b60ff811615611d91576001607f1b611d45858061302f565b611d4f9190612ff9565b9350600160801b8410611d8157600193841c93611d6c9082613065565b60ff166001901b82611d7e9190612fbc565b91505b611d8a816130cb565b9050611d2d565b505b6f05b9de1d10bf4103d647b0955897ba806113866f03f80fe03f80fe03f80fe03f80fe03f88361302f565b6000808080611dd16001607c1b86613103565b91508190506001607f1b611de5828061302f565b611def9190612ff9565b9050611e03816710e1b3be415a000061302f565b611e0d9084612fbc565b92506001607f1b611e1e838361302f565b611e289190612ff9565b9050611e3c816705a0913f6b1e000061302f565b611e469084612fbc565b92506001607f1b611e57838361302f565b611e619190612ff9565b9050611e7581670168244fdac7800061302f565b611e7f9084612fbc565b92506001607f1b611e90838361302f565b611e9a9190612ff9565b9050611ead81664807432bc1800061302f565b611eb79084612fbc565b92506001607f1b611ec8838361302f565b611ed29190612ff9565b9050611ee581660c0135dca0400061302f565b611eef9084612fbc565b92506001607f1b611f00838361302f565b611f0a9190612ff9565b9050611f1d816601b707b1cdc00061302f565b611f279084612fbc565b92506001607f1b611f38838361302f565b611f429190612ff9565b9050611f54816536e0f639b80061302f565b611f5e9084612fbc565b92506001607f1b611f6f838361302f565b611f799190612ff9565b9050611f8b81650618fee9f80061302f565b611f959084612fbc565b92506001607f1b611fa6838361302f565b611fb09190612ff9565b9050611fc181649c197dcc0061302f565b611fcb9084612fbc565b92506001607f1b611fdc838361302f565b611fe69190612ff9565b9050611ff781640e30dce40061302f565b6120019084612fbc565b92506001607f1b612012838361302f565b61201c9190612ff9565b905061202d8164012ebd130061302f565b6120379084612fbc565b92506001607f1b612048838361302f565b6120529190612ff9565b9050612062816317499f0061302f565b61206c9084612fbc565b92506001607f1b61207d838361302f565b6120879190612ff9565b9050612097816301a9d48061302f565b6120a19084612fbc565b92506001607f1b6120b2838361302f565b6120bc9190612ff9565b90506120cb81621c638061302f565b6120d59084612fbc565b92506001607f1b6120e6838361302f565b6120f09190612ff9565b90506120ff816201c63861302f565b6121099084612fbc565b92506001607f1b61211a838361302f565b6121249190612ff9565b905061213281611ab861302f565b61213c9084612fbc565b92506001607f1b61214d838361302f565b6121579190612ff9565b90506121658161017c61302f565b61216f9084612fbc565b92506001607f1b612180838361302f565b61218a9190612ff9565b905061219781601461302f565b6121a19084612fbc565b92506001607f1b6121b2838361302f565b6121bc9190612ff9565b90506121c981600161302f565b6121d39084612fbc565b92506001607f1b826121ed6721c3677c82b4000086612ff9565b6121f79190612fbc565b6122019190612fbc565b92506001607c1b8516156122495770018ebef9eac820ae8682b9793ac6d1e77661223c847001c3d6a24ed82218787d624d3e5eba95f961302f565b6122469190612ff9565b92505b6001607d1b85161561228f577001368b2fc6f9609fe7aceb46aa619baed46122828470018ebef9eac820ae8682b9793ac6d1e77861302f565b61228c9190612ff9565b92505b6001607e1b8516156122d4576fbc5ab1b16779be3575bd8f0520a9f21f6122c7847001368b2fc6f9609fe7aceb46aa619baed561302f565b6122d19190612ff9565b92505b6001607f1b851615612318576f454aaa8efe072e7f6ddbab84b40a55c961230b846fbc5ab1b16779be3575bd8f0520a9f21e61302f565b6123159190612ff9565b92505b600160801b85161561235c576f0960aadc109e7a3bf4578099615711ea61234f846f454aaa8efe072e7f6ddbab84b40a55c561302f565b6123599190612ff9565b92505b600160811b85161561239f576e2bf84208204f5977f9a8cf01fdce3d612392846f0960aadc109e7a3bf4578099615711d761302f565b61239c9190612ff9565b92505b600160821b8516156123e0576d03c6ab775dd0b95b4cbee7e65d116123d3846e2bf84208204f5977f9a8cf01fdc30761302f565b6123dd9190612ff9565b92505b50909392505050565b60006020607f5b60ff81166123ff836001612fd4565b60ff16101561246057600060026124168385612fd4565b612420919061300d565b90508460c98260ff166080811061244757634e487b7160e01b600052603260045260246000fd5b0154106124565780925061245a565b8091505b506123f0565b8360c98260ff166080811061248557634e487b7160e01b600052603260045260246000fd5b01541061249557915061049a9050565b8360c98360ff16608081106124ba57634e487b7160e01b600052603260045260246000fd5b01541061013a5750905061049a565b6000828160ff84166124db838061302f565b901c91506124f8826b0d10b13981d2a0bc5e5fdcab601e1b61302f565b6125029082612fbc565b905060ff8416612512868461302f565b901c915061252f826b045ae5bdd5f0e03eca1ff439601e1b61302f565b6125399082612fbc565b905060ff8416612549868461302f565b901c9150612566826e45ae5bdd5f0e03eca1ff439000000061302f565b6125709082612fbc565b905060ff8416612580868461302f565b901c915061259c826adefabf91302cd95b9ffda5601c1b61302f565b6125a69082612fbc565b905060ff84166125b6868461302f565b901c91506125d2826a4a53953065644873dfff37601b1b61302f565b6125dc9082612fbc565b905060ff84166125ec868461302f565b901c9150612608826d54f1cf12bd04e516b6da8800000061302f565b6126129082612fbc565b905060ff8416612622868461302f565b901c915061263e826d0a9e39e257a09ca2d6db5100000061302f565b6126489082612fbc565b905060ff8416612658868461302f565b901c9150612674826d012e066e7b839fa050c30900000061302f565b61267e9082612fbc565b905060ff841661268e868461302f565b901c91506126a9826c1e33d7d926c329a1ad1a80000061302f565b6126b39082612fbc565b905060ff84166126c3868461302f565b901c91506126de826c02bee513bdb4a6b19b5f80000061302f565b6126e89082612fbc565b905060ff84166126f8868461302f565b901c9150612712826b3a9316fa79b88eccf2a0000061302f565b61271c9082612fbc565b905060ff841661272c868461302f565b901c9150612746826b048177ebe1fa81237520000061302f565b6127509082612fbc565b905060ff8416612760868461302f565b901c9150612779826a5263fe90242dcbacf0000061302f565b6127839082612fbc565b905060ff8416612793868461302f565b901c91506127ac826a057e22099c030d9410000061302f565b6127b69082612fbc565b905060ff84166127c6868461302f565b901c91506127de826957e22099c030d941000061302f565b6127e89082612fbc565b905060ff84166127f8868461302f565b901c91506128108269052b6b5456997631000061302f565b61281a9082612fbc565b905060ff841661282a868461302f565b901c915061284182684985f67696bf74800061302f565b61284b9082612fbc565b905060ff841661285b868461302f565b901c9150612872826803dea12ea99e49800061302f565b61287c9082612fbc565b905060ff841661288c868461302f565b901c91506128a2826731880f2214b6e00061302f565b6128ac9082612fbc565b905060ff84166128bc868461302f565b901c91506128d28267025bcff56eb3600061302f565b6128dc9082612fbc565b905060ff84166128ec868461302f565b901c915061290182661b722e10ab100061302f565b61290b9082612fbc565b905060ff841661291b868461302f565b901c9150612930826601317c7007700061302f565b61293a9082612fbc565b905060ff841661294a868461302f565b901c915061295e82650cba84aafa0061302f565b6129689082612fbc565b905060ff8416612978868461302f565b901c915061298b826482573a0a0061302f565b6129959082612fbc565b905060ff84166129a5868461302f565b901c91506129b8826405035ad90061302f565b6129c29082612fbc565b905060ff84166129d2868461302f565b901c91506129e482632f881b0061302f565b6129ee9082612fbc565b905060ff84166129fe868461302f565b901c9150612a10826301b2934061302f565b612a1a9082612fbc565b905060ff8416612a2a868461302f565b901c9150612a3b82620efc4061302f565b612a459082612fbc565b905060ff8416612a55868461302f565b901c9150612a6582617fe061302f565b612a6f9082612fbc565b905060ff8416612a7f868461302f565b901c9150612a8f8261042061302f565b612a999082612fbc565b905060ff8416612aa9868461302f565b901c9150612ab882602161302f565b612ac29082612fbc565b905060ff8416612ad2868461302f565b901c9150612ae182600161302f565b612aeb9082612fbc565b9050600160ff85161b85612b0e6b0d10b13981d2a0bc5e5fdcab601f1b84612ff9565b612b189190612fbc565b612b229190612fbc565b95945050505050565b600080610100831015612b5e575b6001831115612b5957600192831c92612b529082612fd4565b9050612b39565b610497565b60805b60ff811615612b9057600160ff82161b8410612b855760ff81169390931c92908117905b60011c607f16612b61565b5092915050565b8260088101928215612bc5579160200282015b82811115612bc5578251825591602001919060010190612baa565b50612bd1929150612bd5565b5090565b5b80821115612bd15760008155600101612bd6565b80356001600160a01b038116811461049a57600080fd5b803563ffffffff8116811461049a57600080fd5b600060208284031215612c26578081fd5b610eb482612bea565b60008060408385031215612c41578081fd5b612c4a83612bea565b946020939093013593505050565b60008060408385031215612c41578182fd5b60008060408385031215612c7c578182fd5b612c8583612bea565b9150612c9360208401612c01565b90509250929050565b600060208284031215612cad578081fd5b5035919050565b60008060408385031215612cc6578182fd5b82359150612c9360208401612bea565b60008060408385031215612ce8578182fd5b50508035926020909101359150565b600060208284031215612d08578081fd5b81356001600160e01b031981168114610eb4578182fd5b6000806000806000610180808789031215612d38578182fd5b86359550602080880135955060408801359450612d5760608901612bea565b935088609f890112612d67578283fd5b60405161010081016001600160401b0381118282101715612d8a57612d8a613143565b6040528060808a01848b018c1015612da0578586fd5b8594505b6008851015612dc3578035825260019490940193908301908301612da4565b50508093505050509295509295909350565b600060208284031215612de6578081fd5b610eb482612c01565b60008251612e01818460208701613088565b9190910192915050565b600076020b1b1b2b9b9a1b7b73a3937b61d1030b1b1b7bab73a1604d1b82528351612e3d816017850160208801613088565b7001034b99036b4b9b9b4b733903937b6329607d1b6017918401918201528351612e6e816028840160208801613088565b01602801949350505050565b6000602082528251806020840152612e99816040850160208701613088565b601f01601f19169190910160400192915050565b6020808252601b908201527a4552525f494e56414c49445f524553455256455f42414c414e434560281b604082015260600190565b6020808252601290820152714552525f494e56414c49445f535550504c5960701b604082015260600190565b6020808252602e908201527f496e697469616c697a61626c653a20636f6e747261637420697320616c72656160408201526d191e481a5b9a5d1a585b1a5e995960921b606082015260800190565b6020808252601a908201527911549497d253959053125117d49154d154959157d5d15251d21560321b604082015260600190565b6020808252601290820152712a27a5a2a717a727aa2fa3a7ab22a92727a960711b604082015260600190565b60008219821115612fcf57612fcf613117565b500190565b600060ff821660ff84168060ff03821115612ff157612ff1613117565b019392505050565b6000826130085761300861312d565b500490565b600060ff8316806130205761302061312d565b8060ff84160491505092915050565b600081600019048311821515161561304957613049613117565b500290565b60008282101561306057613060613117565b500390565b600060ff821660ff84168082101561307f5761307f613117565b90039392505050565b60005b838110156130a357818101518382015260200161308b565b838111156111125750506000910152565b6000816130c3576130c3613117565b506000190190565b600060ff8216806130de576130de613117565b6000190192915050565b60006000198214156130fc576130fc613117565b5060010190565b6000826131125761311261312d565b500690565b634e487b7160e01b600052601160045260246000fd5b634e487b7160e01b600052601260045260246000fd5b634e487b7160e01b600052604160045260246000fdfe7935bd0ae54bc31f548c14dba4d37c5c64b3f8ca900cb468fb8abd54d5894f55e098e2e7d2d4d3ca0e3877ceaaf3cdfbd47483f6699688ad12b1d6732deef10ba26469706673582212209b4b3e276b1159263137636e021d9d565017aa6e8ae75b2ea15299937059e3a664736f6c63430008030033",
  "devdoc": {
    "kind": "dev",
    "methods": {
      "getRoleAdmin(bytes32)": {
        "details": "Returns the admin role that controls `role`. See {grantRole} and {revokeRole}. To change a role's admin, use {_setRoleAdmin}."
      },
      "grantRole(bytes32,address)": {
        "details": "Grants `role` to `account`. If `account` had not been already granted `role`, emits a {RoleGranted} event. Requirements: - the caller must have ``role``'s admin role."
      },
      "hasRole(bytes32,address)": {
        "details": "Returns `true` if `account` has been granted `role`."
      },
      "renounceRole(bytes32,address)": {
        "details": "Revokes `role` from the calling account. Roles are often managed via {grantRole} and {revokeRole}: this function's purpose is to provide a mechanism for accounts to lose their privileges if they are compromised (such as when a trusted device is misplaced). If the calling account had been granted `role`, emits a {RoleRevoked} event. Requirements: - the caller must be `account`."
      },
      "revokeRole(bytes32,address)": {
        "details": "Revokes `role` from `account`. If `account` had been granted `role`, emits a {RoleRevoked} event. Requirements: - the caller must have ``role``'s admin role."
      },
      "supportsInterface(bytes4)": {
        "details": "See {IERC165-supportsInterface}."
      }
    },
    "version": 1
  },
  "userdoc": {
    "kind": "user",
    "methods": {},
    "version": 1
  },
  "storageLayout": {
    "storage": [
      {
        "astId": 401,
        "contract": "contracts/Funding.sol:Funding",
        "label": "_initialized",
        "offset": 0,
        "slot": "0",
        "type": "t_bool"
      },
      {
        "astId": 404,
        "contract": "contracts/Funding.sol:Funding",
        "label": "_initializing",
        "offset": 1,
        "slot": "0",
        "type": "t_bool"
      },
      {
        "astId": 2351,
        "contract": "contracts/Funding.sol:Funding",
        "label": "__gap",
        "offset": 0,
        "slot": "1",
        "type": "t_array(t_uint256)50_storage"
      },
      {
        "astId": 568,
        "contract": "contracts/Funding.sol:Funding",
        "label": "_status",
        "offset": 0,
        "slot": "51",
        "type": "t_uint256"
      },
      {
        "astId": 611,
        "contract": "contracts/Funding.sol:Funding",
        "label": "__gap",
        "offset": 0,
        "slot": "52",
        "type": "t_array(t_uint256)49_storage"
      },
      {
        "astId": 2954,
        "contract": "contracts/Funding.sol:Funding",
        "label": "__gap",
        "offset": 0,
        "slot": "101",
        "type": "t_array(t_uint256)50_storage"
      },
      {
        "astId": 86,
        "contract": "contracts/Funding.sol:Funding",
        "label": "_roles",
        "offset": 0,
        "slot": "151",
        "type": "t_mapping(t_bytes32,t_struct(RoleData)81_storage)"
      },
      {
        "astId": 394,
        "contract": "contracts/Funding.sol:Funding",
        "label": "__gap",
        "offset": 0,
        "slot": "152",
        "type": "t_array(t_uint256)49_storage"
      },
      {
        "astId": 9552,
        "contract": "contracts/Funding.sol:Funding",
        "label": "maxExpArray",
        "offset": 0,
        "slot": "201",
        "type": "t_array(t_uint256)128_storage"
      },
      {
        "astId": 10136,
        "contract": "contracts/Funding.sol:Funding",
        "label": "lambertArray",
        "offset": 0,
        "slot": "329",
        "type": "t_array(t_uint256)128_storage"
      },
      {
        "astId": 6896,
        "contract": "contracts/Funding.sol:Funding",
        "label": "_token",
        "offset": 0,
        "slot": "457",
        "type": "t_address"
      },
      {
        "astId": 6898,
        "contract": "contracts/Funding.sol:Funding",
        "label": "_rewardRatio",
        "offset": 20,
        "slot": "457",
        "type": "t_uint32"
      },
      {
        "astId": 6900,
        "contract": "contracts/Funding.sol:Funding",
        "label": "_totalContribution",
        "offset": 0,
        "slot": "458",
        "type": "t_uint256"
      },
      {
        "astId": 6902,
        "contract": "contracts/Funding.sol:Funding",
        "label": "_totalRewarded",
        "offset": 0,
        "slot": "459",
        "type": "t_uint256"
      },
      {
        "astId": 6908,
        "contract": "contracts/Funding.sol:Funding",
        "label": "filledAmountByBeneficiaryAndHash",
        "offset": 0,
        "slot": "460",
        "type": "t_mapping(t_address,t_mapping(t_bytes32,t_uint256))"
      },
      {
        "astId": 6914,
        "contract": "contracts/Funding.sol:Funding",
        "label": "optionsByHash",
        "offset": 0,
        "slot": "461",
        "type": "t_mapping(t_bytes32,t_array(t_uint256)8_storage)"
      },
      {
        "astId": 6919,
        "contract": "contracts/Funding.sol:Funding",
        "label": "hashesByBeneficiary",
        "offset": 0,
        "slot": "462",
        "type": "t_mapping(t_address,t_array(t_bytes32)dyn_storage)"
      },
      {
        "astId": 6925,
        "contract": "contracts/Funding.sol:Funding",
        "label": "investmentsByHash",
        "offset": 0,
        "slot": "463",
        "type": "t_mapping(t_bytes32,t_array(t_struct(Investment)6891_storage)dyn_storage)"
      },
      {
        "astId": 6929,
        "contract": "contracts/Funding.sol:Funding",
        "label": "releasedTimes",
        "offset": 0,
        "slot": "464",
        "type": "t_mapping(t_address,t_uint256)"
      }
    ],
    "types": {
      "t_address": {
        "encoding": "inplace",
        "label": "address",
        "numberOfBytes": "20"
      },
      "t_array(t_bytes32)dyn_storage": {
        "base": "t_bytes32",
        "encoding": "dynamic_array",
        "label": "bytes32[]",
        "numberOfBytes": "32"
      },
      "t_array(t_struct(Investment)6891_storage)dyn_storage": {
        "base": "t_struct(Investment)6891_storage",
        "encoding": "dynamic_array",
        "label": "struct Funding.Investment[]",
        "numberOfBytes": "32"
      },
      "t_array(t_uint256)128_storage": {
        "base": "t_uint256",
        "encoding": "inplace",
        "label": "uint256[128]",
        "numberOfBytes": "4096"
      },
      "t_array(t_uint256)49_storage": {
        "base": "t_uint256",
        "encoding": "inplace",
        "label": "uint256[49]",
        "numberOfBytes": "1568"
      },
      "t_array(t_uint256)50_storage": {
        "base": "t_uint256",
        "encoding": "inplace",
        "label": "uint256[50]",
        "numberOfBytes": "1600"
      },
      "t_array(t_uint256)8_storage": {
        "base": "t_uint256",
        "encoding": "inplace",
        "label": "uint256[8]",
        "numberOfBytes": "256"
      },
      "t_bool": {
        "encoding": "inplace",
        "label": "bool",
        "numberOfBytes": "1"
      },
      "t_bytes32": {
        "encoding": "inplace",
        "label": "bytes32",
        "numberOfBytes": "32"
      },
      "t_mapping(t_address,t_array(t_bytes32)dyn_storage)": {
        "encoding": "mapping",
        "key": "t_address",
        "label": "mapping(address => bytes32[])",
        "numberOfBytes": "32",
        "value": "t_array(t_bytes32)dyn_storage"
      },
      "t_mapping(t_address,t_bool)": {
        "encoding": "mapping",
        "key": "t_address",
        "label": "mapping(address => bool)",
        "numberOfBytes": "32",
        "value": "t_bool"
      },
      "t_mapping(t_address,t_mapping(t_bytes32,t_uint256))": {
        "encoding": "mapping",
        "key": "t_address",
        "label": "mapping(address => mapping(bytes32 => uint256))",
        "numberOfBytes": "32",
        "value": "t_mapping(t_bytes32,t_uint256)"
      },
      "t_mapping(t_address,t_uint256)": {
        "encoding": "mapping",
        "key": "t_address",
        "label": "mapping(address => uint256)",
        "numberOfBytes": "32",
        "value": "t_uint256"
      },
      "t_mapping(t_bytes32,t_array(t_struct(Investment)6891_storage)dyn_storage)": {
        "encoding": "mapping",
        "key": "t_bytes32",
        "label": "mapping(bytes32 => struct Funding.Investment[])",
        "numberOfBytes": "32",
        "value": "t_array(t_struct(Investment)6891_storage)dyn_storage"
      },
      "t_mapping(t_bytes32,t_array(t_uint256)8_storage)": {
        "encoding": "mapping",
        "key": "t_bytes32",
        "label": "mapping(bytes32 => uint256[8])",
        "numberOfBytes": "32",
        "value": "t_array(t_uint256)8_storage"
      },
      "t_mapping(t_bytes32,t_struct(RoleData)81_storage)": {
        "encoding": "mapping",
        "key": "t_bytes32",
        "label": "mapping(bytes32 => struct AccessControlUpgradeable.RoleData)",
        "numberOfBytes": "32",
        "value": "t_struct(RoleData)81_storage"
      },
      "t_mapping(t_bytes32,t_uint256)": {
        "encoding": "mapping",
        "key": "t_bytes32",
        "label": "mapping(bytes32 => uint256)",
        "numberOfBytes": "32",
        "value": "t_uint256"
      },
      "t_struct(Investment)6891_storage": {
        "encoding": "inplace",
        "label": "struct Funding.Investment",
        "members": [
          {
            "astId": 6888,
            "contract": "contracts/Funding.sol:Funding",
            "label": "amount",
            "offset": 0,
            "slot": "0",
            "type": "t_uint256"
          },
          {
            "astId": 6890,
            "contract": "contracts/Funding.sol:Funding",
            "label": "time",
            "offset": 0,
            "slot": "1",
            "type": "t_uint256"
          }
        ],
        "numberOfBytes": "64"
      },
      "t_struct(RoleData)81_storage": {
        "encoding": "inplace",
        "label": "struct AccessControlUpgradeable.RoleData",
        "members": [
          {
            "astId": 78,
            "contract": "contracts/Funding.sol:Funding",
            "label": "members",
            "offset": 0,
            "slot": "0",
            "type": "t_mapping(t_address,t_bool)"
          },
          {
            "astId": 80,
            "contract": "contracts/Funding.sol:Funding",
            "label": "adminRole",
            "offset": 0,
            "slot": "1",
            "type": "t_bytes32"
          }
        ],
        "numberOfBytes": "64"
      },
      "t_uint256": {
        "encoding": "inplace",
        "label": "uint256",
        "numberOfBytes": "32"
      },
      "t_uint32": {
        "encoding": "inplace",
        "label": "uint32",
        "numberOfBytes": "4"
      }
    }
  }
}