{
  "address": "0x970A13278d7ae3272f04257A7a5384CEF877D129",
  "abi": [
    {
      "anonymous": false,
      "inputs": [
        {
          "indexed": true,
          "internalType": "address",
          "name": "beneficiary",
          "type": "address"
        },
        {
          "indexed": true,
          "internalType": "bytes32",
          "name": "offerHash",
          "type": "bytes32"
        },
        {
          "indexed": true,
          "internalType": "address",
          "name": "investor",
          "type": "address"
        },
        {
          "indexed": false,
          "internalType": "uint256",
          "name": "unfilled",
          "type": "uint256"
        },
        {
          "indexed": false,
          "internalType": "uint256",
          "name": "remainderAmount",
          "type": "uint256"
        },
        {
          "indexed": false,
          "internalType": "uint256",
          "name": "contributionID",
          "type": "uint256"
        }
      ],
      "name": "ContributionRefunded",
      "type": "event"
    },
    {
      "anonymous": false,
      "inputs": [
        {
          "indexed": true,
          "internalType": "address",
          "name": "beneficiary",
          "type": "address"
        },
        {
          "indexed": true,
          "internalType": "bytes32",
          "name": "offerHash",
          "type": "bytes32"
        },
        {
          "indexed": true,
          "internalType": "address",
          "name": "investor",
          "type": "address"
        },
        {
          "indexed": false,
          "internalType": "uint256",
          "name": "filled",
          "type": "uint256"
        },
        {
          "indexed": false,
          "internalType": "uint256",
          "name": "amount",
          "type": "uint256"
        },
        {
          "indexed": false,
          "internalType": "uint256",
          "name": "contributionID",
          "type": "uint256"
        }
      ],
      "name": "ContributionRegistered",
      "type": "event"
    },
    {
      "anonymous": false,
      "inputs": [
        {
          "indexed": true,
          "internalType": "address",
          "name": "sender",
          "type": "address"
        },
        {
          "indexed": false,
          "internalType": "uint256",
          "name": "amount",
          "type": "uint256"
        }
      ],
      "name": "ReceivedEther",
      "type": "event"
    },
    {
      "anonymous": false,
      "inputs": [
        {
          "indexed": true,
          "internalType": "bytes32",
          "name": "role",
          "type": "bytes32"
        },
        {
          "indexed": true,
          "internalType": "bytes32",
          "name": "previousAdminRole",
          "type": "bytes32"
        },
        {
          "indexed": true,
          "internalType": "bytes32",
          "name": "newAdminRole",
          "type": "bytes32"
        }
      ],
      "name": "RoleAdminChanged",
      "type": "event"
    },
    {
      "anonymous": false,
      "inputs": [
        {
          "indexed": true,
          "internalType": "bytes32",
          "name": "role",
          "type": "bytes32"
        },
        {
          "indexed": true,
          "internalType": "address",
          "name": "account",
          "type": "address"
        },
        {
          "indexed": true,
          "internalType": "address",
          "name": "sender",
          "type": "address"
        }
      ],
      "name": "RoleGranted",
      "type": "event"
    },
    {
      "anonymous": false,
      "inputs": [
        {
          "indexed": true,
          "internalType": "bytes32",
          "name": "role",
          "type": "bytes32"
        },
        {
          "indexed": true,
          "internalType": "address",
          "name": "account",
          "type": "address"
        },
        {
          "indexed": true,
          "internalType": "address",
          "name": "sender",
          "type": "address"
        }
      ],
      "name": "RoleRevoked",
      "type": "event"
    },
    {
      "inputs": [],
      "name": "DEFAULT_ADMIN_ROLE",
      "outputs": [
        {
          "internalType": "bytes32",
          "name": "",
          "type": "bytes32"
        }
      ],
      "stateMutability": "view",
      "type": "function"
    },
    {
      "inputs": [],
      "name": "GOVERNOR_ROLE",
      "outputs": [
        {
          "internalType": "bytes32",
          "name": "",
          "type": "bytes32"
        }
      ],
      "stateMutability": "view",
      "type": "function"
    },
    {
      "inputs": [],
      "name": "ORCHESTRATOR_ROLE",
      "outputs": [
        {
          "internalType": "bytes32",
          "name": "",
          "type": "bytes32"
        }
      ],
      "stateMutability": "view",
      "type": "function"
    },
    {
      "inputs": [
        {
          "internalType": "address",
          "name": "beneficiary",
          "type": "address"
        }
      ],
      "name": "calculateAllReleasableAmount",
      "outputs": [
        {
          "internalType": "uint256",
          "name": "totalToBeReleased",
          "type": "uint256"
        }
      ],
      "stateMutability": "view",
      "type": "function"
    },
    {
      "inputs": [
        {
          "internalType": "address",
          "name": "beneficiary",
          "type": "address"
        },
        {
          "internalType": "bytes32",
          "name": "hash",
          "type": "bytes32"
        }
      ],
      "name": "calculateReleasableAmountByHash",
      "outputs": [
        {
          "internalType": "uint256",
          "name": "",
          "type": "uint256"
        }
      ],
      "stateMutability": "view",
      "type": "function"
    },
    {
      "inputs": [
        {
          "internalType": "address",
          "name": "beneficiary",
          "type": "address"
        },
        {
          "internalType": "bytes32[]",
          "name": "hashes",
          "type": "bytes32[]"
        }
      ],
      "name": "calculateReleasableAmountByHashBatch",
      "outputs": [
        {
          "internalType": "uint256",
          "name": "toBeReleased",
          "type": "uint256"
        }
      ],
      "stateMutability": "view",
      "type": "function"
    },
    {
      "inputs": [
        {
          "internalType": "address",
          "name": "beneficiary",
          "type": "address"
        },
        {
          "internalType": "uint256",
          "name": "contributionId",
          "type": "uint256"
        }
      ],
      "name": "calculateReleasedAmountByContributionId",
      "outputs": [
        {
          "internalType": "uint256",
          "name": "",
          "type": "uint256"
        }
      ],
      "stateMutability": "view",
      "type": "function"
    },
    {
      "inputs": [
        {
          "internalType": "uint256",
          "name": "",
          "type": "uint256"
        }
      ],
      "name": "contributions",
      "outputs": [
        {
          "internalType": "address",
          "name": "investor",
          "type": "address"
        },
        {
          "internalType": "bytes32",
          "name": "offerHash",
          "type": "bytes32"
        },
        {
          "internalType": "uint256",
          "name": "amount",
          "type": "uint256"
        },
        {
          "internalType": "uint256",
          "name": "filled",
          "type": "uint256"
        },
        {
          "internalType": "uint256",
          "name": "registeredAt",
          "type": "uint256"
        },
        {
          "internalType": "uint256",
          "name": "refundedAt",
          "type": "uint256"
        }
      ],
      "stateMutability": "view",
      "type": "function"
    },
    {
      "inputs": [
        {
          "internalType": "bytes32",
          "name": "",
          "type": "bytes32"
        },
        {
          "internalType": "uint256",
          "name": "",
          "type": "uint256"
        }
      ],
      "name": "contributionsByHash",
      "outputs": [
        {
          "internalType": "uint256",
          "name": "",
          "type": "uint256"
        }
      ],
      "stateMutability": "view",
      "type": "function"
    },
    {
      "inputs": [
        {
          "internalType": "address",
          "name": "",
          "type": "address"
        },
        {
          "internalType": "bytes32",
          "name": "",
          "type": "bytes32"
        }
      ],
      "name": "filledTotalByBeneficiaryAndHash",
      "outputs": [
        {
          "internalType": "uint256",
          "name": "",
          "type": "uint256"
        }
      ],
      "stateMutability": "view",
      "type": "function"
    },
    {
      "inputs": [
        {
          "internalType": "bytes32",
          "name": "role",
          "type": "bytes32"
        }
      ],
      "name": "getRoleAdmin",
      "outputs": [
        {
          "internalType": "bytes32",
          "name": "",
          "type": "bytes32"
        }
      ],
      "stateMutability": "view",
      "type": "function"
    },
    {
      "inputs": [
        {
          "internalType": "bytes32",
          "name": "role",
          "type": "bytes32"
        },
        {
          "internalType": "address",
          "name": "account",
          "type": "address"
        }
      ],
      "name": "grantRole",
      "outputs": [],
      "stateMutability": "nonpayable",
      "type": "function"
    },
    {
      "inputs": [
        {
          "internalType": "bytes32",
          "name": "role",
          "type": "bytes32"
        },
        {
          "internalType": "address",
          "name": "account",
          "type": "address"
        }
      ],
      "name": "hasRole",
      "outputs": [
        {
          "internalType": "bool",
          "name": "",
          "type": "bool"
        }
      ],
      "stateMutability": "view",
      "type": "function"
    },
    {
      "inputs": [
        {
          "internalType": "address",
          "name": "",
          "type": "address"
        },
        {
          "internalType": "uint256",
          "name": "",
          "type": "uint256"
        }
      ],
      "name": "hashesByBeneficiary",
      "outputs": [
        {
          "internalType": "bytes32",
          "name": "",
          "type": "bytes32"
        }
      ],
      "stateMutability": "view",
      "type": "function"
    },
    {
      "inputs": [
        {
          "internalType": "address",
          "name": "token",
          "type": "address"
        },
        {
          "internalType": "uint32",
          "name": "rewardRatio",
          "type": "uint32"
        }
      ],
      "name": "initialize",
      "outputs": [],
      "stateMutability": "nonpayable",
      "type": "function"
    },
    {
      "inputs": [],
      "name": "name",
      "outputs": [
        {
          "internalType": "string",
          "name": "",
          "type": "string"
        }
      ],
      "stateMutability": "view",
      "type": "function"
    },
    {
      "inputs": [
        {
          "internalType": "bytes32",
          "name": "",
          "type": "bytes32"
        },
        {
          "internalType": "uint256",
          "name": "",
          "type": "uint256"
        }
      ],
      "name": "optionsByHash",
      "outputs": [
        {
          "internalType": "uint256",
          "name": "",
          "type": "uint256"
        }
      ],
      "stateMutability": "view",
      "type": "function"
    },
    {
      "inputs": [
        {
          "internalType": "address",
          "name": "beneficiary",
          "type": "address"
        },
        {
          "internalType": "bytes32",
          "name": "offerHash",
          "type": "bytes32"
        },
        {
          "internalType": "address",
          "name": "investor",
          "type": "address"
        },
        {
          "internalType": "uint256",
          "name": "unfilled",
          "type": "uint256"
        },
        {
          "internalType": "uint256",
          "name": "contributionId",
          "type": "uint256"
        }
      ],
      "name": "refundContribution",
      "outputs": [],
      "stateMutability": "payable",
      "type": "function"
    },
    {
      "inputs": [
        {
          "internalType": "address",
          "name": "beneficiary",
          "type": "address"
        },
        {
          "internalType": "bytes32",
          "name": "offerHash",
          "type": "bytes32"
        },
        {
          "internalType": "uint256[8]",
          "name": "fundingOptions",
          "type": "uint256[8]"
        },
        {
          "internalType": "address",
          "name": "investor",
          "type": "address"
        },
        {
          "internalType": "uint256",
          "name": "filled",
          "type": "uint256"
        },
        {
          "internalType": "uint256",
          "name": "amount",
          "type": "uint256"
        }
      ],
      "name": "registerContribution",
      "outputs": [],
      "stateMutability": "payable",
      "type": "function"
    },
    {
      "inputs": [],
      "name": "releaseAllToBeneficiary",
      "outputs": [],
      "stateMutability": "nonpayable",
      "type": "function"
    },
    {
      "inputs": [
        {
          "internalType": "bytes32",
          "name": "hash",
          "type": "bytes32"
        }
      ],
      "name": "releaseToBeneficiaryByHash",
      "outputs": [],
      "stateMutability": "nonpayable",
      "type": "function"
    },
    {
      "inputs": [
        {
          "internalType": "address",
          "name": "",
          "type": "address"
        },
        {
          "internalType": "bytes32",
          "name": "",
          "type": "bytes32"
        }
      ],
      "name": "releasedTimes",
      "outputs": [
        {
          "internalType": "uint256",
          "name": "",
          "type": "uint256"
        }
      ],
      "stateMutability": "view",
      "type": "function"
    },
    {
      "inputs": [
        {
          "internalType": "bytes32",
          "name": "role",
          "type": "bytes32"
        },
        {
          "internalType": "address",
          "name": "account",
          "type": "address"
        }
      ],
      "name": "renounceRole",
      "outputs": [],
      "stateMutability": "nonpayable",
      "type": "function"
    },
    {
      "inputs": [
        {
          "internalType": "bytes32",
          "name": "role",
          "type": "bytes32"
        },
        {
          "internalType": "address",
          "name": "account",
          "type": "address"
        }
      ],
      "name": "revokeRole",
      "outputs": [],
      "stateMutability": "nonpayable",
      "type": "function"
    },
    {
      "inputs": [
        {
          "internalType": "uint32",
          "name": "newRatio",
          "type": "uint32"
        }
      ],
      "name": "setRewardRatio",
      "outputs": [],
      "stateMutability": "nonpayable",
      "type": "function"
    },
    {
      "inputs": [
        {
          "internalType": "address",
          "name": "newAddress",
          "type": "address"
        }
      ],
      "name": "setToken",
      "outputs": [],
      "stateMutability": "nonpayable",
      "type": "function"
    },
    {
      "inputs": [
        {
          "internalType": "bytes4",
          "name": "interfaceId",
          "type": "bytes4"
        }
      ],
      "name": "supportsInterface",
      "outputs": [
        {
          "internalType": "bool",
          "name": "",
          "type": "bool"
        }
      ],
      "stateMutability": "view",
      "type": "function"
    },
    {
      "inputs": [
        {
          "internalType": "bytes32",
          "name": "offerHash",
          "type": "bytes32"
        }
      ],
      "name": "totalContributionsByHash",
      "outputs": [
        {
          "internalType": "uint256",
          "name": "",
          "type": "uint256"
        }
      ],
      "stateMutability": "view",
      "type": "function"
    },
    {
      "inputs": [],
      "name": "version",
      "outputs": [
        {
          "internalType": "string",
          "name": "",
          "type": "string"
        }
      ],
      "stateMutability": "view",
      "type": "function"
    },
    {
      "stateMutability": "payable",
      "type": "receive"
    }
  ],
  "transactionHash": "0x1760180242af68007df6a0b66b00b4397e44f0301ed99071382edda0a49fdca8",
  "args": [],
  "solcInputHash": "37d0d330fc143edda31fe71766123a1f",
  "bytecode": "0x608060405234801561001057600080fd5b50613f25806100206000396000f3fe6080604052600436106101565760003560e01c806301ffc9a71461019757806306fdde03146101cc57806309e0a34f1461021e5780630e7ebb651461024e57806312ba4f6a1461026e578063144fa6d71461029c5780631cee0700146102be578063248a9ca3146103155780632f2ff15d1461033557806336568abe1461035557806347cb53b11461037557806354fd4d5014610388578063574c911b146103b75780635cd16d4b146103cc5780637faf13da146103ec5780638697b1541461040c57806386a4f9761461041f57806388a7a8b11461045857806391d1485414610478578063a1ed5db914610498578063a217fddf146104b8578063ac06e489146104cd578063c5e4c9f9146104ed578063ccc574901461050d578063d05ed88f1461052f578063d547741f1461054f578063dbf6ad811461056f578063edf1c1591461058f578063f8257c0a146105c857610192565b366101925760405134815233907fa419615bc8fda4c87663805ee2a3597a6d71c1d476911d9892f340d965bc7bf19060200160405180910390a2005b600080fd5b3480156101a357600080fd5b506101b76101b2366004613a66565b6105e8565b60405190151581526020015b60405180910390f35b3480156101d857600080fd5b5061021160405180604001604052806019815260200178119b185a5c8810dbdb5b5bdb88119d5b991a5b99c8141bdbdb603a1b81525081565b6040516101c39190613b33565b34801561022a57600080fd5b50610240600080516020613ed083398151915281565b6040519081526020016101c3565b34801561025a57600080fd5b50610240610269366004613a45565b610621565b34801561027a57600080fd5b50610240610289366004613a0b565b60009081526101ce602052604090205490565b3480156102a857600080fd5b506102bc6102b7366004613804565b610653565b005b3480156102ca57600080fd5b506102de6102d9366004613a0b565b6106b3565b604080516001600160a01b0390971687526020870195909552938501929092526060840152608083015260a082015260c0016101c3565b34801561032157600080fd5b50610240610330366004613a0b565b610704565b34801561034157600080fd5b506102bc610350366004613a23565b610719565b34801561036157600080fd5b506102bc610370366004613a23565b61073c565b6102bc610383366004613914565b6107ba565b34801561039457600080fd5b5061021160405180604001604052806003815260200162302e3160e81b81525081565b3480156103c357600080fd5b506102bc610ae5565b3480156103d857600080fd5b506102406103e736600461389e565b610bea565b3480156103f857600080fd5b5061024061040736600461389e565b610c07565b6102bc61041a3660046138c7565b610c1a565b34801561042b57600080fd5b5061024061043a36600461389e565b6101d160209081526000928352604080842090915290825290205481565b34801561046457600080fd5b50610240610473366004613804565b611118565b34801561048457600080fd5b506101b7610493366004613a23565b6111b3565b3480156104a457600080fd5b506102406104b336600461389e565b6111de565b3480156104c457600080fd5b50610240600081565b3480156104d957600080fd5b506102bc6104e8366004613a0b565b6112a0565b3480156104f957600080fd5b506102bc6105083660046139d9565b611320565b34801561051957600080fd5b50610240600080516020613eb083398151915281565b34801561053b57600080fd5b5061024061054a366004613a45565b611400565b34801561055b57600080fd5b506102bc61056a366004613a23565b611426565b34801561057b57600080fd5b506102bc61058a366004613a8e565b611443565b34801561059b57600080fd5b506102406105aa36600461389e565b6101d260209081526000928352604080842090915290825290205481565b3480156105d457600080fd5b506102406105e336600461381e565b61149e565b60006001600160e01b03198216637965db0b60e01b148061061957506301ffc9a760e01b6001600160e01b03198316145b90505b919050565b6101ce602052816000526040600020818154811061063e57600080fd5b90600052602060002001600091509150505481565b61066b600080516020613eb083398151915233610493565b6106905760405162461bcd60e51b815260040161068790613ce6565b60405180910390fd5b6101c980546001600160a01b0319166001600160a01b0392909216919091179055565b6101cc81815481106106c457600080fd5b60009182526020909120600690910201805460018201546002830154600384015460048501546005909501546001600160a01b0390941695509193909286565b60009081526097602052604090206001015490565b61072282610704565b61072d81335b611500565b6107378383611564565b505050565b6001600160a01b03811633146107ac5760405162461bcd60e51b815260206004820152602f60248201527f416363657373436f6e74726f6c3a2063616e206f6e6c792072656e6f756e636560448201526e103937b632b9903337b91039b2b63360891b6064820152608401610687565b6107b682826115ea565b5050565b600260335414156107dd5760405162461bcd60e51b815260040161068790613caf565b60026033556107fa600080516020613ed083398151915233610493565b6108165760405162461bcd60e51b815260040161068790613c15565b6000821161085f5760405162461bcd60e51b815260206004820152601660248201527511955391125391cbd253959053125117d1925313115160521b6044820152606401610687565b6001600160a01b03861660009081526101d160209081526040808320888452909152902054600111156108d3576001600160a01b03861660009081526101d0602090815260408083208054600181018255908452828420018890558783526101cf90915290206108d190856008613786565b505b6040805160c0810182526001600160a01b03858116825260208201888152928201848152606083018681524260808501908152600060a086018181526101cc80546001808201835582855298517f9a37fbd5e796e9046c2f5f7e29046a230a4ba9ada48a80535ed93a51fec5cfbc600690920291820180546001600160a01b031916919099161790975597517f9a37fbd5e796e9046c2f5f7e29046a230a4ba9ada48a80535ed93a51fec5cfbd87015593517f9a37fbd5e796e9046c2f5f7e29046a230a4ba9ada48a80535ed93a51fec5cfbe86015591517f9a37fbd5e796e9046c2f5f7e29046a230a4ba9ada48a80535ed93a51fec5cfbf850155517f9a37fbd5e796e9046c2f5f7e29046a230a4ba9ada48a80535ed93a51fec5cfc084015590517f9a37fbd5e796e9046c2f5f7e29046a230a4ba9ada48a80535ed93a51fec5cfc1909201919091559154610a2a9190613da4565b60008781526101ce602090815260408083208054600181018255908452828420018490556001600160a01b038b1683526101d182528083208a8452909152812080549293508592909190610a7f908490613d12565b909155505060408051848152602081018490529081018290526001600160a01b038086169188918a16907fdf7914158578b4fa3633fd22870b445d13981be1f3b0dfd5fb1c677c33d5c16b906060015b60405180910390a4505060016033555050505050565b60026033541415610b085760405162461bcd60e51b815260040161068790613caf565b6002603355336000805b6001600160a01b03831660009081526101d06020526040902054811015610ba3576001600160a01b03831660009081526101d060205260408120805483908110610b6c57634e487b7160e01b600052603260045260246000fd5b90600052602060002001549050610b838482611651565b610b8d9084613d12565b9250508080610b9b90613e3e565b915050610b12565b5060008111610bc45760405162461bcd60e51b815260040161068790613c47565b610bd76001600160a01b0383168261170b565b610be18282611821565b50506001603355565b6101d0602052816000526040600020818154811061063e57600080fd5b6000610c138383611968565b9392505050565b60026033541415610c3d5760405162461bcd60e51b815260040161068790613caf565b6002603355610c5a600080516020613ed083398151915233610493565b610c765760405162461bcd60e51b815260040161068790613c15565b60006101cc8281548110610c9a57634e487b7160e01b600052603260045260246000fd5b90600052602060002090600602016004015411610cf85760405162461bcd60e51b815260206004820152601c60248201527b232aa72224a72397a4a72b20a624a22fa1a7a72a2924a12aaa24a7a760211b6044820152606401610687565b600082118015610d2c57506001600160a01b03851660009081526101d1602090815260408083208784529091529020548211155b610d735760405162461bcd60e51b815260206004820152601860248201527711955391125391cbd253959053125117d55391925313115160421b6044820152606401610687565b6101cc8181548110610d9557634e487b7160e01b600052603260045260246000fd5b906000526020600020906006020160050154600014610df15760405162461bcd60e51b815260206004820152601860248201527711955391125391cbd053149150511657d0d05390d153115160421b6044820152606401610687565b826001600160a01b03166101cc8281548110610e1d57634e487b7160e01b600052603260045260246000fd5b60009182526020909120600690910201546001600160a01b031614610e7b5760405162461bcd60e51b8152602060048201526014602482015273232aa72224a72397a727aa2fa4a72b22a9aa27a960611b6044820152606401610687565b816101cc8281548110610e9e57634e487b7160e01b600052603260045260246000fd5b90600052602060002090600602016003015414610ef55760405162461bcd60e51b815260206004820152601560248201527408caa9c88929c8e5e8c929898be9a92a69a82a8869605b1b6044820152606401610687565b6000610f816101cc8381548110610f1c57634e487b7160e01b600052603260045260246000fd5b60009182526020918290206040805160c081018252600690930290910180546001600160a01b03168352600181015493830193909352600283015490820152600382015460608201526004820154608082015260059091015460a08201524287611b63565b90506101cc8281548110610fa557634e487b7160e01b600052603260045260246000fd5b90600052602060002090600602016002015481106110015760405162461bcd60e51b815260206004820152601960248201527811955391125391cbd393d512125391d7d513d7d49151955391603a1b6044820152606401610687565b6000816101cc848154811061102657634e487b7160e01b600052603260045260246000fd5b9060005260206000209060060201600201546110429190613da4565b9050426101cc848154811061106757634e487b7160e01b600052603260045260246000fd5b60009182526020808320600560069093020191909101929092556001600160a01b03891681526101d18252604080822089835290925290812080548692906110b0908490613da4565b909155506110c990506001600160a01b0386168261170b565b60408051858152602081018390529081018490526001600160a01b038087169188918a16907f259bdf60a0c51bf7cda85ba7118f986298f98af4655bb337fc8208f8a176625490606001610acf565b6000805b6001600160a01b03831660009081526101d060205260409020548110156111ad576001600160a01b03831660009081526101d06020526040812080548390811061117657634e487b7160e01b600052603260045260246000fd5b9060005260206000200154905061118d8482611968565b6111979084613d12565b92505080806111a590613e3e565b91505061111c565b50919050565b60009182526097602090815260408084206001600160a01b0393909316845291905290205460ff1690565b6000610c136101cc838154811061120557634e487b7160e01b600052603260045260246000fd5b60009182526020918290206040805160c081018252600690930290910180546001600160a01b03168352600181015493830193909352600283015490820152600382015460608201526004820154608082015260059091015460a08201526101cc80544291908690811061128957634e487b7160e01b600052603260045260246000fd5b906000526020600020906006020160010154611b63565b600260335414156112c35760405162461bcd60e51b815260040161068790613caf565b6002603355334260006112d68385611651565b9050600081116112f85760405162461bcd60e51b815260040161068790613c47565b61130b6001600160a01b0384168261170b565b6113158382611821565b505060016033555050565b600054610100900460ff1680611339575060005460ff16155b6113555760405162461bcd60e51b815260040161068790613bc7565b600054610100900460ff16158015611377576000805461ffff19166101011790555b61137f611d07565b61138b6000335b611d7b565b6113a3600080516020613eb083398151915233611386565b6101c9805463ffffffff8416600160a01b026001600160c01b03199091166001600160a01b03861617179055670de0b6b3a76400006101ca55683635c9adc5dea000006101cb558015610737576000805461ff0019169055505050565b6101cf602052816000526040600020816008811061141d57600080fd5b01549150829050565b61142f82610704565b6114398133610728565b61073783836115ea565b61145b600080516020613eb083398151915233610493565b6114775760405162461bcd60e51b815260040161068790613ce6565b6101c9805463ffffffff909216600160a01b0263ffffffff60a01b19909216919091179055565b6000805b828110156114f8576114da858585848181106114ce57634e487b7160e01b600052603260045260246000fd5b90506020020135611968565b6114e49083613d12565b9150806114f081613e3e565b9150506114a2565b509392505050565b61150a82826111b3565b6107b657611522816001600160a01b03166014611d85565b61152d836020611d85565b60405160200161153e929190613ac4565b60408051601f198184030181529082905262461bcd60e51b825261068791600401613b33565b61156e82826111b3565b6107b65760008281526097602090815260408083206001600160a01b03851684529091529020805460ff191660011790556115a63390565b6001600160a01b0316816001600160a01b0316837f2f8788117e7eff1d82e926ec794901d17c78024a50270940304540a733656f0d60405160405180910390a45050565b6115f482826111b3565b156107b65760008281526097602090815260408083206001600160a01b0385168085529252808320805460ff1916905551339285917ff6391f5c32d9c69d2a47ea670b442974b53935d1edc7fd64eb21e047a839171b9190a45050565b6001600160a01b03821660009081526101d2602090815260408083208484529091528120544290611684610e1083613da4565b8111156116d25760405162461bcd60e51b815260206004820152601c60248201527b11955391125391cbd49153115054d157d213d554931657d31253525560221b6044820152606401610687565b6116dc8585611968565b6001600160a01b0390951660009081526101d26020908152604080832096835295905293909320555090919050565b8047101561175b5760405162461bcd60e51b815260206004820152601d60248201527f416464726573733a20696e73756666696369656e742062616c616e63650000006044820152606401610687565b6000826001600160a01b03168260405160006040518083038185875af1925050503d80600081146117a8576040519150601f19603f3d011682016040523d82523d6000602084013e6117ad565b606091505b50509050806107375760405162461bcd60e51b815260206004820152603a60248201527f416464726573733a20756e61626c6520746f2073656e642076616c75652c20726044820152791958da5c1a595b9d081b585e481a185d99481c995d995c9d195960321b6064820152608401610687565b60006118486101cb546101ca546101c960149054906101000a900463ffffffff1685611f66565b9050806101cb600082825461185d9190613d12565b92505081905550816101ca60008282546118779190613d12565b90915550506101c9546040516001600160a01b03858116602483015260448201849052600092169060640160408051601f198184030181529181526020820180516001600160e01b03166340c10f1960e01b179052516118d79190613aa8565b6000604051808303816000865af19150503d8060008114611914576040519150601f19603f3d011682016040523d82523d6000602084013e611919565b606091505b50509050806119625760405162461bcd60e51b815260206004820152601560248201527411955391125391cbd49155d0549117d19052531151605a1b6044820152606401610687565b50505050565b6001600160a01b03821660009081526101d2602090815260408083208484529091528120544290825b60008581526101ce6020526040902054811015611b5a5760008581526101ce602052604090208054611a6d916101cc91849081106119df57634e487b7160e01b600052603260045260246000fd5b906000526020600020015481548110611a0857634e487b7160e01b600052603260045260246000fd5b60009182526020918290206040805160c081018252600690930290910180546001600160a01b03168352600181015493830193909352600283015490820152600382015460608201526004820154608082015260059091015460a08201528387611b63565b60008681526101ce602052604090208054611b32916101cc9185908110611aa457634e487b7160e01b600052603260045260246000fd5b906000526020600020015481548110611acd57634e487b7160e01b600052603260045260246000fd5b60009182526020918290206040805160c081018252600690930290910180546001600160a01b03168352600181015493830193909352600283015490820152600382015460608201526004820154608082015260059091015460a08201528588611b63565b611b3c9190613da4565b611b469085613d12565b935080611b5281613e3e565b915050611991565b50505092915050565b60008181526101cf60205260408082208151610100810192839052839290919060089082845b815481526020019060010190808311611b8957505050505090506000808660a0015111611bb65784611bcd565b848660a0015110611bc75784611bcd565b8560a001515b90508560800151811015611be657600092505050610c13565b8151600090611bf6576000611c07565b82516040880151611c07919061206d565b90508083600160200201518860800151611c219190613d12565b831015611c33579350610c1392505050565b6040840151600090611c46576000611c5b565b611c5b85600260200201518a6040015161206d565b9050611c678183613d12565b606086015160408b0151919350906000908390611c85908790613da4565b611c8f9190613da4565b9050600087600160200201518c60800151611caa9190613d12565b90506000878211611cc457611cbf8289613da4565b611cc7565b60005b905083811115611cd45750825b6000611ce985858c6004602002015185612086565b9050611cf58188613d12565b9e9d5050505050505050505050505050565b600054610100900460ff1680611d20575060005460ff16155b611d3c5760405162461bcd60e51b815260040161068790613bc7565b600054610100900460ff16158015611d5e576000805461ffff19166101011790555b611d666121db565b8015611d78576000805461ff00191690555b50565b6107b68282611564565b60606000611d94836002613d85565b611d9f906002613d12565b6001600160401b03811115611dc457634e487b7160e01b600052604160045260246000fd5b6040519080825280601f01601f191660200182016040528015611dee576020820181803683370190505b509050600360fc1b81600081518110611e1757634e487b7160e01b600052603260045260246000fd5b60200101906001600160f81b031916908160001a905350600f60fb1b81600181518110611e5457634e487b7160e01b600052603260045260246000fd5b60200101906001600160f81b031916908160001a9053506000611e78846002613d85565b611e83906001613d12565b90505b6001811115611f17576f181899199a1a9b1b9c1cb0b131b232b360811b85600f1660108110611ec557634e487b7160e01b600052603260045260246000fd5b1a60f81b828281518110611ee957634e487b7160e01b600052603260045260246000fd5b60200101906001600160f81b031916908160001a90535060049490941c93611f1081613e0a565b9050611e86565b508315610c135760405162461bcd60e51b815260206004820181905260248201527f537472696e67733a20686578206c656e67746820696e73756666696369656e746044820152606401610687565b6000808511611f875760405162461bcd60e51b815260040161068790613b9b565b60008411611fa75760405162461bcd60e51b815260040161068790613b66565b60008363ffffffff16118015611fc65750620f424063ffffffff841611155b611fe25760405162461bcd60e51b815260040161068790613c7b565b81611fef57506000612065565b63ffffffff8316620f4240141561201c578361200b868461224b565b6120159190613d4f565b9050612065565b6000808061202a8588612257565b905061203b818888620f4240612263565b9093509150600060ff83166120508a8661224b565b901c905061205e8982613da4565b9450505050505b949350505050565b600061271061207c8385613d85565b610c139190613d4f565b60008085116120a75760405162461bcd60e51b815260040161068790613b9b565b600084116120c75760405162461bcd60e51b815260040161068790613b66565b60008363ffffffff161180156120e65750620f424063ffffffff841611155b6121025760405162461bcd60e51b815260040161068790613c7b565b848211156121475760405162461bcd60e51b815260206004820152601260248201527111549497d253959053125117d05353d5539560721b6044820152606401610687565b8161215457506000612065565b84821415612163575082612065565b63ffffffff8316620f4240141561217f578461200b858461224b565b6000808061218d8589613da4565b905061219e8882620f424089612263565b909350915060006121af888561224b565b905060ff831688901b846121c38284613da4565b6121cd9190613d4f565b9a9950505050505050505050565b600054610100900460ff16806121f4575060005460ff16155b6122105760405162461bcd60e51b815260040161068790613bc7565b600054610100900460ff16158015612232576000805461ffff19166101011790555b60016033558015611d78576000805461ff001916905550565b6000610c138284613d85565b6000610c138284613d12565b600080600160811b861061227657600080fd5b600080866122886001607f1b8a613d85565b6122929190613d4f565b905070015bf0a8b1457695355fb8ac404e7a79e38110156122bd576122b681612350565b91506122c9565b6122c6816128c9565b91505b60008563ffffffff168763ffffffff16846122e49190613d85565b6122ee9190613d4f565b9050600160831b81101561231357612305816129ad565b607f94509450505050612347565b600061231e82612fd8565b905061233a61232e82607f613dbb565b60ff1683901c826130b8565b9550935061234792505050565b94509492505050565b6000808080806fd3094c70f034de4b96ff7d5b6f99fcd886106123a95761237b6001607e1b85613d12565b93506fd3094c70f034de4b96ff7d5b6f99fcd861239c6001607f1b88613d85565b6123a69190613d4f565b95505b6fa45af1e1f40c333b3de1db4dd55f29a786106123fc576123ce6001607d1b85613d12565b93506fa45af1e1f40c333b3de1db4dd55f29a76123ef6001607f1b88613d85565b6123f99190613d4f565b95505b6f910b022db7ae67ce76b441c27035c6a1861061244f576124216001607c1b85613d12565b93506f910b022db7ae67ce76b441c27035c6a16124426001607f1b88613d85565b61244c9190613d4f565b95505b6f88415abbe9a76bead8d00cf112e4d4a886106124a2576124746001607b1b85613d12565b93506f88415abbe9a76bead8d00cf112e4d4a86124956001607f1b88613d85565b61249f9190613d4f565b95505b6f84102b00893f64c705e841d5d4064bd386106124f5576124c76001607a1b85613d12565b93506f84102b00893f64c705e841d5d4064bd36124e86001607f1b88613d85565b6124f29190613d4f565b95505b6f8204055aaef1c8bd5c3259f4822735a286106125485761251a600160791b85613d12565b93506f8204055aaef1c8bd5c3259f4822735a261253b6001607f1b88613d85565b6125459190613d4f565b95505b6f810100ab00222d861931c15e39b44e99861061259b5761256d600160781b85613d12565b93506f810100ab00222d861931c15e39b44e9961258e6001607f1b88613d85565b6125989190613d4f565b95505b6f808040155aabbbe9451521693554f73386106125ee576125c0600160771b85613d12565b93506f808040155aabbbe9451521693554f7336125e16001607f1b88613d85565b6125eb9190613d4f565b95505b6125fc6001607f1b87613da4565b92508291506001607f1b6126108380613d85565b61261a9190613d4f565b9050600160801b61262b8482613da4565b6126359084613d85565b61263f9190613d4f565b6126499085613d12565b93506001607f1b61265a8284613d85565b6126649190613d4f565b9150600160811b612685846faaaaaaaaaaaaaaaaaaaaaaaaaaaaaaaa613da4565b61268f9084613d85565b6126999190613d4f565b6126a39085613d12565b93506001607f1b6126b48284613d85565b6126be9190613d4f565b9150600360801b6126df846f99999999999999999999999999999999613da4565b6126e99084613d85565b6126f39190613d4f565b6126fd9085613d12565b93506001607f1b61270e8284613d85565b6127189190613d4f565b9150600160821b612739846f92492492492492492492492492492492613da4565b6127439084613d85565b61274d9190613d4f565b6127579085613d12565b93506001607f1b6127688284613d85565b6127729190613d4f565b9150600560801b612793846f8e38e38e38e38e38e38e38e38e38e38e613da4565b61279d9084613d85565b6127a79190613d4f565b6127b19085613d12565b93506001607f1b6127c28284613d85565b6127cc9190613d4f565b9150600360811b6127ed846f8ba2e8ba2e8ba2e8ba2e8ba2e8ba2e8b613da4565b6127f79084613d85565b6128019190613d4f565b61280b9085613d12565b93506001607f1b61281c8284613d85565b6128269190613d4f565b9150600760801b612847846f89d89d89d89d89d89d89d89d89d89d89613da4565b6128519084613d85565b61285b9190613d4f565b6128659085613d12565b93506001607f1b6128768284613d85565b6128809190613d4f565b9150600160831b6128a1846f88888888888888888888888888888888613da4565b6128ab9084613d85565b6128b59190613d4f565b6128bf9085613d12565b9695505050505050565b600080600160801b831061290d5760006128ef6128ea6001607f1b86613d4f565b61371a565b60ff811694851c94909150612909906001607f1b90613d85565b9150505b6001607f1b83111561298257607f5b60ff811615612980576001607f1b6129348580613d85565b61293e9190613d4f565b9350600160801b841061297057600193841c9361295b9082613dbb565b60ff166001901b8261296d9190613d12565b91505b61297981613e21565b905061291c565b505b6f05b9de1d10bf4103d647b0955897ba8061207c6f03f80fe03f80fe03f80fe03f80fe03f883613d85565b60008080806129c06001607c1b86613e59565b91508190506001607f1b6129d48280613d85565b6129de9190613d4f565b90506129f2816710e1b3be415a0000613d85565b6129fc9084613d12565b92506001607f1b612a0d8383613d85565b612a179190613d4f565b9050612a2b816705a0913f6b1e0000613d85565b612a359084613d12565b92506001607f1b612a468383613d85565b612a509190613d4f565b9050612a6481670168244fdac78000613d85565b612a6e9084613d12565b92506001607f1b612a7f8383613d85565b612a899190613d4f565b9050612a9c81664807432bc18000613d85565b612aa69084613d12565b92506001607f1b612ab78383613d85565b612ac19190613d4f565b9050612ad481660c0135dca04000613d85565b612ade9084613d12565b92506001607f1b612aef8383613d85565b612af99190613d4f565b9050612b0c816601b707b1cdc000613d85565b612b169084613d12565b92506001607f1b612b278383613d85565b612b319190613d4f565b9050612b43816536e0f639b800613d85565b612b4d9084613d12565b92506001607f1b612b5e8383613d85565b612b689190613d4f565b9050612b7a81650618fee9f800613d85565b612b849084613d12565b92506001607f1b612b958383613d85565b612b9f9190613d4f565b9050612bb081649c197dcc00613d85565b612bba9084613d12565b92506001607f1b612bcb8383613d85565b612bd59190613d4f565b9050612be681640e30dce400613d85565b612bf09084613d12565b92506001607f1b612c018383613d85565b612c0b9190613d4f565b9050612c1c8164012ebd1300613d85565b612c269084613d12565b92506001607f1b612c378383613d85565b612c419190613d4f565b9050612c51816317499f00613d85565b612c5b9084613d12565b92506001607f1b612c6c8383613d85565b612c769190613d4f565b9050612c86816301a9d480613d85565b612c909084613d12565b92506001607f1b612ca18383613d85565b612cab9190613d4f565b9050612cba81621c6380613d85565b612cc49084613d12565b92506001607f1b612cd58383613d85565b612cdf9190613d4f565b9050612cee816201c638613d85565b612cf89084613d12565b92506001607f1b612d098383613d85565b612d139190613d4f565b9050612d2181611ab8613d85565b612d2b9084613d12565b92506001607f1b612d3c8383613d85565b612d469190613d4f565b9050612d548161017c613d85565b612d5e9084613d12565b92506001607f1b612d6f8383613d85565b612d799190613d4f565b9050612d86816014613d85565b612d909084613d12565b92506001607f1b612da18383613d85565b612dab9190613d4f565b9050612db8816001613d85565b612dc29084613d12565b92506001607f1b82612ddc6721c3677c82b4000086613d4f565b612de69190613d12565b612df09190613d12565b92506001607c1b851615612e385770018ebef9eac820ae8682b9793ac6d1e776612e2b847001c3d6a24ed82218787d624d3e5eba95f9613d85565b612e359190613d4f565b92505b6001607d1b851615612e7e577001368b2fc6f9609fe7aceb46aa619baed4612e718470018ebef9eac820ae8682b9793ac6d1e778613d85565b612e7b9190613d4f565b92505b6001607e1b851615612ec3576fbc5ab1b16779be3575bd8f0520a9f21f612eb6847001368b2fc6f9609fe7aceb46aa619baed5613d85565b612ec09190613d4f565b92505b6001607f1b851615612f07576f454aaa8efe072e7f6ddbab84b40a55c9612efa846fbc5ab1b16779be3575bd8f0520a9f21e613d85565b612f049190613d4f565b92505b600160801b851615612f4b576f0960aadc109e7a3bf4578099615711ea612f3e846f454aaa8efe072e7f6ddbab84b40a55c5613d85565b612f489190613d4f565b92505b600160811b851615612f8e576e2bf84208204f5977f9a8cf01fdce3d612f81846f0960aadc109e7a3bf4578099615711d7613d85565b612f8b9190613d4f565b92505b600160821b851615612fcf576d03c6ab775dd0b95b4cbee7e65d11612fc2846e2bf84208204f5977f9a8cf01fdc307613d85565b612fcc9190613d4f565b92505b50909392505050565b60006020607f5b60ff8116612fee836001613d2a565b60ff16101561304f57600060026130058385613d2a565b61300f9190613d63565b90508460c98260ff166080811061303657634e487b7160e01b600052603260045260246000fd5b01541061304557809250613049565b8091505b50612fdf565b8360c98260ff166080811061307457634e487b7160e01b600052603260045260246000fd5b01541061308457915061061c9050565b8360c98360ff16608081106130a957634e487b7160e01b600052603260045260246000fd5b0154106101925750905061061c565b6000828160ff84166130ca8380613d85565b901c91506130e7826b0d10b13981d2a0bc5e5fdcab601e1b613d85565b6130f19082613d12565b905060ff84166131018684613d85565b901c915061311e826b045ae5bdd5f0e03eca1ff439601e1b613d85565b6131289082613d12565b905060ff84166131388684613d85565b901c9150613155826e45ae5bdd5f0e03eca1ff4390000000613d85565b61315f9082613d12565b905060ff841661316f8684613d85565b901c915061318b826adefabf91302cd95b9ffda5601c1b613d85565b6131959082613d12565b905060ff84166131a58684613d85565b901c91506131c1826a4a53953065644873dfff37601b1b613d85565b6131cb9082613d12565b905060ff84166131db8684613d85565b901c91506131f7826d54f1cf12bd04e516b6da88000000613d85565b6132019082613d12565b905060ff84166132118684613d85565b901c915061322d826d0a9e39e257a09ca2d6db51000000613d85565b6132379082613d12565b905060ff84166132478684613d85565b901c9150613263826d012e066e7b839fa050c309000000613d85565b61326d9082613d12565b905060ff841661327d8684613d85565b901c9150613298826c1e33d7d926c329a1ad1a800000613d85565b6132a29082613d12565b905060ff84166132b28684613d85565b901c91506132cd826c02bee513bdb4a6b19b5f800000613d85565b6132d79082613d12565b905060ff84166132e78684613d85565b901c9150613301826b3a9316fa79b88eccf2a00000613d85565b61330b9082613d12565b905060ff841661331b8684613d85565b901c9150613335826b048177ebe1fa812375200000613d85565b61333f9082613d12565b905060ff841661334f8684613d85565b901c9150613368826a5263fe90242dcbacf00000613d85565b6133729082613d12565b905060ff84166133828684613d85565b901c915061339b826a057e22099c030d94100000613d85565b6133a59082613d12565b905060ff84166133b58684613d85565b901c91506133cd826957e22099c030d9410000613d85565b6133d79082613d12565b905060ff84166133e78684613d85565b901c91506133ff8269052b6b54569976310000613d85565b6134099082613d12565b905060ff84166134198684613d85565b901c915061343082684985f67696bf748000613d85565b61343a9082613d12565b905060ff841661344a8684613d85565b901c9150613461826803dea12ea99e498000613d85565b61346b9082613d12565b905060ff841661347b8684613d85565b901c9150613491826731880f2214b6e000613d85565b61349b9082613d12565b905060ff84166134ab8684613d85565b901c91506134c18267025bcff56eb36000613d85565b6134cb9082613d12565b905060ff84166134db8684613d85565b901c91506134f082661b722e10ab1000613d85565b6134fa9082613d12565b905060ff841661350a8684613d85565b901c915061351f826601317c70077000613d85565b6135299082613d12565b905060ff84166135398684613d85565b901c915061354d82650cba84aafa00613d85565b6135579082613d12565b905060ff84166135678684613d85565b901c915061357a826482573a0a00613d85565b6135849082613d12565b905060ff84166135948684613d85565b901c91506135a7826405035ad900613d85565b6135b19082613d12565b905060ff84166135c18684613d85565b901c91506135d382632f881b00613d85565b6135dd9082613d12565b905060ff84166135ed8684613d85565b901c91506135ff826301b29340613d85565b6136099082613d12565b905060ff84166136198684613d85565b901c915061362a82620efc40613d85565b6136349082613d12565b905060ff84166136448684613d85565b901c915061365482617fe0613d85565b61365e9082613d12565b905060ff841661366e8684613d85565b901c915061367e82610420613d85565b6136889082613d12565b905060ff84166136988684613d85565b901c91506136a7826021613d85565b6136b19082613d12565b905060ff84166136c18684613d85565b901c91506136d0826001613d85565b6136da9082613d12565b9050600160ff85161b856136fd6b0d10b13981d2a0bc5e5fdcab601f1b84613d4f565b6137079190613d12565b6137119190613d12565b95945050505050565b60008061010083101561374d575b600183111561374857600192831c926137419082613d2a565b9050613728565b610619565b60805b60ff81161561377f57600160ff82161b84106137745760ff81169390931c92908117905b60011c607f16613750565b5092915050565b82600881019282156137b4579160200282015b828111156137b4578251825591602001919060010190613799565b506137c09291506137c4565b5090565b5b808211156137c057600081556001016137c5565b80356001600160a01b038116811461061c57600080fd5b803563ffffffff8116811461061c57600080fd5b600060208284031215613815578081fd5b610c13826137d9565b600080600060408486031215613832578182fd5b61383b846137d9565b925060208401356001600160401b0380821115613856578384fd5b818601915086601f830112613869578384fd5b813581811115613877578485fd5b8760208260051b850101111561388b578485fd5b6020830194508093505050509250925092565b600080604083850312156138b0578182fd5b6138b9836137d9565b946020939093013593505050565b600080600080600060a086880312156138de578081fd5b6138e7866137d9565b9450602086013593506138fc604087016137d9565b94979396509394606081013594506080013592915050565b6000806000806000806101a0878903121561392d578081fd5b613936876137d9565b9550602080880135955088605f89011261394e578182fd5b60405161010081016001600160401b038111828210171561397157613971613e99565b80604052508060408a016101408b018c81111561398c578586fd5b855b60088110156139ab5782358452928501929185019160010161398e565b508398506139b8816137d9565b97505050505050610160870135915061018087013590509295509295509295565b600080604083850312156139eb578182fd5b6139f4836137d9565b9150613a02602084016137f0565b90509250929050565b600060208284031215613a1c578081fd5b5035919050565b60008060408385031215613a35578182fd5b82359150613a02602084016137d9565b60008060408385031215613a57578182fd5b50508035926020909101359150565b600060208284031215613a77578081fd5b81356001600160e01b031981168114610c13578182fd5b600060208284031215613a9f578081fd5b610c13826137f0565b60008251613aba818460208701613dde565b9190910192915050565b600076020b1b1b2b9b9a1b7b73a3937b61d1030b1b1b7bab73a1604d1b82528351613af6816017850160208801613dde565b7001034b99036b4b9b9b4b733903937b6329607d1b6017918401918201528351613b27816028840160208801613dde565b01602801949350505050565b6000602082528251806020840152613b52816040850160208701613dde565b601f01601f19169190910160400192915050565b6020808252601b908201527a4552525f494e56414c49445f524553455256455f42414c414e434560281b604082015260600190565b6020808252601290820152714552525f494e56414c49445f535550504c5960701b604082015260600190565b6020808252602e908201527f496e697469616c697a61626c653a20636f6e747261637420697320616c72656160408201526d191e481a5b9a5d1a585b1a5e995960921b606082015260800190565b602080825260189082015277232aa72224a72397a727aa2fa7a921a422a9aa2920aa27a960411b604082015260600190565b6020808252601a908201527946554e44494e472f4e4f5448494e475f544f5f52454c4541534560301b604082015260600190565b6020808252601a908201527911549497d253959053125117d49154d154959157d5d15251d21560321b604082015260600190565b6020808252601f908201527f5265656e7472616e637947756172643a207265656e7472616e742063616c6c00604082015260600190565b6020808252601290820152712a27a5a2a717a727aa2fa3a7ab22a92727a960711b604082015260600190565b60008219821115613d2557613d25613e6d565b500190565b600060ff821660ff84168060ff03821115613d4757613d47613e6d565b019392505050565b600082613d5e57613d5e613e83565b500490565b600060ff831680613d7657613d76613e83565b8060ff84160491505092915050565b6000816000190483118215151615613d9f57613d9f613e6d565b500290565b600082821015613db657613db6613e6d565b500390565b600060ff821660ff841680821015613dd557613dd5613e6d565b90039392505050565b60005b83811015613df9578181015183820152602001613de1565b838111156119625750506000910152565b600081613e1957613e19613e6d565b506000190190565b600060ff821680613e3457613e34613e6d565b6000190192915050565b6000600019821415613e5257613e52613e6d565b5060010190565b600082613e6857613e68613e83565b500690565b634e487b7160e01b600052601160045260246000fd5b634e487b7160e01b600052601260045260246000fd5b634e487b7160e01b600052604160045260246000fdfe7935bd0ae54bc31f548c14dba4d37c5c64b3f8ca900cb468fb8abd54d5894f55e098e2e7d2d4d3ca0e3877ceaaf3cdfbd47483f6699688ad12b1d6732deef10ba26469706673582212201231d0430fe1a40d42253a91c638df305a4f9c14609b1aef0565020a57d45f6b64736f6c63430008030033",
  "devdoc": {
    "kind": "dev",
    "methods": {
      "getRoleAdmin(bytes32)": {
        "details": "Returns the admin role that controls `role`. See {grantRole} and {revokeRole}. To change a role's admin, use {_setRoleAdmin}."
      },
      "grantRole(bytes32,address)": {
        "details": "Grants `role` to `account`. If `account` had not been already granted `role`, emits a {RoleGranted} event. Requirements: - the caller must have ``role``'s admin role."
      },
      "hasRole(bytes32,address)": {
        "details": "Returns `true` if `account` has been granted `role`."
      },
      "renounceRole(bytes32,address)": {
        "details": "Revokes `role` from the calling account. Roles are often managed via {grantRole} and {revokeRole}: this function's purpose is to provide a mechanism for accounts to lose their privileges if they are compromised (such as when a trusted device is misplaced). If the calling account had been granted `role`, emits a {RoleRevoked} event. Requirements: - the caller must be `account`."
      },
      "revokeRole(bytes32,address)": {
        "details": "Revokes `role` from `account`. If `account` had been granted `role`, emits a {RoleRevoked} event. Requirements: - the caller must have ``role``'s admin role."
      },
      "supportsInterface(bytes4)": {
        "details": "See {IERC165-supportsInterface}."
      }
    },
    "version": 1
  },
  "userdoc": {
    "kind": "user",
    "methods": {},
    "version": 1
  },
  "storageLayout": {
    "storage": [
      {
        "astId": 401,
        "contract": "contracts/Funding.sol:Funding",
        "label": "_initialized",
        "offset": 0,
        "slot": "0",
        "type": "t_bool"
      },
      {
        "astId": 404,
        "contract": "contracts/Funding.sol:Funding",
        "label": "_initializing",
        "offset": 1,
        "slot": "0",
        "type": "t_bool"
      },
      {
        "astId": 2397,
        "contract": "contracts/Funding.sol:Funding",
        "label": "__gap",
        "offset": 0,
        "slot": "1",
        "type": "t_array(t_uint256)50_storage"
      },
      {
        "astId": 568,
        "contract": "contracts/Funding.sol:Funding",
        "label": "_status",
        "offset": 0,
        "slot": "51",
        "type": "t_uint256"
      },
      {
        "astId": 611,
        "contract": "contracts/Funding.sol:Funding",
        "label": "__gap",
        "offset": 0,
        "slot": "52",
        "type": "t_array(t_uint256)49_storage"
      },
      {
        "astId": 3052,
        "contract": "contracts/Funding.sol:Funding",
        "label": "__gap",
        "offset": 0,
        "slot": "101",
        "type": "t_array(t_uint256)50_storage"
      },
      {
        "astId": 86,
        "contract": "contracts/Funding.sol:Funding",
        "label": "_roles",
        "offset": 0,
        "slot": "151",
        "type": "t_mapping(t_bytes32,t_struct(RoleData)81_storage)"
      },
      {
        "astId": 394,
        "contract": "contracts/Funding.sol:Funding",
        "label": "__gap",
        "offset": 0,
        "slot": "152",
        "type": "t_array(t_uint256)49_storage"
      },
      {
        "astId": 12540,
        "contract": "contracts/Funding.sol:Funding",
        "label": "maxExpArray",
        "offset": 0,
        "slot": "201",
        "type": "t_array(t_uint256)128_storage"
      },
      {
        "astId": 13124,
        "contract": "contracts/Funding.sol:Funding",
        "label": "lambertArray",
        "offset": 0,
        "slot": "329",
        "type": "t_array(t_uint256)128_storage"
      },
      {
        "astId": 8865,
        "contract": "contracts/Funding.sol:Funding",
        "label": "_token",
        "offset": 0,
        "slot": "457",
        "type": "t_address"
      },
      {
        "astId": 8867,
        "contract": "contracts/Funding.sol:Funding",
        "label": "_rewardRatio",
        "offset": 20,
        "slot": "457",
        "type": "t_uint32"
      },
      {
        "astId": 8869,
        "contract": "contracts/Funding.sol:Funding",
        "label": "_totalContribution",
        "offset": 0,
        "slot": "458",
        "type": "t_uint256"
      },
      {
        "astId": 8871,
        "contract": "contracts/Funding.sol:Funding",
        "label": "_totalRewarded",
        "offset": 0,
        "slot": "459",
        "type": "t_uint256"
      },
      {
        "astId": 8875,
        "contract": "contracts/Funding.sol:Funding",
        "label": "contributions",
        "offset": 0,
        "slot": "460",
        "type": "t_array(t_struct(Contribution)8860_storage)dyn_storage"
      },
      {
        "astId": 8878,
        "contract": "contracts/Funding.sol:Funding",
        "label": "_contributionIdTracker",
        "offset": 0,
        "slot": "461",
        "type": "t_struct(Counter)2404_storage"
      },
      {
        "astId": 8883,
        "contract": "contracts/Funding.sol:Funding",
        "label": "contributionsByHash",
        "offset": 0,
        "slot": "462",
        "type": "t_mapping(t_bytes32,t_array(t_uint256)dyn_storage)"
      },
      {
        "astId": 8889,
        "contract": "contracts/Funding.sol:Funding",
        "label": "optionsByHash",
        "offset": 0,
        "slot": "463",
        "type": "t_mapping(t_bytes32,t_array(t_uint256)8_storage)"
      },
      {
        "astId": 8894,
        "contract": "contracts/Funding.sol:Funding",
        "label": "hashesByBeneficiary",
        "offset": 0,
        "slot": "464",
        "type": "t_mapping(t_address,t_array(t_bytes32)dyn_storage)"
      },
      {
        "astId": 8900,
        "contract": "contracts/Funding.sol:Funding",
        "label": "filledTotalByBeneficiaryAndHash",
        "offset": 0,
        "slot": "465",
        "type": "t_mapping(t_address,t_mapping(t_bytes32,t_uint256))"
      },
      {
        "astId": 8906,
        "contract": "contracts/Funding.sol:Funding",
        "label": "releasedTimes",
        "offset": 0,
        "slot": "466",
        "type": "t_mapping(t_address,t_mapping(t_bytes32,t_uint256))"
      }
    ],
    "types": {
      "t_address": {
        "encoding": "inplace",
        "label": "address",
        "numberOfBytes": "20"
      },
      "t_array(t_bytes32)dyn_storage": {
        "base": "t_bytes32",
        "encoding": "dynamic_array",
        "label": "bytes32[]",
        "numberOfBytes": "32"
      },
      "t_array(t_struct(Contribution)8860_storage)dyn_storage": {
        "base": "t_struct(Contribution)8860_storage",
        "encoding": "dynamic_array",
        "label": "struct Funding.Contribution[]",
        "numberOfBytes": "32"
      },
      "t_array(t_uint256)128_storage": {
        "base": "t_uint256",
        "encoding": "inplace",
        "label": "uint256[128]",
        "numberOfBytes": "4096"
      },
      "t_array(t_uint256)49_storage": {
        "base": "t_uint256",
        "encoding": "inplace",
        "label": "uint256[49]",
        "numberOfBytes": "1568"
      },
      "t_array(t_uint256)50_storage": {
        "base": "t_uint256",
        "encoding": "inplace",
        "label": "uint256[50]",
        "numberOfBytes": "1600"
      },
      "t_array(t_uint256)8_storage": {
        "base": "t_uint256",
        "encoding": "inplace",
        "label": "uint256[8]",
        "numberOfBytes": "256"
      },
      "t_array(t_uint256)dyn_storage": {
        "base": "t_uint256",
        "encoding": "dynamic_array",
        "label": "uint256[]",
        "numberOfBytes": "32"
      },
      "t_bool": {
        "encoding": "inplace",
        "label": "bool",
        "numberOfBytes": "1"
      },
      "t_bytes32": {
        "encoding": "inplace",
        "label": "bytes32",
        "numberOfBytes": "32"
      },
      "t_mapping(t_address,t_array(t_bytes32)dyn_storage)": {
        "encoding": "mapping",
        "key": "t_address",
        "label": "mapping(address => bytes32[])",
        "numberOfBytes": "32",
        "value": "t_array(t_bytes32)dyn_storage"
      },
      "t_mapping(t_address,t_bool)": {
        "encoding": "mapping",
        "key": "t_address",
        "label": "mapping(address => bool)",
        "numberOfBytes": "32",
        "value": "t_bool"
      },
      "t_mapping(t_address,t_mapping(t_bytes32,t_uint256))": {
        "encoding": "mapping",
        "key": "t_address",
        "label": "mapping(address => mapping(bytes32 => uint256))",
        "numberOfBytes": "32",
        "value": "t_mapping(t_bytes32,t_uint256)"
      },
      "t_mapping(t_bytes32,t_array(t_uint256)8_storage)": {
        "encoding": "mapping",
        "key": "t_bytes32",
        "label": "mapping(bytes32 => uint256[8])",
        "numberOfBytes": "32",
        "value": "t_array(t_uint256)8_storage"
      },
      "t_mapping(t_bytes32,t_array(t_uint256)dyn_storage)": {
        "encoding": "mapping",
        "key": "t_bytes32",
        "label": "mapping(bytes32 => uint256[])",
        "numberOfBytes": "32",
        "value": "t_array(t_uint256)dyn_storage"
      },
      "t_mapping(t_bytes32,t_struct(RoleData)81_storage)": {
        "encoding": "mapping",
        "key": "t_bytes32",
        "label": "mapping(bytes32 => struct AccessControlUpgradeable.RoleData)",
        "numberOfBytes": "32",
        "value": "t_struct(RoleData)81_storage"
      },
      "t_mapping(t_bytes32,t_uint256)": {
        "encoding": "mapping",
        "key": "t_bytes32",
        "label": "mapping(bytes32 => uint256)",
        "numberOfBytes": "32",
        "value": "t_uint256"
      },
      "t_struct(Contribution)8860_storage": {
        "encoding": "inplace",
        "label": "struct Funding.Contribution",
        "members": [
          {
            "astId": 8849,
            "contract": "contracts/Funding.sol:Funding",
            "label": "investor",
            "offset": 0,
            "slot": "0",
            "type": "t_address"
          },
          {
            "astId": 8851,
            "contract": "contracts/Funding.sol:Funding",
            "label": "offerHash",
            "offset": 0,
            "slot": "1",
            "type": "t_bytes32"
          },
          {
            "astId": 8853,
            "contract": "contracts/Funding.sol:Funding",
            "label": "amount",
            "offset": 0,
            "slot": "2",
            "type": "t_uint256"
          },
          {
            "astId": 8855,
            "contract": "contracts/Funding.sol:Funding",
            "label": "filled",
            "offset": 0,
            "slot": "3",
            "type": "t_uint256"
          },
          {
            "astId": 8857,
            "contract": "contracts/Funding.sol:Funding",
            "label": "registeredAt",
            "offset": 0,
            "slot": "4",
            "type": "t_uint256"
          },
          {
            "astId": 8859,
            "contract": "contracts/Funding.sol:Funding",
            "label": "refundedAt",
            "offset": 0,
            "slot": "5",
            "type": "t_uint256"
          }
        ],
        "numberOfBytes": "192"
      },
      "t_struct(Counter)2404_storage": {
        "encoding": "inplace",
        "label": "struct CountersUpgradeable.Counter",
        "members": [
          {
            "astId": 2403,
            "contract": "contracts/Funding.sol:Funding",
            "label": "_value",
            "offset": 0,
            "slot": "0",
            "type": "t_uint256"
          }
        ],
        "numberOfBytes": "32"
      },
      "t_struct(RoleData)81_storage": {
        "encoding": "inplace",
        "label": "struct AccessControlUpgradeable.RoleData",
        "members": [
          {
            "astId": 78,
            "contract": "contracts/Funding.sol:Funding",
            "label": "members",
            "offset": 0,
            "slot": "0",
            "type": "t_mapping(t_address,t_bool)"
          },
          {
            "astId": 80,
            "contract": "contracts/Funding.sol:Funding",
            "label": "adminRole",
            "offset": 0,
            "slot": "1",
            "type": "t_bytes32"
          }
        ],
        "numberOfBytes": "64"
      },
      "t_uint256": {
        "encoding": "inplace",
        "label": "uint256",
        "numberOfBytes": "32"
      },
      "t_uint32": {
        "encoding": "inplace",
        "label": "uint32",
        "numberOfBytes": "4"
      }
    }
  }
}