{
  "address": "0x49cf2D0AB046a5EEc4C4C9469a2898Bf79986E5F",
  "abi": [
    {
      "anonymous": false,
      "inputs": [
        {
          "indexed": true,
          "internalType": "address",
          "name": "beneficiary",
          "type": "address"
        },
        {
          "indexed": true,
          "internalType": "bytes32",
          "name": "offerHash",
          "type": "bytes32"
        },
        {
          "indexed": true,
          "internalType": "address",
          "name": "investor",
          "type": "address"
        },
        {
          "indexed": false,
          "internalType": "uint256",
          "name": "unfilled",
          "type": "uint256"
        },
        {
          "indexed": false,
          "internalType": "uint256",
          "name": "remainderAmount",
          "type": "uint256"
        },
        {
          "indexed": false,
          "internalType": "uint256",
          "name": "contributionID",
          "type": "uint256"
        }
      ],
      "name": "ContributionRefunded",
      "type": "event"
    },
    {
      "anonymous": false,
      "inputs": [
        {
          "indexed": true,
          "internalType": "address",
          "name": "beneficiary",
          "type": "address"
        },
        {
          "indexed": true,
          "internalType": "bytes32",
          "name": "offerHash",
          "type": "bytes32"
        },
        {
          "indexed": true,
          "internalType": "address",
          "name": "investor",
          "type": "address"
        },
        {
          "indexed": false,
          "internalType": "uint256",
          "name": "filled",
          "type": "uint256"
        },
        {
          "indexed": false,
          "internalType": "uint256",
          "name": "amount",
          "type": "uint256"
        },
        {
          "indexed": false,
          "internalType": "uint256",
          "name": "contributionID",
          "type": "uint256"
        }
      ],
      "name": "ContributionRegistered",
      "type": "event"
    },
    {
      "anonymous": false,
      "inputs": [
        {
          "indexed": true,
          "internalType": "address",
          "name": "sender",
          "type": "address"
        },
        {
          "indexed": false,
          "internalType": "uint256",
          "name": "amount",
          "type": "uint256"
        }
      ],
      "name": "ReceivedEther",
      "type": "event"
    },
    {
      "anonymous": false,
      "inputs": [
        {
          "indexed": true,
          "internalType": "bytes32",
          "name": "role",
          "type": "bytes32"
        },
        {
          "indexed": true,
          "internalType": "bytes32",
          "name": "previousAdminRole",
          "type": "bytes32"
        },
        {
          "indexed": true,
          "internalType": "bytes32",
          "name": "newAdminRole",
          "type": "bytes32"
        }
      ],
      "name": "RoleAdminChanged",
      "type": "event"
    },
    {
      "anonymous": false,
      "inputs": [
        {
          "indexed": true,
          "internalType": "bytes32",
          "name": "role",
          "type": "bytes32"
        },
        {
          "indexed": true,
          "internalType": "address",
          "name": "account",
          "type": "address"
        },
        {
          "indexed": true,
          "internalType": "address",
          "name": "sender",
          "type": "address"
        }
      ],
      "name": "RoleGranted",
      "type": "event"
    },
    {
      "anonymous": false,
      "inputs": [
        {
          "indexed": true,
          "internalType": "bytes32",
          "name": "role",
          "type": "bytes32"
        },
        {
          "indexed": true,
          "internalType": "address",
          "name": "account",
          "type": "address"
        },
        {
          "indexed": true,
          "internalType": "address",
          "name": "sender",
          "type": "address"
        }
      ],
      "name": "RoleRevoked",
      "type": "event"
    },
    {
      "inputs": [],
      "name": "DEFAULT_ADMIN_ROLE",
      "outputs": [
        {
          "internalType": "bytes32",
          "name": "",
          "type": "bytes32"
        }
      ],
      "stateMutability": "view",
      "type": "function"
    },
    {
      "inputs": [],
      "name": "GOVERNOR_ROLE",
      "outputs": [
        {
          "internalType": "bytes32",
          "name": "",
          "type": "bytes32"
        }
      ],
      "stateMutability": "view",
      "type": "function"
    },
    {
      "inputs": [],
      "name": "ORCHESTRATOR_ROLE",
      "outputs": [
        {
          "internalType": "bytes32",
          "name": "",
          "type": "bytes32"
        }
      ],
      "stateMutability": "view",
      "type": "function"
    },
    {
      "inputs": [
        {
          "internalType": "uint256",
          "name": "",
          "type": "uint256"
        }
      ],
      "name": "contributions",
      "outputs": [
        {
          "internalType": "address",
          "name": "investor",
          "type": "address"
        },
        {
          "internalType": "bytes32",
          "name": "offerHash",
          "type": "bytes32"
        },
        {
          "internalType": "uint256",
          "name": "amount",
          "type": "uint256"
        },
        {
          "internalType": "uint256",
          "name": "registeredAt",
          "type": "uint256"
        },
        {
          "internalType": "uint256",
          "name": "canceledAt",
          "type": "uint256"
        }
      ],
      "stateMutability": "view",
      "type": "function"
    },
    {
      "inputs": [
        {
          "internalType": "bytes32",
          "name": "",
          "type": "bytes32"
        },
        {
          "internalType": "uint256",
          "name": "",
          "type": "uint256"
        }
      ],
      "name": "contributionsByHash",
      "outputs": [
        {
          "internalType": "uint256",
          "name": "",
          "type": "uint256"
        }
      ],
      "stateMutability": "view",
      "type": "function"
    },
    {
      "inputs": [
        {
          "internalType": "address",
          "name": "",
          "type": "address"
        },
        {
          "internalType": "bytes32",
          "name": "",
          "type": "bytes32"
        }
      ],
      "name": "filledTotalByBeneficiaryAndHash",
      "outputs": [
        {
          "internalType": "uint256",
          "name": "",
          "type": "uint256"
        }
      ],
      "stateMutability": "view",
      "type": "function"
    },
    {
      "inputs": [
        {
          "internalType": "bytes32",
          "name": "role",
          "type": "bytes32"
        }
      ],
      "name": "getRoleAdmin",
      "outputs": [
        {
          "internalType": "bytes32",
          "name": "",
          "type": "bytes32"
        }
      ],
      "stateMutability": "view",
      "type": "function"
    },
    {
      "inputs": [
        {
          "internalType": "bytes32",
          "name": "role",
          "type": "bytes32"
        },
        {
          "internalType": "address",
          "name": "account",
          "type": "address"
        }
      ],
      "name": "grantRole",
      "outputs": [],
      "stateMutability": "nonpayable",
      "type": "function"
    },
    {
      "inputs": [
        {
          "internalType": "bytes32",
          "name": "role",
          "type": "bytes32"
        },
        {
          "internalType": "address",
          "name": "account",
          "type": "address"
        }
      ],
      "name": "hasRole",
      "outputs": [
        {
          "internalType": "bool",
          "name": "",
          "type": "bool"
        }
      ],
      "stateMutability": "view",
      "type": "function"
    },
    {
      "inputs": [
        {
          "internalType": "address",
          "name": "",
          "type": "address"
        },
        {
          "internalType": "uint256",
          "name": "",
          "type": "uint256"
        }
      ],
      "name": "hashesByBeneficiary",
      "outputs": [
        {
          "internalType": "bytes32",
          "name": "",
          "type": "bytes32"
        }
      ],
      "stateMutability": "view",
      "type": "function"
    },
    {
      "inputs": [
        {
          "internalType": "address",
          "name": "token",
          "type": "address"
        },
        {
          "internalType": "uint32",
          "name": "rewardRatio",
          "type": "uint32"
        }
      ],
      "name": "initialize",
      "outputs": [],
      "stateMutability": "nonpayable",
      "type": "function"
    },
    {
      "inputs": [],
      "name": "name",
      "outputs": [
        {
          "internalType": "string",
          "name": "",
          "type": "string"
        }
      ],
      "stateMutability": "view",
      "type": "function"
    },
    {
      "inputs": [
        {
          "internalType": "bytes32",
          "name": "",
          "type": "bytes32"
        },
        {
          "internalType": "uint256",
          "name": "",
          "type": "uint256"
        }
      ],
      "name": "optionsByHash",
      "outputs": [
        {
          "internalType": "uint256",
          "name": "",
          "type": "uint256"
        }
      ],
      "stateMutability": "view",
      "type": "function"
    },
    {
      "inputs": [
        {
          "internalType": "address",
          "name": "beneficiary",
          "type": "address"
        },
        {
          "internalType": "bytes32",
          "name": "offerHash",
          "type": "bytes32"
        },
        {
          "internalType": "address",
          "name": "investor",
          "type": "address"
        },
        {
          "internalType": "uint256",
          "name": "unfilled",
          "type": "uint256"
        },
        {
          "internalType": "uint256",
          "name": "contributionId",
          "type": "uint256"
        }
      ],
      "name": "refundContribution",
      "outputs": [],
      "stateMutability": "payable",
      "type": "function"
    },
    {
      "inputs": [
        {
          "internalType": "address",
          "name": "beneficiary",
          "type": "address"
        },
        {
          "internalType": "bytes32",
          "name": "offerHash",
          "type": "bytes32"
        },
        {
          "internalType": "uint256[8]",
          "name": "fundingOptions",
          "type": "uint256[8]"
        },
        {
          "internalType": "address",
          "name": "investor",
          "type": "address"
        },
        {
          "internalType": "uint256",
          "name": "filled",
          "type": "uint256"
        },
        {
          "internalType": "uint256",
          "name": "amount",
          "type": "uint256"
        }
      ],
      "name": "registerContribution",
      "outputs": [],
      "stateMutability": "payable",
      "type": "function"
    },
    {
      "inputs": [],
      "name": "releaseAllToBeneficiary",
      "outputs": [],
      "stateMutability": "nonpayable",
      "type": "function"
    },
    {
      "inputs": [
        {
          "internalType": "bytes32",
          "name": "hash",
          "type": "bytes32"
        }
      ],
      "name": "releaseToBeneficiaryByHash",
      "outputs": [],
      "stateMutability": "nonpayable",
      "type": "function"
    },
    {
      "inputs": [
        {
          "internalType": "address",
          "name": "",
          "type": "address"
        },
        {
          "internalType": "bytes32",
          "name": "",
          "type": "bytes32"
        }
      ],
      "name": "releasedTimes",
      "outputs": [
        {
          "internalType": "uint256",
          "name": "",
          "type": "uint256"
        }
      ],
      "stateMutability": "view",
      "type": "function"
    },
    {
      "inputs": [
        {
          "internalType": "bytes32",
          "name": "role",
          "type": "bytes32"
        },
        {
          "internalType": "address",
          "name": "account",
          "type": "address"
        }
      ],
      "name": "renounceRole",
      "outputs": [],
      "stateMutability": "nonpayable",
      "type": "function"
    },
    {
      "inputs": [
        {
          "internalType": "bytes32",
          "name": "role",
          "type": "bytes32"
        },
        {
          "internalType": "address",
          "name": "account",
          "type": "address"
        }
      ],
      "name": "revokeRole",
      "outputs": [],
      "stateMutability": "nonpayable",
      "type": "function"
    },
    {
      "inputs": [
        {
          "internalType": "uint32",
          "name": "newRatio",
          "type": "uint32"
        }
      ],
      "name": "setRewardRatio",
      "outputs": [],
      "stateMutability": "nonpayable",
      "type": "function"
    },
    {
      "inputs": [
        {
          "internalType": "address",
          "name": "newAddress",
          "type": "address"
        }
      ],
      "name": "setToken",
      "outputs": [],
      "stateMutability": "nonpayable",
      "type": "function"
    },
    {
      "inputs": [
        {
          "internalType": "bytes4",
          "name": "interfaceId",
          "type": "bytes4"
        }
      ],
      "name": "supportsInterface",
      "outputs": [
        {
          "internalType": "bool",
          "name": "",
          "type": "bool"
        }
      ],
      "stateMutability": "view",
      "type": "function"
    },
    {
      "inputs": [
        {
          "internalType": "bytes32",
          "name": "offerHash",
          "type": "bytes32"
        }
      ],
      "name": "totalContributionsByHash",
      "outputs": [
        {
          "internalType": "uint256",
          "name": "",
          "type": "uint256"
        }
      ],
      "stateMutability": "view",
      "type": "function"
    },
    {
      "inputs": [],
      "name": "version",
      "outputs": [
        {
          "internalType": "string",
          "name": "",
          "type": "string"
        }
      ],
      "stateMutability": "view",
      "type": "function"
    },
    {
      "stateMutability": "payable",
      "type": "receive"
    }
  ],
  "transactionHash": "0xe7197555d6d77ddffe2c51f090abe97efd4012203682e5041761dc9b915b10fa",
  "args": [],
  "solcInputHash": "5a30045fed375067e876f30302c87ad3",
  "bytecode": "0x608060405234801561001057600080fd5b50613b3a806100206000396000f3fe60806040526004361061012a5760003560e01c806301ffc9a71461016b57806306fdde03146101a057806309e0a34f146101f35780630e7ebb651461022357806312ba4f6a14610243578063144fa6d7146102715780631cee070014610293578063248a9ca3146102e55780632f2ff15d1461030557806336568abe1461032557806347cb53b11461034557806354fd4d5014610358578063574c911b146103875780635cd16d4b1461039c5780638697b154146103bc57806386a4f976146103cf57806391d1485414610408578063a217fddf14610428578063ac06e4891461043d578063c5e4c9f91461045d578063ccc574901461047d578063d05ed88f1461049f578063d547741f146104bf578063dbf6ad81146104df578063edf1c159146104ff57610166565b366101665760405134815233907fa419615bc8fda4c87663805ee2a3597a6d71c1d476911d9892f340d965bc7bf19060200160405180910390a2005b600080fd5b34801561017757600080fd5b5061018b61018636600461367b565b610538565b60405190151581526020015b60405180910390f35b3480156101ac57600080fd5b506101e66040518060400160405280601a815260200179119b185a5c8b919a5b985b98d948119d5b991a5b99c8141bdbdb60321b81525081565b6040516101979190613748565b3480156101ff57600080fd5b50610215600080516020613ae583398151915281565b604051908152602001610197565b34801561022f57600080fd5b5061021561023e36600461365a565b610571565b34801561024f57600080fd5b5061021561025e366004613620565b60009081526101cd602052604090205490565b34801561027d57600080fd5b5061029161028c366004613487565b6105a3565b005b34801561029f57600080fd5b506102b36102ae366004613620565b610603565b604080516001600160a01b0390961686526020860194909452928401919091526060830152608082015260a001610197565b3480156102f157600080fd5b50610215610300366004613620565b61064f565b34801561031157600080fd5b50610291610320366004613638565b610664565b34801561033157600080fd5b50610291610340366004613638565b610687565b610291610353366004613517565b610705565b34801561036457600080fd5b506101e660405180604001604052806003815260200162302e3160e81b81525081565b34801561039357600080fd5b50610291610a04565b3480156103a857600080fd5b506102156103b73660046135dc565b610b09565b6102916103ca3660046134ca565b610b26565b3480156103db57600080fd5b506102156103ea3660046134a1565b6101d060209081526000928352604080842090915290825290205481565b34801561041457600080fd5b5061018b610423366004613638565b610fa0565b34801561043457600080fd5b50610215600081565b34801561044957600080fd5b50610291610458366004613620565b610fcb565b34801561046957600080fd5b506102916104783660046135ee565b61104b565b34801561048957600080fd5b50610215600080516020613ac583398151915281565b3480156104ab57600080fd5b506102156104ba36600461365a565b61112b565b3480156104cb57600080fd5b506102916104da366004613638565b611151565b3480156104eb57600080fd5b506102916104fa3660046136a3565b61116e565b34801561050b57600080fd5b5061021561051a3660046134a1565b6101d160209081526000928352604080842090915290825290205481565b60006001600160e01b03198216637965db0b60e01b148061056957506301ffc9a760e01b6001600160e01b03198316145b90505b919050565b6101cd602052816000526040600020818154811061058e57600080fd5b90600052602060002001600091509150505481565b6105bb600080516020613ac583398151915233610423565b6105e05760405162461bcd60e51b81526004016105d7906138fb565b60405180910390fd5b6101c980546001600160a01b0319166001600160a01b0392909216919091179055565b6101cc818154811061061457600080fd5b6000918252602090912060059091020180546001820154600283015460038401546004909401546001600160a01b0390931694509092909185565b60009081526097602052604090206001015490565b61066d8261064f565b61067881335b6111c9565b610682838361122d565b505050565b6001600160a01b03811633146106f75760405162461bcd60e51b815260206004820152602f60248201527f416363657373436f6e74726f6c3a2063616e206f6e6c792072656e6f756e636560448201526e103937b632b9903337b91039b2b63360891b60648201526084016105d7565b61070182826112b3565b5050565b600260335414156107285760405162461bcd60e51b81526004016105d7906138c4565b6002603355610745600080516020613ae583398151915233610423565b6107615760405162461bcd60e51b81526004016105d79061382a565b600082116107aa5760405162461bcd60e51b815260206004820152601660248201527511955391125391cbd253959053125117d1925313115160521b60448201526064016105d7565b6001600160a01b03861660009081526101d0602090815260408083208884529091529020546001111561081e576001600160a01b03861660009081526101cf602090815260408083208054600181018255908452828420018890558783526101ce909152902061081c90856008613409565b505b6040805160a0810182526001600160a01b0385811682526020820188815292820184815242606084019081526000608085018181526101cc80546001808201835582855297517f9a37fbd5e796e9046c2f5f7e29046a230a4ba9ada48a80535ed93a51fec5cfbc600590920291820180546001600160a01b031916919098161790965596517f9a37fbd5e796e9046c2f5f7e29046a230a4ba9ada48a80535ed93a51fec5cfbd86015592517f9a37fbd5e796e9046c2f5f7e29046a230a4ba9ada48a80535ed93a51fec5cfbe85015590517f9a37fbd5e796e9046c2f5f7e29046a230a4ba9ada48a80535ed93a51fec5cfbf84015590517f9a37fbd5e796e9046c2f5f7e29046a230a4ba9ada48a80535ed93a51fec5cfc090920191909155915461094991906139b9565b60008781526101cd602090815260408083208054600181018255908452828420018490556001600160a01b038b1683526101d082528083208a845290915281208054929350859290919061099e908490613927565b909155505060408051848152602081018490529081018290526001600160a01b038086169188918a16907fdf7914158578b4fa3633fd22870b445d13981be1f3b0dfd5fb1c677c33d5c16b906060015b60405180910390a4505060016033555050505050565b60026033541415610a275760405162461bcd60e51b81526004016105d7906138c4565b6002603355336000805b6001600160a01b03831660009081526101cf6020526040902054811015610ac2576001600160a01b03831660009081526101cf60205260408120805483908110610a8b57634e487b7160e01b600052603260045260246000fd5b90600052602060002001549050610aa2848261131a565b610aac9084613927565b9250508080610aba90613a53565b915050610a31565b5060008111610ae35760405162461bcd60e51b81526004016105d79061385c565b610af66001600160a01b03831682611587565b610b00828261169d565b50506001603355565b6101cf602052816000526040600020818154811061058e57600080fd5b60026033541415610b495760405162461bcd60e51b81526004016105d7906138c4565b6002603355610b66600080516020613ae583398151915233610423565b610b825760405162461bcd60e51b81526004016105d79061382a565b60006101cc8281548110610ba657634e487b7160e01b600052603260045260246000fd5b90600052602060002090600502016003015411610c045760405162461bcd60e51b815260206004820152601c60248201527b232aa72224a72397a4a72b20a624a22fa1a7a72a2924a12aaa24a7a760211b60448201526064016105d7565b600082118015610c3857506001600160a01b03851660009081526101d0602090815260408083208784529091529020548211155b610c7f5760405162461bcd60e51b815260206004820152601860248201527711955391125391cbd253959053125117d55391925313115160421b60448201526064016105d7565b6101cc8181548110610ca157634e487b7160e01b600052603260045260246000fd5b906000526020600020906005020160040154600014610cfd5760405162461bcd60e51b815260206004820152601860248201527711955391125391cbd053149150511657d0d05390d153115160421b60448201526064016105d7565b826001600160a01b03166101cc8281548110610d2957634e487b7160e01b600052603260045260246000fd5b60009182526020909120600590910201546001600160a01b031614610d875760405162461bcd60e51b8152602060048201526014602482015273232aa72224a72397a727aa2fa4a72b22a9aa27a960611b60448201526064016105d7565b6000610e096101cc8381548110610dae57634e487b7160e01b600052603260045260246000fd5b60009182526020918290206040805160a081018252600590930290910180546001600160a01b0316835260018101549383019390935260028301549082015260038201546060820152600490910154608082015242876117e4565b90506101cc8281548110610e2d57634e487b7160e01b600052603260045260246000fd5b9060005260206000209060050201600201548110610e895760405162461bcd60e51b815260206004820152601960248201527811955391125391cbd393d512125391d7d513d7d49151955391603a1b60448201526064016105d7565b6000816101cc8481548110610eae57634e487b7160e01b600052603260045260246000fd5b906000526020600020906005020160020154610eca91906139b9565b9050426101cc8481548110610eef57634e487b7160e01b600052603260045260246000fd5b60009182526020808320600460059093020191909101929092556001600160a01b03891681526101d0825260408082208983529092529081208054869290610f389084906139b9565b90915550610f5190506001600160a01b03861682611587565b60408051858152602081018390529081018490526001600160a01b038087169188918a16907f259bdf60a0c51bf7cda85ba7118f986298f98af4655bb337fc8208f8a1766254906060016109ee565b60009182526097602090815260408084206001600160a01b0393909316845291905290205460ff1690565b60026033541415610fee5760405162461bcd60e51b81526004016105d7906138c4565b600260335533426000611001838561131a565b9050600081116110235760405162461bcd60e51b81526004016105d79061385c565b6110366001600160a01b03841682611587565b611040838261169d565b505060016033555050565b600054610100900460ff1680611064575060005460ff16155b6110805760405162461bcd60e51b81526004016105d7906137dc565b600054610100900460ff161580156110a2576000805461ffff19166101011790555b6110aa61198a565b6110b66000335b6119fe565b6110ce600080516020613ac5833981519152336110b1565b6101c9805463ffffffff8416600160a01b026001600160c01b03199091166001600160a01b03861617179055670de0b6b3a76400006101ca55683635c9adc5dea000006101cb558015610682576000805461ff0019169055505050565b6101ce602052816000526040600020816008811061114857600080fd5b01549150829050565b61115a8261064f565b6111648133610673565b61068283836112b3565b611186600080516020613ac583398151915233610423565b6111a25760405162461bcd60e51b81526004016105d7906138fb565b6101c9805463ffffffff909216600160a01b0263ffffffff60a01b19909216919091179055565b6111d38282610fa0565b610701576111eb816001600160a01b03166014611a08565b6111f6836020611a08565b6040516020016112079291906136d9565b60408051601f198184030181529082905262461bcd60e51b82526105d791600401613748565b6112378282610fa0565b6107015760008281526097602090815260408083206001600160a01b03851684529091529020805460ff1916600117905561126f3390565b6001600160a01b0316816001600160a01b0316837f2f8788117e7eff1d82e926ec794901d17c78024a50270940304540a733656f0d60405160405180910390a45050565b6112bd8282610fa0565b156107015760008281526097602090815260408083206001600160a01b0385168085529252808320805460ff1916905551339285917ff6391f5c32d9c69d2a47ea670b442974b53935d1edc7fd64eb21e047a839171b9190a45050565b6001600160a01b03821660009081526101d160209081526040808320848452909152812054429061134d610e10836139b9565b81111561139b5760405162461bcd60e51b815260206004820152601c60248201527b11955391125391cbd49153115054d157d213d554931657d31253525560221b60448201526064016105d7565b6000925060005b60008581526101cd60205260409020548110156115575760008581526101cd602052604090208054611474916101cc91849081106113f057634e487b7160e01b600052603260045260246000fd5b90600052602060002001548154811061141957634e487b7160e01b600052603260045260246000fd5b60009182526020918290206040805160a081018252600590930290910180546001600160a01b0316835260018101549383019390935260028301549082015260038201546060820152600490910154608082015283876117e4565b60008681526101cd60205260409020805461152f916101cc91859081106114ab57634e487b7160e01b600052603260045260246000fd5b9060005260206000200154815481106114d457634e487b7160e01b600052603260045260246000fd5b60009182526020918290206040805160a081018252600590930290910180546001600160a01b0316835260018101549383019390935260028301549082015260038201546060820152600490910154608082015285886117e4565b61153991906139b9565b6115439085613927565b93508061154f81613a53565b9150506113a2565b50506001600160a01b0390931660009081526101d160209081526040808320948352939052919091209190915590565b804710156115d75760405162461bcd60e51b815260206004820152601d60248201527f416464726573733a20696e73756666696369656e742062616c616e636500000060448201526064016105d7565b6000826001600160a01b03168260405160006040518083038185875af1925050503d8060008114611624576040519150601f19603f3d011682016040523d82523d6000602084013e611629565b606091505b50509050806106825760405162461bcd60e51b815260206004820152603a60248201527f416464726573733a20756e61626c6520746f2073656e642076616c75652c20726044820152791958da5c1a595b9d081b585e481a185d99481c995d995c9d195960321b60648201526084016105d7565b60006116c46101cb546101ca546101c960149054906101000a900463ffffffff1685611be9565b9050806101cb60008282546116d99190613927565b92505081905550816101ca60008282546116f39190613927565b90915550506101c9546040516001600160a01b03858116602483015260448201849052600092169060640160408051601f198184030181529181526020820180516001600160e01b03166340c10f1960e01b1790525161175391906136bd565b6000604051808303816000865af19150503d8060008114611790576040519150601f19603f3d011682016040523d82523d6000602084013e611795565b606091505b50509050806117de5760405162461bcd60e51b815260206004820152601560248201527411955391125391cbd49155d0549117d19052531151605a1b60448201526064016105d7565b50505050565b60008181526101ce60205260408082208151610100810192839052839290919060089082845b81548152602001906001019080831161180a5750505050509050600080866080015111611837578461184e565b84866080015110611848578461184e565b85608001515b9050856060015181101561186757600092505050611983565b8151600090611877576000611888565b825160408801516118889190611cf0565b905080836001602002015188606001516118a29190613927565b8310156118b457935061198392505050565b60408401516000906118c75760006118dc565b6118dc85600260200201518a60400151611cf0565b90506118e88183613927565b606086015160408b01519193509060009083906119069087906139b9565b61191091906139b9565b9050600087600160200201518c6060015161192b9190613927565b905060008782116119455761194082896139b9565b611948565b60005b9050838111156119555750825b600061196a85858c6004602002015185611d09565b90506119768188613927565b9a50505050505050505050505b9392505050565b600054610100900460ff16806119a3575060005460ff16155b6119bf5760405162461bcd60e51b81526004016105d7906137dc565b600054610100900460ff161580156119e1576000805461ffff19166101011790555b6119e9611e5e565b80156119fb576000805461ff00191690555b50565b610701828261122d565b60606000611a1783600261399a565b611a22906002613927565b6001600160401b03811115611a4757634e487b7160e01b600052604160045260246000fd5b6040519080825280601f01601f191660200182016040528015611a71576020820181803683370190505b509050600360fc1b81600081518110611a9a57634e487b7160e01b600052603260045260246000fd5b60200101906001600160f81b031916908160001a905350600f60fb1b81600181518110611ad757634e487b7160e01b600052603260045260246000fd5b60200101906001600160f81b031916908160001a9053506000611afb84600261399a565b611b06906001613927565b90505b6001811115611b9a576f181899199a1a9b1b9c1cb0b131b232b360811b85600f1660108110611b4857634e487b7160e01b600052603260045260246000fd5b1a60f81b828281518110611b6c57634e487b7160e01b600052603260045260246000fd5b60200101906001600160f81b031916908160001a90535060049490941c93611b9381613a1f565b9050611b09565b5083156119835760405162461bcd60e51b815260206004820181905260248201527f537472696e67733a20686578206c656e67746820696e73756666696369656e7460448201526064016105d7565b6000808511611c0a5760405162461bcd60e51b81526004016105d7906137b0565b60008411611c2a5760405162461bcd60e51b81526004016105d79061377b565b60008363ffffffff16118015611c495750620f424063ffffffff841611155b611c655760405162461bcd60e51b81526004016105d790613890565b81611c7257506000611ce8565b63ffffffff8316620f42401415611c9f5783611c8e8684611ece565b611c989190613964565b9050611ce8565b60008080611cad8588611eda565b9050611cbe818888620f4240611ee6565b9093509150600060ff8316611cd38a86611ece565b901c9050611ce189826139b9565b9450505050505b949350505050565b6000612710611cff838561399a565b6119839190613964565b6000808511611d2a5760405162461bcd60e51b81526004016105d7906137b0565b60008411611d4a5760405162461bcd60e51b81526004016105d79061377b565b60008363ffffffff16118015611d695750620f424063ffffffff841611155b611d855760405162461bcd60e51b81526004016105d790613890565b84821115611dca5760405162461bcd60e51b815260206004820152601260248201527111549497d253959053125117d05353d5539560721b60448201526064016105d7565b81611dd757506000611ce8565b84821415611de6575082611ce8565b63ffffffff8316620f42401415611e025784611c8e8584611ece565b60008080611e1085896139b9565b9050611e218882620f424089611ee6565b90935091506000611e328885611ece565b905060ff831688901b84611e4682846139b9565b611e509190613964565b9a9950505050505050505050565b600054610100900460ff1680611e77575060005460ff16155b611e935760405162461bcd60e51b81526004016105d7906137dc565b600054610100900460ff16158015611eb5576000805461ffff19166101011790555b600160335580156119fb576000805461ff001916905550565b6000611983828461399a565b60006119838284613927565b600080600160811b8610611ef957600080fd5b60008086611f0b6001607f1b8a61399a565b611f159190613964565b905070015bf0a8b1457695355fb8ac404e7a79e3811015611f4057611f3981611fd3565b9150611f4c565b611f498161254c565b91505b60008563ffffffff168763ffffffff1684611f67919061399a565b611f719190613964565b9050600160831b811015611f9657611f8881612630565b607f94509450505050611fca565b6000611fa182612c5b565b9050611fbd611fb182607f6139d0565b60ff1683901c82612d3b565b95509350611fca92505050565b94509492505050565b6000808080806fd3094c70f034de4b96ff7d5b6f99fcd8861061202c57611ffe6001607e1b85613927565b93506fd3094c70f034de4b96ff7d5b6f99fcd861201f6001607f1b8861399a565b6120299190613964565b95505b6fa45af1e1f40c333b3de1db4dd55f29a7861061207f576120516001607d1b85613927565b93506fa45af1e1f40c333b3de1db4dd55f29a76120726001607f1b8861399a565b61207c9190613964565b95505b6f910b022db7ae67ce76b441c27035c6a186106120d2576120a46001607c1b85613927565b93506f910b022db7ae67ce76b441c27035c6a16120c56001607f1b8861399a565b6120cf9190613964565b95505b6f88415abbe9a76bead8d00cf112e4d4a88610612125576120f76001607b1b85613927565b93506f88415abbe9a76bead8d00cf112e4d4a86121186001607f1b8861399a565b6121229190613964565b95505b6f84102b00893f64c705e841d5d4064bd386106121785761214a6001607a1b85613927565b93506f84102b00893f64c705e841d5d4064bd361216b6001607f1b8861399a565b6121759190613964565b95505b6f8204055aaef1c8bd5c3259f4822735a286106121cb5761219d600160791b85613927565b93506f8204055aaef1c8bd5c3259f4822735a26121be6001607f1b8861399a565b6121c89190613964565b95505b6f810100ab00222d861931c15e39b44e99861061221e576121f0600160781b85613927565b93506f810100ab00222d861931c15e39b44e996122116001607f1b8861399a565b61221b9190613964565b95505b6f808040155aabbbe9451521693554f733861061227157612243600160771b85613927565b93506f808040155aabbbe9451521693554f7336122646001607f1b8861399a565b61226e9190613964565b95505b61227f6001607f1b876139b9565b92508291506001607f1b612293838061399a565b61229d9190613964565b9050600160801b6122ae84826139b9565b6122b8908461399a565b6122c29190613964565b6122cc9085613927565b93506001607f1b6122dd828461399a565b6122e79190613964565b9150600160811b612308846faaaaaaaaaaaaaaaaaaaaaaaaaaaaaaaa6139b9565b612312908461399a565b61231c9190613964565b6123269085613927565b93506001607f1b612337828461399a565b6123419190613964565b9150600360801b612362846f999999999999999999999999999999996139b9565b61236c908461399a565b6123769190613964565b6123809085613927565b93506001607f1b612391828461399a565b61239b9190613964565b9150600160821b6123bc846f924924924924924924924924924924926139b9565b6123c6908461399a565b6123d09190613964565b6123da9085613927565b93506001607f1b6123eb828461399a565b6123f59190613964565b9150600560801b612416846f8e38e38e38e38e38e38e38e38e38e38e6139b9565b612420908461399a565b61242a9190613964565b6124349085613927565b93506001607f1b612445828461399a565b61244f9190613964565b9150600360811b612470846f8ba2e8ba2e8ba2e8ba2e8ba2e8ba2e8b6139b9565b61247a908461399a565b6124849190613964565b61248e9085613927565b93506001607f1b61249f828461399a565b6124a99190613964565b9150600760801b6124ca846f89d89d89d89d89d89d89d89d89d89d896139b9565b6124d4908461399a565b6124de9190613964565b6124e89085613927565b93506001607f1b6124f9828461399a565b6125039190613964565b9150600160831b612524846f888888888888888888888888888888886139b9565b61252e908461399a565b6125389190613964565b6125429085613927565b9695505050505050565b600080600160801b831061259057600061257261256d6001607f1b86613964565b61339d565b60ff811694851c9490915061258c906001607f1b9061399a565b9150505b6001607f1b83111561260557607f5b60ff811615612603576001607f1b6125b7858061399a565b6125c19190613964565b9350600160801b84106125f357600193841c936125de90826139d0565b60ff166001901b826125f09190613927565b91505b6125fc81613a36565b905061259f565b505b6f05b9de1d10bf4103d647b0955897ba80611cff6f03f80fe03f80fe03f80fe03f80fe03f88361399a565b60008080806126436001607c1b86613a6e565b91508190506001607f1b612657828061399a565b6126619190613964565b9050612675816710e1b3be415a000061399a565b61267f9084613927565b92506001607f1b612690838361399a565b61269a9190613964565b90506126ae816705a0913f6b1e000061399a565b6126b89084613927565b92506001607f1b6126c9838361399a565b6126d39190613964565b90506126e781670168244fdac7800061399a565b6126f19084613927565b92506001607f1b612702838361399a565b61270c9190613964565b905061271f81664807432bc1800061399a565b6127299084613927565b92506001607f1b61273a838361399a565b6127449190613964565b905061275781660c0135dca0400061399a565b6127619084613927565b92506001607f1b612772838361399a565b61277c9190613964565b905061278f816601b707b1cdc00061399a565b6127999084613927565b92506001607f1b6127aa838361399a565b6127b49190613964565b90506127c6816536e0f639b80061399a565b6127d09084613927565b92506001607f1b6127e1838361399a565b6127eb9190613964565b90506127fd81650618fee9f80061399a565b6128079084613927565b92506001607f1b612818838361399a565b6128229190613964565b905061283381649c197dcc0061399a565b61283d9084613927565b92506001607f1b61284e838361399a565b6128589190613964565b905061286981640e30dce40061399a565b6128739084613927565b92506001607f1b612884838361399a565b61288e9190613964565b905061289f8164012ebd130061399a565b6128a99084613927565b92506001607f1b6128ba838361399a565b6128c49190613964565b90506128d4816317499f0061399a565b6128de9084613927565b92506001607f1b6128ef838361399a565b6128f99190613964565b9050612909816301a9d48061399a565b6129139084613927565b92506001607f1b612924838361399a565b61292e9190613964565b905061293d81621c638061399a565b6129479084613927565b92506001607f1b612958838361399a565b6129629190613964565b9050612971816201c63861399a565b61297b9084613927565b92506001607f1b61298c838361399a565b6129969190613964565b90506129a481611ab861399a565b6129ae9084613927565b92506001607f1b6129bf838361399a565b6129c99190613964565b90506129d78161017c61399a565b6129e19084613927565b92506001607f1b6129f2838361399a565b6129fc9190613964565b9050612a0981601461399a565b612a139084613927565b92506001607f1b612a24838361399a565b612a2e9190613964565b9050612a3b81600161399a565b612a459084613927565b92506001607f1b82612a5f6721c3677c82b4000086613964565b612a699190613927565b612a739190613927565b92506001607c1b851615612abb5770018ebef9eac820ae8682b9793ac6d1e776612aae847001c3d6a24ed82218787d624d3e5eba95f961399a565b612ab89190613964565b92505b6001607d1b851615612b01577001368b2fc6f9609fe7aceb46aa619baed4612af48470018ebef9eac820ae8682b9793ac6d1e77861399a565b612afe9190613964565b92505b6001607e1b851615612b46576fbc5ab1b16779be3575bd8f0520a9f21f612b39847001368b2fc6f9609fe7aceb46aa619baed561399a565b612b439190613964565b92505b6001607f1b851615612b8a576f454aaa8efe072e7f6ddbab84b40a55c9612b7d846fbc5ab1b16779be3575bd8f0520a9f21e61399a565b612b879190613964565b92505b600160801b851615612bce576f0960aadc109e7a3bf4578099615711ea612bc1846f454aaa8efe072e7f6ddbab84b40a55c561399a565b612bcb9190613964565b92505b600160811b851615612c11576e2bf84208204f5977f9a8cf01fdce3d612c04846f0960aadc109e7a3bf4578099615711d761399a565b612c0e9190613964565b92505b600160821b851615612c52576d03c6ab775dd0b95b4cbee7e65d11612c45846e2bf84208204f5977f9a8cf01fdc30761399a565b612c4f9190613964565b92505b50909392505050565b60006020607f5b60ff8116612c7183600161393f565b60ff161015612cd25760006002612c88838561393f565b612c929190613978565b90508460c98260ff1660808110612cb957634e487b7160e01b600052603260045260246000fd5b015410612cc857809250612ccc565b8091505b50612c62565b8360c98260ff1660808110612cf757634e487b7160e01b600052603260045260246000fd5b015410612d0757915061056c9050565b8360c98360ff1660808110612d2c57634e487b7160e01b600052603260045260246000fd5b0154106101665750905061056c565b6000828160ff8416612d4d838061399a565b901c9150612d6a826b0d10b13981d2a0bc5e5fdcab601e1b61399a565b612d749082613927565b905060ff8416612d84868461399a565b901c9150612da1826b045ae5bdd5f0e03eca1ff439601e1b61399a565b612dab9082613927565b905060ff8416612dbb868461399a565b901c9150612dd8826e45ae5bdd5f0e03eca1ff439000000061399a565b612de29082613927565b905060ff8416612df2868461399a565b901c9150612e0e826adefabf91302cd95b9ffda5601c1b61399a565b612e189082613927565b905060ff8416612e28868461399a565b901c9150612e44826a4a53953065644873dfff37601b1b61399a565b612e4e9082613927565b905060ff8416612e5e868461399a565b901c9150612e7a826d54f1cf12bd04e516b6da8800000061399a565b612e849082613927565b905060ff8416612e94868461399a565b901c9150612eb0826d0a9e39e257a09ca2d6db5100000061399a565b612eba9082613927565b905060ff8416612eca868461399a565b901c9150612ee6826d012e066e7b839fa050c30900000061399a565b612ef09082613927565b905060ff8416612f00868461399a565b901c9150612f1b826c1e33d7d926c329a1ad1a80000061399a565b612f259082613927565b905060ff8416612f35868461399a565b901c9150612f50826c02bee513bdb4a6b19b5f80000061399a565b612f5a9082613927565b905060ff8416612f6a868461399a565b901c9150612f84826b3a9316fa79b88eccf2a0000061399a565b612f8e9082613927565b905060ff8416612f9e868461399a565b901c9150612fb8826b048177ebe1fa81237520000061399a565b612fc29082613927565b905060ff8416612fd2868461399a565b901c9150612feb826a5263fe90242dcbacf0000061399a565b612ff59082613927565b905060ff8416613005868461399a565b901c915061301e826a057e22099c030d9410000061399a565b6130289082613927565b905060ff8416613038868461399a565b901c9150613050826957e22099c030d941000061399a565b61305a9082613927565b905060ff841661306a868461399a565b901c91506130828269052b6b5456997631000061399a565b61308c9082613927565b905060ff841661309c868461399a565b901c91506130b382684985f67696bf74800061399a565b6130bd9082613927565b905060ff84166130cd868461399a565b901c91506130e4826803dea12ea99e49800061399a565b6130ee9082613927565b905060ff84166130fe868461399a565b901c9150613114826731880f2214b6e00061399a565b61311e9082613927565b905060ff841661312e868461399a565b901c91506131448267025bcff56eb3600061399a565b61314e9082613927565b905060ff841661315e868461399a565b901c915061317382661b722e10ab100061399a565b61317d9082613927565b905060ff841661318d868461399a565b901c91506131a2826601317c7007700061399a565b6131ac9082613927565b905060ff84166131bc868461399a565b901c91506131d082650cba84aafa0061399a565b6131da9082613927565b905060ff84166131ea868461399a565b901c91506131fd826482573a0a0061399a565b6132079082613927565b905060ff8416613217868461399a565b901c915061322a826405035ad90061399a565b6132349082613927565b905060ff8416613244868461399a565b901c915061325682632f881b0061399a565b6132609082613927565b905060ff8416613270868461399a565b901c9150613282826301b2934061399a565b61328c9082613927565b905060ff841661329c868461399a565b901c91506132ad82620efc4061399a565b6132b79082613927565b905060ff84166132c7868461399a565b901c91506132d782617fe061399a565b6132e19082613927565b905060ff84166132f1868461399a565b901c91506133018261042061399a565b61330b9082613927565b905060ff841661331b868461399a565b901c915061332a82602161399a565b6133349082613927565b905060ff8416613344868461399a565b901c915061335382600161399a565b61335d9082613927565b9050600160ff85161b856133806b0d10b13981d2a0bc5e5fdcab601f1b84613964565b61338a9190613927565b6133949190613927565b95945050505050565b6000806101008310156133d0575b60018311156133cb57600192831c926133c4908261393f565b90506133ab565b610569565b60805b60ff81161561340257600160ff82161b84106133f75760ff81169390931c92908117905b60011c607f166133d3565b5092915050565b8260088101928215613437579160200282015b8281111561343757825182559160200191906001019061341c565b50613443929150613447565b5090565b5b808211156134435760008155600101613448565b80356001600160a01b038116811461056c57600080fd5b803563ffffffff8116811461056c57600080fd5b600060208284031215613498578081fd5b6119838261345c565b600080604083850312156134b3578081fd5b6134bc8361345c565b946020939093013593505050565b600080600080600060a086880312156134e1578081fd5b6134ea8661345c565b9450602086013593506134ff6040870161345c565b94979396509394606081013594506080013592915050565b6000806000806000806101a08789031215613530578081fd5b6135398761345c565b9550602080880135955088605f890112613551578182fd5b60405161010081016001600160401b038111828210171561357457613574613aae565b80604052508060408a016101408b018c81111561358f578586fd5b855b60088110156135ae57823584529285019291850191600101613591565b508398506135bb8161345c565b97505050505050610160870135915061018087013590509295509295509295565b600080604083850312156134b3578182fd5b60008060408385031215613600578182fd5b6136098361345c565b915061361760208401613473565b90509250929050565b600060208284031215613631578081fd5b5035919050565b6000806040838503121561364a578182fd5b823591506136176020840161345c565b6000806040838503121561366c578182fd5b50508035926020909101359150565b60006020828403121561368c578081fd5b81356001600160e01b031981168114611983578182fd5b6000602082840312156136b4578081fd5b61198382613473565b600082516136cf8184602087016139f3565b9190910192915050565b600076020b1b1b2b9b9a1b7b73a3937b61d1030b1b1b7bab73a1604d1b8252835161370b8160178501602088016139f3565b7001034b99036b4b9b9b4b733903937b6329607d1b601791840191820152835161373c8160288401602088016139f3565b01602801949350505050565b60006020825282518060208401526137678160408501602087016139f3565b601f01601f19169190910160400192915050565b6020808252601b908201527a4552525f494e56414c49445f524553455256455f42414c414e434560281b604082015260600190565b6020808252601290820152714552525f494e56414c49445f535550504c5960701b604082015260600190565b6020808252602e908201527f496e697469616c697a61626c653a20636f6e747261637420697320616c72656160408201526d191e481a5b9a5d1a585b1a5e995960921b606082015260800190565b602080825260189082015277232aa72224a72397a727aa2fa7a921a422a9aa2920aa27a960411b604082015260600190565b6020808252601a908201527946554e44494e472f4e4f5448494e475f544f5f52454c4541534560301b604082015260600190565b6020808252601a908201527911549497d253959053125117d49154d154959157d5d15251d21560321b604082015260600190565b6020808252601f908201527f5265656e7472616e637947756172643a207265656e7472616e742063616c6c00604082015260600190565b6020808252601290820152712a27a5a2a717a727aa2fa3a7ab22a92727a960711b604082015260600190565b6000821982111561393a5761393a613a82565b500190565b600060ff821660ff84168060ff0382111561395c5761395c613a82565b019392505050565b60008261397357613973613a98565b500490565b600060ff83168061398b5761398b613a98565b8060ff84160491505092915050565b60008160001904831182151516156139b4576139b4613a82565b500290565b6000828210156139cb576139cb613a82565b500390565b600060ff821660ff8416808210156139ea576139ea613a82565b90039392505050565b60005b83811015613a0e5781810151838201526020016139f6565b838111156117de5750506000910152565b600081613a2e57613a2e613a82565b506000190190565b600060ff821680613a4957613a49613a82565b6000190192915050565b6000600019821415613a6757613a67613a82565b5060010190565b600082613a7d57613a7d613a98565b500690565b634e487b7160e01b600052601160045260246000fd5b634e487b7160e01b600052601260045260246000fd5b634e487b7160e01b600052604160045260246000fdfe7935bd0ae54bc31f548c14dba4d37c5c64b3f8ca900cb468fb8abd54d5894f55e098e2e7d2d4d3ca0e3877ceaaf3cdfbd47483f6699688ad12b1d6732deef10ba264697066735822122038bdc82b1106745c8f30bee4aaf50dfa0cae2cb30a46b7dd455798f4280409c564736f6c63430008030033",
  "devdoc": {
    "kind": "dev",
    "methods": {
      "getRoleAdmin(bytes32)": {
        "details": "Returns the admin role that controls `role`. See {grantRole} and {revokeRole}. To change a role's admin, use {_setRoleAdmin}."
      },
      "grantRole(bytes32,address)": {
        "details": "Grants `role` to `account`. If `account` had not been already granted `role`, emits a {RoleGranted} event. Requirements: - the caller must have ``role``'s admin role."
      },
      "hasRole(bytes32,address)": {
        "details": "Returns `true` if `account` has been granted `role`."
      },
      "renounceRole(bytes32,address)": {
        "details": "Revokes `role` from the calling account. Roles are often managed via {grantRole} and {revokeRole}: this function's purpose is to provide a mechanism for accounts to lose their privileges if they are compromised (such as when a trusted device is misplaced). If the calling account had been granted `role`, emits a {RoleRevoked} event. Requirements: - the caller must be `account`."
      },
      "revokeRole(bytes32,address)": {
        "details": "Revokes `role` from `account`. If `account` had been granted `role`, emits a {RoleRevoked} event. Requirements: - the caller must have ``role``'s admin role."
      },
      "supportsInterface(bytes4)": {
        "details": "See {IERC165-supportsInterface}."
      }
    },
    "version": 1
  },
  "userdoc": {
    "kind": "user",
    "methods": {},
    "version": 1
  },
  "storageLayout": {
    "storage": [
      {
        "astId": 401,
        "contract": "contracts/Funding.sol:Funding",
        "label": "_initialized",
        "offset": 0,
        "slot": "0",
        "type": "t_bool"
      },
      {
        "astId": 404,
        "contract": "contracts/Funding.sol:Funding",
        "label": "_initializing",
        "offset": 1,
        "slot": "0",
        "type": "t_bool"
      },
      {
        "astId": 2351,
        "contract": "contracts/Funding.sol:Funding",
        "label": "__gap",
        "offset": 0,
        "slot": "1",
        "type": "t_array(t_uint256)50_storage"
      },
      {
        "astId": 568,
        "contract": "contracts/Funding.sol:Funding",
        "label": "_status",
        "offset": 0,
        "slot": "51",
        "type": "t_uint256"
      },
      {
        "astId": 611,
        "contract": "contracts/Funding.sol:Funding",
        "label": "__gap",
        "offset": 0,
        "slot": "52",
        "type": "t_array(t_uint256)49_storage"
      },
      {
        "astId": 2954,
        "contract": "contracts/Funding.sol:Funding",
        "label": "__gap",
        "offset": 0,
        "slot": "101",
        "type": "t_array(t_uint256)50_storage"
      },
      {
        "astId": 86,
        "contract": "contracts/Funding.sol:Funding",
        "label": "_roles",
        "offset": 0,
        "slot": "151",
        "type": "t_mapping(t_bytes32,t_struct(RoleData)81_storage)"
      },
      {
        "astId": 394,
        "contract": "contracts/Funding.sol:Funding",
        "label": "__gap",
        "offset": 0,
        "slot": "152",
        "type": "t_array(t_uint256)49_storage"
      },
      {
        "astId": 10469,
        "contract": "contracts/Funding.sol:Funding",
        "label": "maxExpArray",
        "offset": 0,
        "slot": "201",
        "type": "t_array(t_uint256)128_storage"
      },
      {
        "astId": 11053,
        "contract": "contracts/Funding.sol:Funding",
        "label": "lambertArray",
        "offset": 0,
        "slot": "329",
        "type": "t_array(t_uint256)128_storage"
      },
      {
        "astId": 7139,
        "contract": "contracts/Funding.sol:Funding",
        "label": "_token",
        "offset": 0,
        "slot": "457",
        "type": "t_address"
      },
      {
        "astId": 7141,
        "contract": "contracts/Funding.sol:Funding",
        "label": "_rewardRatio",
        "offset": 20,
        "slot": "457",
        "type": "t_uint32"
      },
      {
        "astId": 7143,
        "contract": "contracts/Funding.sol:Funding",
        "label": "_totalContribution",
        "offset": 0,
        "slot": "458",
        "type": "t_uint256"
      },
      {
        "astId": 7145,
        "contract": "contracts/Funding.sol:Funding",
        "label": "_totalRewarded",
        "offset": 0,
        "slot": "459",
        "type": "t_uint256"
      },
      {
        "astId": 7149,
        "contract": "contracts/Funding.sol:Funding",
        "label": "contributions",
        "offset": 0,
        "slot": "460",
        "type": "t_array(t_struct(Contribution)7134_storage)dyn_storage"
      },
      {
        "astId": 7154,
        "contract": "contracts/Funding.sol:Funding",
        "label": "contributionsByHash",
        "offset": 0,
        "slot": "461",
        "type": "t_mapping(t_bytes32,t_array(t_uint256)dyn_storage)"
      },
      {
        "astId": 7160,
        "contract": "contracts/Funding.sol:Funding",
        "label": "optionsByHash",
        "offset": 0,
        "slot": "462",
        "type": "t_mapping(t_bytes32,t_array(t_uint256)8_storage)"
      },
      {
        "astId": 7165,
        "contract": "contracts/Funding.sol:Funding",
        "label": "hashesByBeneficiary",
        "offset": 0,
        "slot": "463",
        "type": "t_mapping(t_address,t_array(t_bytes32)dyn_storage)"
      },
      {
        "astId": 7171,
        "contract": "contracts/Funding.sol:Funding",
        "label": "filledTotalByBeneficiaryAndHash",
        "offset": 0,
        "slot": "464",
        "type": "t_mapping(t_address,t_mapping(t_bytes32,t_uint256))"
      },
      {
        "astId": 7177,
        "contract": "contracts/Funding.sol:Funding",
        "label": "releasedTimes",
        "offset": 0,
        "slot": "465",
        "type": "t_mapping(t_address,t_mapping(t_bytes32,t_uint256))"
      }
    ],
    "types": {
      "t_address": {
        "encoding": "inplace",
        "label": "address",
        "numberOfBytes": "20"
      },
      "t_array(t_bytes32)dyn_storage": {
        "base": "t_bytes32",
        "encoding": "dynamic_array",
        "label": "bytes32[]",
        "numberOfBytes": "32"
      },
      "t_array(t_struct(Contribution)7134_storage)dyn_storage": {
        "base": "t_struct(Contribution)7134_storage",
        "encoding": "dynamic_array",
        "label": "struct Funding.Contribution[]",
        "numberOfBytes": "32"
      },
      "t_array(t_uint256)128_storage": {
        "base": "t_uint256",
        "encoding": "inplace",
        "label": "uint256[128]",
        "numberOfBytes": "4096"
      },
      "t_array(t_uint256)49_storage": {
        "base": "t_uint256",
        "encoding": "inplace",
        "label": "uint256[49]",
        "numberOfBytes": "1568"
      },
      "t_array(t_uint256)50_storage": {
        "base": "t_uint256",
        "encoding": "inplace",
        "label": "uint256[50]",
        "numberOfBytes": "1600"
      },
      "t_array(t_uint256)8_storage": {
        "base": "t_uint256",
        "encoding": "inplace",
        "label": "uint256[8]",
        "numberOfBytes": "256"
      },
      "t_array(t_uint256)dyn_storage": {
        "base": "t_uint256",
        "encoding": "dynamic_array",
        "label": "uint256[]",
        "numberOfBytes": "32"
      },
      "t_bool": {
        "encoding": "inplace",
        "label": "bool",
        "numberOfBytes": "1"
      },
      "t_bytes32": {
        "encoding": "inplace",
        "label": "bytes32",
        "numberOfBytes": "32"
      },
      "t_mapping(t_address,t_array(t_bytes32)dyn_storage)": {
        "encoding": "mapping",
        "key": "t_address",
        "label": "mapping(address => bytes32[])",
        "numberOfBytes": "32",
        "value": "t_array(t_bytes32)dyn_storage"
      },
      "t_mapping(t_address,t_bool)": {
        "encoding": "mapping",
        "key": "t_address",
        "label": "mapping(address => bool)",
        "numberOfBytes": "32",
        "value": "t_bool"
      },
      "t_mapping(t_address,t_mapping(t_bytes32,t_uint256))": {
        "encoding": "mapping",
        "key": "t_address",
        "label": "mapping(address => mapping(bytes32 => uint256))",
        "numberOfBytes": "32",
        "value": "t_mapping(t_bytes32,t_uint256)"
      },
      "t_mapping(t_bytes32,t_array(t_uint256)8_storage)": {
        "encoding": "mapping",
        "key": "t_bytes32",
        "label": "mapping(bytes32 => uint256[8])",
        "numberOfBytes": "32",
        "value": "t_array(t_uint256)8_storage"
      },
      "t_mapping(t_bytes32,t_array(t_uint256)dyn_storage)": {
        "encoding": "mapping",
        "key": "t_bytes32",
        "label": "mapping(bytes32 => uint256[])",
        "numberOfBytes": "32",
        "value": "t_array(t_uint256)dyn_storage"
      },
      "t_mapping(t_bytes32,t_struct(RoleData)81_storage)": {
        "encoding": "mapping",
        "key": "t_bytes32",
        "label": "mapping(bytes32 => struct AccessControlUpgradeable.RoleData)",
        "numberOfBytes": "32",
        "value": "t_struct(RoleData)81_storage"
      },
      "t_mapping(t_bytes32,t_uint256)": {
        "encoding": "mapping",
        "key": "t_bytes32",
        "label": "mapping(bytes32 => uint256)",
        "numberOfBytes": "32",
        "value": "t_uint256"
      },
      "t_struct(Contribution)7134_storage": {
        "encoding": "inplace",
        "label": "struct Funding.Contribution",
        "members": [
          {
            "astId": 7125,
            "contract": "contracts/Funding.sol:Funding",
            "label": "investor",
            "offset": 0,
            "slot": "0",
            "type": "t_address"
          },
          {
            "astId": 7127,
            "contract": "contracts/Funding.sol:Funding",
            "label": "offerHash",
            "offset": 0,
            "slot": "1",
            "type": "t_bytes32"
          },
          {
            "astId": 7129,
            "contract": "contracts/Funding.sol:Funding",
            "label": "amount",
            "offset": 0,
            "slot": "2",
            "type": "t_uint256"
          },
          {
            "astId": 7131,
            "contract": "contracts/Funding.sol:Funding",
            "label": "registeredAt",
            "offset": 0,
            "slot": "3",
            "type": "t_uint256"
          },
          {
            "astId": 7133,
            "contract": "contracts/Funding.sol:Funding",
            "label": "canceledAt",
            "offset": 0,
            "slot": "4",
            "type": "t_uint256"
          }
        ],
        "numberOfBytes": "160"
      },
      "t_struct(RoleData)81_storage": {
        "encoding": "inplace",
        "label": "struct AccessControlUpgradeable.RoleData",
        "members": [
          {
            "astId": 78,
            "contract": "contracts/Funding.sol:Funding",
            "label": "members",
            "offset": 0,
            "slot": "0",
            "type": "t_mapping(t_address,t_bool)"
          },
          {
            "astId": 80,
            "contract": "contracts/Funding.sol:Funding",
            "label": "adminRole",
            "offset": 0,
            "slot": "1",
            "type": "t_bytes32"
          }
        ],
        "numberOfBytes": "64"
      },
      "t_uint256": {
        "encoding": "inplace",
        "label": "uint256",
        "numberOfBytes": "32"
      },
      "t_uint32": {
        "encoding": "inplace",
        "label": "uint32",
        "numberOfBytes": "4"
      }
    }
  }
}