{
  "address": "0x6F2A34f3450312C2f02072F00eB79Ea489091bDa",
  "abi": [
    {
      "inputs": [],
      "stateMutability": "nonpayable",
      "type": "constructor"
    },
    {
      "anonymous": false,
      "inputs": [
        {
          "indexed": true,
          "internalType": "address",
          "name": "previousOwner",
          "type": "address"
        },
        {
          "indexed": true,
          "internalType": "address",
          "name": "newOwner",
          "type": "address"
        }
      ],
      "name": "OwnershipTransferred",
      "type": "event"
    },
    {
      "inputs": [],
      "name": "DELAY_PERIOD",
      "outputs": [
        {
          "internalType": "uint256",
          "name": "",
          "type": "uint256"
        }
      ],
      "stateMutability": "view",
      "type": "function"
    },
    {
      "inputs": [
        {
          "internalType": "address",
          "name": "",
          "type": "address"
        }
      ],
      "name": "contracts",
      "outputs": [
        {
          "internalType": "bool",
          "name": "",
          "type": "bool"
        }
      ],
      "stateMutability": "view",
      "type": "function"
    },
    {
      "inputs": [],
      "name": "delegateProxyImplementation",
      "outputs": [
        {
          "internalType": "address",
          "name": "",
          "type": "address"
        }
      ],
      "stateMutability": "view",
      "type": "function"
    },
    {
      "inputs": [
        {
          "internalType": "address",
          "name": "addr",
          "type": "address"
        }
      ],
      "name": "endGrantAuthentication",
      "outputs": [],
      "stateMutability": "nonpayable",
      "type": "function"
    },
    {
      "inputs": [
        {
          "internalType": "address",
          "name": "authAddress",
          "type": "address"
        }
      ],
      "name": "grantInitialAuthentication",
      "outputs": [],
      "stateMutability": "nonpayable",
      "type": "function"
    },
    {
      "inputs": [],
      "name": "initialAddressSet",
      "outputs": [
        {
          "internalType": "bool",
          "name": "",
          "type": "bool"
        }
      ],
      "stateMutability": "view",
      "type": "function"
    },
    {
      "inputs": [],
      "name": "name",
      "outputs": [
        {
          "internalType": "string",
          "name": "",
          "type": "string"
        }
      ],
      "stateMutability": "view",
      "type": "function"
    },
    {
      "inputs": [],
      "name": "owner",
      "outputs": [
        {
          "internalType": "address",
          "name": "",
          "type": "address"
        }
      ],
      "stateMutability": "view",
      "type": "function"
    },
    {
      "inputs": [
        {
          "internalType": "address",
          "name": "",
          "type": "address"
        }
      ],
      "name": "pending",
      "outputs": [
        {
          "internalType": "uint256",
          "name": "",
          "type": "uint256"
        }
      ],
      "stateMutability": "view",
      "type": "function"
    },
    {
      "inputs": [
        {
          "internalType": "address",
          "name": "",
          "type": "address"
        }
      ],
      "name": "proxies",
      "outputs": [
        {
          "internalType": "contract OwnableDelegateProxy",
          "name": "",
          "type": "address"
        }
      ],
      "stateMutability": "view",
      "type": "function"
    },
    {
      "inputs": [],
      "name": "registerProxy",
      "outputs": [
        {
          "internalType": "contract OwnableDelegateProxy",
          "name": "proxy",
          "type": "address"
        }
      ],
      "stateMutability": "nonpayable",
      "type": "function"
    },
    {
      "inputs": [
        {
          "internalType": "address",
          "name": "user",
          "type": "address"
        }
      ],
      "name": "registerProxyFor",
      "outputs": [
        {
          "internalType": "contract OwnableDelegateProxy",
          "name": "proxy",
          "type": "address"
        }
      ],
      "stateMutability": "nonpayable",
      "type": "function"
    },
    {
      "inputs": [],
      "name": "registerProxyOverride",
      "outputs": [
        {
          "internalType": "contract OwnableDelegateProxy",
          "name": "proxy",
          "type": "address"
        }
      ],
      "stateMutability": "nonpayable",
      "type": "function"
    },
    {
      "inputs": [],
      "name": "renounceOwnership",
      "outputs": [],
      "stateMutability": "nonpayable",
      "type": "function"
    },
    {
      "inputs": [
        {
          "internalType": "address",
          "name": "addr",
          "type": "address"
        }
      ],
      "name": "revokeAuthentication",
      "outputs": [],
      "stateMutability": "nonpayable",
      "type": "function"
    },
    {
      "inputs": [
        {
          "internalType": "address",
          "name": "addr",
          "type": "address"
        }
      ],
      "name": "startGrantAuthentication",
      "outputs": [],
      "stateMutability": "nonpayable",
      "type": "function"
    },
    {
      "inputs": [
        {
          "internalType": "address",
          "name": "from",
          "type": "address"
        },
        {
          "internalType": "address",
          "name": "to",
          "type": "address"
        }
      ],
      "name": "transferAccessTo",
      "outputs": [],
      "stateMutability": "nonpayable",
      "type": "function"
    },
    {
      "inputs": [
        {
          "internalType": "address",
          "name": "newOwner",
          "type": "address"
        }
      ],
      "name": "transferOwnership",
      "outputs": [],
      "stateMutability": "nonpayable",
      "type": "function"
    }
  ],
  "transactionHash": "0x680f269ce6290b62dd530ef56d1989fa97ece03236b85b60534692d5dd06ce7c",
  "args": [],
  "solcInputHash": "f21156e82218e2b880a2c84e92ddbd39",
  "bytecode": "0x60806040526000805460ff60a01b191690556212750060055534801561002457600080fd5b5061002e3361013d565b600060405161003c9061018d565b604051809103906000f080158015610058573d6000803e3d6000fd5b5060405163485cc95560e01b8152306004820181905260248201529091506001600160a01b0382169063485cc95590604401600060405180830381600087803b1580156100a457600080fd5b505af11580156100b8573d6000803e3d6000fd5b5050604051634c93505f60e01b8152600160048201526001600160a01b0384169250634c93505f9150602401600060405180830381600087803b1580156100fe57600080fd5b505af1158015610112573d6000803e3d6000fd5b5050600180546001600160a01b0319166001600160a01b0394909416939093179092555061019a9050565b600080546001600160a01b038381166001600160a01b0319831681178455604051919092169283917f8be0079c531659141344cd1fd0a4f28419497f9722a3daafe3b4186f6b6457e09190a35050565b610a848061183283390190565b611689806101a96000396000f3fe60806040523480156200001157600080fd5b5060043610620000f95760003560e01c806268674114620000fe57806306fdde0314620001325780631a86ac4f146200017557806338b6e407146200019b57806353376d1f14620001b45780635eebea2014620001cb578063631d9e3f14620001fd57806369dc9ff31462000207578063715018a6146200022d5780638da5cb5b146200023757806397204d8e1462000241578063c45527911462000255578063d4e8e0631462000281578063dcfa92221462000298578063ddd81f8214620002af578063e71a02e114620002b9578063ef7f383414620002c3578063f2fde38b14620002da575b600080fd5b620001156200010f36600462000b21565b620002f1565b6040516001600160a01b0390911681526020015b60405180910390f35b6200016660405180604001604052806014815260200173466c6169722050726f787920526567697374727960601b81525081565b60405162000129919062000c1b565b6000546200018a90600160a01b900460ff1681565b604051901515815260200162000129565b620001b2620001ac36600462000b21565b62000418565b005b620001b2620001c536600462000b21565b62000574565b620001ee620001dc36600462000b21565b60036020526000908152604090205481565b60405190815260200162000129565b62000115620005c9565b6200018a6200021836600462000b21565b60046020526000908152604090205460ff1681565b620001b262000681565b62000115620006c3565b60015462000115906001600160a01b031681565b620001156200026636600462000b21565b6002602052600090815260409020546001600160a01b031681565b620001b26200029236600462000b21565b620006d2565b620001b2620002a936600462000b45565b620007cc565b6200011562000911565b620001ee60055481565b620001b2620002d436600462000b21565b62000923565b620001b2620002eb36600462000b21565b62000a02565b6001600160a01b03818116600090815260026020526040812054909116156200035c5760405162461bcd60e51b81526020600482015260186024820152775573657220616c72656164792068617320612070726f787960401b60448201526064015b60405180910390fd5b60015460405183916001600160a01b03169062000380908390309060240162000bca565b60408051601f198184030181529181526020820180516001600160e01b031663485cc95560e01b17905251620003b69062000afb565b620003c49392919062000be4565b604051809103906000f080158015620003e1573d6000803e3d6000fd5b506001600160a01b03838116600090815260026020526040902080546001600160a01b03191691831691909117905590505b919050565b3362000423620006c3565b6001600160a01b0316146200044c5760405162461bcd60e51b8152600401620003539062000c30565b6001600160a01b03811660009081526004602052604090205460ff161580156200048d57506001600160a01b03811660009081526003602052604090205415155b8015620004c057506005546001600160a01b0382166000908152600360205260409020544291620004be9162000c65565b105b620005435760405162461bcd60e51b815260206004820152604660248201527f436f6e7472616374206973206e6f206c6f6e6765722070656e64696e67206f7260448201527f2068617320616c7265616479206265656e20617070726f76656420627920726560648201526567697374727960d01b608482015260a40162000353565b6001600160a01b0316600090815260036020908152604080832083905560049091529020805460ff19166001179055565b336200057f620006c3565b6001600160a01b031614620005a85760405162461bcd60e51b8152600401620003539062000c30565b6001600160a01b03166000908152600460205260409020805460ff19169055565b60015460405160009133916001600160a01b0390911690620005f2908390309060240162000bca565b60408051601f198184030181529181526020820180516001600160e01b031663485cc95560e01b17905251620006289062000afb565b620006369392919062000be4565b604051809103906000f08015801562000653573d6000803e3d6000fd5b5033600090815260026020526040902080546001600160a01b0319166001600160a01b038316179055919050565b336200068c620006c3565b6001600160a01b031614620006b55760405162461bcd60e51b8152600401620003539062000c30565b620006c1600062000aab565b565b6000546001600160a01b031690565b33620006dd620006c3565b6001600160a01b031614620007065760405162461bcd60e51b8152600401620003539062000c30565b6001600160a01b03811660009081526004602052604090205460ff161580156200074657506001600160a01b038116600090815260036020526040902054155b620007b05760405162461bcd60e51b815260206004820152603360248201527f436f6e747261637420697320616c726561647920616c6c6f77656420696e2072604482015272656769737472792c206f722070656e64696e6760681b606482015260840162000353565b6001600160a01b03166000908152600360205260409020429055565b6001600160a01b03808316600090815260026020526040902054163381146200084f5760405162461bcd60e51b815260206004820152602e60248201527f50726f7879207472616e736665722063616e206f6e6c792062652063616c6c6560448201526d64206279207468652070726f787960901b606482015260840162000353565b6001600160a01b038281166000908152600260205260409020541615620008d25760405162461bcd60e51b815260206004820152603060248201527f50726f7879207472616e7366657220686173206578697374696e672070726f7860448201526f3c9030b9903232b9ba34b730ba34b7b760811b606482015260840162000353565b6001600160a01b0392831660009081526002602052604080822080546001600160a01b0319908116909155938516825290208054919093169116179055565b60006200091e33620002f1565b905090565b336200092e620006c3565b6001600160a01b031614620009575760405162461bcd60e51b8152600401620003539062000c30565b600054600160a01b900460ff1615620009cc5760405162461bcd60e51b815260206004820152603060248201527f466c6169722050726f787920526567697374727920696e697469616c2061646460448201526f1c995cdcc8185b1c9958591e481cd95d60821b606482015260840162000353565b6000805460ff60a01b1916600160a01b1781556001600160a01b039091168152600460205260409020805460ff19166001179055565b3362000a0d620006c3565b6001600160a01b03161462000a365760405162461bcd60e51b8152600401620003539062000c30565b6001600160a01b03811662000a9d5760405162461bcd60e51b815260206004820152602660248201527f4f776e61626c653a206e6577206f776e657220697320746865207a65726f206160448201526564647265737360d01b606482015260840162000353565b62000aa88162000aab565b50565b600080546001600160a01b038381166001600160a01b0319831681178455604051919092169283917f8be0079c531659141344cd1fd0a4f28419497f9722a3daafe3b4186f6b6457e09190a35050565b6109c98062000c8b83390190565b80356001600160a01b03811681146200041357600080fd5b60006020828403121562000b33578081fd5b62000b3e8262000b09565b9392505050565b6000806040838503121562000b58578081fd5b62000b638362000b09565b915062000b736020840162000b09565b90509250929050565b60008151808452815b8181101562000ba35760208185018101518683018201520162000b85565b8181111562000bb55782602083870101525b50601f01601f19169290920160200192915050565b6001600160a01b0392831681529116602082015260400190565b6001600160a01b0384811682528316602082015260606040820181905260009062000c129083018462000b7c565b95945050505050565b60006020825262000b3e602083018462000b7c565b6020808252818101527f4f776e61626c653a2063616c6c6572206973206e6f7420746865206f776e6572604082015260600190565b6000821982111562000c8557634e487b7160e01b81526011600452602481fd5b50019056fe608060405234801561001057600080fd5b506040516109c93803806109c983398101604081905261002f916101f0565b600180546001600160a01b0319166001600160a01b0385161790556100538261011f565b6000826001600160a01b03168260405161006d91906102bc565b600060405180830381855af49150503d80600081146100a8576040519150601f19603f3d011682016040523d82523d6000602084013e6100ad565b606091505b50509050806101165760405162461bcd60e51b815260206004820152602a60248201527f4f776e61626c6544656c656761746550726f7879206661696c656420696d706c60448201526932b6b2b73a30ba34b7b760b11b60648201526084015b60405180910390fd5b5050505061031e565b6000546001600160a01b038281169116141561018c5760405162461bcd60e51b815260206004820152602660248201527f50726f787920616c72656164792075736573207468697320696d706c656d656e6044820152653a30ba34b7b760d11b606482015260840161010d565b600080546001600160a01b0319166001600160a01b038316908117825560405190917fbc7cd75a20ee27fd9adebab32041f755214dbc6bffa90cc0225b39da2e5c2d3b91a250565b80516001600160a01b03811681146101eb57600080fd5b919050565b600080600060608486031215610204578283fd5b61020d846101d4565b925061021b602085016101d4565b60408501519092506001600160401b0380821115610237578283fd5b818601915086601f83011261024a578283fd5b81518181111561025c5761025c610308565b604051601f8201601f19908116603f0116810190838211818310171561028457610284610308565b8160405282815289602084870101111561029c578586fd5b6102ad8360208301602088016102d8565b80955050505050509250925092565b600082516102ce8184602087016102d8565b9190910192915050565b60005b838110156102f35781810151838201526020016102db565b83811115610302576000848401525b50505050565b634e487b7160e01b600052604160045260246000fd5b61069c8061032d6000396000f3fe6080604052600436106100605760003560e01c8063025313a2146100ec5780633659cfe61461011e5780634555d5c9146101405780634f1ef2861461015c5780635c60da1b1461016f5780636fde820214610184578063f1739cae14610199575b600061006a6101b9565b90506001600160a01b0381166100c75760405162461bcd60e51b815260206004820152601d60248201527f50726f787920696d706c656d656e746174696f6e20726571756972656400000060448201526064015b60405180910390fd5b60405136600082376000803683855af43d806000843e8180156100e8578184f35b8184fd5b3480156100f857600080fd5b506101016101c8565b6040516001600160a01b0390911681526020015b60405180910390f35b34801561012a57600080fd5b5061013e6101393660046104f1565b6101d7565b005b34801561014c57600080fd5b5060405160028152602001610115565b61013e61016a366004610512565b61021b565b34801561017b57600080fd5b506101016101b9565b34801561019057600080fd5b5061010161030c565b3480156101a557600080fd5b5061013e6101b43660046104f1565b61031b565b6000546001600160a01b031690565b60006101d261030c565b905090565b6101df6101c8565b6001600160a01b0316336001600160a01b03161461020f5760405162461bcd60e51b81526004016100be90610607565b61021881610420565b50565b6102236101c8565b6001600160a01b0316336001600160a01b0316146102535760405162461bcd60e51b81526004016100be90610607565b61025c826101d7565b6000306001600160a01b03168260405161027691906105ce565b600060405180830381855af49150503d80600081146102b1576040519150601f19603f3d011682016040523d82523d6000602084013e6102b6565b606091505b50509050806103075760405162461bcd60e51b815260206004820152601f60248201527f43616c6c206661696c65642061667465722070726f787920757067726164650060448201526064016100be565b505050565b6001546001600160a01b031690565b6103236101c8565b6001600160a01b0316336001600160a01b0316146103535760405162461bcd60e51b81526004016100be90610607565b6001600160a01b0381166103b55760405162461bcd60e51b8152602060048201526024808201527f4e6577206f776e65722063616e6e6f7420626520746865206e756c6c206164646044820152637265737360e01b60648201526084016100be565b7f5a3e66efaa1e445ebd894728a69d6959842ea1e97bd79b892797106e270efcd96103de6101c8565b604080516001600160a01b03928316815291841660208301520160405180910390a1600180546001600160a01b0319166001600160a01b038316179055610218565b6000546001600160a01b038281169116141561048d5760405162461bcd60e51b815260206004820152602660248201527f50726f787920616c72656164792075736573207468697320696d706c656d656e6044820152653a30ba34b7b760d11b60648201526084016100be565b600080546001600160a01b0319166001600160a01b038316908117825560405190917fbc7cd75a20ee27fd9adebab32041f755214dbc6bffa90cc0225b39da2e5c2d3b91a250565b80356001600160a01b03811681146104ec57600080fd5b919050565b600060208284031215610502578081fd5b61050b826104d5565b9392505050565b60008060408385031215610524578081fd5b61052d836104d5565b915060208301356001600160401b0380821115610548578283fd5b818501915085601f83011261055b578283fd5b81358181111561056d5761056d610650565b604051601f8201601f19908116603f0116810190838211818310171561059557610595610650565b816040528281528860208487010111156105ad578586fd5b82602086016020830137856020848301015280955050505050509250929050565b60008251815b818110156105ee57602081860181015185830152016105d4565b818111156105fc5782828501525b509190910192915050565b60208082526029908201527f4f6e6c79207468652070726f7879206f776e65722063616e2063616c6c2074686040820152681a5cc81b595d1a1bd960ba1b606082015260800190565b634e487b7160e01b600052604160045260246000fdfea2646970667358221220f9528ae947ce1e01d62da85ce898df81d4d4b1e0c205a80dff61e36ca1ddab0864736f6c63430008030033a2646970667358221220db9fbf980c46493a47c9d238f47938552abddca34232b139aa977c53c4bcbd8964736f6c6343000803003360806040526001805460ff60a01b1916905534801561001d57600080fd5b50610a578061002d6000396000f3fe6080604052600436106100765760003560e01c80631b0f7ba9146100ad5780633f801f91146100e2578063485cc955146101045780634c93505f146101245780634f8632ba1461014457806363d256ce146101715780636fde8202146101925780637b103999146101b05780638f4ffcb1146101d0575b60405134815233907fa419615bc8fda4c87663805ee2a3597a6d71c1d476911d9892f340d965bc7bf19060200160405180910390a2005b3480156100b957600080fd5b506100cd6100c8366004610821565b6101f0565b60405190151581526020015b60405180910390f35b3480156100ee57600080fd5b506101026100fd366004610821565b61047e565b005b34801561011057600080fd5b5061010261011f3660046107e9565b6104d3565b34801561013057600080fd5b5061010261013f3660046108ec565b61057e565b34801561015057600080fd5b50600254610164906001600160a01b031681565b6040516100d99190610947565b34801561017d57600080fd5b506003546100cd90600160a01b900460ff1681565b34801561019e57600080fd5b506001546001600160a01b0316610164565b3480156101bc57600080fd5b50600354610164906001600160a01b031681565b3480156101dc57600080fd5b506101026101eb366004610883565b61063a565b6002546000906001600160a01b031633148061029c5750600354600160a01b900460ff1615801561029c57506003546040516369dc9ff360e01b81526001600160a01b03909116906369dc9ff39061024c903390600401610947565b60206040518083038186803b15801561026457600080fd5b505afa158015610278573d6000803e3d6000fd5b505050506040513d601f19601f8201168201806040525081019061029c919061090f565b6103605760405162461bcd60e51b815260206004820152608a6024820152600080516020610a0283398151915260448201527f63616c6c65642062792069747320757365722c206f72206279206120636f6e7460648201527f7261637420617574686f72697a6564206279207468652072656769737472792060848201527f6173206c6f6e6720617320746865207573657220686173206e6f74207265766f60a4820152696b65642061636365737360b01b60c482015260e4015b60405180910390fd5b6060600084600181111561038457634e487b7160e01b600052602160045260246000fd5b14156103ef57846001600160a01b0316836040516103a2919061092b565b6000604051808303816000865af19150503d80600081146103df576040519150601f19603f3d011682016040523d82523d6000602084013e6103e4565b606091505b509092509050610476565b600184600181111561041157634e487b7160e01b600052602160045260246000fd5b141561047657846001600160a01b03168360405161042f919061092b565b600060405180830381855af49150503d806000811461046a576040519150601f19603f3d011682016040523d82523d6000602084013e61046f565b606091505b5090925090505b509392505050565b6104898383836101f0565b6104ce5760405162461bcd60e51b8152602060048201526016602482015275141c9bde1e48185cdcd95c9d1a5bdb8819985a5b195960521b6044820152606401610357565b505050565b600154600160a01b900460ff161561053d5760405162461bcd60e51b815260206004820152602760248201527f41757468656e746963617465642070726f787920616c726561647920696e69746044820152661a585b1a5e995960ca1b6064820152608401610357565b6001805460ff60a01b1916600160a01b179055600280546001600160a01b039384166001600160a01b03199182161790915560038054929093169116179055565b6002546001600160a01b031633146105e25760405162461bcd60e51b81526020600482015260336024820152600080516020610a028339815191526044820152723932bb37b5b2b210313c9034ba39903ab9b2b960691b6064820152608401610357565b60038054821515600160a01b0260ff60a01b199091161790556040517f2165014523a6f4135deffed62d70149aad59b64de5aac51e3abbcbe2a83e2f7e9061062f90831515815260200190565b60405180910390a150565b6040516323b872dd60e01b81526001600160a01b038581166004830152306024830152604482018590528391908216906323b872dd90606401602060405180830381600087803b15801561068d57600080fd5b505af11580156106a1573d6000803e3d6000fd5b505050506040513d601f19601f820116820180604052508101906106c5919061090f565b61070f5760405162461bcd60e51b815260206004820152601b60248201527a115490cc8c081d1bdad95b881d1c985b9cd9995c8819985a5b1959602a1b6044820152606401610357565b826001600160a01b0316856001600160a01b03167fd65b48fd35864b3528d38e44760be5553248f89bf3ff6b06cca57817cc2650bf868560405161075492919061095b565b60405180910390a35050505050565b600082601f830112610773578081fd5b81356001600160401b038082111561078d5761078d6109c5565b604051601f8301601f19908116603f011681019082821181831017156107b5576107b56109c5565b816040528381528660208588010111156107cd578485fd5b8360208701602083013792830160200193909352509392505050565b600080604083850312156107fb578182fd5b8235610806816109db565b91506020830135610816816109db565b809150509250929050565b600080600060608486031215610835578081fd5b8335610840816109db565b9250602084013560028110610853578182fd5b915060408401356001600160401b0381111561086d578182fd5b61087986828701610763565b9150509250925092565b60008060008060808587031215610898578081fd5b84356108a3816109db565b93506020850135925060408501356108ba816109db565b915060608501356001600160401b038111156108d4578182fd5b6108e087828801610763565b91505092959194509250565b6000602082840312156108fd578081fd5b8135610908816109f3565b9392505050565b600060208284031215610920578081fd5b8151610908816109f3565b6000825161093d818460208701610995565b9190910192915050565b6001600160a01b0391909116815260200190565b6000838252604060208301528251806040840152610980816060850160208701610995565b601f01601f1916919091016060019392505050565b60005b838110156109b0578181015183820152602001610998565b838111156109bf576000848401525b50505050565b634e487b7160e01b600052604160045260246000fd5b6001600160a01b03811681146109f057600080fd5b50565b80151581146109f057600080fdfe41757468656e746963617465642070726f78792063616e206f6e6c7920626520a2646970667358221220c7e37dac3031913bd3612b3254e595e9b0339535034743fa287d478e2a4b142164736f6c63430008030033",
  "devdoc": {
    "author": "Wyvern Protocol Developers",
    "kind": "dev",
    "methods": {
      "endGrantAuthentication(address)": {
        "details": "Registry owner only",
        "params": {
          "addr": "Address to which to grant permissions"
        }
      },
      "grantInitialAuthentication(address)": {
        "details": "No delay, can only be called once - after that the standard registry process with a delay must be used",
        "params": {
          "authAddress": "Address of the contract to grant authentication"
        }
      },
      "owner()": {
        "details": "Returns the address of the current owner."
      },
      "registerProxy()": {
        "details": "Must be called by the user which the proxy is for, creates a new AuthenticatedProxy",
        "returns": {
          "proxy": "New AuthenticatedProxy contract"
        }
      },
      "registerProxyFor(address)": {
        "details": "Can be called by any user",
        "returns": {
          "proxy": "New AuthenticatedProxy contract"
        }
      },
      "registerProxyOverride()": {
        "details": "Must be called by the user which the proxy is for, creates a new AuthenticatedProxy",
        "returns": {
          "proxy": "New AuthenticatedProxy contract"
        }
      },
      "renounceOwnership()": {
        "details": "Leaves the contract without owner. It will not be possible to call `onlyOwner` functions anymore. Can only be called by the current owner. NOTE: Renouncing ownership will leave the contract without an owner, thereby removing any functionality that is only available to the owner."
      },
      "revokeAuthentication(address)": {
        "details": "Registry owner only",
        "params": {
          "addr": "Address of which to revoke permissions"
        }
      },
      "startGrantAuthentication(address)": {
        "details": "Registry owner only",
        "params": {
          "addr": "Address to which to grant permissions"
        }
      },
      "transferOwnership(address)": {
        "details": "Transfers ownership of the contract to a new account (`newOwner`). Can only be called by the current owner."
      }
    },
    "title": "Registry",
    "version": 1
  },
  "userdoc": {
    "kind": "user",
    "methods": {
      "endGrantAuthentication(address)": {
        "notice": "End the process to enable access for specified contract after delay period has passed."
      },
      "grantInitialAuthentication(address)": {
        "notice": "Grant authentication to the initial Flair contract"
      },
      "registerProxy()": {
        "notice": "Register a proxy contract with this registry"
      },
      "registerProxyFor(address)": {
        "notice": "Register a proxy contract with this registry"
      },
      "registerProxyOverride()": {
        "notice": "Register a proxy contract with this registry, overriding any existing proxy"
      },
      "revokeAuthentication(address)": {
        "notice": "Revoke access for specified contract. Can be done instantly."
      },
      "startGrantAuthentication(address)": {
        "notice": "Start the process to enable access for specified contract. Subject to delay period."
      },
      "transferAccessTo(address,address)": {
        "notice": "Transfer access"
      }
    },
    "version": 1
  },
  "storageLayout": {
    "storage": [
      {
        "astId": 3048,
        "contract": "contracts/Registry.sol:Registry",
        "label": "_owner",
        "offset": 0,
        "slot": "0",
        "type": "t_address"
      },
      {
        "astId": 7415,
        "contract": "contracts/Registry.sol:Registry",
        "label": "initialAddressSet",
        "offset": 20,
        "slot": "0",
        "type": "t_bool"
      },
      {
        "astId": 7418,
        "contract": "contracts/Registry.sol:Registry",
        "label": "delegateProxyImplementation",
        "offset": 0,
        "slot": "1",
        "type": "t_address"
      },
      {
        "astId": 7424,
        "contract": "contracts/Registry.sol:Registry",
        "label": "proxies",
        "offset": 0,
        "slot": "2",
        "type": "t_mapping(t_address,t_contract(OwnableDelegateProxy)14631)"
      },
      {
        "astId": 7428,
        "contract": "contracts/Registry.sol:Registry",
        "label": "pending",
        "offset": 0,
        "slot": "3",
        "type": "t_mapping(t_address,t_uint256)"
      },
      {
        "astId": 7432,
        "contract": "contracts/Registry.sol:Registry",
        "label": "contracts",
        "offset": 0,
        "slot": "4",
        "type": "t_mapping(t_address,t_bool)"
      },
      {
        "astId": 7435,
        "contract": "contracts/Registry.sol:Registry",
        "label": "DELAY_PERIOD",
        "offset": 0,
        "slot": "5",
        "type": "t_uint256"
      }
    ],
    "types": {
      "t_address": {
        "encoding": "inplace",
        "label": "address",
        "numberOfBytes": "20"
      },
      "t_bool": {
        "encoding": "inplace",
        "label": "bool",
        "numberOfBytes": "1"
      },
      "t_contract(OwnableDelegateProxy)14631": {
        "encoding": "inplace",
        "label": "contract OwnableDelegateProxy",
        "numberOfBytes": "20"
      },
      "t_mapping(t_address,t_bool)": {
        "encoding": "mapping",
        "key": "t_address",
        "label": "mapping(address => bool)",
        "numberOfBytes": "32",
        "value": "t_bool"
      },
      "t_mapping(t_address,t_contract(OwnableDelegateProxy)14631)": {
        "encoding": "mapping",
        "key": "t_address",
        "label": "mapping(address => contract OwnableDelegateProxy)",
        "numberOfBytes": "32",
        "value": "t_contract(OwnableDelegateProxy)14631"
      },
      "t_mapping(t_address,t_uint256)": {
        "encoding": "mapping",
        "key": "t_address",
        "label": "mapping(address => uint256)",
        "numberOfBytes": "32",
        "value": "t_uint256"
      },
      "t_uint256": {
        "encoding": "inplace",
        "label": "uint256",
        "numberOfBytes": "32"
      }
    }
  }
}