{
  "address": "0xbB79b57B9B5356d1A252d03637CfdeBfC6F82E0b",
  "abi": [
    {
      "anonymous": false,
      "inputs": [
        {
          "indexed": true,
          "internalType": "address",
          "name": "owner",
          "type": "address"
        },
        {
          "indexed": true,
          "internalType": "address",
          "name": "approved",
          "type": "address"
        },
        {
          "indexed": true,
          "internalType": "uint256",
          "name": "tokenId",
          "type": "uint256"
        }
      ],
      "name": "Approval",
      "type": "event"
    },
    {
      "anonymous": false,
      "inputs": [
        {
          "indexed": true,
          "internalType": "address",
          "name": "owner",
          "type": "address"
        },
        {
          "indexed": true,
          "internalType": "address",
          "name": "operator",
          "type": "address"
        },
        {
          "indexed": false,
          "internalType": "bool",
          "name": "approved",
          "type": "bool"
        }
      ],
      "name": "ApprovalForAll",
      "type": "event"
    },
    {
      "anonymous": false,
      "inputs": [
        {
          "indexed": true,
          "internalType": "address",
          "name": "from",
          "type": "address"
        },
        {
          "indexed": true,
          "internalType": "address",
          "name": "to",
          "type": "address"
        },
        {
          "indexed": true,
          "internalType": "uint256",
          "name": "tokenId",
          "type": "uint256"
        }
      ],
      "name": "Transfer",
      "type": "event"
    },
    {
      "inputs": [
        {
          "internalType": "address",
          "name": "to",
          "type": "address"
        },
        {
          "internalType": "uint256",
          "name": "tokenId",
          "type": "uint256"
        }
      ],
      "name": "approve",
      "outputs": [],
      "stateMutability": "nonpayable",
      "type": "function"
    },
    {
      "inputs": [
        {
          "internalType": "address",
          "name": "owner",
          "type": "address"
        }
      ],
      "name": "balanceOf",
      "outputs": [
        {
          "internalType": "uint256",
          "name": "",
          "type": "uint256"
        }
      ],
      "stateMutability": "view",
      "type": "function"
    },
    {
      "inputs": [
        {
          "internalType": "uint256",
          "name": "tokenId",
          "type": "uint256"
        }
      ],
      "name": "getApproved",
      "outputs": [
        {
          "internalType": "address",
          "name": "",
          "type": "address"
        }
      ],
      "stateMutability": "view",
      "type": "function"
    },
    {
      "inputs": [
        {
          "internalType": "address",
          "name": "owner",
          "type": "address"
        },
        {
          "internalType": "address",
          "name": "operator",
          "type": "address"
        }
      ],
      "name": "isApprovedForAll",
      "outputs": [
        {
          "internalType": "bool",
          "name": "",
          "type": "bool"
        }
      ],
      "stateMutability": "view",
      "type": "function"
    },
    {
      "inputs": [
        {
          "internalType": "address",
          "name": "to",
          "type": "address"
        },
        {
          "internalType": "uint256",
          "name": "tokenId",
          "type": "uint256"
        }
      ],
      "name": "mintExact",
      "outputs": [
        {
          "internalType": "bool",
          "name": "",
          "type": "bool"
        }
      ],
      "stateMutability": "nonpayable",
      "type": "function"
    },
    {
      "inputs": [],
      "name": "name",
      "outputs": [
        {
          "internalType": "string",
          "name": "",
          "type": "string"
        }
      ],
      "stateMutability": "view",
      "type": "function"
    },
    {
      "inputs": [
        {
          "internalType": "uint256",
          "name": "tokenId",
          "type": "uint256"
        }
      ],
      "name": "ownerOf",
      "outputs": [
        {
          "internalType": "address",
          "name": "",
          "type": "address"
        }
      ],
      "stateMutability": "view",
      "type": "function"
    },
    {
      "inputs": [
        {
          "internalType": "address",
          "name": "from",
          "type": "address"
        },
        {
          "internalType": "address",
          "name": "to",
          "type": "address"
        },
        {
          "internalType": "uint256",
          "name": "tokenId",
          "type": "uint256"
        }
      ],
      "name": "safeTransferFrom",
      "outputs": [],
      "stateMutability": "nonpayable",
      "type": "function"
    },
    {
      "inputs": [
        {
          "internalType": "address",
          "name": "from",
          "type": "address"
        },
        {
          "internalType": "address",
          "name": "to",
          "type": "address"
        },
        {
          "internalType": "uint256",
          "name": "tokenId",
          "type": "uint256"
        },
        {
          "internalType": "bytes",
          "name": "_data",
          "type": "bytes"
        }
      ],
      "name": "safeTransferFrom",
      "outputs": [],
      "stateMutability": "nonpayable",
      "type": "function"
    },
    {
      "inputs": [
        {
          "internalType": "address",
          "name": "operator",
          "type": "address"
        },
        {
          "internalType": "bool",
          "name": "approved",
          "type": "bool"
        }
      ],
      "name": "setApprovalForAll",
      "outputs": [],
      "stateMutability": "nonpayable",
      "type": "function"
    },
    {
      "inputs": [
        {
          "internalType": "bytes4",
          "name": "interfaceId",
          "type": "bytes4"
        }
      ],
      "name": "supportsInterface",
      "outputs": [
        {
          "internalType": "bool",
          "name": "",
          "type": "bool"
        }
      ],
      "stateMutability": "view",
      "type": "function"
    },
    {
      "inputs": [],
      "name": "symbol",
      "outputs": [
        {
          "internalType": "string",
          "name": "",
          "type": "string"
        }
      ],
      "stateMutability": "view",
      "type": "function"
    },
    {
      "inputs": [
        {
          "internalType": "uint256",
          "name": "tokenId",
          "type": "uint256"
        }
      ],
      "name": "tokenURI",
      "outputs": [
        {
          "internalType": "string",
          "name": "",
          "type": "string"
        }
      ],
      "stateMutability": "view",
      "type": "function"
    },
    {
      "inputs": [
        {
          "internalType": "address",
          "name": "from",
          "type": "address"
        },
        {
          "internalType": "address",
          "name": "to",
          "type": "address"
        },
        {
          "internalType": "uint256",
          "name": "tokenId",
          "type": "uint256"
        }
      ],
      "name": "transferFrom",
      "outputs": [],
      "stateMutability": "nonpayable",
      "type": "function"
    }
  ],
  "transactionHash": "0x10fa1e3796e3e2c3d15682b75076a8ea7ee9c83fc80dabac645bf6896edb0a09",
  "args": [],
  "solcInputHash": "f21156e82218e2b880a2c84e92ddbd39",
  "bytecode": "0x60806040523480156200001157600080fd5b506040805180820182526009815268119b185a5c95195cdd60ba1b60208083019182528351808501909452600384526246545360e81b9084015281519192916200005e916000916200007d565b508051620000749060019060208401906200007d565b50505062000160565b8280546200008b9062000123565b90600052602060002090601f016020900481019282620000af5760008555620000fa565b82601f10620000ca57805160ff1916838001178555620000fa565b82800160010185558215620000fa579182015b82811115620000fa578251825591602001919060010190620000dd565b50620001089291506200010c565b5090565b5b808211156200010857600081556001016200010d565b600181811c908216806200013857607f821691505b602082108114156200015a57634e487b7160e01b600052602260045260246000fd5b50919050565b61135980620001706000396000f3fe608060405234801561001057600080fd5b50600436106100ba5760003560e01c806301ffc9a7146100bf57806306fdde03146100e7578063081812fc146100fc578063095ea7b31461012757806323b872dd1461013c57806342842e0e1461014f5780636352211e1461016257806370a082311461017557806395d89b4114610196578063a22cb4651461019e578063b88d4fde146101b1578063c80120f1146101c4578063c87b56dd146101d7578063e985e9c5146101ea575b600080fd5b6100d26100cd366004611031565b6101fd565b60405190151581526020015b60405180910390f35b6100ef610251565b6040516100de9190611119565b61010f61010a366004611069565b6102e3565b6040516001600160a01b0390911681526020016100de565b61013a610135366004611008565b610370565b005b61013a61014a366004610ebf565b610481565b61013a61015d366004610ebf565b6104b2565b61010f610170366004611069565b6104cd565b610188610183366004610e73565b610548565b6040519081526020016100de565b6100ef6105cf565b61013a6101ac366004610fce565b6105de565b61013a6101bf366004610efa565b6106ac565b6100d26101d2366004611008565b6106e4565b6100ef6101e5366004611069565b6106f9565b6100d26101f8366004610e8d565b6107d1565b60006001600160e01b031982166380ac58cd60e01b148061022e57506001600160e01b03198216635b5e139f60e01b145b8061024957506301ffc9a760e01b6001600160e01b03198316145b90505b919050565b6060600080546102609061123e565b80601f016020809104026020016040519081016040528092919081815260200182805461028c9061123e565b80156102d95780601f106102ae576101008083540402835291602001916102d9565b820191906000526020600020905b8154815290600101906020018083116102bc57829003601f168201915b5050505050905090565b60006102ee826107ff565b6103545760405162461bcd60e51b815260206004820152602c60248201527f4552433732313a20617070726f76656420717565727920666f72206e6f6e657860448201526b34b9ba32b73a103a37b5b2b760a11b60648201526084015b60405180910390fd5b506000908152600460205260409020546001600160a01b031690565b600061037b826104cd565b9050806001600160a01b0316836001600160a01b031614156103e95760405162461bcd60e51b815260206004820152602160248201527f4552433732313a20617070726f76616c20746f2063757272656e74206f776e656044820152603960f91b606482015260840161034b565b336001600160a01b0382161480610405575061040581336101f8565b6104725760405162461bcd60e51b815260206004820152603860248201527f4552433732313a20617070726f76652063616c6c6572206973206e6f74206f776044820152771b995c881b9bdc88185c1c1c9bdd995908199bdc88185b1b60421b606482015260840161034b565b61047c838361081c565b505050565b61048b338261088a565b6104a75760405162461bcd60e51b815260040161034b9061117e565b61047c838383610954565b61047c838383604051806020016040528060008152506106ac565b6000818152600260205260408120546001600160a01b0316806102495760405162461bcd60e51b815260206004820152602d60248201527f4552433732313a206f776e657220717565727920666f72206e6f6e657869737460448201526c0cadce840e8ded6cadc40f0f0f609b1b606482015260840161034b565b60006001600160a01b0382166105b35760405162461bcd60e51b815260206004820152602a60248201527f4552433732313a2062616c616e636520717565727920666f7220746865207a65604482015269726f206164647265737360b01b606482015260840161034b565b506001600160a01b031660009081526003602052604090205490565b6060600180546102609061123e565b6001600160a01b0382163314156106335760405162461bcd60e51b815260206004820152601960248201527822a9219b99189d1030b8383937bb32903a379031b0b63632b960391b604482015260640161034b565b3360008181526005602090815260408083206001600160a01b0387168085529252909120805460ff1916841515179055906001600160a01b03167f17307eab39ab6107e8899845ad3d59bd9653f200f220920489ca2b5937696c31836040516106a0911515815260200190565b60405180910390a35050565b6106b6338361088a565b6106d25760405162461bcd60e51b815260040161034b9061117e565b6106de84848484610ae2565b50505050565b60006106f08383610b15565b50600192915050565b6060610704826107ff565b6107685760405162461bcd60e51b815260206004820152602f60248201527f4552433732314d657461646174613a2055524920717565727920666f72206e6f60448201526e3732bc34b9ba32b73a103a37b5b2b760891b606482015260840161034b565b600061077f60408051602081019091526000815290565b9050600081511161079f57604051806020016040528060008152506107ca565b806107a984610c35565b6040516020016107ba9291906110ad565b6040516020818303038152906040525b9392505050565b6001600160a01b03918216600090815260056020908152604080832093909416825291909152205460ff1690565b6000908152600260205260409020546001600160a01b0316151590565b600081815260046020526040902080546001600160a01b0319166001600160a01b0384169081179091558190610851826104cd565b6001600160a01b03167f8c5be1e5ebec7d5bd14f71427d1e84f3dd0314c0f7b2291e5b200ac8c7c3b92560405160405180910390a45050565b6000610895826107ff565b6108f65760405162461bcd60e51b815260206004820152602c60248201527f4552433732313a206f70657261746f7220717565727920666f72206e6f6e657860448201526b34b9ba32b73a103a37b5b2b760a11b606482015260840161034b565b6000610901836104cd565b9050806001600160a01b0316846001600160a01b0316148061093c5750836001600160a01b0316610931846102e3565b6001600160a01b0316145b8061094c575061094c81856107d1565b949350505050565b826001600160a01b0316610967826104cd565b6001600160a01b0316146109cf5760405162461bcd60e51b815260206004820152602960248201527f4552433732313a207472616e73666572206f6620746f6b656e2074686174206960448201526839903737ba1037bbb760b91b606482015260840161034b565b6001600160a01b038216610a315760405162461bcd60e51b8152602060048201526024808201527f4552433732313a207472616e7366657220746f20746865207a65726f206164646044820152637265737360e01b606482015260840161034b565b610a3c60008261081c565b6001600160a01b0383166000908152600360205260408120805460019290610a659084906111fb565b90915550506001600160a01b0382166000908152600360205260408120805460019290610a939084906111cf565b909155505060008181526002602052604080822080546001600160a01b0319166001600160a01b03868116918217909255915184939187169160008051602061130483398151915291a4505050565b610aed848484610954565b610af984848484610d4f565b6106de5760405162461bcd60e51b815260040161034b9061112c565b6001600160a01b038216610b6b5760405162461bcd60e51b815260206004820181905260248201527f4552433732313a206d696e7420746f20746865207a65726f2061646472657373604482015260640161034b565b610b74816107ff565b15610bc05760405162461bcd60e51b815260206004820152601c60248201527b115490cdcc8c4e881d1bdad95b88185b1c9958591e481b5a5b9d195960221b604482015260640161034b565b6001600160a01b0382166000908152600360205260408120805460019290610be99084906111cf565b909155505060008181526002602052604080822080546001600160a01b0319166001600160a01b0386169081179091559051839290600080516020611304833981519152908290a45050565b606081610c5a57506040805180820190915260018152600360fc1b602082015261024c565b8160005b8115610c845780610c6e81611279565b9150610c7d9050600a836111e7565b9150610c5e565b6000816001600160401b03811115610cac57634e487b7160e01b600052604160045260246000fd5b6040519080825280601f01601f191660200182016040528015610cd6576020820181803683370190505b5090505b841561094c57610ceb6001836111fb565b9150610cf8600a86611294565b610d039060306111cf565b60f81b818381518110610d2657634e487b7160e01b600052603260045260246000fd5b60200101906001600160f81b031916908160001a905350610d48600a866111e7565b9450610cda565b60006001600160a01b0384163b15610e5157604051630a85bd0160e11b81526001600160a01b0385169063150b7a0290610d939033908990889088906004016110dc565b602060405180830381600087803b158015610dad57600080fd5b505af1925050508015610ddd575060408051601f3d908101601f19168201909252610dda9181019061104d565b60015b610e37573d808015610e0b576040519150601f19603f3d011682016040523d82523d6000602084013e610e10565b606091505b508051610e2f5760405162461bcd60e51b815260040161034b9061112c565b805181602001fd5b6001600160e01b031916630a85bd0160e11b14905061094c565b506001949350505050565b80356001600160a01b038116811461024c57600080fd5b600060208284031215610e84578081fd5b6107ca82610e5c565b60008060408385031215610e9f578081fd5b610ea883610e5c565b9150610eb660208401610e5c565b90509250929050565b600080600060608486031215610ed3578081fd5b610edc84610e5c565b9250610eea60208501610e5c565b9150604084013590509250925092565b60008060008060808587031215610f0f578081fd5b610f1885610e5c565b9350610f2660208601610e5c565b92506040850135915060608501356001600160401b0380821115610f48578283fd5b818701915087601f830112610f5b578283fd5b813581811115610f6d57610f6d6112d4565b604051601f8201601f19908116603f01168101908382118183101715610f9557610f956112d4565b816040528281528a6020848701011115610fad578586fd5b82602086016020830137918201602001949094529598949750929550505050565b60008060408385031215610fe0578182fd5b610fe983610e5c565b915060208301358015158114610ffd578182fd5b809150509250929050565b6000806040838503121561101a578182fd5b61102383610e5c565b946020939093013593505050565b600060208284031215611042578081fd5b81356107ca816112ea565b60006020828403121561105e578081fd5b81516107ca816112ea565b60006020828403121561107a578081fd5b5035919050565b60008151808452611099816020860160208601611212565b601f01601f19169290920160200192915050565b600083516110bf818460208801611212565b8351908301906110d3818360208801611212565b01949350505050565b6001600160a01b038581168252841660208201526040810183905260806060820181905260009061110f90830184611081565b9695505050505050565b6000602082526107ca6020830184611081565b60208082526032908201527f4552433732313a207472616e7366657220746f206e6f6e20455243373231526560408201527131b2b4bb32b91034b6b83632b6b2b73a32b960711b606082015260800190565b60208082526031908201527f4552433732313a207472616e736665722063616c6c6572206973206e6f74206f6040820152701ddb995c881b9bdc88185c1c1c9bdd9959607a1b606082015260800190565b600082198211156111e2576111e26112a8565b500190565b6000826111f6576111f66112be565b500490565b60008282101561120d5761120d6112a8565b500390565b60005b8381101561122d578181015183820152602001611215565b838111156106de5750506000910152565b600181811c9082168061125257607f821691505b6020821081141561127357634e487b7160e01b600052602260045260246000fd5b50919050565b600060001982141561128d5761128d6112a8565b5060010190565b6000826112a3576112a36112be565b500690565b634e487b7160e01b600052601160045260246000fd5b634e487b7160e01b600052601260045260246000fd5b634e487b7160e01b600052604160045260246000fd5b6001600160e01b03198116811461130057600080fd5b5056feddf252ad1be2c89b69c2b068fc378daa952ba7f163c4a11628f55a4df523b3efa2646970667358221220093d2043428b41674120f2d1bea2071377637d9c7d1d980f009e411d5c78d15764736f6c63430008030033",
  "devdoc": {
    "kind": "dev",
    "methods": {
      "approve(address,uint256)": {
        "details": "See {IERC721-approve}."
      },
      "balanceOf(address)": {
        "details": "See {IERC721-balanceOf}."
      },
      "getApproved(uint256)": {
        "details": "See {IERC721-getApproved}."
      },
      "isApprovedForAll(address,address)": {
        "details": "See {IERC721-isApprovedForAll}."
      },
      "name()": {
        "details": "See {IERC721Metadata-name}."
      },
      "ownerOf(uint256)": {
        "details": "See {IERC721-ownerOf}."
      },
      "safeTransferFrom(address,address,uint256)": {
        "details": "See {IERC721-safeTransferFrom}."
      },
      "safeTransferFrom(address,address,uint256,bytes)": {
        "details": "See {IERC721-safeTransferFrom}."
      },
      "setApprovalForAll(address,bool)": {
        "details": "See {IERC721-setApprovalForAll}."
      },
      "supportsInterface(bytes4)": {
        "details": "See {IERC165-supportsInterface}."
      },
      "symbol()": {
        "details": "See {IERC721Metadata-symbol}."
      },
      "tokenURI(uint256)": {
        "details": "See {IERC721Metadata-tokenURI}."
      },
      "transferFrom(address,address,uint256)": {
        "details": "See {IERC721-transferFrom}."
      }
    },
    "version": 1
  },
  "userdoc": {
    "kind": "user",
    "methods": {},
    "version": 1
  },
  "storageLayout": {
    "storage": [
      {
        "astId": 3819,
        "contract": "contracts/TestERC721.sol:TestERC721",
        "label": "_name",
        "offset": 0,
        "slot": "0",
        "type": "t_string_storage"
      },
      {
        "astId": 3821,
        "contract": "contracts/TestERC721.sol:TestERC721",
        "label": "_symbol",
        "offset": 0,
        "slot": "1",
        "type": "t_string_storage"
      },
      {
        "astId": 3825,
        "contract": "contracts/TestERC721.sol:TestERC721",
        "label": "_owners",
        "offset": 0,
        "slot": "2",
        "type": "t_mapping(t_uint256,t_address)"
      },
      {
        "astId": 3829,
        "contract": "contracts/TestERC721.sol:TestERC721",
        "label": "_balances",
        "offset": 0,
        "slot": "3",
        "type": "t_mapping(t_address,t_uint256)"
      },
      {
        "astId": 3833,
        "contract": "contracts/TestERC721.sol:TestERC721",
        "label": "_tokenApprovals",
        "offset": 0,
        "slot": "4",
        "type": "t_mapping(t_uint256,t_address)"
      },
      {
        "astId": 3839,
        "contract": "contracts/TestERC721.sol:TestERC721",
        "label": "_operatorApprovals",
        "offset": 0,
        "slot": "5",
        "type": "t_mapping(t_address,t_mapping(t_address,t_bool))"
      }
    ],
    "types": {
      "t_address": {
        "encoding": "inplace",
        "label": "address",
        "numberOfBytes": "20"
      },
      "t_bool": {
        "encoding": "inplace",
        "label": "bool",
        "numberOfBytes": "1"
      },
      "t_mapping(t_address,t_bool)": {
        "encoding": "mapping",
        "key": "t_address",
        "label": "mapping(address => bool)",
        "numberOfBytes": "32",
        "value": "t_bool"
      },
      "t_mapping(t_address,t_mapping(t_address,t_bool))": {
        "encoding": "mapping",
        "key": "t_address",
        "label": "mapping(address => mapping(address => bool))",
        "numberOfBytes": "32",
        "value": "t_mapping(t_address,t_bool)"
      },
      "t_mapping(t_address,t_uint256)": {
        "encoding": "mapping",
        "key": "t_address",
        "label": "mapping(address => uint256)",
        "numberOfBytes": "32",
        "value": "t_uint256"
      },
      "t_mapping(t_uint256,t_address)": {
        "encoding": "mapping",
        "key": "t_uint256",
        "label": "mapping(uint256 => address)",
        "numberOfBytes": "32",
        "value": "t_address"
      },
      "t_string_storage": {
        "encoding": "bytes",
        "label": "string",
        "numberOfBytes": "32"
      },
      "t_uint256": {
        "encoding": "inplace",
        "label": "uint256",
        "numberOfBytes": "32"
      }
    }
  }
}