{
  "address": "0x5116B8a2Bd8ba9084EB62eC92E140383Bc70F39F",
  "abi": [
    {
      "anonymous": false,
      "inputs": [
        {
          "indexed": false,
          "internalType": "address",
          "name": "initiator",
          "type": "address"
        },
        {
          "indexed": false,
          "internalType": "uint256",
          "name": "ethAmount",
          "type": "uint256"
        },
        {
          "indexed": false,
          "internalType": "uint256",
          "name": "tokensBought",
          "type": "uint256"
        }
      ],
      "name": "BoughtBack",
      "type": "event"
    },
    {
      "anonymous": false,
      "inputs": [
        {
          "indexed": false,
          "internalType": "address",
          "name": "initiator",
          "type": "address"
        },
        {
          "indexed": false,
          "internalType": "uint256",
          "name": "ethAmount",
          "type": "uint256"
        }
      ],
      "name": "Burnt",
      "type": "event"
    },
    {
      "anonymous": false,
      "inputs": [
        {
          "indexed": true,
          "internalType": "address",
          "name": "sender",
          "type": "address"
        },
        {
          "indexed": false,
          "internalType": "uint256",
          "name": "amount",
          "type": "uint256"
        }
      ],
      "name": "ReceivedEther",
      "type": "event"
    },
    {
      "anonymous": false,
      "inputs": [
        {
          "indexed": true,
          "internalType": "bytes32",
          "name": "role",
          "type": "bytes32"
        },
        {
          "indexed": true,
          "internalType": "bytes32",
          "name": "previousAdminRole",
          "type": "bytes32"
        },
        {
          "indexed": true,
          "internalType": "bytes32",
          "name": "newAdminRole",
          "type": "bytes32"
        }
      ],
      "name": "RoleAdminChanged",
      "type": "event"
    },
    {
      "anonymous": false,
      "inputs": [
        {
          "indexed": true,
          "internalType": "bytes32",
          "name": "role",
          "type": "bytes32"
        },
        {
          "indexed": true,
          "internalType": "address",
          "name": "account",
          "type": "address"
        },
        {
          "indexed": true,
          "internalType": "address",
          "name": "sender",
          "type": "address"
        }
      ],
      "name": "RoleGranted",
      "type": "event"
    },
    {
      "anonymous": false,
      "inputs": [
        {
          "indexed": true,
          "internalType": "bytes32",
          "name": "role",
          "type": "bytes32"
        },
        {
          "indexed": true,
          "internalType": "address",
          "name": "account",
          "type": "address"
        },
        {
          "indexed": true,
          "internalType": "address",
          "name": "sender",
          "type": "address"
        }
      ],
      "name": "RoleRevoked",
      "type": "event"
    },
    {
      "inputs": [],
      "name": "DEFAULT_ADMIN_ROLE",
      "outputs": [
        {
          "internalType": "bytes32",
          "name": "",
          "type": "bytes32"
        }
      ],
      "stateMutability": "view",
      "type": "function"
    },
    {
      "inputs": [],
      "name": "GOVERNOR_ROLE",
      "outputs": [
        {
          "internalType": "bytes32",
          "name": "",
          "type": "bytes32"
        }
      ],
      "stateMutability": "view",
      "type": "function"
    },
    {
      "inputs": [
        {
          "internalType": "uint256",
          "name": "ethAmount",
          "type": "uint256"
        },
        {
          "internalType": "uint256",
          "name": "amountOutMin",
          "type": "uint256"
        }
      ],
      "name": "buybackAndBurn",
      "outputs": [],
      "stateMutability": "nonpayable",
      "type": "function"
    },
    {
      "inputs": [
        {
          "internalType": "bytes32",
          "name": "role",
          "type": "bytes32"
        }
      ],
      "name": "getRoleAdmin",
      "outputs": [
        {
          "internalType": "bytes32",
          "name": "",
          "type": "bytes32"
        }
      ],
      "stateMutability": "view",
      "type": "function"
    },
    {
      "inputs": [
        {
          "internalType": "bytes32",
          "name": "role",
          "type": "bytes32"
        },
        {
          "internalType": "address",
          "name": "account",
          "type": "address"
        }
      ],
      "name": "grantRole",
      "outputs": [],
      "stateMutability": "nonpayable",
      "type": "function"
    },
    {
      "inputs": [
        {
          "internalType": "bytes32",
          "name": "role",
          "type": "bytes32"
        },
        {
          "internalType": "address",
          "name": "account",
          "type": "address"
        }
      ],
      "name": "hasRole",
      "outputs": [
        {
          "internalType": "bool",
          "name": "",
          "type": "bool"
        }
      ],
      "stateMutability": "view",
      "type": "function"
    },
    {
      "inputs": [
        {
          "internalType": "address payable",
          "name": "uniswapRouter",
          "type": "address"
        }
      ],
      "name": "initialize",
      "outputs": [],
      "stateMutability": "nonpayable",
      "type": "function"
    },
    {
      "inputs": [],
      "name": "name",
      "outputs": [
        {
          "internalType": "string",
          "name": "",
          "type": "string"
        }
      ],
      "stateMutability": "view",
      "type": "function"
    },
    {
      "inputs": [
        {
          "internalType": "bytes32",
          "name": "role",
          "type": "bytes32"
        },
        {
          "internalType": "address",
          "name": "account",
          "type": "address"
        }
      ],
      "name": "renounceRole",
      "outputs": [],
      "stateMutability": "nonpayable",
      "type": "function"
    },
    {
      "inputs": [
        {
          "internalType": "bytes32",
          "name": "role",
          "type": "bytes32"
        },
        {
          "internalType": "address",
          "name": "account",
          "type": "address"
        }
      ],
      "name": "revokeRole",
      "outputs": [],
      "stateMutability": "nonpayable",
      "type": "function"
    },
    {
      "inputs": [
        {
          "internalType": "address",
          "name": "tokenAddress",
          "type": "address"
        }
      ],
      "name": "setTokenAddress",
      "outputs": [],
      "stateMutability": "nonpayable",
      "type": "function"
    },
    {
      "inputs": [
        {
          "internalType": "bytes4",
          "name": "interfaceId",
          "type": "bytes4"
        }
      ],
      "name": "supportsInterface",
      "outputs": [
        {
          "internalType": "bool",
          "name": "",
          "type": "bool"
        }
      ],
      "stateMutability": "view",
      "type": "function"
    },
    {
      "inputs": [],
      "name": "version",
      "outputs": [
        {
          "internalType": "string",
          "name": "",
          "type": "string"
        }
      ],
      "stateMutability": "view",
      "type": "function"
    },
    {
      "stateMutability": "payable",
      "type": "receive"
    }
  ],
  "transactionHash": "0x1e23fe32012f113a8eefa958cbeea071528856f89dd44c00e9f11c65fb57fa14",
  "args": [],
  "solcInputHash": "86b378fb72aeda56f0f2efabc9d6ddc2",
  "bytecode": "0x608060405234801561001057600080fd5b50611047806100206000396000f3fe6080604052600436106100a65760003560e01c806301ffc9a7146100e757806306fdde031461011c5780632238eee51461016b578063248a9ca31461018d57806326a4e8d2146101bb5780632f2ff15d146101db57806336568abe146101fb57806354fd4d501461021b57806391d148541461024a578063a217fddf1461026a578063c4d66de81461027f578063ccc574901461029f578063d547741f146102c1576100e2565b366100e25760405134815233907fa419615bc8fda4c87663805ee2a3597a6d71c1d476911d9892f340d965bc7bf19060200160405180910390a2005b600080fd5b3480156100f357600080fd5b50610107610102366004610d98565b6102e1565b60405190151581526020015b60405180910390f35b34801561012857600080fd5b5061015e60405180604001604052806016815260200175466c6169722e46696e616e636520547265617375727960501b81525081565b6040516101139190610e50565b34801561017757600080fd5b5061018b610186366004610dc0565b610318565b005b34801561019957600080fd5b506101ad6101a8366004610d51565b6106d1565b604051908152602001610113565b3480156101c757600080fd5b5061018b6101d6366004610c5a565b6106e6565b3480156101e757600080fd5b5061018b6101f6366004610d69565b61073c565b34801561020757600080fd5b5061018b610216366004610d69565b61075f565b34801561022757600080fd5b5061015e60405180604001604052806003815260200162302e3160e81b81525081565b34801561025657600080fd5b50610107610265366004610d69565b6107dd565b34801561027657600080fd5b506101ad600081565b34801561028b57600080fd5b5061018b61029a366004610c5a565b610808565b3480156102ab57600080fd5b506101ad600080516020610ff283398151915281565b3480156102cd57600080fd5b5061018b6102dc366004610d69565b6108fa565b60006001600160e01b03198216637965db0b60e01b148061031257506301ffc9a760e01b6001600160e01b03198316145b92915050565b610330600080516020610ff283398151915233610265565b6103555760405162461bcd60e51b815260040161034c90610e83565b60405180910390fd5b4782101561039f5760405162461bcd60e51b8152602060048201526017602482015276544f4b454e2f4e4f545f454e4f5547485f544f4b454e5360481b604482015260640161034c565b6097546001600160a01b03166103f55760405162461bcd60e51b815260206004820152601b60248201527a544f4b454e2f494e56414c49445f544f4b454e5f4144445245535360281b604482015260640161034c565b6040805160028082526060820183526000926020830190803683375050609854604080516315ab88c960e31b815290519394506001600160a01b039091169263ad5c464892506004808301926020929190829003018186803b15801561045a57600080fd5b505afa15801561046e573d6000803e3d6000fd5b505050506040513d601f19601f820116820180604052508101906104929190610c76565b816000815181106104b357634e487b7160e01b600052603260045260246000fd5b6001600160a01b0392831660209182029290920101526097548251911690829060019081106104f257634e487b7160e01b600052603260045260246000fd5b6001600160a01b03928316602091820292909201015260985460009116637ff36ab58585853061052342601e610f18565b6040518663ffffffff1660e01b81526004016105429493929190610eaf565b6000604051808303818588803b15801561055b57600080fd5b505af115801561056f573d6000803e3d6000fd5b50505050506040513d6000823e601f3d908101601f191682016040526105989190810190610c92565b9050600081600183516105ab9190610f4f565b815181106105c957634e487b7160e01b600052603260045260246000fd5b602002602001015190507fa52290e9bbeea08e85a4902c066be363bfea47a8be21bba8d1e325b67df795c66105fb3390565b604080516001600160a01b03909216825260208201889052810183905260600160405180910390a1609754604051630852cd8d60e31b8152600481018390526001600160a01b03909116906342966c6890602401600060405180830381600087803b15801561066957600080fd5b505af115801561067d573d6000803e3d6000fd5b505050507f919f7e2092ffcc9d09f599be18d8152860b0c054df788a33bc549cdd9d0f15b16106a93390565b604080516001600160a01b039092168252602082018490520160405180910390a15050505050565b60009081526065602052604090206001015490565b6106fe600080516020610ff283398151915233610265565b61071a5760405162461bcd60e51b815260040161034c90610e83565b609780546001600160a01b0319166001600160a01b0392909216919091179055565b610745826106d1565b61075081335b610917565b61075a838361097b565b505050565b6001600160a01b03811633146107cf5760405162461bcd60e51b815260206004820152602f60248201527f416363657373436f6e74726f6c3a2063616e206f6e6c792072656e6f756e636560448201526e103937b632b9903337b91039b2b63360891b606482015260840161034c565b6107d98282610a01565b5050565b60009182526065602090815260408084206001600160a01b0393909316845291905290205460ff1690565b600054610100900460ff1680610821575060005460ff16155b6108845760405162461bcd60e51b815260206004820152602e60248201527f496e697469616c697a61626c653a20636f6e747261637420697320616c72656160448201526d191e481a5b9a5d1a585b1a5e995960921b606482015260840161034c565b600054610100900460ff161580156108a6576000805461ffff19166101011790555b6108b26000335b610a68565b6108ca600080516020610ff2833981519152336108ad565b609880546001600160a01b0319166001600160a01b03841617905580156107d9576000805461ff00191690555050565b610903826106d1565b61090d813361074b565b61075a8383610a01565b61092182826107dd565b6107d957610939816001600160a01b03166014610a72565b610944836020610a72565b604051602001610955929190610de1565b60408051601f198184030181529082905262461bcd60e51b825261034c91600401610e50565b61098582826107dd565b6107d95760008281526065602090815260408083206001600160a01b03851684529091529020805460ff191660011790556109bd3390565b6001600160a01b0316816001600160a01b0316837f2f8788117e7eff1d82e926ec794901d17c78024a50270940304540a733656f0d60405160405180910390a45050565b610a0b82826107dd565b156107d95760008281526065602090815260408083206001600160a01b0385168085529252808320805460ff1916905551339285917ff6391f5c32d9c69d2a47ea670b442974b53935d1edc7fd64eb21e047a839171b9190a45050565b6107d9828261097b565b60606000610a81836002610f30565b610a8c906002610f18565b6001600160401b03811115610ab157634e487b7160e01b600052604160045260246000fd5b6040519080825280601f01601f191660200182016040528015610adb576020820181803683370190505b509050600360fc1b81600081518110610b0457634e487b7160e01b600052603260045260246000fd5b60200101906001600160f81b031916908160001a905350600f60fb1b81600181518110610b4157634e487b7160e01b600052603260045260246000fd5b60200101906001600160f81b031916908160001a9053506000610b65846002610f30565b610b70906001610f18565b90505b6001811115610c04576f181899199a1a9b1b9c1cb0b131b232b360811b85600f1660108110610bb257634e487b7160e01b600052603260045260246000fd5b1a60f81b828281518110610bd657634e487b7160e01b600052603260045260246000fd5b60200101906001600160f81b031916908160001a90535060049490941c93610bfd81610f96565b9050610b73565b508315610c535760405162461bcd60e51b815260206004820181905260248201527f537472696e67733a20686578206c656e67746820696e73756666696369656e74604482015260640161034c565b9392505050565b600060208284031215610c6b578081fd5b8135610c5381610fd9565b600060208284031215610c87578081fd5b8151610c5381610fd9565b60006020808385031215610ca4578182fd5b82516001600160401b0380821115610cba578384fd5b818501915085601f830112610ccd578384fd5b815181811115610cdf57610cdf610fc3565b8060051b604051601f19603f83011681018181108582111715610d0457610d04610fc3565b604052828152858101935084860182860187018a1015610d22578788fd5b8795505b83861015610d44578051855260019590950194938601938601610d26565b5098975050505050505050565b600060208284031215610d62578081fd5b5035919050565b60008060408385031215610d7b578081fd5b823591506020830135610d8d81610fd9565b809150509250929050565b600060208284031215610da9578081fd5b81356001600160e01b031981168114610c53578182fd5b60008060408385031215610dd2578182fd5b50508035926020909101359150565b600076020b1b1b2b9b9a1b7b73a3937b61d1030b1b1b7bab73a1604d1b82528351610e13816017850160208801610f66565b7001034b99036b4b9b9b4b733903937b6329607d1b6017918401918201528351610e44816028840160208801610f66565b01602801949350505050565b6000602082528251806020840152610e6f816040850160208701610f66565b601f01601f19169190910160400192915050565b6020808252601290820152712a27a5a2a717a727aa2fa3a7ab22a92727a960711b604082015260600190565b600060808201868352602060808185015281875180845260a0860191508289019350845b81811015610ef85784516001600160a01b031683529383019391830191600101610ed3565b50506001600160a01b039690961660408501525050506060015292915050565b60008219821115610f2b57610f2b610fad565b500190565b6000816000190483118215151615610f4a57610f4a610fad565b500290565b600082821015610f6157610f61610fad565b500390565b60005b83811015610f81578181015183820152602001610f69565b83811115610f90576000848401525b50505050565b600081610fa557610fa5610fad565b506000190190565b634e487b7160e01b600052601160045260246000fd5b634e487b7160e01b600052604160045260246000fd5b6001600160a01b0381168114610fee57600080fd5b5056fe7935bd0ae54bc31f548c14dba4d37c5c64b3f8ca900cb468fb8abd54d5894f55a26469706673582212202abd65e109f49eb3a40cf184f3b053729df2d24b119de8c965057bd64c2a8e6a64736f6c63430008030033",
  "devdoc": {
    "kind": "dev",
    "methods": {
      "getRoleAdmin(bytes32)": {
        "details": "Returns the admin role that controls `role`. See {grantRole} and {revokeRole}. To change a role's admin, use {_setRoleAdmin}."
      },
      "grantRole(bytes32,address)": {
        "details": "Grants `role` to `account`. If `account` had not been already granted `role`, emits a {RoleGranted} event. Requirements: - the caller must have ``role``'s admin role."
      },
      "hasRole(bytes32,address)": {
        "details": "Returns `true` if `account` has been granted `role`."
      },
      "renounceRole(bytes32,address)": {
        "details": "Revokes `role` from the calling account. Roles are often managed via {grantRole} and {revokeRole}: this function's purpose is to provide a mechanism for accounts to lose their privileges if they are compromised (such as when a trusted device is misplaced). If the calling account had been granted `role`, emits a {RoleRevoked} event. Requirements: - the caller must be `account`."
      },
      "revokeRole(bytes32,address)": {
        "details": "Revokes `role` from `account`. If `account` had been granted `role`, emits a {RoleRevoked} event. Requirements: - the caller must have ``role``'s admin role."
      },
      "supportsInterface(bytes4)": {
        "details": "See {IERC165-supportsInterface}."
      }
    },
    "version": 1
  },
  "userdoc": {
    "kind": "user",
    "methods": {},
    "version": 1
  },
  "storageLayout": {
    "storage": [
      {
        "astId": 401,
        "contract": "contracts/Treasury.sol:Treasury",
        "label": "_initialized",
        "offset": 0,
        "slot": "0",
        "type": "t_bool"
      },
      {
        "astId": 404,
        "contract": "contracts/Treasury.sol:Treasury",
        "label": "_initializing",
        "offset": 1,
        "slot": "0",
        "type": "t_bool"
      },
      {
        "astId": 2397,
        "contract": "contracts/Treasury.sol:Treasury",
        "label": "__gap",
        "offset": 0,
        "slot": "1",
        "type": "t_array(t_uint256)50_storage"
      },
      {
        "astId": 3052,
        "contract": "contracts/Treasury.sol:Treasury",
        "label": "__gap",
        "offset": 0,
        "slot": "51",
        "type": "t_array(t_uint256)50_storage"
      },
      {
        "astId": 86,
        "contract": "contracts/Treasury.sol:Treasury",
        "label": "_roles",
        "offset": 0,
        "slot": "101",
        "type": "t_mapping(t_bytes32,t_struct(RoleData)81_storage)"
      },
      {
        "astId": 394,
        "contract": "contracts/Treasury.sol:Treasury",
        "label": "__gap",
        "offset": 0,
        "slot": "102",
        "type": "t_array(t_uint256)49_storage"
      },
      {
        "astId": 12488,
        "contract": "contracts/Treasury.sol:Treasury",
        "label": "_tokenAddress",
        "offset": 0,
        "slot": "151",
        "type": "t_contract(Token)12449"
      },
      {
        "astId": 12491,
        "contract": "contracts/Treasury.sol:Treasury",
        "label": "_uniswapRouter",
        "offset": 0,
        "slot": "152",
        "type": "t_contract(IUniswapV2Router02)7683"
      }
    ],
    "types": {
      "t_address": {
        "encoding": "inplace",
        "label": "address",
        "numberOfBytes": "20"
      },
      "t_array(t_uint256)49_storage": {
        "base": "t_uint256",
        "encoding": "inplace",
        "label": "uint256[49]",
        "numberOfBytes": "1568"
      },
      "t_array(t_uint256)50_storage": {
        "base": "t_uint256",
        "encoding": "inplace",
        "label": "uint256[50]",
        "numberOfBytes": "1600"
      },
      "t_bool": {
        "encoding": "inplace",
        "label": "bool",
        "numberOfBytes": "1"
      },
      "t_bytes32": {
        "encoding": "inplace",
        "label": "bytes32",
        "numberOfBytes": "32"
      },
      "t_contract(IUniswapV2Router02)7683": {
        "encoding": "inplace",
        "label": "contract IUniswapV2Router02",
        "numberOfBytes": "20"
      },
      "t_contract(Token)12449": {
        "encoding": "inplace",
        "label": "contract Token",
        "numberOfBytes": "20"
      },
      "t_mapping(t_address,t_bool)": {
        "encoding": "mapping",
        "key": "t_address",
        "label": "mapping(address => bool)",
        "numberOfBytes": "32",
        "value": "t_bool"
      },
      "t_mapping(t_bytes32,t_struct(RoleData)81_storage)": {
        "encoding": "mapping",
        "key": "t_bytes32",
        "label": "mapping(bytes32 => struct AccessControlUpgradeable.RoleData)",
        "numberOfBytes": "32",
        "value": "t_struct(RoleData)81_storage"
      },
      "t_struct(RoleData)81_storage": {
        "encoding": "inplace",
        "label": "struct AccessControlUpgradeable.RoleData",
        "members": [
          {
            "astId": 78,
            "contract": "contracts/Treasury.sol:Treasury",
            "label": "members",
            "offset": 0,
            "slot": "0",
            "type": "t_mapping(t_address,t_bool)"
          },
          {
            "astId": 80,
            "contract": "contracts/Treasury.sol:Treasury",
            "label": "adminRole",
            "offset": 0,
            "slot": "1",
            "type": "t_bytes32"
          }
        ],
        "numberOfBytes": "64"
      },
      "t_uint256": {
        "encoding": "inplace",
        "label": "uint256",
        "numberOfBytes": "32"
      }
    }
  }
}